:020000040800F2
:10000000703A01204D0200082F170008210D00084A
:100010002B170008DF0900084D3A00080000000017
:100020000000000000000000000000009D0100082A
:10003000E309000800000000E1010008191C0008A5
:10004000670200086702000867020008191A000822
:1000500067020008670200086702000867020008DC
:1000600067020008670200086702000867020008CC
:1000700067020008670200086702000867020008BC
:1000800067020008670200086702000867020008AC
:10009000670200086702000867020008670200089C
:1000A000670200086702000867020008670200088C
:1000B000A11C000867020008670200086702000828
:1000C000670200086702000867020008670200086C
:1000D00067020008D5370008F93700081D38000806
:1000E000670200087D19000867020008670200081F
:1000F000670200086702000867020008670200083C
:10010000670200086702000867020008670200082B
:100110008D370008B1370008670200086702000841
:10012000670200086702000867020008670200080B
:1001300067020008670200086702000867020008FB
:1001400067020008670200086702000867020008EB
:1001500067020008670200086702000841380008CB
:1001600067020008670200086702000867020008CB
:1001700067020008670200086702000867020008BB
:100180006702000867020008DFF80CD000F0EAFB05
:1001900000480047714B0008703A0120234B196852
:1001A0000868B0E8F04F80F309884FF0000080F352
:1001B000118870470000000003480068006880F361
:1001C000088862B600DF00BF08ED00E0DFF80C0031
:1001D000016841F470010160704700BF88ED00E0E4
:1001E000EFF30980114B1A681EF0100F08BF20EDC5
:1001F000108A20E9F04F106008B54FF0500080F3EE
:10020000118806F0A9F84FF0000080F31188BDE8CE
:10021000084019680868B0E8F04F1EF0100F08BFDA
:10022000B0EC108A80F30988704700BFA00300205B
:10023000EFF311804FF0500181F31188704780F384
:1002400011887047EFF3058070470000064880472B
:1002500006480047FEE7FEE7FEE7FEE7FEE7FEE7AB
:10026000FEE7FEE7FEE7FEE7391C0008890100080B
:1002700040EA01039B0703D009E008C9121F08C028
:10028000042AFAD203E011F8013B00F8013B521EA8
:10029000F9D27047D2B201E000F8012B491EFBD21F
:1002A00070470022F6E710B513460A460446194681
:1002B000FFF7F0FF204610BD421E12F8013F002B51
:1002C000FBD111F8013B02F8013B002BF9D170473B
:1002D000421C10F8011B0029FBD1801A70472DE940
:1002E000FE4F804681EA0300C00F0C46009021F0CB
:1002F000004123F00045B8EB0200A94105D2404679
:10030000214690461C460B46024623F0004010430F
:1003100047D0270DC7F30A00C3F30A510290401AD1
:10032000019040286BDAC3F3130040F4801B00985F
:10033000924620B10023D2EB030A63EB0B0B01982A
:100340005946C0F14002504600F02FFA06460D46CD
:1003500050465946019A00F047FA10EB08006141F7
:10036000002487EA115284EAE7731A4340D0009AC6
:1003700062B3019A012A4FEA075215DC001B61EBB8
:1003800002014FF0004202EA0752CDE90042001C90
:1003900041F5801132462B4600F07EFA03B0BDE8ED
:1003A000F08F40462146F9E7001B61EB0201001C7B
:1003B00041F5801300185B412018A2F5001747EBA8
:1003C000030140EAD570B6196D4111E06D084FEA9E
:1003D000360645EAC0754FEA0752001B61EB020181
:1003E000001C41F5801149084FEA300000195141C5
:1003F00032462B4603B0BDE8F04F00F03EBA0098FD
:10040000012240000023D0EB020263EBE07300986E
:1004100021464FEAE074B8EB000061EB0401E9E724
:1004200083F000435BE781F0004158E72DE9FE4F80
:1004300081EA030404F0004421F0004100944FF0ED
:10044000000B23F0004350EA01045ED052EA03049B
:100450005BD0C3F30A54C1F30A552C44A4F2F3341D
:100460000194A0FB0254C1F3130141F48011C3F3C2
:10047000130343F4801301FB024400FB034E840A80
:10048000970A44EA815447EA8357A4FB0768029518
:100490008D0A05FB07854FEA932C04FB0C542705B6
:1004A000029D4FEA065847EA1637B5EB08056EEB92
:1004B000070C870E920E47EA811742EA8312A7FBC8
:1004C0000201B6EB0B0164EB00042B0D43EA0C3385
:1004D0005E1844EB1C50DA465146E7FB0201C5F3B7
:1004E00013044FEA0B3343EA14534FEA0432019CDE
:1004F00043EA0603A4F10C040294009CCDE900B485
:1005000000F0CAF903B0BDE8F08F00200146F9E71A
:100510002DE9F04D81EA030404F0004B21F0004581
:1005200014464FF0000A23F0004150EA050220D0A3
:1005300054EA01021DD0C5F30A570246C5F313035E
:10054000C1F31300C1F30A5640F4801543F480133D
:10055000A7EB0608101BD64608F2FD3873EB050022
:1005600002D308F1010801E092185B41B8F1000FD5
:1005700003DA00200146BDE8F08D00204FF4801121
:10058000064684460EE0171B73EB050705D3121BC6
:1005900063EB050306434CEA010C49084FEA3000BF
:1005A00092185B4150EA0107EDD152EA030012D0E4
:1005B00082EA040083EA0501084305D0101BAB4121
:1005C00006D20122002306E000224FF0004302E0A1
:1005D0006FF0010253101AEB06004CEB085110EBC0
:1005E0000A0041EB0B01BDE8F04D00F046B90EB535
:1005F000C10F80EAE0700844CA07002140F233438B
:100600008DE80E000A460B4600F046F903B000BD27
:100610000EB540F2334102910021CDE900110A46A6
:100620000B4600F039F903B000BDC1F30A5210B512
:10063000C1F3130140F2FF3341F480119A4201DA11
:10064000002010BD40F233439A42A2F2334203DC51
:10065000524200F0B9F810BD904010BD00F00042C9
:1006600030F000400AD0C10D01F56071C0F31600F2
:1006700042EA0151C2084007114370470020014679
:100680007047000030B5041E71F1000404DB4FF028
:100690000044404264EB0101141E73F1000405DBC9
:1006A0001C464FF00043524263EB04038B4208BFE9
:1006B000824230BD30B5041E71F1000404DB4FF0FE
:1006C0000044404264EB0101141E73F1000405DB99
:1006D0001C464FF00043524263EB0403994208BFAB
:1006E000904230BD01F0004330B421F0004150EAA7
:1006F000010206D00A0DA2F56072C1F31301002AAF
:1007000002DC30BC00207047440F44EAC104C10041
:10071000E01830BC00EBC25000F078B830B50B46A2
:10072000014600202022012409E021FA02F59D4221
:1007300005D303FA02F5491B04FA02F52844151EF5
:10074000A2F10102F1DC30BD2DE9F05F0546002089
:1007500092469B4688460646814640241BE0284632
:1007600041464746224600F02FF853465A46C01AE3
:10077000914110D311461846224600F016F82D1A62
:1007800067EB01084F4622460120002100F00DF8DA
:1007900017EB00094E41201EA4F10104DFDC48469E
:1007A00031462A464346BDE8F09F202A04DB203A22
:1007B00000FA02F1002070479140C2F1200320FAB4
:1007C00003F3194390407047202A04DB203A21FAB2
:1007D00002F00021704721FA02F3D040C2F120025A
:1007E0009140084319467047202A06DBCB17203A70
:1007F00041FA02F043EAE07306E041FA02F3D04026
:10080000C2F1200291400843194670470029A8BF51
:100810007047401C490008BF20F00100704710B429
:10082000B0FA80FC00FA0CF050EA010404BF10BCDE
:10083000704749B1CCF1200421FA04F411FA0CF10B
:1008400018BF012121430843A3EB0C01CB1D4FEA44
:1008500000614FEA102042BF002010BC704700EB3F
:10086000C35010440029A4BF10BC7047401C49006D
:1008700008BF20F0010010BC704710B5141E73F1C2
:10088000000408DA401C41F1000192185B411A4350
:1008900001D120F0010010BD2DE9F04D92469B469C
:1008A00011B1B1FA81F202E0B0FA80F22032904642
:1008B000FFF77BFF04460F4640EA0A0041EA0B01BE
:1008C00053465A46084313D0114653EA010019D043
:1008D000C8F140025046FFF777FF05460E465046E6
:1008E00059464246FFF761FF084305D0012004E066
:1008F00020463946BDE8F08D0020054346EAE07603
:100900002C4337430A986305E40AA0EB0800002251
:10091000FD0A44EA47540A3002D500200146E9E7BF
:10092000010510196941DDE9084500196941BDE873
:10093000F04DA2E7C1F30A52C1F3130140F2FF33B5
:1009400041F480119A4202DA00200146704740F2D9
:1009500033439A42A2F2334202DC5242FFF734BFE1
:10096000FFF723BF064C074D06E0E06840F00103A7
:1009700094E8070098471034AC42F6D3FFF708FC20
:10098000A0960008C096000870B58C1810F8015B9E
:1009900015F0070301D110F8013B2A1106D110F818
:1009A000012B03E010F8016B01F8016B5B1EF9D11C
:1009B0002B0705D40023521E0DD401F8013BFAE7A2
:1009C00010F8013BCB1A921C03E013F8015B01F80D
:1009D000015B521EF9D5A142D8D3002070BD00BFE3
:1009E000FEE7704708B54FF08041496A009100BFAB
:1009F00000BF4FF08041496A009A891AF9D04FF040
:100A00008041496A0091411E0800F1D108BD0000F3
:100A100008B50D490968009100BFEFF3058139B9A8
:100A200000BF09490968009A891A8142F9D309E08F
:100A300006E04FF0E021096901F4803101B1401E68
:100A40000028F6D108BD00001002002051B182003C
:100A5000A2F1C042126842F001038200A2F1C0423A
:100A6000136009E08200A2F1C0421268034B1A40F1
:100A70008300A3F1C0431A6070470000FEFF0F001F
:100A800030B50021002200230468A400A4F1C04472
:100A90002168444C2140D0E901452C43C5682C43D2
:100AA00005692C4345692C4385692C43C5692C4352
:100AB000056A2C43456A2C43856A2C43C56A2C433E
:100AC000056B2C4321430468A400A4F1C0442160B9
:100AD0008468082C0BD10468A400A4F1C0442468E5
:100AE00044F040050468A400A4F1C04425600468F3
:100AF000641CA400A4F1C044226802F04042446B8C
:100B00002468456B6D6844EA0514456BAD6844EA9A
:100B10000524456BAD8944EA0544456B2D8A44EABA
:100B20000554456B2D7D44EA0564456BAD692C4346
:100B300022430468641CA400A4F1C0442260C46A77
:100B4000B4F5804F24D10468A400A4F1C044D4F8C3
:100B5000043103F04043846B2468856B6D6844EA7C
:100B60000514856BAD6844EA0524856B2D8A44EA3B
:100B70000554856B2D7D44EA0564856BAD692C4376
:100B800023430468A400A4F1C044C4F8043107E07E
:100B90006FF070450468A400A4F1C044C4F8045187
:100BA00030BD00008000F7FFF0B50A4600210023A9
:100BB000002400BF3DE0012505FA01F3156805EAB0
:100BC00003049C4234D105684F000326BE40B54360
:100BD000056015794E00B540066835430560157906
:100BE000012D02D01579022D16D185684F000326FC
:100BF000BE40B543856055794E00B54086683543A3
:100C00008560456801268E40B54345604568967904
:100C10008E40B6B235434560C5684F000326BE40DE
:100C2000B543C560D5794E00B540C6683543C5604B
:100C3000491C1029BFD3F0BDF0B5002300244D0797
:100C4000ED0E02FA05F3CE1000F1200555F82650FE
:100C50004E07F70E0F26BE40B543CF1000F1200619
:100C600046F82750CE1000F1200555F8265045EAE9
:100C70000304CE1000F1200545F82640F0BD000029
:100C8000A1F12002034B03EBC20213680360526818
:100C900042607047DC920008A1F1200202EB4202A0
:100CA000044B03EB8202136803605368436092684D
:100CB00082607047688E000870B505460C46A4F146
:100CC000200000EB4000044A02EBC0011822284635
:100CD000FFF7CEFA70BD00008085000870B50546AC
:100CE0000C46A4F12000044A02EB00111022284611
:100CF000FFF7BEFA70BD0000907F000870B5054692
:100D00000C46A4F1200000EB4000044A02EB001165
:100D100030222846FFF7ACFA70BD0000C06D000815
:100D200000BFFEE770B50246002400250023002026
:100D3000958A138B1B0445EA030626F07F4404EAD8
:100D400001068E4201D1012000E0002070BD0000AC
:100D50002DE9FF4704460D460026B1460427DFF87B
:100D6000CC80A6884FF6C0700640684600F072FD41
:100D7000DDF808802E48B8FBF0F01FFA80F946EA4B
:100D80000906A68020884FF6FE71084020800026C4
:100D90002849286888420CD828684000B8FBF0F041
:100DA00087B2042F00DA04273E4309F101002084B2
:100DB00027E0E8884BF6FF71884206D1286800EBEF
:100DC0004000B8FBF0F087B209E0286800EBC001F2
:100DD00001EB0010B8FBF0F087B247F48047C7F38F
:100DE0000B0008B947F0010747F4004006434FF4F1
:100DF000967009FB00F04FF47A7190FBF1F0401C03
:100E00002084A683208840F00100208026884FF6A9
:100E1000F5300640A8886989084306432680A889DA
:100E2000298908432081BDE8FF87000000127A006D
:100E300040420F00A086010001B5BDF80000014945
:100E4000088008BDEC01002030B5044600250021D3
:100E5000084600F079FB00F0C9FB00BF02E0034840
:100E600004806D1CB5F5963FF9D330BD00000260DB
:100E70001CB50121582000F0ADFC0121084600F00E
:100E8000B9FC0C2200214348FFF7D6FE0C220121B9
:100E90004048FFF7D1FE0C2204213E48FFF7CCFE6C
:100EA0000C2205213B48FFF7C7FE0C2207213948D9
:100EB000FFF7C2FE0C2208213648FFF7BDFE0C22C8
:100EC00009213448FFF7B8FE0C220A213148FFF708
:100ED000B3FE0C220B212F48FFF7AEFE0C220E2191
:100EE0002C48FFF7A9FE0C220F212A48FFF7A4FE89
:100EF0000C2207212848FFF79FFE0C2208212648D4
:100F0000FFF79AFE0C2209212348FFF795FE0C22D9
:100F10000A212148FFF790FE0C220B211E48FFF703
:100F20008BFE0C2211461C48FFF786FE0C220D2179
:100F30001948FFF781FE0C220E211748FFF77CFEAF
:100F40000C220F211448FFF777FE4CF6B370009087
:100F500002208DF8040003208DF8050000208DF894
:100F600006008DF8070069460A48FFF71DFE4FF698
:100F70008070009002208DF8040003208DF8050099
:100F800000208DF806008DF8070069460248FFF73B
:100F90000BFE1CBD000C02400010024000B597B0D3
:100FA0000020019002900220039000200490012074
:100FB0000590002006900790089009900A90102054
:100FC0000B9000200C900E900F9010904FF48050DA
:100FD0001190002012900D9013904FF40020149067
:100FE00001A8159008A8FFF74BFD00200190029082
:100FF000042003900020049001200590002006901A
:10100000079001A8169008A8FFF73AFD01210020DB
:10101000FFF71CFD17B000BD10B5FFF729FF40F624
:10102000B830FFF7DFFCFFF7B9FF40F6B830FFF745
:10103000D9FC2121072000F0E5FA3220FFF7D2FC8D
:101040000121002000F0DEFA3220FFF7CBFC232143
:10105000072000F0D7FA3220FFF7C4FC002110204F
:1010600000F0D0FA5A20FFF7BDFC3321072000F032
:10107000C9FA3220FFF7B6FC46F63001112000F025
:10108000C1FA3220FFF7AEFC4FF4C061022000F03D
:10109000B9FA3220FFF7A6FC46F6EB41122000F029
:1010A000B1FA3220FFF79EFC4AF6A401032000F0BB
:1010B000A9FA3220FFF796FC00210C2000F0A2FADA
:1010C0003220FFF78FFC40F60C010D2000F09AFA59
:1010D0003220FFF787FC4FF42C510E2000F092FADB
:1010E0003220FFF77FFCB0211E2000F08BFA322067
:1010F000FFF778FC42F63F31012000F083FA3220FE
:10110000FFF770FC0021052000F07CFA3220FFF789
:1011100069FC0021062000F075FA3220FFF762FC1E
:101120004EF61C71162000F06DFA3220FFF75AFCC3
:1011300040F20311172000F065FA3220FFF752FC4D
:1011400000210B2000F05EFA3220FFF74BFC00215B
:101150000F2000F057FA3220FFF744FC0021412015
:1011600000F050FA3220FFF73DFC0021422000F051
:1011700049FA3220FFF736FC0021482000F042FAFD
:101180003220FFF72FFC40F23F11492000F03AFADD
:101190003220FFF727FC00214A2000F033FA3220EA
:1011A000FFF720FC00214B2000F02CFA3220FFF743
:1011B00019FC4FF46F41442000F024FA3220FFF76D
:1011C00011FC0021452000F01DFA3220FFF70AFC37
:1011D00040F23F11462000F015FA3220FFF702FCE2
:1011E00040F20771302000F00DFA3220FFF7FAFBD1
:1011F0004FF40171312000F005FA3220FFF7F2FBC5
:101200004FF40171322000F0FDF93220FFF7EAFBC4
:1012100040F20251332000F0F5F93220FFF7E2FBF3
:1012200040F20751342000F0EDF93220FFF7DAFBED
:101230004FF40171352000F0E5F93220FFF7D2FBC1
:101240004FF40171362000F0DDF93220FFF7CAFBC0
:1012500040F20251372000F0D5F93220FFF7C2FBEF
:1012600040F202313A2000F0CDF93220FFF7BAFB0C
:1012700041F2BE212F2000F0C5F93220FFF7B2FB6A
:1012800040F202313B2000F0BDF93220FFF7AAFB0B
:101290000021232000F0B6F93220FFF7A3FB002144
:1012A000242000F0AFF93220FFF79CFB4FF40041FF
:1012B000252000F0A7F93220FFF794FB00214F20F2
:1012C00000F0A0F93220FFF78DFB00214E2000F046
:1012D00099F93220FFF786FB10BD00002DE9F0439D
:1012E0008DB007460E46904600240025B8F10A0F3F
:1012F0007ED092480088082833D14FF00009B8F119
:101300000A0F02D1A6F1080006B241460BA8FFF76A
:10131000B7FC002422E00BA810F80490002519E087
:1013200049FA05F000F0010048B1721911B23A19FA
:1013300010B2834A128812B200F036FA08E072192D
:1013400011B23A1910B27F4A128812B200F02CFA88
:10135000681CC5B2082DE3DB601CC4B2082CDADBC4
:1013600000BF764800880C2833D14FF00009B8F14F
:101370000A0F02D1A6F10C0006B241460AA8FFF7F7
:101380008BFC002422E00AA810F80490002519E044
:1013900049FA05F000F0010048B1721911B23A198A
:1013A00010B2674A128812B200F0FEF908E0721912
:1013B00011B23A1910B2634A128812B200F0F4F96D
:1013C000681CC5B2082DE3DB601CC4B20C2CDADB50
:1013D00000BF5A480088102835D14FF00009B8F1F5
:1013E0000A0F02D1A6F1100006B2414609A800E09A
:1013F000A1E0FFF773FC002422E009A810F8049094
:10140000002519E049FA05F000F0010048B1721911
:1014100011B23A1910B24A4A128812B200F0C4F955
:1014200008E0721911B23A1910B2464A128812B283
:1014300000F0BAF9681CC5B2082DE3DB601CC4B229
:10144000102CDADB00BF3D4800880E2837D14FF062
:101450000009B8F10A0F02D1A6F10C0006B241460C
:1014600007A8FFF729FC002426E007A830F814009D
:101470001FFA80F900251BE0C5F10C0049FA00F0C5
:1014800000F0010048B1721911B23A1910B22C4A99
:10149000128812B200F088F908E0721911B23A19F4
:1014A00010B2284A128812B200F07EF9681CC5B248
:1014B0000C2DE1DB601CC4B20C2CD6DB00BF1F4836
:1014C0000088182837D14FF00009B8F10A0F02D16F
:1014D000A6F1180006B2414601A8FFF70FFC002450
:1014E00026E001A830F814001FFA80F900251BE05F
:1014F000C5F1100049FA00F000F0010048B172197E
:1015000011B23A1910B20E4A128812B200F04CF918
:1015100008E0721911B23A1910B20A4A128812B2CE
:1015200000F042F9681CC5B2102DE1DB601CC4B2AA
:10153000182CD6DB00BF0DB0BDE8F083EC01002015
:10154000E8010020EA01002010B503460C461946C8
:101550004E2000F057F821464F2000F053F810BD00
:1015600001B5BDF800000149088008BDE801002070
:101570002DE9F04105460C46164600BF16F8017BE2
:101580003A4621B228B2FFF7A9FE174800888442E4
:1015900018DD154800880838201A84B212480088DF
:1015A000182805D1104800881238201A84B216E095
:1015B0000D4800880C2812D10B4800880838201AE2
:1015C00084B20CE008480088854205DD0024064806
:1015D0000088281A85B202E0E0254FF4987430782C
:1015E0000028CBD1BDE8F081EC01002022204FF093
:1015F000C041088070470000014908807047000022
:10160000000002604FF0C0421080014A1180704714
:1016100000000260F0EE402AF4EEC21AF1EE10FA79
:1016200002D2B0EE610A01E0B0EE420AB4EEC10AA5
:10163000F1EE10FA02DDB0EE410A09E0F4EEC21A52
:10164000F1EE10FA02D2B0EE610A01E0B0EE420A09
:10165000B4EEE00AF1EE10FA02DDB0EE600A1BE033
:10166000F4EEC21AF1EE10FA02D2B0EE610A01E015
:10167000B0EE420AB4EEC10AF1EE10FA02DDB0EEAD
:10168000410A09E0F4EEC21AF1EE10FA02D2B0EE0D
:10169000610A01E0B0EE420AB4EEE20AF1EE10FA9D
:1016A00002DDB0EE620A7047F4EEC21AF1EE10FAF3
:1016B00002D2B0EE610A01E0B0EE420AB4EEC10A15
:1016C000F1EE10FA02DDB0EE410A09E0F4EEC21AC2
:1016D000F1EE10FA02D2B0EE610A01E0B0EE420A79
:1016E000B4EEE00AF1EE10FA02DDB0EE600ADAE7DD
:1016F000F4EEC21AF1EE10FA02D2B0EE610A01E085
:10170000B0EE420AB4EEC10AF1EE10FA02DDB0EE1C
:10171000410AC8E7F4EEC21AF1EE10FA02D2B0EEB6
:10172000610AC0E7B0EE420ABDE700BFFEE77047BE
:1017300070B5002100230F22C4781CB3174C246815
:1017400004F4E064C4F5E064C4F30721C1F10404C7
:10175000E3B20A4144789C40E1B2847814402143CA
:101760000C07210E0E4C05786155047804F01F0516
:101770000124AC4005786D11AD0005F1E025C5F8F8
:10178000004109E0047804F01F050124AC40054D38
:101790000678761145F8264070BD00000CED00E09B
:1017A00000E400E080E100E070B504460D46164616
:1017B000EF2C02DCB5F5A07F00DB70BDA9B2A0B2B2
:1017C000FFF7C2FEFFF712FFB0B2FFF715FF00BF31
:1017D000F3E7000029B1064A12680243044B1A607D
:1017E00004E0034A12688243014B1A60704700000C
:1017F0003038024029B1064A12680243044B1A608D
:1018000004E0034A12688243014B1A6070470000EB
:101810003838024029B1064A12680243044B1A6064
:1018200004E0034A12688243014B1A6070470000CB
:101830002038024029B1064A12680243044B1A605C
:1018400004E0034A12688243014B1A6070470000AB
:1018500024380240F0B50021002200240225002691
:101860000223324F3F6807F00C0121B1042905D053
:10187000082937D105E02E4F076036E02D4F07606D
:1018800033E02A4F3F1F3F68C7F38056274F3F1F63
:101890003F6807F03F036EB1264FB7FBF3F7DFF861
:1018A0008CC0ACF1040CDCF800C0CCF3881C07FB46
:1018B0000CF40CE01E4FB7FBF3F7DFF870C0ACF18F
:1018C000040CDCF800C0CCF3881C07FB0CF4174FA9
:1018D0003F1F3F68C7F301477F1C7D00B4FBF5F74E
:1018E000076002E0124F076000BF00BF0F4F3F6864
:1018F00007F0F0010909104F7A5C0768D74047608C
:101900000A4F3F6807F4E051890A0B4F7A5C476839
:10191000D7408760054F3F6807F46041490B064F89
:101920007A5C4768D740C760F0BD000008380240C5
:101930000024F40000127A00D801002010B50446FB
:101940000D4800F023FE0C48007800060A4949784B
:1019500040EA01400849897840EA01200649C978EF
:101960000843606004480079207003484079607043
:1019700001488079207210BD4C34012010B54FF41D
:10198000805000F029F828B14FF4805000F014F88E
:1019900001F05CF84FF4005000F01EF828B14FF44D
:1019A000005000F009F801F052F84FF400300149FE
:1019B000086010BD143C0140002101098AB242F0C8
:1019C0008002044B1B6803F0800363EA0202014BB0
:1019D0001A6070470C28004030B5014600200022F4
:1019E00000230C4C246804F004020A4C383C2468A0
:1019F0000C4002EAD13544EA0503064C343C246825
:101A000004EA11121BB194B20CB1012000E00020D5
:101A100030BD00004028004010B54FF48040FFF773
:101A2000DBFF28B14FF48040FFF7C6FF01F010F84C
:101A30004FF480000149086010BD0000143C0140D3
:101A40000FB40021002003900090049001900290B8
:101A500000BF17E0002201EB410305A800EB830063
:101A6000427001EB410305A800F8232001EB41037C
:101A700000EB8300426001EB410305A800EB83000B
:101A80000272491C0529E5DB9FED0E0A8DED170A50
:101A90009FED0C0A8DED140A9FED0A0A8DED160AD2
:101AA0009FED080A8DED150A9FED070B8DED180BC4
:101AB0009FED040A8DED1B0A05A01A90012004B0C9
:101AC000704700000000000000000000000000005F
:101AD0004E554C4C0000000010B50022028802F464
:101AE00041520B884C8823438C882343CC88234362
:101AF0000C8923434C8923438C892343CC8923437A
:101B00001A430280838B4FF2FF74234083830B8A36
:101B1000038210BD0021018041808180C18001814C
:101B200041818181C1810721018270470CB500206C
:101B3000019000903448006840F4803032490860D9
:101B400000BF3148006800F4003000900198401C4C
:101B50000190009818B90198B0F5A04FF1D12A482A
:101B6000006800F4003010B10120009001E0002076
:101B700000900098012846D123484030006840F08A
:101B800080502149403108602048006840F44040BE
:101B90001E4908601C48083000681B49083108606D
:101BA0000846006840F4004008600846006840F4B9
:101BB000A05008601648091F0860081F006840F020
:101BC0008070091F086000BF0F48006800F00070B7
:101BD0000028F9D040F205700E4908600A48083024
:101BE000006820F0030008490831086008460068D2
:101BF00040F00200086000BF03480830006800F0B1
:101C00000C000828F8D10CBD0038024000700040DC
:101C100019544007003C024010B5FEF709FB04F0E0
:101C200017FF18B14FF08050024908600020FEF7FE
:101C300006FB10BD04ED00E010B51548006840F447
:101C40007000134908601348006840F00100114912
:101C5000086000200F49083108600E4800680E49EE
:101C600008400C4908600D48091D0860081F0068FD
:101C700020F48020091F0860002006490C3108600C
:101C8000FFF754FF4FF0006001498039086010BD34
:101C900088ED00E000380240FFFFF6FE103000241F
:101CA00010B54FF6FE704FF080410882274800685B
:101CB000401C264908602648006820B12448006876
:101CC000401E23490860AFF30080002438E021481B
:101CD00050F8240090B31F4850F82400007B68B3EC
:101CE0001C4850F82400806840B31A4850F824007B
:101CF0008168491E174850F824008160154850F843
:101D000024008068D0B9134A52F824205069114A3F
:101D100052F82420116988470E4850F824000168C1
:101D20000C4850F8240081600A4850F824004068AC
:101D300020B90021074850F824000173601CC4B288
:101D40000448001F0078A042C1DC10BD1002002032
:101D5000140200207C06002000220288184B9842C2
:101D60000ED0184B98420BD0B0F1804F08D0164BD4
:101D7000984205D0154B984202D0154B984204D199
:101D80004FF68F731A404B881A43124B984207D074
:101D9000114B984204D04FF6FF431A400B891A4367
:101DA00002804B68C3620B880385054B984202D0C2
:101DB000044B984201D18B7A0386012383827047BA
:101DC0000000014000040140000400400008004001
:101DD000000C0040001000400014004000B58BB023
:101DE00001A94FF0804001F0DBF99FED240B01A821
:101DF00001F06CF94FF0804001F0B8F80020ADF828
:101E00002800ADF8220040F2E73009901D49019802
:101E10000968B1FBF0F01C4948431A490968B1FB55
:101E2000F0F0401E80B2ADF8200000208DF82A00AE
:101E300008A94FF08040FFF78FFF4FF08040808966
:101E400040F001004FF0804188811C208DF81C007B
:101E500001208DF81F0000208DF81D008DF81E0058
:101E600007A8FFF765FC4FF08040008840F00100B4
:101E70004FF0804108800BB000BD00000000000062
:101E800080842E41C401002040420F0010B5FFF7AE
:101E9000A5FF01200149087010BD00001C020020B0
:101EA0001CB5032000210B460122CDE900104FF4A0
:101EB0007041044800F0C6F84FF4704001491A31EF
:101EC00008801CBD000C024001460A1102EB820290
:101ED000500001F00F020244D0B270473EB50446F4
:101EE000072001AB0022D0210090134800F054FAE3
:101EF0009DF80400FFF7E8FF20709DF80500FFF74C
:101F0000E3FF60709DF80600FFF7DEFFA0709DF80C
:101F10000700FFF7D9FFE0709DF80800FFF7D4FF36
:101F200020719DF80900FFF7CFFF60719DF80A004E
:101F3000FFF7CAFFA0713EBD0054004010B5074A2C
:101F40000121074800F06AF9D021054800F0F1F9B5
:101F500008B9022010BD0020FCE70000A0860100A7
:101F60000054004001464FF40030081AC0F38F209F
:101F70007047000000B502461046FFF7F3FF01214D
:101F800001FA00F00249096808430149086000BDF0
:101F9000303802402DE9F04304460E461546DDE98F
:101FA00007892046FFF7DEFFC7B2002243E0012089
:101FB0009040304000B93CE0214830F81700012142
:101FC000914008431E4921F81700E0684FEA420C8F
:101FD000032101FA0CF18843510008FA01F108438A
:101FE000E06020684FEA420C032101FA0CF18843BB
:101FF000510005FA01F108432060012D01D0022DA6
:1020000016D161680120904080B221EA000003FAF5
:1020100002F189B208436060A0684FEA420C0321D4
:1020200001FA0CF18843510009FA01F10843A0605C
:1020300000BF501CC2B2102AB9DBBDE8F08300001B
:10204000600600202DE9FC4305460C4616461F4657
:10205000DDE909890CB9BDE8FC832846FFF78AFF52
:102060003B46324621462846CDE90089FFF792FFDC
:1020700000BFF0E72DE9FC4705460E461746984697
:10208000DDE90A9A0EB9BDE8FC872846FFF772FF22
:1020900000241AE00120A040304000B914E0E1081B
:1020A00005F1200050F821006107CA0E0F21914070
:1020B00088436107C90E0AFA01F10843E20805F1F5
:1020C000200141F8220000BF641C102CE2D33B46E3
:1020D000022231462846CDE90089FFF75BFF00BFA9
:1020E000D1E700001CB504464CB9042001210B4681
:1020F0000A46CDE90010C0211148FFF7BBFF012CB3
:102100000AD1042001210B460A46CDE900104FF404
:1021100040710B48FFF7AEFF022C0AD104200121C9
:102120000B460A46CDE900104FF410710448FFF742
:10213000A1FF032C03D10421024800F0F9F81CBDD3
:1021400000040240005400401CB5044654B9042069
:1021500001210B460A46CDE900104FF440611148B9
:10216000FFF788FF012C09D1042001210B460A4604
:10217000CDE9001003210C48FFF77CFF022C09D1A8
:10218000042001210B460A46CDE900103021074802
:10219000FFF770FF032C03D10421054800F0C8F8B5
:1021A0001CBD00000004024000140240001C02405C
:1021B000005800401CB504469CB9042001210B4680
:1021C0000A46CDE9001081011048FFF753FF0420B3
:1021D00001210B460A46CDE90010C1010C48FFF76A
:1021E00049FF012C0AD1042001210B460A46CDE902
:1021F00000104FF4C0710748FFF73CFF032C03D1D8
:102200000421054800F094F81CBD000000000240C5
:1022100000080240001C0240005C00407FB50446FC
:102220000E4615463D48844221D13D48006840F4A1
:1022300000103B4908603046FFF754FF39480068FA
:10224000A84201D9374805603648006800904FF42D
:102250008040ADF80C000020ADF80400ADF8080097
:10226000ADF80A004BF6FF70ADF8060048E02E48C6
:10227000844221D12A48006840F48000284908603F
:102280003046FFF761FF27484068A84201D925483A
:1022900045602448406800904FF48040ADF80C0041
:1022A0000020ADF80400ADF80800ADF80A004BF6C8
:1022B000FF70ADF8060023E01C48844220D1184886
:1022C000006840F40000164908603046FFF772FFCE
:1022D00014488068A84201D9124885601148806876
:1022E00000904FF48040ADF80C000020ADF80400E1
:1022F000ADF80800ADF80A004BF6FF70ADF8060027
:10230000208820F00100208069462046FEF720FD4D
:10231000208840F0010020807FBD00000054004074
:10232000403802400002002000580040005C00409D
:10233000704770B504460D46002601230022294649
:10234000204600F07BF800B90126204600F0CEF8C8
:10235000304670BD70B50446208840F4806020800F
:1023600044F620600A49086007E009480068401EFA
:102370000749086008B9012070BD06492046FEF7EC
:10238000D1FC0028F1D0208AC5B22846F4E700002D
:10239000FC010020400003002DE9F04780468946FB
:1023A00016461D46089F012300224946404600F07C
:1023B00045F83146404600F0B9F801231A4649462F
:1023C000404600F03BF800240DE0781EA04204D106
:1023D000404600F00DF8285503E04046FFF7BAFFED
:1023E0002855601CC4B2BC42EFDBBDE8F08700009A
:1023F00070B50446208820F480602080208840F456
:102400000070208044F620600A49086007E009480F
:102410000068401E0749086008B9012070BD0649E0
:102420002046FEF77FFC0028F1D0208AC5B228465E
:10243000F4E70000FC010020400003002DE9F0411A
:1024400004460D4616461F46208840F480702080C2
:1024500044F620602349086008E022480068401ED6
:102460002049086010B90120BDE8F081A08A00F081
:1024700001000028F1D01FB1208840F48060208046
:10248000A6B925F00100208244F6206015490860B5
:1024900007E014480068401E1249086008B901208E
:1024A000E2E7A08A00F002000028F2D0012E15D148
:1024B00045F00100208244F620600A49086007E0E8
:1024C00008480068401E0749086008B90120CBE7AA
:1024D00005492046FEF726FC0028F1D0208B00207D
:1024E000C2E70000FC01002002000300014644F6A0
:1024F00020600D4A106007E00B480068401E0A4A41
:10250000106008B901207047888A00F08000002818
:10251000F2D0888A00F004000028EDD0088840F44A
:10252000007008800020EEE7FC01002044F62062E5
:10253000084B1A6004E0074A1268521E054B1A60E5
:10254000828A02F080021AB9024A1268002AF2D185
:1025500001827047FC01002070B500F039F8044694
:102560002546C5F34205284670BD10B500F030F889
:10257000044604F0400008B1012010BD00F020F92D
:1025800008B90120F9E70020F7E7000010B504467C
:102590004FF480700B49088061210B4800F0BFFBAD
:1025A0000A48037822462146074800F0D9FB4FF439
:1025B00080700449891E08804021072000F00CFA31
:1025C00010BD00001A080240003C0040F801002045
:1025D00010B54FF4807007490880FF21064800F0CD
:1025E0009EFB04464FF480700249891E08802046F5
:1025F00010BD00001A080240003C004070B50546BE
:102600000C4600F07BF80121394800F023FB202C18
:1026100000DD20240DB9012000E00020354948707C
:1026200008460470032088700020C87000F045F947
:10263000284600F0CDF82F480178112000F0CCF9A1
:102640002C480178122000F0C7F92A48017813209D
:1026500000F0C2F927480178142000F0BDF92548A0
:102660000178152000F0B8F922480178162000F012
:10267000B3F9204A9178D07800F0EEF804210020D8
:1026800000F0AAF93F21012000F0A6F93F21022025
:1026900000F0A2F94F21042000F09EF900211C2037
:1026A00000F09AF900BF4FF4807013490880E121CF
:1026B0000F4800F034FB4FF480700F49891E0880EA
:1026C00000BF00BF891C0880E221094800F027FBF9
:1026D0004FF480700849891E088000BF00BF702138
:1026E000072000F079F900BF00F028F8012070BD44
:1026F000003C0040F80100201A0802401CB50020F0
:10270000012103460A46CDE9001009020A48FFF7F5
:1027100099FC0020012103460A46CDE90010490238
:102720000548FFF78FFC4FF480700349183108808B
:102730004000891C08801CBD0008024010B54FF401
:1027400000700F49088000BF40100880E2210D484A
:1027500000F0E5FA4FF480700949891E088000BF37
:1027600000BF7021072000F037F900BF07210020CB
:1027700000F032F94FF400700149891E088010BD45
:102780001A080240003C004070B504464FF48070C7
:102790000949088004F01F01084800F0C0FAFF2131
:1027A000064800F0BCFA05464FF480700249891EC5
:1027B0000880284670BD00001A080240003C004016
:1027C00010B51720FFF7E0FF044604F0010010BD2C
:1027D00010B504467D2C09DC05484078A04205D0A0
:1027E000034844702146052000F0F6F810BD0000B3
:1027F000F80100202DE9F04704460F4615461E4615
:10280000DDE908894FF4007012490880052221464D
:102810000A2000F0FDF8052239460B2000F0F8F8F8
:10282000052229460C2000F0F3F831780D2000F045
:10283000D3F898F800100E2000F0CEF899F80010A8
:102840000F2000F0C9F84FF400700249891E08807B
:10285000BDE8F0871A08024070B506460D46002410
:102860000E48C670857016B944F0080403E0022EC5
:1028700001D144F02004032D02D144F0060408E005
:10288000022D02D144F0040403E0012D01D144F0F3
:1028900002042146062000F09FF870BDF8010020D8
:1028A00010B50446052221460A2000F0B1F80522A1
:1028B0002146102000F0ACF810BD1CB50821002006
:1028C00000F08AF83F21012000F086F80321022061
:1028D00000F082F80321084600F07EF8032104206E
:1028E00000F07AF80221052000F076F80E2106208B
:1028F00000F072F80E21072000F06EF80021082089
:1029000000F06AF80021092000F066F8E7208DF851
:1029100000008DF801008DF802008DF803008DF89D
:102920000400052269460A2000F072F8C2208DF8E2
:1029300000008DF801008DF802008DF803008DF87D
:102940000400052269460B2000F062F8C3210C2028
:1029500000F042F8C4210D2000F03EF8C5210E2001
:1029600000F03AF8C6210F2000F036F8E7208DF885
:1029700000008DF801008DF802008DF803008DF83D
:10298000040005226946102000F042F800211120C1
:1029900000F022F80021122000F01EF80021132080
:1029A00000F01AF80021142000F016F8002115207C
:1029B00000F012F80021162000F00EF81121172067
:1029C00000F00AF800211C2000F006F800211D206C
:1029D00000F002F81CBD000070B504460D464FF42F
:1029E00080700949088004F01F0040F0200107486A
:1029F00000F095F92946054800F091F94FF48070F0
:102A00000149891E088070BD1A080240003C004040
:102A100070B504460D4616464FF48070094908808B
:102A200004F01F0040F02001074800F078F932461A
:102A30002946054800F0BCF94FF480700149891E11
:102A4000088070BD1A080240003C00407047704783
:102A5000704700001CB504464CB905200321002333
:102A60001A46CDE90010E0210A48FFF703FB012CCC
:102A700009D10520032100231A46CDE90010382191
:102A80000548FFF7F7FA032C03D10521034800F0AE
:102A900045F91CBD00000240000402400030014026
:102AA0001CB50446A4B90520032100231A46CDE92C
:102AB00000104FF480611648FFF7DCFA052003216F
:102AC00000231A46CDE900100C211248FFF7D2FA74
:102AD000012C0AD10520032100231A46CDE900105C
:102AE0004FF460410A48FFF7C5FA022C09D10520CE
:102AF000032100231A46CDE900100D210648FFF7F7
:102B0000B9FA032C03D10521044800F007F91CBDD4
:102B1000000402400008024000200240003800404B
:102B20001CB504464CB90620032100231A46CDE902
:102B3000001038210B48FFF79DFA012C0AD106201E
:102B4000032100231A46CDE900104FF4E051064856
:102B5000FFF790FA032C03D10621044800F0DEF8B9
:102B60001CBD00000004024000080240003C004080
:102B70001CB504464CB90520032100231A46CDE9B3
:102B8000001064210B48FFF775FA012C0AD10520CB
:102B9000032100231A46CDE900104FF4E041054817
:102BA000FFF768FA032C03D10521034800F0B6F8BB
:102BB0001CBD000000100240003401401CB504465A
:102BC00054B90520032100231A46CDE900104FF423
:102BD00060711048FFF74EFA012C13D10520032134
:102BE00000231A46CDE90010E1020A48FFF742FA35
:102BF0000520032100231A46CDE90010C021064814
:102C0000FFF738FA032C03D10521044800F086F8B9
:102C10001CBD000000140240001C02400050014096
:102C20001CB5044654B90520032100231A46CDE9FA
:102C300000104FF4E0410548FFF71CFA032C03D1C4
:102C40000521034800F06AF81CBD0000001802408E
:102C5000005401407CB504460D462A4884420AD1FE
:102C600000204FF4827120230246CDE9001029464E
:102C7000204600F0C5F8244884420AD100204FF4D1
:102C8000827120230246CDE900102946204600F03B
:102C9000B7F81E4884420AD100204FF482712023E5
:102CA0000246CDE900102946204600F0A9F8184850
:102CB00084420AD100204FF4827120230246CDE9DC
:102CC00000102946204600F09BF8124884420AD1A1
:102CD00000204FF4827120230246CDE900102946DE
:102CE000204600F08DF80C4884420AD100204FF4B1
:102CF000827120230246CDE900102946204600F0CB
:102D00007FF87CBD0030014000380040003C0040AE
:102D10000034014000500140005401407047024619
:102D2000108800F0400008B90020704700BF1089EB
:102D300000F003000028FAD0108900F0800000287D
:102D4000F5D1918100BF108900F003000028FAD06E
:102D5000108900F080000028F5D19089C0B2E4E726
:102D600030B50C46058805F0400505B930BD00BFFB
:102D7000058905F00305002DFAD0058905F08005C9
:102D8000002DF5D100210FE0655C858100BF05892C
:102D900005F00305002DFAD0058905F08005002D0A
:102DA000F5D185895554491C9942EDD300BFDDE723
:102DB00010B50B46048804F0400404B910BD00BFF0
:102DC000048904F00304002CFAD0048904F0800480
:102DD000002CF5D100210EE05C5C848100BF0489E9
:102DE00004F00304002CFAD0048904F08004002CC1
:102DF000F5D18489491C9142EED300BFDEE7000083
:102E00002DE9F04385B004460E4615461F46DDE920
:102E10000C896846FEF77EFE4D4884420BD14D4832
:102E2000006840F480504B4908603046FFF712FEBE
:102E30000020ADF80400484884420DD14548001FE9
:102E4000006840F480404349091F08603046FFF79E
:102E500027FE0020ADF80400404884420DD13D48D3
:102E6000001F006840F400403A49091F08603046DE
:102E7000FFF756FE0020ADF80400394884420BD11C
:102E80003448006840F40050324908603046FFF78B
:102E90006FFE0020ADF80400324884420BD12D486B
:102EA000006840F480102B4908603046FFF786FE2A
:102EB0000020ADF804002C4884420BD1254800685E
:102EC00040F40010234908603046FFF7A9FE0020B7
:102ED000ADF80400ADF80C700020ADF80000ADF8BE
:102EE0000E90ADF802804FF40070ADF80A002DB9D5
:102EF0000020ADF80600ADF8080019E0012D06D15C
:102F00000020ADF806000120ADF8080010E0022D09
:102F100006D10220ADF806000020ADF8080007E059
:102F2000032D05D10220ADF806000120ADF8080000
:102F3000208820F04000208069462046FEF7CCFD26
:102F4000208840F04000208005B0BDE8F0830000FC
:102F5000003001404438024000380040003C00404E
:102F600000340140005001400054014001464948EE
:102F7000814205D14848006840F00100464A10608F
:102F8000B1F1804F07D14448001F006840F00100B4
:102F9000414A121F10604148814207D13E48001F3C
:102FA000006840F002003C4A121F10603C48814219
:102FB00007D13948001F006840F00400364A121F4C
:102FC00010603848814207D13348001F006840F044
:102FD0000800314A121F10603348814207D12E4841
:102FE000001F006840F010002B4A121F10602F488D
:102FF000814207D12848001F006840F02000264A7F
:10300000121F10602A48814205D12348006840F011
:103010000200214A10602748814205D11E480068FD
:1030200040F480301C4A10602348814205D11A4880
:10303000006840F40030184A10602048814205D1F1
:103040001548006840F48020134A10601C488142F3
:1030500007D11148001F006840F040000E4A121FBF
:1030600010601848814207D10B48001F006840F0EB
:103070008000094A121F10601348814207D1064898
:10308000001F006840F48070034A121F1060002087
:103090007047000000000140443802400004004036
:1030A00000080040000C00400010004000140040E8
:1030B000000401400040014000440140004801403C
:1030C00000180040001C00400020004010B52DED0D
:1030D000068B0446B0EE408AF0EE608A2068FDF769
:1030E00097FA41EC190B53EC182BFDF7CBFA07D2EA
:1030F00000202061E06060610320BDEC068B10BD04
:103100009FED250B53EC102B51EC180BFDF7BAFA81
:1031100005D100202061E06060610420EDE7606877
:10312000B0F5803F02D26068401C606000202061E2
:1031300000BF2069401C2168B1FBF0F0E060E0684E
:10314000FDF766FA41EC1A0B53EC182BFDF7E0F98A
:1031500041EC190BFDF769FAE0602069401C206121
:103160006168E068884204D9A068401C21698142F6
:10317000DFD9A068401C2169814205D90020206167
:10318000E06060610420B8E751EC180BFDF74DFAE0
:1031900060610020B1E700000000000000000000B6
:1031A0007FB504460D466846FEF754FB4FF6FF70A8
:1031B000A860B4F1804F02D01F48844207D1039821
:1031C00028604FF0FF306860002004B070BD1B48DD
:1031D00084420BD01A48844208D01A48844205D051
:1031E0001948844202D01948844206D101982860C7
:1031F0004FF6FF7068600020E7E71548844211D061
:10320000144884420ED0144884420BD013488442A0
:1032100008D01348844205D01248844202D0124894
:10322000844206D1039828604FF6FF706860002042
:10323000CBE70220C9E70000000C0040000001407D
:1032400000040140004001400044014000480140AA
:10325000000400400008004000100040001400403E
:1032600000180040001C0040002000401CB504462F
:1032700044B90820032101230022CDE900100B48A6
:10328000FEF7F8FE012C09D10820032101230022BA
:10329000CDE9001089020648FEF7ECFE032C03D1AD
:1032A0000821044800F070FA1CBD00000000024034
:1032B00000080240004C00401CB504469CB90820A0
:1032C000032101230022CDE9001041020948FEF745
:1032D000D1FE0820032101230022CDE900100421A2
:1032E0000548FEF7C7FE032C03D10821034800F070
:1032F0004BFA1CBD00080240000C02400050004088
:103300001CB504464CB90720032101230022CDE956
:10331000001049020A48FEF7ADFE012C09D1072032
:10332000032101230022CDE90010C0210548FEF74A
:10333000A1FE032C03D10721034800F025FA1CBD90
:103340000000024000040240001001401CB5044689
:103350004CB90720032101230022CDE900100C21E4
:103360000A48FEF787FE012C09D10720032101231B
:103370000022CDE9001060210548FEF77BFE032CFA
:1033800003D10721034800F0FFF91CBD00000240F3
:10339000000C0240004400401CB504464CB9072014
:1033A000032101230022CDE9001089021048FEF715
:1033B00061FE012C09D10720032101230022CDE960
:1033C000001089020B48FEF755FE022C09D1072098
:1033D000032101230022CDE9001009020648FEF76F
:1033E00049FE032C03D10721044800F0CDF91CBD90
:1033F0000004024000080240000C02400048004067
:103400001CB504464CB90820032101230022CDE954
:103410000010C0210B48FEF72DFE012C0AD1082018
:10342000032101230022CDE900104FF48441064816
:10343000FEF720FE032C03D10821044800F0A4F974
:103440001CBD0000000802400018024000140140AA
:1034500001460C4A914200D100200B4A914200D112
:1034600001200A4A914200D10220094A914200D12A
:103470000420084A914200D10520074A914200D118
:103480000620704700100140004400400048004002
:10349000004C0040005000400014014001460C4A1E
:1034A000914200D10B480C4A914200D10B480C4A82
:1034B000914200D10B480C4A914200D10B480C4A72
:1034C000914200D10B480C4A914200D10B48704701
:1034D0000010014020020020004400403002002083
:1034E0000048004040020020004C004050020020F4
:1034F00000500040600200200014014070020020D3
:103500002DE9F04F87B004460D4616461F46DDE90B
:1035100011ABDDF840902046FFF7C0FF80460396D0
:10352000524884420BD15248006840F01000504984
:1035300008602846FFF7E4FE25208DF808004D4876
:1035400084420DD14A48001F006840F400304849C9
:10355000091F08602846FFF7F9FE26208DF80800AD
:10356000454884420DD14248001F006840F4802045
:103570003F49091F08602846FFF70EFF27208DF8F6
:1035800008003E4884420DD13948001F006840F4CD
:1035900000203749091F08602846FFF767FE3420DE
:1035A0008DF80800364884420DD13148001F00686C
:1035B00040F480102E49091F08602846FFF77CFE62
:1035C00035208DF808002F4884420BD12848006828
:1035D00040F02000264908602846FFF711FF4720E9
:1035E0008DF80800204600F03DF901208DF80B0011
:1035F00006208DF809002046FFF72AFF8DF80A0003
:1036000002A8FEF795F8ADF818701FFA89F0ADF82A
:1036100016001FFA8AF0ADF814001FFA8BF0ADF80F
:103620001200139880B2ADF81000002088F80C004A
:1036300000BF40F6FF70019000BF0198411E01914C
:103640000028FAD100BF03A9204600F091F9A08913
:1036500040F02000A081012088F80C00A08940F4EF
:103660000050A08107B0BDE8F08F000000100140BD
:10367000443802400044004000480040004C0040F4
:103680000050004000140140C28883889A420EDA3C
:10369000028983889A4201D100220281038902684B
:1036A000D1540289521C0281C288521CC2807047C8
:1036B0007FB504460D4616462D4884420BD10020A6
:1036C0000C23CDE900300290034632462946039090
:1036D0002046FFF715FF274884420BD100200C231A
:1036E000CDE9003002900346324629460390204639
:1036F000FFF706FF204884420BD100200C23CDE9C0
:103700000030029003463246294603902046FFF7D8
:10371000F7FE1A4884420BD100200C23CDE900307B
:10372000029003463246294603902046FFF7E8FE02
:10373000134884420BD100200C23CDE900300290C5
:1037400003463246294603902046FFF7D9FE0D482E
:1037500084420BD100200C23CDE9003002900346B7
:103760003246294603902046FFF7CAFE7FBD00007F
:10377000001001400044004000480040004C004060
:1037800000500040001401407047000000B506489A
:10379000008800F0200030B10348001D0088C1B24D
:1037A0000248FFF771FF00BD004C004050020020AE
:1037B00000B50648008800F0200028B10348808842
:1037C000C1B20348FFF760FF00BD00000050004099
:1037D0006002002000B50648008800F0200028B1F3
:1037E00003488088C1B20348FFF74EFF00BD0000C8
:1037F000001001402002002000B50648008800F0BB
:10380000200030B10348001D0088C1B20248FFF714
:103810003BFF00BD004400403002002000B50648D8
:10382000008800F0200030B10348001D0088C1B2BC
:103830000248FFF729FF00BD004800404002002079
:1038400000B50648008800F0200030B10348001D94
:103850000088C1B20248FFF717FF00BD0014014005
:103860007002002010B504463248844208D101217C
:103870001020FDF7DFFF00211020FDF7DBFF57E0F0
:103880002D48844209D101214804FDF7C3FF0021DE
:103890004FF40030FDF7BEFF4AE02848844209D1CA
:1038A00001218804FDF7B6FF00214FF48020FDF7C9
:1038B000B1FF3DE02248844209D10121C804FDF74F
:1038C000A9FF00214FF40020FDF7A4FF30E01D48C0
:1038D000844209D101210805FDF79CFF00214FF426
:1038E0008010FDF797FF23E01748844208D101219B
:1038F0002020FDF79FFF00212020FDF79BFF17E010
:103900001248844209D101218807FDF783FF002175
:103910004FF08040FDF77EFF0AE00D48844207D15A
:1039200001214005FDF776FF00216005FDF772FFDC
:1039300010BD00000010014000440040004800405D
:10394000004C00400050004000140140007800404E
:10395000007C004002460020B1F5007F00D100BF8E
:1039600013880B400BB1012000E0002070470000DD
:103970002DE9FF4705460E460024A14600BFA0469C
:10398000B08900B100BF2C8A24F44054F08804436D
:103990002C82AC8941F20C608443B08831890843A1
:1039A000718908430443AC81AC8A24F44074B08923
:1039B0000443AC826846FDF74DFF2048854202D0A3
:1039C0001F48854202D1DDF80C9001E0DDF8089037
:1039D000A88900F4004040B109EBC90000EB0910D0
:1039E00031684900B0FBF1F707E009EBC90000EBD3
:1039F000091031688900B0FBF1F76420B7FBF0F0E3
:103A000004012009642101FB1078A88900F400401A
:103A100040B1322000EBC800B0FBF1F000F007002D
:103A2000044308E0322000EB08106421B0FBF1F001
:103A300000F00F0004432C81BDE8FF870010014017
:103A400000140140C1F308028280704700BFFEE706
:103A50000FB4054B10B503A9044A029800F0DEF834
:103A600010BC5DF814FB0000194600083404002067
:103A70000FB4084B10B504A902AA039800F0CEF8C1
:103A8000044602A9002000F060FC204610BC5DF84E
:103A900014FB00004B43000802E008C8121F08C1D5
:103AA000002AFAD170477047002001E001C1121FBF
:103AB000002AFBD1704700002DE9FF5FDDE90220FD
:103AC000010DDDF838B0024318D044F61050A1F2D1
:103AD000FF3141430D140F98012820D0A5EB0B00B6
:103AE000401C5FEA000A4FF00004474EDFF81C91CB
:103AF000A046504616D5CAF1000728E00F980124C9
:103B000043A2012808D0002100980F9BC0E90021A2
:103B1000C0E90243BDE8FF9F6FEA0B01F4E7CBF178
:103B20000000DEE7074612E0F80707D022463346DA
:103B300040464946FCF77AFC804689462246334691
:103B400010461946FCF772FC04460E467F10002F03
:103B5000EAD1DDE90201BAF1000F42464B4602DA32
:103B6000FCF764FC01E0FCF7D3FC04460E4600229F
:103B7000284BFCF79FFD03D84FF0FF30014607E0CC
:103B80000022254B20463146FCF7A9FBFCF7D2FE6C
:103B9000102409E0002C0ADB0A220023FCF7D4FDE4
:103BA000019B30321A55641E50EA0102F2D1641CA6
:103BB000019AC4F1110314440F9A012A03D001227F
:103BC00008430DD10AE0084304D000204FF0110B48
:103BD0000F9080E7A3EB0B056D1E0DE05B4504DD48
:103BE0004FF0000205F1010504E003DA4FF0000296
:103BF000A5F10105002AECD000980F99C0E9023127
:103C0000C0E9004586E70000000024400000F03FC6
:103C1000300000000000F0430000E03F2DE9FF4FBE
:103C200095B09B468946064600250FE2252877D1A8
:103C300000242746F84A0121059400E0044316F8C1
:103C4000013F203B01FA03F01042F7D130782A28D7
:103C500011D06FF02F033078A0F13002092A16D866
:103C6000059A44F0020402EB820203EB4202104484
:103C7000761C0590EFE759F8042B0592002A03DA29
:103C8000504244F40054059044F00204761C30780D
:103C90002E2816D116F8010F44F004042A280DD05E
:103CA0006FF02F023078A0F13003092B09D807EB11
:103CB000870302EB4303C718761CF3E759F8047B2C
:103CC000761C30786C280FD006DC4C2817D068287A
:103CD0000DD06A2814D104E0742810D07A280FD1AE
:103CE0000DE044F400140AE044F4801401E044F4CC
:103CF00040147278824202D104F58014761C761C3E
:103D0000307866280BD013DC582877D009DC0028DF
:103D100075D04528F6D04628F4D047281AD19DE121
:103D200018E0632835D0642879D0652812D195E150
:103D3000702873D008DC6728F1D069286FD06E280E
:103D40000DD06F2806D1B5E073282CD0752875D01A
:103D5000782874D05A46179990476D1C75E1C4F3C2
:103D60000250022809D003280DD0D9F800100428E9
:103D70000DD00D6009F1040967E1D9F80010EA17C8
:103D8000C1E90052F6E7D9F800100D80F2E70D7096
:103D9000F0E719F8041B8DF8001000208DF80100E1
:103DA000EA46012003E059F804AB4FF0FF30610709
:103DB0004FF0000102D40DE008F101018846B9423C
:103DC0000FDA8045F8DB1AF808100029F4D108E072
:103DD00008F1010188468142FADB1AF8081000292F
:103DE000F6D105985B46A0EB080721463846179A9E
:103DF00000F094FA284400EB080507E04DE029E1C3
:103E00000DE01AF8010B5A4617999047B8F10108CE
:103E1000F7D25B4621463846179A13E142E00A2260
:103E20000092C4F302524FF0000A022A08D059F857
:103E300004CB032A4FEAEC710AD00DE029E02AE016
:103E400009F1070121F00702F2E802C1914609E0F9
:103E50000FFA8CFC4FEAEC71042A03D14FFA8CFC68
:103E60004FEAEC71002907DA0A460021DCF1000C68
:103E700061EB02012D2202E0220504D52B228DF8F0
:103E80000420012203E0E20701D02022F7E7904658
:103E900059E00A2102E010220DE010214FF0000A43
:103EA00000910BE010224FF0000A44F004040827B0
:103EB000009203E008224FF0000A0092C4F302527D
:103EC000022A05D059F804CB0021032A08D009E0C2
:103ED00009F1070121F00702F2E802C1914605E06D
:103EE0001FFA8CFC042A01D10CF0FF0C4FF00008E3
:103EF000220728D5702806D0009B83F0100353EAD0
:103F00000A0305D00EE040228DF80420012208E0CB
:103F10005CEA010206D030228DF804208DF80500FD
:103F200002229046009B83F0080353EA0A030AD159
:103F30005CEA010201D1620705D530228DF8042028
:103F40004FF001087F1E582804D034A003900EA81B
:103F500002900DE036A0F9E753466046009AFCF760
:103F6000F3FB84460398825C0298401E0290027024
:103F70005CEA0100F0D1029806A9081A00F1200AB3
:103F8000600702D524F4803400E00127574502DDA4
:103F9000A7EB0A0000E0002000EB0A010090059862
:103FA0004144401A0590E00306D45B462146179A27
:103FB000059800F0B3F90544002706E001A85A4629
:103FC000C05D179990476D1C7F1C4745F6DBE003E9
:103FD0000CD55B462146179A059800F09FF90544D9
:103FE00004E030205A46179990476D1C0099481EEE
:103FF00000900029F5DC08E0029802995A46007802
:10400000491C0291179990476D1CBAF10001AAF161
:10401000010AF1DC65E1000009280100303132338A
:1040200034353637383961626364656600000000F4
:1040300030313233343536373839414243444546DE
:104040000000000000F058F90544761C3078002884
:104050007FF4ECAD19B02846BDE8F08F620700D4BC
:10406000062709F1070222F0070CFCE80223E146CB
:1040700003F000485FEA080C02D00FF2702C0DE04C
:104080005FEA045C02D50FF2682C07E05FEAC47CAB
:1040900002D00FF2602C01E0AFF2700C4FF0FF384D
:1040A00023F00043CDF850C065280CD006DC45282D
:1040B00009D046281DD047283DD13DE0662818D0BC
:1040C00067287ED138E00021112F01DB112000E0AC
:1040D000781CCDE9000106A90EA8FFF7EDFCDDE98B
:1040E0000F010E9A03910021009207F1010A049139
:1040F0004DE04FF000400097CDE9011006A90EA851
:10410000FFF7DAFCDDE90F0203920E9B1199002202
:10411000DDF80CA00093049211B9791C00EB010AA0
:10412000B7EB0A0004D4C0F1FF3007F1010A049094
:10413000AAEB0700019044E0012F00DA01270021DB
:10414000112F01DD112000E03846CDE9000106A95C
:104150000EA8FFF7B1FCDDE90F010E9A03910021D3
:1041600004910092BA4621070CD40399514500DA14
:104170008A46BAF1010F05DD009AAAF10101515CEE
:10418000302908D0B84202DA10F1040F06DA012112
:10419000CDE9011015E0AAF10101E9E7002805DCED
:1041A000049901440491AAEB000102E0411C51452D
:1041B00000DD8A460499401A401C01904FF00040EF
:1041C0000290200704D40198504501DBCDF804800B
:1041D00000208DF84F0002980DF14F07B0F1004F0D
:1041E00025D02B200E9002984FF0020800280CDA00
:1041F000404202902D200E9007E00A210298FCF721
:104200008DFA3031029007F8011DB8F10001A8F1D4
:104210000108F2DC02980028EFD1791E0E98087090
:10422000307800F0200040F0450007F8020D12A899
:10423000C01B00F107081498007800B1012000EBC2
:104240000A01019801EBE07105984144401A401EB3
:104250000590E00306D45B462146179A059800F0C6
:104260005DF805441498007818B15A46179990479C
:104270006D1CE00324D55B462146179A059800F093
:104280004DF805441CE00498002807DBDDE9030134
:10429000884203DD0098405C179901E017993020AF
:1042A0005A469047049805F10105401C0490019876
:1042B000401E019004D12E205A46179990476D1C3C
:1042C000BAF10001AAF1010ADDDC05E017F8010BE3
:1042D0005A46179990476D1CB8F10001A8F10108E2
:1042E000F4DC5B462146179A0598ABE62D000000EA
:1042F0002B000000200000002DE9F04104460025BD
:104300001E461746880404D405E039462020B047ED
:104310006D1C641EF9D52846BDE8F0812DE9F041F9
:10432000044600251E469046C80301D5302700E00C
:104330002027880404D505E041463846B0476D1C67
:10434000641EF9D52846BDE8F0810A68531C0B604D
:104350001070704710B503A105A000F00BF8012004
:1043600010BD0000656D6B686F6E676269657400F3
:104370004851440070B504460D460CA0FFF768FB99
:104380004FF4FA70FCF744FB2A4621460BA0FFF7D6
:104390005FFB4FF47A70FCF73BFB0EA0FFF758FB76
:1043A0004FF4FA70FCF734FB012070BD41542B43ED
:1043B000574D4F44453D310D0A00000041542B43F9
:1043C000574A41503D222573222C222573220D0A83
:1043D0000000000041542B4349504D55583D310DCC
:1043E0000A00000001200549096809B1002003E026
:1043F0000349096801B1002070470000DC07002074
:10440000C40300202DE9FF4F2DED048BCDB0824673
:104410008B469FED7D0AB0EE408A002400250026E1
:104420000027A046A146142148A8FBF73AFF00BF89
:1044300005E0764850F824004DF82400641C482C10
:10444000F7DB0024C8E000250DE0002708E04FF06E
:10445000000801E008F10108B8F1020FFADB7F1C47
:10446000022FF4DB6D1C032DEFDB0026B0E0DAF841
:10447000080000EB840090ED000A10EE101A0846C8
:10448000FCF7ECF841EC190B9FED610B53EC102B92
:10449000FCF7F8F87ED0DBF8080000EB850090ED23
:1044A000000A10EE101A0846FCF7D8F841EC190B78
:1044B0009FED570B53EC102BFCF7E4F86AD05398A0
:1044C000806800EB870090ED000A10EE101A084695
:1044D000FCF7C4F841EC190B9FED4D0B53EC102B7E
:1044E000FCF7D0F871D05498806800EB880090ED0C
:1044F000000A10EE101A0846FCF7B0F841EC190B50
:104500009FED430B53EC102BFCF7BCF85DD05E988D
:10451000806800EB860090ED000A10EE101A084645
:10452000FCF79CF841EC190B9FED390B53EC102B69
:10453000FCF7A8F849D05E98806800EB8600D0EDC3
:10454000002AB0EE622A5498806800EB8800D0ED13
:10455000002AF0EE621A5398806800EB8700D0EDD5
:10456000002AB0EE621ADBF8080000EB8500D0EDFF
:10457000002AF0EE620ADAF8080000EB8400D0EDC1
:10458000002AB0EE620AFDF745F8B0EE408A5DF809
:10459000290000E019E048A901EB800090ED000A35
:1045A000B4EEC80AF1EE10FA06DD5DF8290001EB61
:1045B000800090ED000A01E0B0EE480A5DF82900A5
:1045C00048A901EB800080ED000A09F10109761C81
:1045D000022EFFF64CAF641C032CFFF634AF002410
:1045E0000BE048A800EB840090ED000A5F9880681B
:1045F00000EB840080ED000A641C052CF1DB4DB05B
:10460000BDEC048BBDE8FF8F00000000800200209D
:10461000000000000000000070B504460D46E1B245
:104620000548FFF70FFA00BF40210348FFF792F952
:104630000028F9D0204670BD0010014030B52DEDA6
:10464000068B83B0B0EE40AAB0EE608AF0EE418AED
:10465000B0EE619AF0EE429A0446B0EE4A0A206843
:1046600000F074F9B0EE480A606800F06FF9B0EE3F
:10467000680AA06800F0A0F9B0EE490A206900F0CD
:104680009BF9B0EE690AE06800F096F96169E068AC
:10469000CDE90001236994E8070000F0B3F903B005
:1046A000BDEC068B30BD00002DE9F0412DED048BF3
:1046B000044600250C260C270C2000F09FFA2060F1
:1046C00010B991A0FFF7C4F90C2000F097FA6060D0
:1046D00010B98DA0FFF7BCF90C2000F08FFAA06094
:1046E00010B989A0FFF7B4F90C2000F087FA206117
:1046F00010B985A0FFF7ACF90C2000F07FFAE0605C
:1047000010B981A0FFF7A4F90C2000F077FA6061DE
:1047100010B97DA0FFF79CF90C2000F06FFA21681A
:10472000486010B978A0FFF793F90C2000F066FA02
:104730002168886010B974A0FFF78AF90C2000F096
:104740005DFA6168486010B96FA0FFF781F90C202D
:1047500000F054FA6168886010B96BA0FFF778F92F
:10476000082000F04BFAA168486010B966A0FFF776
:104770006FF9082000F042FAA168886010B962A0C1
:10478000FFF766F9082000F039FA2169486010B98E
:104790005DA0FFF75DF9082000F030FA216988601C
:1047A00010B959A0FFF754F9082000F027FAE16882
:1047B000486010B954A0FFF74BF9082000F01EFA2A
:1047C000E168886010B950A0FFF742F9142000F0AA
:1047D00015FA6169486010B94BA0FFF739F9142048
:1047E00000F00CFA6169886018B947A0FFF730F94A
:1047F0000125B2EE0E0A206880ED000AB3EE0E0A23
:10480000606880ED000A9FED470AA06880ED000A0D
:104810009FED450A206980ED000A9FED430AE0689C
:1048200080ED000AB5EE000A606980ED000AB2EE84
:10483000040A2068406880ED000AB3EE090A206887
:10484000406880ED010A9FED390A2068406880EDDC
:10485000020AB3EE040A6068406880ED000A9FED2A
:10486000340A6068406880ED010A9FED320A606892
:10487000406880ED020A9FED300AA068406880ED34
:10488000000A9FED2E0AA068406880ED010A9FEDA6
:104890002C0A2069406880ED000A9FED230A2069F8
:1048A000406880ED010A9FED260AE068406880EDCF
:1048B000000A9FED1D0AE068406880ED010A0025AE
:1048C0001BE02846FBF793FE41EC190B9FED1D0BF7
:1048D00053EC102BFBF7AAFD41EC180BFBF702FF82
:1048E0006169496841F825009FED150A6069806893
:1048F00000EB850080ED000A6D1C052DE1DBBDECB1
:10490000048BBDE8F08100004572726F7220616C0B
:104910006C6F636174696E67206D656D6F72792E5F
:104920000A0000000000C8430000C8420000204206
:10493000000048420000A042000048C30000484375
:1049400000000000000000000000D03F00B5F0EEC5
:10495000402A0146486890ED000AB0EE401A91EDF9
:10496000000AF0EE400AB0EE620A00F0DBF8886858
:1049700080ED000A486890ED010AB0EE401A91ED12
:10498000000AF0EE400AB0EE620A01F071F88868A1
:1049900080ED010A486890ED020AB0EE401A91EDF0
:1049A000000AF0EE400AB0EE620A00F0AFFE88683E
:1049B00080ED020A012000BD00B5F0EE402A01465C
:1049C000486890ED000AB0EE401A91ED000AF0EE52
:1049D000400AB0EE620A00F0A5F8886880ED000A8F
:1049E000486890ED010AB0EE401A91ED000AF0EE31
:1049F000400AB0EE620A00F089FE886880ED010A84
:104A0000012000BD2DE9F0472DED028B82B0064656
:104A10000F4690469946DDE90CA59FED1E0AB0EEC3
:104A2000408A9FED1C0AF0EE408A00244B46424625
:104A300039463046CDE900A5FFF7E4FC00BF20E091
:104A4000686800EB8400D0ED000AA86800EB8400E1
:104A500090ED001AB0EE480A00EE810AB0EE408AEE
:104A6000A86800EB840090ED000A30EE280AF0EE12
:104A7000408A9FED080AA86800EB840080ED000AD8
:104A8000641C052CDCDB88EE280A02B0BDEC028B2E
:104A9000BDE8F0870000000010B504467CB1FDF7CA
:104AA000CBF8FDF7FDF9FDF7F1F9FCF7B5FA00F0E9
:104AB000B9FF0448FFF7F8FD0020FCF7C5F9012015
:104AC00010BD0000780500201FB500200D4A01230D
:104AD000CDE9012000930390034680220AA10C48EF
:104AE00001F0FCFE00200B4ACDE9000202900346D3
:104AF000802209A103900A4801F0F0FE012004B0D1
:104B000010BD0000B00100207265616452660000B3
:104B1000015D0008B401002046757A7A7900000032
:104B2000115B0008F0EE401AF4EEC11AF1EE10FA33
:104B300002D2B7EE000A704731EEC10A80EE202A99
:104B4000B7EE000A30EE420AB5EEC00AF1EE10FAF6
:104B500002D29FED060AEEE731EEC12A82EE200A6C
:104B6000B7EE002A32EE400AE5E700000000000040
:104B700000B599B00120FFF78FFFFDF7DFF918B1FD
:104B80004FF480401749088000F0B4FC00BFFDF7E7
:104B9000ECFC0128FBD11448FCF7D0FE00F0AAFC85
:104BA000602212496846FBF763FB104810380FC8B3
:104BB000FCF746FF0E4840780E4908704FF4165235
:104BC00001210D4800F016FFFFF7C4FB064807C897
:104BD00000F0B6FEFFF778FF08B101F069FB002096
:104BE00019B000BD180C024040040020000600204F
:104BF000200100202701002000100140F0B50B30FB
:104C0000154D20F007010024144A0FE003688B4281
:104C10000BD38B4205D95E1A43184768C3E9006776
:104C200000E04368136002C004E0021D1068002821
:104C3000ECD12046002802D1286808B10020F0BD40
:104C4000064A07481060074A121A22F00702C0E914
:104C5000002401202860D7E73C040020380400200D
:104C60007434012070360120F0EE400AF5EEC00ADF
:104C7000F1EE10FA13DBB2EE080AF4EEC00AF1EE20
:104C800010FA0CD89FED0D0A30EEC01AF2EE081A99
:104C900081EE210A9FED0A1A20EE010A7047B2EE5A
:104CA000080A30EEC00AF2EE081A80EE211ADFED93
:104CB000041A9FED030A01EE610AEFE7000000000D
:104CC0000000C842F0EE400AB0EE000AF4EEC00A5E
:104CD000F1EE10FA15DBB2EE000AF4EEC00AF1EEC6
:104CE00010FA0ED8B0EE000A30EEC00AF1EE081A43
:104CF00080EE211ADFED101A9FED0F0A01EE610A16
:104D00007047B0EE000AF4EEC00AF1EE10FA05D8D2
:104D1000B2EE080A30EE800AF0EE400AB2EE000A67
:104D200030EEC00AF1EE081A80EE211A9FED020A59
:104D300021EE000AE4E700000000C84210B5044676
:104D40000E48006844600E480068844207D20B4851
:104D50000168091D0B48006801F074F80CE0074871
:104D60000168091D0848006801F06CF807480068F0
:104D7000844201D20548046010BD0000A003002059
:104D8000B0030020A8030020A4030020D0030020CB
:104D900070B505460E46482000F040FB044694B12D
:104DA0001EB9A80000F03AFB00E030462063206BFB
:104DB00020B9204601F08CF8002404E0A900A522C7
:104DC000206BFBF767FA204670BD000010B501F0BC
:104DD0005FF80C48006890B90B4801F023F80B48C5
:104DE00001F020F808480A490860084809490860A5
:104DF00000220C210A2001F04DFB0249086001F05D
:104E000057F810BD0C040020043401201834012090
:104E10000404002008040020704770B504460D46C5
:104E2000206870B1216CE0680844E0606168E06867
:104E3000884201D32068E0602846226CE168FBF7D5
:104E400017FA70BD70B504460E461546206C38B989
:104E5000206870BB606801F0AFF90020606028E056
:104E60007DB93146226CA068FBF702FA216CA0687C
:104E70000844A060D4E9011088421AD32068A060D9
:104E800017E03146226CE068FBF7F2F9216CE0682C
:104E9000401AE0602168E068884203D2216C6068B3
:104EA000401AE060022D04D1A06B10B1A06B401E2F
:104EB000A063A06B401CA06370BD00000849096896
:104EC000C96A09B100200AE006490968012901D927
:104ED000002004E004490968044A1268881A7047EF
:104EE000A003002050070020D0030020B0030020C2
:104EF0000146084A126812680AB9012200E000223D
:104F00000A600A6822B9034A1268D268106800E091
:104F10000020704704040020094A22F00700094AD3
:104F200010600022074B5A60074A084B5A60002263
:104F30001A600146044A4A601A460A607047000037
:104F40000C080020EC030020F82B0100F4030020E3
:104F500000BFFFF761FF13480068012801D901F085
:104F6000B3F8FFF7ABFF0446022C19D301F0ECF9BC
:104F70000D4800680D490968884201D3012000E00E
:104F8000002018B9FBF754F900BFFEE7FFF796FFC2
:104F90000446022C02D3204600F0E8FF01F040FE58
:104FA000D7E7000050070020D0030020B003002006
:104FB0002DE9F04704460F4615469946DDF8208056
:104FC000002607E0B95D04F134008155B85D00B9F1
:104FD00002E0761C102EF5D300BF002143200155BE
:104FE000052D00D30425E5626564201D00F027FF30
:104FF00004F1180000F023FF2461C5F10500A06151
:105000006462BDE8F087000010B5002407E004EBFF
:1050100084010D4A02EB810000F004FF641C052CA2
:10502000F5D30A4800F0FEFE094800F0FBFE0948EF
:1050300000F0F8FE084800F0F5FE04480749086053
:1050400003480749086010BD50070020B40700203E
:10505000C8070020DC070020F0070020A403002080
:10506000A80300202DE9F04104460D4616461F46D0
:105070004FF0000865602461B5420CD8F01BA169AF
:10508000884202D34FF0010811E0211D0948006851
:1050900000F0D8FE0BE0BE4204D2BD4202D34FF076
:1050A000010804E0211D0448006800F0CBFE4046E2
:1050B000BDE8F081080400200404002070B5054616
:1050C00000F0E6FEA86B08B9012400E0002400F01F
:1050D000EFFE204670BD70B5054600F0D9FEA86B06
:1050E000E96B884201D1012400E0002400F0E0FED9
:1050F000204670BDF8B505460F4613480068C068E5
:10510000C468201D00F0F0FCE069012817D1A069F7
:1051100041192B463A462046FFF7A4FF01280ED13D
:10512000002003462A4601460090204601F014FE66
:1051300006461EB9FBF77CF800BFFEE700BF20461D
:10514000616A8847F8BD00000404002070B586B08D
:1051500053E0059C606908B9012000E0002010B907
:10516000201D00F0C1FC02A800F07AF80546039863
:1051700030B1012826D0022825D003283BD136E0C3
:105180000498A269811803462A462046FFF76AFF61
:10519000012816D12046616A8847E069012810D1AC
:1051A000002000900498A169421800231946204667
:1051B00001F0D2FD06461EB9FBF73AF800BFFEE744
:1051C00000BF19E018E00498A061A06908B10120AF
:1051D00000E0002018B9FBF72BF800BFFEE7A0693C
:1051E00041192B462A462046FFF73CFF04E02046A3
:1051F00000F06EFE00E000BF00BF00231A4603A9C6
:105200000348006801F071F90028A2D106B070BD12
:105210000C040020F8B504460E4601F095F86846E7
:1052200000F01EF805460098A0B946B9AC4206D871
:1052300001F0F6FC29462046FFF75CFF0CE0611BFD
:105240000648006800F04CFF01F0EAFC20B900F0CD
:105250003BFF01E001F0E4FCF8BD00000C0400207D
:1052600070B5044601F0E8FB054608480068854231
:1052700006D20648006800F00BF80120206001E02B
:105280000020206001480560284670BD1004002001
:105290002DE9F84381462BE020480068C068056886
:1052A0001E480068C068C468201D00F01DFC204630
:1052B000616A8847E06901281AD1A0694619AE429F
:1052C00007D966602461211D1448006800F0BAFD0A
:1052D0000EE0002003462A4601460090204601F0D9
:1052E0003BFD07461FB9FAF7A3FF00BFFEE700BF6B
:1052F0000A480068006808B9012000E00020002882
:10530000CAD00648D0F80080054800680349086004
:105310000348C0F80080BDE8F883000004040020C2
:105320000804002008B500BF6846FFF7E1FD044609
:1053300020460099FFF76EFFFFF708FFF4E710B56E
:10534000044600F0A5FD11E0606A08B9012000E004
:10535000002038B904F1240001F022FC18B100F05B
:10536000DDFE00E005E0A06C401EA064A06C0028FB
:10537000EADC00BF4FF0FF30A06400F099FD00F0C0
:1053800087FD11E0206908B9012000E0002050B934
:1053900004F1100001F004FC08B100F0BFFE606CE5
:1053A000401E606400E002E0606C0028EADC00BFA0
:1053B0004FF0FF30606400F07BFD10BD10B5F0EEE3
:1053C000400A002000219FED131AB0EE410A182276
:1053D000501E0BE0431E104C04EB830393ED001AA8
:1053E000234603EB800383ED001A401E0028F1DC06
:1053F000094BC3ED000A002109E0074B03EB8103D1
:1054000093ED001A31EE001AB0EE410A491C18293A
:10541000F3DB10BD00000000900500202DE9F041F5
:1054200004464FF0000800F08FFF2548006820B9BF
:10543000FFF772FD01202249086044B1083404F0EE
:10544000070020B104F00700C0F108000444002C5C
:1054500031D01C4884422ED21B4F3846056801E0EB
:105460002F462D686868A04202D228680028F7D12C
:10547000164885421FD0386800F10808286838604F
:105480006868001B102810D92E196868001B70600E
:105490006C6071680C4800E00068026852688A42DB
:1054A000FAD302683260066000BF0949686809687B
:1054B000081A0749086001F0B3FB4046BDE8F081D7
:1054C00000040020F82B0100EC030020F40300206E
:1054D000FC030020001F4FF080730360001F016079
:1054E000001F0023036014380260001FDB1E0360EE
:1054F0002038704700B52DED028B83B05348FCF780
:10550000EDFC1020FBF798FC4FF47840FCF728F8EE
:105510004E48807900F5FA604C4949794C4A52F876
:105520002110CDE9001049480379C078494951F864
:10553000202049A14C48FEF79BFA4B4AE621562011
:10554000FCF716F84148FCF7C9FC1020FBF774FC87
:105550004648027846A14448FEF78AFA424A4FF488
:1055600099718620FCF704F84048427845A13E48EE
:10557000FEF77EFA3C4A78218620FBF7F9FF3B488C
:1055800044A142683848FEF773FA374A4FF49971DC
:10559000A820FBF7EDFF3548007A424951F820205A
:1055A00041A13148FEF764FA2F4A7821A820FBF781
:1055B000DFFF404890ED181BB0EE410AF0EE610AA3
:1055C00053EC102B3CA12848FEF752FA264A4FF420
:1055D0009971C820FBF7CCFF1820FBF72DFC4FF486
:1055E000FC60FBF7BDFF194800780090174843782E
:1055F000827836A11C48FEF73BFA1B4AEB213E207D
:10560000FBF7B6FF1020FBF717FC2A4890ED170AAE
:10561000DFED320A20EE200A10EE101A0846FBF7E2
:105620001DF841EC180B8DED008B02232CA22EA14E
:105630000D48FEF71DFA0C4A4FF496716E20FBF7E9
:1056400097FF012003B0BDEC028B00BD20010020BC
:10565000540100203401002025732C253032642CA5
:1056600025732C25303464004C04002040040020B5
:1056700054656D70657261747572653A2530326477
:105680000000000048756D69646974793A2530320C
:105690006400000050726573737572653A20256C62
:1056A000640000008801002043757272656E743AD0
:1056B00025730000F0050020546F74616C20446570
:1056C0006372656173653A256700000025303264B6
:1056D0003A253032643A2530326400000000C84276
:1056E0005261696E00000000466F726563617374F9
:1056F0003A257320416674657220256420686F75B1
:10570000727328253267252529000000F0EE401A23
:10571000F4EEC11AF1EE10FA02DBB7EE000A7047A0
:1057200031EE610A80EE202AB7EE000A30EE420A1E
:10573000B5EEC00AF1EE10FA02D29FED060AEEE7CE
:1057400031EE612A82EE200AB7EE002A32EE400ADC
:10575000E5E70000000000002DE9F04385B00446B5
:105760000D4616461F46DDF8308014221FA16846FC
:10577000FAF77EFD31466846FAF79EFD39466846DF
:10578000FAF79AFD2A4621461DA0FEF761F94FF46B
:10579000FA70FBF73DF96846FAF79AFD00F1060941
:1057A00049461FA0FEF754F94FF4FA70FBF730F9A1
:1057B000424669461FA0FEF74BF94FF49670FBF77F
:1057C00027F96846FAF784FD00F10609494614A056
:1057D000FEF73EF94FF49670FBF71AF917A0FEF7A3
:1057E00037F9012005B0BDE8F0830000474554209B
:1057F0002F7570646174653F6B65793D0000000032
:1058000041542B43495053544152543D332C22545C
:105810004350222C222573222C25640D0A000000FF
:1058200041542B43495053454E443D332C25640D80
:105830000A000000257325640D0A000041542B4323
:105840004950434C4F53450D0A0000002DE9F043E9
:1058500085B004460D4616461F46DDF830801422FA
:105860001FA16846FAF704FD31466846FAF724FDA1
:1058700039466846FAF720FD2A4621461DA0FEF764
:10588000E7F84FF4FA70FBF7C3F86846FAF720FD23
:1058900000F1080949461FA0FEF7DAF84FF4FA7044
:1058A000FBF7B6F8424669461FA0FEF7D1F84FF461
:1058B0009670FBF7ADF86846FAF70AFD00F10809A3
:1058C000494614A0FEF7C4F84FF49670FBF7A0F811
:1058D00017A0FEF7BDF8012005B0BDE8F083000079
:1058E000474554202F7570646174653F6B65793D41
:1058F0000000000041542B43495053544152543D41
:10590000332C22544350222C222573222C25640D43
:105910000A00000041542B43495053454E443D3347
:105920002C25640D0A0000002573256C640D0A0007
:1059300041542B434950434C4F53450D0A0000003E
:1059400007B582B09DF8080019A31BA25021009052
:105950001EA0FFF701FF40F6B830FBF759F89DF89D
:1059600009001EA314A25021009018A0FFF7F4FE16
:1059700040F6B830FBF74CF803981AA30EA250215A
:10598000009012A0FFF762FF40F6B830FBF740F836
:105990009DF8100015A308A2502100900BA0FFF75E
:1059A000DBFE40F6B830FBF733F8012005B000BD50
:1059B0006669656C64313D005A4657544A455856ED
:1059C0004C5459514B49364A260000003138342E88
:1059D0003130362E3135332E313439006669656CFD
:1059E00064323D006669656C64333D006669656CD0
:1059F00064343D0070B504460D46164632462946CD
:105A00002046FDF755FE04A0FEF722F840F2DC50D8
:105A1000FAF7FEFF012070BD2041542B5253540D64
:105A20000A0000001CB520216420FCF7E7FD0321DB
:105A30000020FCF711FF07480749084B084ACDE949
:105A4000001008490848FCF7D5FE0848FCF728FF75
:105A50001CBD00002F0400202E0400202D04002077
:105A600028040020230400201E0400201404002029
:105A7000F0EE401AF4EEC11AF1EE10FA18DB31EE36
:105A8000C12A82EE200AB7EE002A32EE400AB5EEB5
:105A9000C00AF1EE10FA02D29FED120A704731EE01
:105AA000C10A80EE202AB7EE000A30EE420AF5E77E
:105AB00031EE612A82EE200AB7EE002A32EE400A69
:105AC000B5EEC00AF1EE10FA02D29FED060AE5E744
:105AD00031EE612A82EE200AB7EE002A32EE400A49
