:020000040800F2
:10000000803F01204D020008291B0008C510000890
:10001000251B0008C90B00089530000800000000EF
:100020000000000000000000000000009D0100082A
:10003000810D000800000000E1010008E91E000831
:10004000670200086702000867020008D51D000863
:1000500067020008670200086702000867020008DC
:1000600067020008670200086702000867020008CC
:1000700067020008670200086702000867020008BC
:1000800067020008670200086702000867020008AC
:10009000670200086702000867020008670200089C
:1000A000670200086702000867020008670200088C
:1000B000711F000867020008670200086702000855
:1000C000670200086702000867020008670200086C
:1000D0006702000805300008293000084D3000088C
:1000E00067020008391D000867020008670200085F
:1000F000670200086702000867020008670200083C
:10010000670200086702000867020008670200082B
:10011000BD2F0008E12F00086702000867020008F1
:10012000670200086702000867020008670200080B
:1001300067020008670200086702000867020008FB
:1001400067020008670200086702000867020008EB
:1001500067020008670200086702000871300008A3
:1001600067020008670200086702000867020008CB
:1001700067020008670200086702000867020008BB
:100180006702000867020008DFF80CD000F0CEFB21
:1001900000480047494C0008803F0120234B196864
:1001A0000868B0E8F04F80F309884FF0000080F352
:1001B000118870470000000003480068006880F361
:1001C000088862B600DF00BF08ED00E0DFF80C0031
:1001D000016841F470010160704700BF88ED00E0E4
:1001E000EFF30980114B1A681EF0100F08BF20EDC5
:1001F000108A20E9F04F106008B54FF0500080F3EE
:10020000118805F00FFC4FF0000080F31188BDE865
:10021000084019680868B0E8F04F1EF0100F08BFDA
:10022000B0EC108A80F30988704700BF9402002068
:10023000EFF311804FF0500181F31188704780F384
:1002400011887047EFF3058070470000064880472B
:1002500006480047FEE7FEE7FEE7FEE7FEE7FEE7AB
:10026000FEE7FEE7FEE7FEE7091F00088901000838
:1002700040EA01039B0703D009E008C9121F08C028
:10028000042AFAD203E011F8013B00F8013B521EA8
:10029000F9D27047D2B201E000F8012B491EFBD21F
:1002A00070470022F6E710B513460A460446194681
:1002B000FFF7F0FF204610BD2DE9FE4F81EA030451
:1002C00004F0004421F0004100944FF0000B23F0B3
:1002D000004350EA01045ED052EA03045BD0C3F34A
:1002E0000A54C1F30A552C44A4F2F3340194A0FB40
:1002F0000254C1F3130141F48011C3F3130343F417
:10030000801301FB024400FB034E840A970A44EA6F
:10031000815447EA8357A4FB076802958D0A05FBC1
:1003200007854FEA932C04FB0C542705029D4FEAE6
:10033000065847EA1637B5EB08056EEB070C870E33
:10034000920E47EA811742EA8312A7FB0201B6EB3D
:100350000B0164EB00042B0D43EA0C335E1844EBF5
:100360001C50DA465146E7FB0201C5F313044FEA7D
:100370000B3343EA14534FEA0432019C43EA060369
:10038000A4F10C040294009CCDE900B400F0A9F99A
:1003900003B0BDE8F08F00200146F9E72DE9F04DEC
:1003A00081EA030404F0004B21F0004514464FF0AD
:1003B000000A23F0004150EA050220D054EA01026D
:1003C0001DD0C5F30A570246C5F31303C1F313004A
:1003D000C1F30A5640F4801543F48013A7EB0608D6
:1003E000101BD64608F2FD3873EB050002D308F166
:1003F000010801E092185B41B8F1000F03DA002018
:100400000146BDE8F08D00204FF480110646844679
:100410000EE0171B73EB050705D3121B63EB0503F7
:1004200006434CEA010C49084FEA300092185B4140
:1004300050EA0107EDD152EA030012D082EA04002B
:1004400083EA0501084305D0101BAB4106D2012207
:10045000002306E000224FF0004302E06FF00102AB
:1004600053101AEB06004CEB085110EB0A0041EB5D
:100470000B01BDE8F04D00F025B90EB5C10F80EAC3
:10048000E0700844CA07002140F233438DE80E00B3
:100490000A460B4600F025F903B000BD0EB540F248
:1004A000334102910021CDE900110A460B4600F0CC
:1004B00018F903B000BDC1F30A5210B5C1F313011E
:1004C00040F2FF3341F480119A4201DA002010BD5E
:1004D00040F233439A42A2F2334203DC524200F02C
:1004E000AAF810BD904010BD00F0004230F000406E
:1004F0000AD0C10D01F56071C0F3160042EA015146
:10050000C2084007114370470020014670470000B1
:1005100030B5041E71F1000404DB4FF0004440428A
:1005200064EB0101141E73F1000405DB1C464FF05F
:100530000043524263EB04038B4208BF824230BD4A
:1005400030B5041E71F1000404DB4FF0004440425A
:1005500064EB0101141E73F1000405DB1C464FF02F
:100560000043524263EB0403994208BF904230BDFE
:1005700001F0004330B421F0004150EA010206D0FE
:100580000A0DA2F56072C1F31301002A02DC30BC2F
:1005900000207047440F44EAC104C100E01830BC99
:1005A00000EBC25000F057B830B50B4601460020B2
:1005B0002022012409E021FA02F59D4205D303FA25
:1005C00002F5491B04FA02F52844151EA2F10102A6
:1005D000F1DC30BD2DE9F05F0546002092469B46D8
:1005E00088460646814640241BE028464146474649
:1005F000224600F020F853465A46C01A914110D3C3
:1006000011461846224600F0A3F92D1A67EB01089F
:100610004F4622460120002100F09AF917EB00090D
:100620004E41201EA4F10104DFDC484631462A4633
:100630004346BDE8F09F202A04DB203A21FA02F06D
:100640000021704721FA02F3D040C2F1200291400C
:100650000843194670470029A8BF7047401C49004D
:1006600008BF20F00100704710B4B0FA80FC00FA17
:100670000CF050EA010404BF10BC704749B1CCF142
:10068000200421FA04F411FA0CF118BF01212143CE
:100690000843A3EB0C01CB1D4FEA00614FEA102089
:1006A00042BF002010BC704700EBC350104400292B
:1006B000A4BF10BC7047401C490008BF20F00100D7
:1006C00010BC704710B5141E73F1000408DA401C0A
:1006D00041F1000192185B411A4301D120F0010061
:1006E00010BD2DE9F04D92469B4611B1B1FA81F251
:1006F00002E0B0FA80F22032904600F029F9044678
:100700000F4640EA0A0041EA0B0153465A460843A5
:1007100013D0114653EA010019D0C8F140025046E7
:10072000FFF789FF05460E4650465946424600F0FF
:100730000FF9084305D0012004E020463946BDE802
:10074000F08D0020054346EAE0762C4337430A98B3
:100750006305E40AA0EB08000022FD0A44EA4754BE
:100760000A3002D500200146E9E701051019694168
:10077000DDE9084500196941BDE8F04DA2E72DE922
:10078000FE4F804681EA0300C00F0C46009021F026
:10079000004123F00045B8EB0200A94105D24046D4
:1007A000214690461C460B46024623F0004010436B
:1007B00047D0270DC7F30A00C3F30A510290401A2D
:1007C000019040286BDAC3F3130040F4801B0098BB
:1007D000924620B10023D2EB030A63EB0B0B019886
:1007E0005946C0F14002504600F0B2F806460D46A8
:1007F00050465946019A00F0BAF810EB08006141E2
:10080000002487EA115284EAE7731A4340D0009A21
:1008100062B3019A012A4FEA075215DC001B61EB13
:1008200002014FF0004202EA0752CDE90042001CEB
:1008300041F5801132462B46FFF753FF03B0BDE868
:10084000F08F40462146F9E7001B61EB0201001CD6
:1008500041F5801300185B412018A2F5001747EB03
:10086000030140EAD570B6196D4111E06D084FEAF9
:10087000360645EAC0754FEA0752001B61EB0201DC
:10088000001C41F5801149084FEA30000019514120
:1008900032462B4603B0BDE8F04FFFF713BF009878
:1008A000012240000023D0EB020263EBE0730098CA
:1008B00021464FEAE074B8EB000061EB0401E9E780
:1008C00083F000435BE781F0004158E770B521F009
:1008D000004303430CD0C1F30A550024D5EB0405B3
:1008E00064EB0403D617AD1AB34102DB00200146C6
:1008F00070BD201841EB025170BDC1F30A52C1F323
:10090000130140F2FF3341F480119A4202DA0020D1
:100910000146704740F233439A42A2F2334202DC6E
:100920005242FFF788BE00F013B80000064C074D96
:1009300006E0E06840F0010394E8070098471034AF
:10094000AC42F6D3FFF724FCFC8D00081C8E000897
:10095000202A04DB203A00FA02F10020704791407F
:10096000C2F1200320FA03F3194390407047202A74
:1009700006DBCB17203A41FA02F043EAE07306E0C7
:1009800041FA02F3D040C2F12002914008431946D7
:1009900070472DE9F04D00231A461B1A8A4103DBEC
:1009A00000200146BDE8F08DC1F30A52C1F31301E6
:1009B00041F480154FF0000BD10702D100186D41B2
:1009C000521E0027044640F2FF11384601EB620A2E
:1009D0003E468046024600204FF48011FFF72BFE72
:1009E000C2197141BB1846EB0100B4EB030C75EB67
:1009F000000C04D3E41A65EB000517460E462419D3
:100A000008F101006D4180463428E3DDF91946EB19
:100A10000600091BA84103D24FF0FF32134601E044
:100A2000002213461BEB070046EB0A51BDE8F04DD0
:100A3000FFF748BE70B58C1810F8015B15F007037E
:100A400001D110F8013B2A1106D110F8012B03E067
:100A500010F8016B01F8016B5B1EF9D12B0705D46F
:100A60000023521E0DD401F8013BFAE710F8013BB8
:100A7000CB1A921C03E013F8015B01F8015B521ED4
:100A8000F9D5A142D8D3002070BD00000021084A4A
:100A90001168084A1140D0E900231A4383681A43B9
:100AA000C3681A431143044AC2F804137047000094
:100AB00004230140E030FCFF0020014030B5024635
:100AC000002000235068104C20400D790C6844EA47
:100AD00005242043506090680C4C2040D1E9035419
:100AE0002C438D682C434D7944EA450420439060A3
:100AF000D06A20F470000C7D641EE4B2234340EA07
:100B00000350D06230BD0000FFFEFFFCFDF7FFC0C8
:100B1000F0B504460D4600200021092D11DDE068E6
:100B2000A5F10A0606EB4607072606FA07F18843F1
:100B3000A5F10A0606EB460603FA06F10843E06053
:100B40000CE0206905EB4507072606FA07F1884304
:100B500005EB450603FA06F108432061072A0FDA80
:100B6000606B561E06EB86071F2606FA07F18843C0
:100B7000561E06EB860605FA06F10843606322E07E
:100B80000D2A0FDA206BD61F06EB86071F2606FA02
:100B900007F18843D61F06EB860605FA06F10843DF
:100BA000206310E0E06AA2F10D0606EB86071F261F
:100BB00006FA07F18843A2F10D0606EB860605FA50
:100BC00006F10843E062F0BD00BFFEE7FEB500207D
:100BD0000190029001F0E6FC01F08CFC0121084636
:100BE00000F0F6FF4FF480605A4908600120087158
:100BF0000320487100208871C871574800F09AF9A5
:100C00004FF48061544800F00BFA282000F0CEF831
:100C10004FF48061504800F001FA4FF019004F493D
:100C20000968009100BFEFF3058139B900BF4B4956
:100C30000968009A891A8142F9D309E006E04FF069
:100C4000E021096901F4803101B1401E0028F6D18C
:100C500000BF4FF48061404800F0E2F94FF480603B
:100C60003C49086000200871032048710020887109
:100C7000C871394800F05EF9282000F097F84FF469
:100C80008061354800F0C1F9012801D10020FEBD86
:100C9000502000F08BF84FF480612F4800F0B5F938
:100CA00008B90020F3E7502000F080F84FF480618D
:100CB000294800F0AAF9012801D10020E7E7002423
:100CC00029E0002523E000BF4FF48061224800F0B6
:100CD0009CF90028F8D0322000F068F84FF48061C9
:100CE0001D4800F092F980B101A8005DC5F107022E
:100CF00001219140084301A9085500BF4FF48061CC
:100D0000154800F082F90028F8D1681CC5B2082DFA
:100D1000D9DB601CC4B2052CD3DB9DF804009DF820
:100D2000051008449DF8061008449DF80710084473
:100D3000C6B29DF80800B04201D00020A7E79DF898
:100D40000600074908709DF8040006490870012054
:100D50009DE7000004020020000002402402002061
:100D60000C0200200D0200200148007870470000AE
:100D70000D02002001480078704700000C0200209E
:100D8000704708B54FF08041496A009100BF00BF2D
:100D90004FF08041496A009A891AF9D04FF080419A
:100DA000496A0091411E081EF1D108BD08B54FF0F7
:100DB0008041496A009100BF00BF4FF08041496AFD
:100DC000009A891AF9D04FF08041496A0091411E7A
:100DD000081EF1D108BD000051B18200A2F1C0424D
:100DE000126842F001038200A2F1C042136009E0E0
:100DF0008200A2F1C0421268034B1A408300A3F1A3
:100E0000C0431A6070470000FEFF0F0030B500219C
:100E1000002200230468A400A4F1C0442168444CCB
:100E20002140D0E901452C43C5682C4305692C437A
:100E300045692C4385692C43C5692C43056A2C43BD
:100E4000456A2C43856A2C43C56A2C43056B2C43A9
:100E500021430468A400A4F1C04421608468082CE4
:100E60000BD10468A400A4F1C044246844F04005F8
:100E70000468A400A4F1C04425600468641CA400B4
:100E8000A4F1C044226802F04042446B2468456BE0
:100E90006D6844EA0514456BAD6844EA0524456B6A
:100EA000AD8944EA0544456B2D8A44EA0554456BF7
:100EB0002D7D44EA0564456BAD692C4322430468EB
:100EC000641CA400A4F1C0442260C46AB4F5804F3D
:100ED00024D10468A400A4F1C044D4F8043103F080
:100EE0004043846B2468856B6D6844EA0514856B08
:100EF000AD6844EA0524856B2D8A44EA0554856B68
:100F00002D7D44EA0564856BAD692C432343046859
:100F1000A400A4F1C044C4F8043107E06FF07045A8
:100F20000468A400A4F1C044C4F8045130BD00001A
:100F30008000F7FFF0B50A4600210023002400BF1F
:100F40003DE0012505FA01F3156805EA03049C421A
:100F500034D105684F000326BE40B54305601579BE
:100F60004E00B5400668354305601579012D02D065
:100F70001579022D16D185684F000326BE40B54372
:100F8000856055794E00B540866835438560456873
:100F900001268E40B5434560456896798E40B6B2CD
:100FA00035434560C5684F000326BE40B543C56064
:100FB000D5794E00B540C6683543C560491C102937
:100FC000BFD3F0BDF0B5002300244D07ED0E02FAAB
:100FD00005F3CE1000F1200555F826504E07F70E08
:100FE0000F26BE40B543CF1000F1200646F827502B
:100FF000CE1000F1200555F8265045EA0304CE1026
:1010000000F1200545F82640F0BD02460020136996
:101010000B400BB1012000E0002070474183704776
:1010200001837047A1F12002034B03EBC202136856
:101030000360526842607047A8890008A1F120024D
:1010400002EB4202044B03EB820213680360536815
:1010500043609268826070473485000870B5054629
:101060000C46A4F1200000EB4000044A02EBC00152
:1010700018222846FFF7FCF870BD00004C7C0008E1
:1010800070B505460C46A4F12000044A02EB00119D
:1010900010222846FFF7ECF870BD00005C760008CF
:1010A00070B505460C46A4F1200000EB4000044A50
:1010B00002EB001130222846FFF7DAF870BD00007D
:1010C0008C64000800BFFEE700B587B00121480529
:1010D00000F09EFD0121022000F07AFD4FF44070E7
:1010E000059002208DF8180003208DF819000120CA
:1010F0008DF81A0000208DF81B0005A91548FFF790
:1011000019FF042208211348FFF75CFF042209217C
:101110001048FFF757FF104800F044F80F480190BF
:101120000020ADF808004FF48040ADF80A0001201F
:10113000ADF80C008002ADF80E000001ADF8100013
:1011400001A9054800F05EF80121034800F01DF8F0
:1011500007B000BD0004024000540040801A0600A1
:1011600070B502460024002500230020958A138BC9
:101170001B0445EA030626F07F4404EA01068E427A
:1011800001D1012000E0002070BD21B1028842F0B1
:101190000102028004E002884FF6FE731A400280CA
:1011A0007047000010B504461348844209D101215C
:1011B000480500F03DFD00214FF4001000F038FD1F
:1011C00018E00E48844209D10121880500F030FD65
:1011D00000214FF4800000F02BFD0BE00848844212
:1011E00008D10121C80500F023FD00214FF40000C3
:1011F00000F01EFD10BD00000054004000580040EB
:10120000005C00402DE9FF4704460D460026B1462C
:101210000427DFF8CC80A6884FF6C07006406846E9
:1012200000F016FDDDF808802E48B8FBF0F01FFA3C
:1012300080F946EA0906A68020884FF6FE7108402C
:10124000208000262849286888420CD82868400059
:10125000B8FBF0F087B2042F00DA04273E4309F10F
:101260000100208427E0E8884BF6FF71884206D110
:10127000286800EB4000B8FBF0F087B209E028686E
:1012800000EBC00101EB0010B8FBF0F087B247F4AF
:101290008047C7F30B0008B947F0010747F4004047
:1012A00006434FF4967009FB00F04FF47A7190FBFF
:1012B000F1F0401C2084A683208840F001002080AB
:1012C00026884FF6F5300640A8886989084306430A
:1012D0002680A889298908432081BDE8FF8700006E
:1012E00000127A0040420F00A086010001B5BDF84F
:1012F00000000149088008BDF801002030B504460F
:1013000000250021084600F0A7FB00F0F7FB00BF16
:1013100002E0034804806D1CB5F5963FF9D330BD5B
:10132000000002602DE9F04380460D4614461E463B
:101330000027A1462146284600F08EFB00F0DEFB88
:1013400000BF10E01CB9681C85B21FFA89F4214661
:10135000284600F081FB00F0D1FB404600F0D4FBB2
:10136000601E84B27F1CB742ECD3BDE8F08300005E
:101370001CB50121582000F02BFC0121084600F08B
:1013800037FC0C2200214348FFF71CFE0C220121F0
:101390004048FFF717FE0C2204213E48FFF712FEDB
:1013A0000C2205213B48FFF70DFE0C22072139488E
:1013B000FFF708FE0C2208213648FFF703FE0C2237
:1013C00009213448FFF7FEFD0C220A213148FFF7BE
:1013D000F9FD0C220B212F48FFF7F4FD0C220E2102
:1013E0002C48FFF7EFFD0C220F212A48FFF7EAFDFA
:1013F0000C2207212848FFF7E5FD0C22082126488A
:10140000FFF7E0FD0C2209212348FFF7DBFD0C224A
:101410000A212148FFF7D6FD0C220B211E48FFF7B9
:10142000D1FD0C2211461C48FFF7CCFD0C220D21EA
:101430001948FFF7C7FD0C220E211748FFF7C2FD20
:101440000C220F211448FFF7BDFD4CF6B37000903D
:1014500002208DF8040003208DF8050000208DF88F
:1014600006008DF8070069460A48FFF763FD4FF64E
:101470008070009002208DF8040003208DF8050094
:1014800000208DF806008DF8070069460248FFF736
:1014900051FD1CBD000C02400010024000B597B089
:1014A000002001900290022003900020049001206F
:1014B0000590002006900790089009900A9010204F
:1014C0000B9000200C900E900F9010904FF48050D5
:1014D0001190002012900D9013904FF40020149062
:1014E00001A8159008A8FFF791FC00200190029038
:1014F0000420039000200490012005900020069015
:10150000079001A8169008A8FFF780FC0121002091
:10151000FFF762FC17B000BD10B5FFF729FF40F6DA
:10152000B830FFF72EFCFFF7B9FF40F6B830FFF7F1
:1015300028FC2121072000F0EDFA3220FFF721FCE2
:101540000121002000F0E6FA3220FFF71AFC2321E7
:10155000072000F0DFFA3220FFF713FC00211020F3
:1015600000F0D8FA5A20FFF70CFC3321072000F0D6
:10157000D1FA3220FFF705FC46F63001112000F0C9
:10158000C9FA3220FFF7FDFB4FF4C061022000F0E2
:10159000C1FA3220FFF7F5FB46F6EB41122000F0CE
:1015A000B9FA3220FFF7EDFB4AF6A401032000F060
:1015B000B1FA3220FFF7E5FB00210C2000F0AAFA77
:1015C0003220FFF7DEFB40F60C010D2000F0A2FAFE
:1015D0003220FFF7D6FB4FF42C510E2000F09AFA80
:1015E0003220FFF7CEFBB0211E2000F093FA32200C
:1015F000FFF7C7FB42F63F31012000F08BFA3220A3
:10160000FFF7BFFB0021052000F084FA3220FFF72E
:10161000B8FB0021062000F07DFA3220FFF7B1FB75
:101620004EF61C71162000F075FA3220FFF7A9FB68
:1016300040F20311172000F06DFA3220FFF7A1FBF2
:1016400000210B2000F066FA3220FFF79AFB002100
:101650000F2000F05FFA3220FFF793FB00214120BA
:1016600000F058FA3220FFF78CFB0021422000F0F6
:1016700051FA3220FFF785FB0021482000F04AFA9A
:101680003220FFF77EFB40F23F11492000F042FA82
:101690003220FFF776FB00214A2000F03BFA32208F
:1016A000FFF76FFB00214B2000F034FA3220FFF7E8
:1016B00068FB4FF46F41442000F02CFA3220FFF712
:1016C00060FB0021452000F025FA3220FFF759FB8E
:1016D00040F23F11462000F01DFA3220FFF751FB87
:1016E00040F20771302000F015FA3220FFF749FB75
:1016F0004FF40171312000F00DFA3220FFF741FB69
:101700004FF40171322000F005FA3220FFF739FB67
:1017100040F20251332000F0FDF93220FFF731FB97
:1017200040F20751342000F0F5F93220FFF729FB91
:101730004FF40171352000F0EDF93220FFF721FB65
:101740004FF40171362000F0E5F93220FFF719FB64
:1017500040F20251372000F0DDF93220FFF711FB93
:1017600040F202313A2000F0D5F93220FFF709FBB0
:1017700041F2BE212F2000F0CDF93220FFF701FB0E
:1017800040F202313B2000F0C5F93220FFF7F9FAB0
:101790000021232000F0BEF93220FFF7F2FA0021E9
:1017A000242000F0B7F93220FFF7EBFA4FF40041A4
:1017B000252000F0AFF93220FFF7E3FA00214F2097
:1017C00000F0A8F93220FFF7DCFA00214E2000F0EB
:1017D000A1F93220FFF7D5FA10BD00002DE9F04342
:1017E0008DB007460E46904600240025B8F10A0F3A
:1017F0007ED092480088082833D14FF00009B8F114
:101800000A0F02D1A6F1080006B241460BA8FFF765
:1018100009FC002422E00BA810F80490002519E030
:1018200049FA05F000F0010048B1721911B23A19F5
:1018300010B2834A128812B200F0B4F908E07219AB
:1018400011B23A1910B27F4A128812B200F0AAF906
:10185000681CC5B2082DE3DB601CC4B2082CDADBBF
:1018600000BF764800880C2833D14FF00009B8F14A
:101870000A0F02D1A6F10C0006B241460AA8FFF7F2
:10188000DDFB002422E00AA810F80490002519E0EE
:1018900049FA05F000F0010048B1721911B23A1985
:1018A00010B2674A128812B200F07CF908E072198F
:1018B00011B23A1910B2634A128812B200F072F9EA
:1018C000681CC5B2082DE3DB601CC4B20C2CDADB4B
:1018D00000BF5A480088102835D14FF00009B8F1F0
:1018E0000A0F02D1A6F1100006B2414609A800E095
:1018F000A1E0FFF7C5FB002422E009A810F804903E
:10190000002519E049FA05F000F0010048B172190C
:1019100011B23A1910B24A4A128812B200F042F9D2
:1019200008E0721911B23A1910B2464A128812B27E
:1019300000F038F9681CC5B2082DE3DB601CC4B2A6
:10194000102CDADB00BF3D4800880E2837D14FF05D
:101950000009B8F10A0F02D1A6F10C0006B2414607
:1019600007A8FFF77BFB002426E007A830F8140047
:101970001FFA80F900251BE0C5F10C0049FA00F0C0
:1019800000F0010048B1721911B23A1910B22C4A94
:10199000128812B200F006F908E0721911B23A1971
:1019A00010B2284A128812B200F0FCF8681CC5B2C6
:1019B0000C2DE1DB601CC4B20C2CD6DB00BF1F4831
:1019C0000088182837D14FF00009B8F10A0F02D16A
:1019D000A6F1180006B2414601A8FFF761FB0024FA
:1019E00026E001A830F814001FFA80F900251BE05A
:1019F000C5F1100049FA00F000F0010048B1721979
:101A000011B23A1910B20E4A128812B200F0CAF896
:101A100008E0721911B23A1910B20A4A128812B2C9
:101A200000F0C0F8681CC5B2102DE1DB601CC4B228
:101A3000182CD6DB00BF0DB0BDE8F083F801002004
:101A4000F4010020F601002001B5BDF800000149B5
:101A5000088008BDF601002010B503460C46194663
:101A60004E2000F057F821464F2000F053F810BDEB
:101A700001B5BDF800000149088008BDF40100204F
:101A80002DE9F04105460C46164600BF16F8017BCD
:101A90003A4621B228B2FFF7A1FE174800888442D7
:101AA00018DD154800880838201A84B212480088CA
:101AB000182805D1104800881238201A84B216E080
:101AC0000D4800880C2812D10B4800880838201ACD
:101AD00084B20CE008480088854205DD00240648F1
:101AE0000088281A85B202E0E0254FF49874307817
:101AF0000028CBD1BDE8F081F801002022204FF072
:101B0000C04108807047000001490880704700000C
:101B1000000002604FF0C0421080014A11807047FF
:101B20000000026000BFFEE77047000070B50021B2
:101B300000230F22C4781CB3174C246804F4E0641B
:101B4000C4F5E064C4F30721C1F10404E3B20A411F
:101B500044789C40E1B28478144021430C07210E64
:101B60000E4C05786155047804F01F050124AC4043
:101B700005786D11AD0005F1E025C5F8004109E0DB
:101B8000047804F01F050124AC40054D0678761159
:101B900045F8264070BD00000CED00E000E400E0D8
:101BA00080E100E070B504460D461646EF2C02DCDD
:101BB000B5F5A07F00DB70BDA9B2A0B2FFF74CFF66
:101BC000FFF79CFFB0B2FFF79FFF00BFF3E70000F5
:101BD00029B1064A12680243044B1A6004E0034A22
:101BE00012688243014B1A6070470000303802408F
:101BF00029B1064A12680243044B1A6004E0034A02
:101C000012688243014B1A60704700003838024066
:101C100029B1064A12680243044B1A6004E0034AE1
:101C200012688243014B1A6070470000403802403E
:101C300029B1064A12680243044B1A6004E0034AC1
:101C400012688243014B1A6070470000203802403E
:101C5000F0B5002100220024022500260223324F85
:101C60003F6807F00C0121B1042905D0082937D1BC
:101C700005E02E4F076036E02D4F076033E02A4F16
:101C80003F1F3F68C7F38056274F3F1F3F6807F04D
:101C90003F036EB1264FB7FBF3F7DFF88CC0ACF112
:101CA000040CDCF800C0CCF3881C07FB0CF40CE03F
:101CB0001E4FB7FBF3F7DFF870C0ACF1040CDCF893
:101CC00000C0CCF3881C07FB0CF4174F3F1F3F6884
:101CD000C7F301477F1C7D00B4FBF5F7076002E006
:101CE000124F076000BF00BF0F4F3F6807F0F001C1
:101CF0000909104F7A5C0768D74047600A4F3F6870
:101D000007F4E051890A0B4F7A5C4768D740876037
:101D1000054F3F6807F46041490B064F7A5C4768FE
:101D2000D740C760F0BD0000083802400024F4002E
:101D300000127A00E401002010B54FF4805000F04A
:101D400029F828B14FF4805000F014F800F09EFFFD
:101D50004FF4005000F01EF828B14FF4005000F08E
:101D600009F800F094FF4FF400300149086010BDFD
:101D7000143C0140002101098AB242F08002044B68
:101D80001B6803F0800363EA0202014B1A6070478C
:101D90000C28004030B501460020002200230C4CE6
:101DA000246804F004020A4C383C24680C4002EA1F
:101DB000D13544EA0503064C343C246804EA111288
:101DC0001BB194B20CB1012000E0002030BD000036
:101DD0004028004010B54FF48040FFF7DBFF28B1EA
:101DE0004FF48040FFF7C6FF00F052FF4FF4800031
:101DF0000149086010BD0000143C01400CB50020F2
:101E0000019000903448006840F480303249086006
:101E100000BF3148006800F4003000900198401C79
:101E20000190009818B90198B0F5A04FF1D12A4857
:101E3000006800F4003010B10120009001E00020A3
:101E400000900098012846D123484030006840F0B7
:101E500080502149403108602048006840F44040EB
:101E60001E4908601C48083000681B49083108609A
:101E70000846006840F4004008600846006840F4E6
:101E8000A05008601648091F0860081F006840F04D
:101E90008070091F086000BF0F48006800F00070E4
:101EA0000028F9D040F205700E4908600A48083051
:101EB000006820F0030008490831086008460068FF
:101EC00040F00200086000BF03480830006800F0DE
:101ED0000C000828F8D10CBD00380240007000400A
:101EE00019544007003C024010B5FEF7A1F904F078
:101EF00015F918B14FF08050024908600020FEF734
:101F00009EF910BD04ED00E010B51548006840F4DE
:101F10007000134908601348006840F0010011493F
:101F2000086000200F49083108600E4800680E491B
:101F300008400C4908600D48091D0860081F00682A
:101F400020F48020091F0860002006490C31086039
:101F5000FFF754FF4FF0006001498039086010BD61
:101F600088ED00E000380240FFFFF6FE103000244C
:101F700010B54FF6FE704FF0804108822748006888
:101F8000401C264908602648006820B124480068A3
:101F9000401E23490860AFF30080002438E0214848
:101FA00050F8240090B31F4850F82400007B68B319
:101FB0001C4850F82400806840B31A4850F82400A8
:101FC0008168491E174850F824008160154850F870
:101FD00024008068D0B9134A52F824205069114A6D
:101FE00052F82420116988470E4850F824000168EF
:101FF0000C4850F8240081600A4850F824004068DA
:1020000020B90021074850F824000173601CC4B2B5
:102010000448001F0078A042C1DC10BD240200204B
:1020200028020020CC0D002000220288184B984284
:102030000ED0184B98420BD0B0F1804F08D0164B01
:10204000984205D0154B984202D0154B984204D1C6
:102050004FF68F731A404B881A43124B984207D0A1
:10206000114B984204D04FF6FF431A400B891A4394
:1020700002804B68C3620B880385054B984202D0EF
:10208000044B984201D18B7A0386012383827047E7
:10209000000001400004014000040040000800402E
:1020A000000C0040001000400014004010B5044631
:1020B0000121024800F03CF910BD00000000024080
:1020C00010B504460121024800F032F910BD0000AD
:1020D0000008024010B504460221024800F028F929
:1020E00010BD00000008024010B50446042102485B
:1020F00000F01EF910BD00000008024010B50446B3
:102100000821024800F014F910BD00000008024048
:1021100010B504460848844202D00848844203D1DE
:102120001021074800F004F90648844203D1102129
:10213000054800F0FDF810BD0020014000210140DD
:1021400000080240002201400014024010B504467D
:102150000948844202D00948844204D12021084819
:1021600000F0E6F806E00748844203D12021064843
:1021700000F0DEF810BD0000002001400021014009
:1021800000080240002201400014024010B504463D
:102190000221024800F0CCF810BD0000000002400F
:1021A00010B504460421024800F0C2F810BD00003A
:1021B0000000024010B504460821024800F0B8F8BB
:1021C00010BD00000000024010B5044608488442DB
:1021D00002D00848844203D11021074800F0A8F833
:1021E0000648844203D14021054800F0A1F810BD03
:1021F0000020014000210140000002400022014077
:102200000014024010B504460848844202D0084831
:10221000844203D12021074800F08AF8064884420E
:1022200003D18021054800F083F810BD0020014053
:102230000021014000000240002201400014024041
:1022400010B504460848844202D00848844203D1AD
:102250004021074800F06CF80648844203D18115FC
:10226000054800F065F810BD002001400021014044
:1022700000000240002201400014024010B5044654
:102280000848844202D00848844203D1802107488C
:1022900000F04EF80648844203D14115054800F08D
:1022A00047F810BD0020014000210140000002401D
:1022B000002201400014024010B504460848844240
:1022C00002D00848844203D10121074800F030F8C9
:1022D0000648844203D10115054800F029F810BDD5
:1022E0000020014000210140000402400022014082
:1022F0000014024010B504460848844202D0084841
:10230000844203D10221074800F012F806488442B3
:1023100003D10821054800F00BF810BD0020014052
:10232000002101400004024000220140001402404C
:102330007CB504460D460120022100230322CDE98D
:1023400000102946204600F017FA7CBD70B50646FD
:102350000D462C461CB93046FFF7A8FE58E0012C6C
:1023600003D13046FFF712FF52E0022C03D1304672
:10237000FFF716FF4CE0032C03D13046FFF71AFF9E
:1023800046E0042C03D13046FFF71EFF40E0052C49
:1023900003D13046FFF736FF3AE0062C03D1304632
:1023A000FFF74EFF34E0072C03D13046FFF766FFFE
:1023B0002EE0082C03D13046FFF77EFF28E0092CE1
:1023C00003D13046FFF796FF22E00A2C03D13046B6
:1023D000FFF776FE1CE00B2C03D13046FFF77AFEA8
:1023E00016E00C2C03D13046FFF77EFE10E00D2CDA
:1023F00003D13046FFF782FE0AE00E2C03D13046AF
:10240000FFF786FE04E00F2C02D13046FFF79EFE58
:10241000304600F001F870BD10B58AB004460020C7
:102420008DF8150008900790069001208DF8240083
:1024300000208DF814001C48844208D11B48006815
:1024400040F48070194908600020049016E0184894
:10245000844208D11548006840F4007013490860B0
:10246000002004900AE01348844207D10F48006816
:1024700040F480600D490860002004900020029024
:1024800000904FF4803001904FF440700390684604
:10249000FEF7FCFA04A92046FEF710FBA06840F006
:1024A0000100A0600AB010BD002001404438024085
:1024B000002101400022014070B504460D4640F65F
:1024C000FF7601231A4629462046FEF721FBA06825
:1024D00040F08040A06004E0301EA6F1010600D16B
:1024E00070BD206800F002000028F5D0E06C80B2DA
:1024F000F6E7000000B58BB001A94FF0804000F076
:10250000E3FC9FED240B01A800F074FC4FF0804029
:1025100000F0C0FB0020ADF82800ADF8220040F22A
:10252000E73009901D4901980968B1FBF0F01C499A
:1025300048431A490968B1FBF0F0401E80B2ADF87B
:10254000200000208DF82A0008A94FF08040FFF7F6
:102550006BFD4FF08040808940F001004FF08041DA
:1025600088811C208DF81C0001208DF81F000020A0
:102570008DF81D008DF81E0007A8FFF7D7FA4FF061
:102580008040008840F001004FF0804108800BB08F
:1025900000BD00000000000080842E41D00100201A
:1025A00040420F0010B5FFF7A5FF01200149087058
:1025B00010BD0000300200201CB50020022103469F
:1025C0000246CDE900100121014800F0D5F81CBDFC
:1025D000000002401CB5032000210B460122CDE97A
:1025E00000104FF47041044800F0C6F84FF47040FA
:1025F00001491A3108801CBD000C024001460A1135
:1026000002EB8202500001F00F020244D0B2704788
:102610003EB50446072001AB0022D02100901348AC
:1026200000F054FA9DF80400FFF7E8FF20709DF8D1
:102630000500FFF7E3FF60709DF80600FFF7DEFF7F
:10264000A0709DF80700FFF7D9FFE0709DF8080023
:10265000FFF7D4FF20719DF80900FFF7CFFF6071ED
:102660009DF80A00FFF7CAFFA0713EBD0058004068
:1026700010B5074A0021074800F06AF9D021054843
:1026800000F0F1F908B9022010BD0020FCE70000BD
:10269000801A06000058004001464FF40030081A26
:1026A000C0F38F207047000000B502461046FFF7C8
:1026B000F3FF012101FA00F00249096808430149CA
:1026C000086000BD303802402DE9F04304460E4654
:1026D0001546DDE907892046FFF7DEFFC7B2002275
:1026E00043E001209040304000B93CE0214830F800
:1026F00017000121914008431E4921F81700E068A6
:102700004FEA420C032101FA0CF18843510008FA08
:1027100001F10843E06020684FEA420C032101FA0E
:102720000CF18843510005FA01F108432060012DA6
:1027300001D0022D16D161680120904080B221EABB
:10274000000003FA02F189B208436060A0684FEA12
:10275000420C032101FA0CF18843510009FA01F1FE
:102760000843A06000BF501CC2B2102AB9DBBDE80C
:10277000F0830000B00D00202DE9FC4305460C4617
:1027800016461F46DDE909890CB9BDE8FC832846D9
:10279000FFF78AFF3B46324621462846CDE90089AD
:1027A000FFF792FF00BFF0E72DE9FC4705460E4614
:1027B00017469846DDE90A9A0EB9BDE8FC87284617
:1027C000FFF772FF00241AE00120A040304000B95A
:1027D00014E0E10805F1200050F821006107CA0E5D
:1027E0000F21914088436107C90E0AFA01F108439D
:1027F000E20805F1200141F8220000BF641C102C02
:10280000E2D33B46022231462846CDE90089FFF754
:102810005BFF00BFD1E700001CB504464CB90420A3
:1028200001210B460A46CDE90010C0211148FFF7EF
:10283000BBFF012C0AD1042001210B460A46CDE939
:1028400000104FF440710B48FFF7AEFF022C0AD185
:10285000042001210B460A46CDE900104FF4107107
:102860000448FFF7A1FF032C03D10421024800F024
:10287000F9F81CBD00040240005400401CB5044699
:1028800054B9042001210B460A46CDE900104FF44B
:1028900040611148FFF788FF012C09D10420012174
:1028A0000B460A46CDE9001003210C48FFF77CFFD8
:1028B000022C09D1042001210B460A46CDE9001063
:1028C00030210748FFF770FF032C03D1042105488E
:1028D00000F0C8F81CBD00000004024000140240D3
:1028E000001C0240005800401CB504469CB904205E
:1028F00001210B460A46CDE9001081011048FFF77F
:1029000053FF042001210B460A46CDE90010C10106
:102910000C48FFF749FF012C0AD1042001210B4686
:102920000A46CDE900104FF4C0710748FFF73CFF9D
:10293000032C03D10421054800F094F81CBD0000CD
:102940000000024000080240001C0240005C004001
:102950007FB504460E4615463D48844221D13D4888
:10296000006840F400103B4908603046FFF754FF10
:1029700039480068A84201D93748056036480068E0
:1029800000904FF48040ADF80C000020ADF804003A
:10299000ADF80800ADF80A004BF6FF70ADF8060080
:1029A00048E02E48844221D12A48006840F4800043
:1029B000284908603046FFF761FF27484068A84271
:1029C00001D9254845602448406800904FF4804074
:1029D000ADF80C000020ADF80400ADF80800ADF82B
:1029E0000A004BF6FF70ADF8060023E01C48844255
:1029F00020D11848006840F40000164908603046AD
:102A0000FFF772FF14488068A84201D91248856018
:102A10001148806800904FF48040ADF80C00002011
:102A2000ADF80400ADF80800ADF80A004BF6FF70F1
:102A3000ADF80600208820F001002080694620467D
:102A4000FEF7E0FB208840F0010020807FBD000001
:102A5000005400404038024014020020005800405A
:102A6000005C0040704770B504460D460026012307
:102A700000222946204600F07BF800B901262046B6
:102A800000F0CEF8304670BD70B50446208840F4A2
:102A90008060208044F620600A49086007E0094809
:102AA0000068401E0749086008B9012070BD06494A
:102AB0002046FEF755FB0028F1D0208AC5B22846F3
:102AC000F4E7000010020020400003002DE9F04769
:102AD0008046894616461D46089F01230022494626
:102AE000404600F045F83146404600F0B9F8012371
:102AF0001A464946404600F03BF800240DE0781E97
:102B0000A04204D1404600F00DF8285503E04046AD
:102B1000FFF7BAFF2855601CC4B2BC42EFDBBDE82A
:102B2000F087000070B50446208820F48060208083
:102B3000208840F40070208044F620600A49086034
:102B400007E009480068401E0749086008B90120ED
:102B500070BD06492046FEF703FB0028F1D0208A0D
:102B6000C5B22846F4E70000100200204000030030
:102B70002DE9F04104460D4616461F46208840F4D4
:102B80008070208044F620602349086008E02248D5
:102B90000068401E2049086010B90120BDE8F0819E
:102BA000A08A00F001000028F1D01FB1208840F475
:102BB00080602080A6B925F00100208244F62060C4
:102BC0001549086007E014480068401E1249086073
:102BD00008B90120E2E7A08A00F002000028F2D044
:102BE000012E15D145F00100208244F620600A49EB
:102BF000086007E008480068401E0749086008B9F7
:102C00000120CBE705492046FEF7AAFA0028F1D0BB
:102C1000208B0020C2E70000100200200200030009
:102C2000014644F620600D4A106007E00B4800683A
:102C3000401E0A4A106008B901207047888A00F0D7
:102C400080000028F2D0888A00F004000028EDD02F
:102C5000088840F4007008800020EEE71002002091
:102C600044F62062084B1A6004E0074A1268521EBC
:102C7000054B1A60828A02F080021AB9024A126871
:102C8000002AF2D10182704710020020704770477D
:102C90007047000001464948814205D14848006814
:102CA00040F00100464A1060B1F1804F07D144481E
:102CB000001F006840F00100414A121F10604148A7
:102CC000814207D13E48001F006840F002003C4AA4
:102CD000121F10603C48814207D13948001F00682C
:102CE00040F00400364A121F10603848814207D174
:102CF0003348001F006840F00800314A121F10607E
:102D00003348814207D12E48001F006840F0100070
:102D10002B4A121F10602F48814207D12848001FFC
:102D2000006840F02000264A121F10602A488142A5
:102D300005D12348006840F00200214A106027486E
:102D4000814205D11E48006840F480301C4A106062
:102D50002348814205D11A48006840F40030184ADF
:102D600010602048814205D11548006840F4802059
:102D7000134A10601C48814207D11148001F0068A7
:102D800040F040000E4A121F10601848814207D1DF
:102D90000B48001F006840F08000094A121F1060B5
:102DA0001348814207D10648001F006840F4807034
:102DB000034A121F1060002070470000000001400D
:102DC000443802400004004000080040000C00406D
:102DD0000010004000140040000401400040014089
:102DE000004401400048014000180040001C004021
:102DF0000020004010B52DED068B0446B0EE408A51
:102E0000F0EE608A2068FDF749FB41EC190B53ECAA
:102E1000182BFDF77DFB07D200202061E060606188
:102E20000320BDEC068B10BD9FED250B53EC102B42
:102E300051EC180BFDF76CFB05D100202061E06020
:102E400060610420EDE76068B0F5803F02D2606801
:102E5000401C60600020206100BF2069401C216888
:102E6000B1FBF0F0E060E068FDF718FB41EC1A0BF5
:102E700053EC182BFDF792FA41EC190BFDF71BFBF5
:102E8000E0602069401C20616168E068884204D9E4
:102E9000A068401C21698142DFD9A068401C2169DB
:102EA000814205D900202061E06060610420B8E71C
:102EB00051EC180BFDF7FFFA60610020B1E700004C
:102EC00000000000000000007FB504460D46684683
:102ED000FEF7BEFE4FF6FF70A860B4F1804F02D03F
:102EE0001F48844207D1039828604FF0FF30686084
:102EF000002004B070BD1B4884420BD01A488442A5
:102F000008D01A48844205D01948844202D0194892
:102F1000844206D1019828604FF6FF706860002057
:102F2000E7E71548844211D0144884420ED0144873
:102F300084420BD01348844208D01348844205D001
:102F40001248844202D01248844206D10398286075
:102F50004FF6FF7068600020CBE70220C9E7000051
:102F6000000C00400000014000040140004001400E
:102F700000440140004801400004004000080040B7
:102F8000001000400014004000180040001C0040E9
:102F900000200040C28883889A420EDA0289838822
:102FA0009A4201D10022028103890268D154028928
:102FB000521C0281C288521CC280704700B506486C
:102FC000008800F0200030B10348001D0088C1B225
:102FD0000248FFF7DFFF00BD004C00406402002004
:102FE00000B50648008800F0200028B1034880881A
:102FF000C1B20348FFF7CEFF00BD00000050004003
:103000007402002000B50648008800F0200028B1B6
:1030100003488088C1B20348FFF7BCFF00BD000031
:10302000001001403402002000B50648008800F07E
:10303000200030B10348001D0088C1B20248FFF7EC
:10304000A9FF00BD004400404402002000B506482E
:10305000008800F0200030B10348001D0088C1B294
:103060000248FFF797FF00BD0048004054020020CF
:1030700000B50648008800F0200030B10348001D6C
:103080000088C1B20248FFF785FF00BD001401406F
:103090008402002000BFFEE70FB4084B10B504A95E
:1030A00002AA039800F0F4FF044602A9002001F0F0
:1030B00086FB204610BC5DF814FB0000BF470008EB
:1030C00003B401984100009850EAC12018BF0420C1
:1030D0004A0D18BF40F0010040F2FF72B2EB515FA1
:1030E00008BF40F00200012808BF052002B0704769
:1030F0002DE9F04D2DED040B2DED0E8B96B0DDE995
:103100002550279CDDF890A025F0004624F00048CB
:10311000BAF1000F14BF0121002101EB4502FC4967
:1031200053184A1093422AD3002814BF01230023C6
:1031300003EB44030B44F7498B4220D358EA0001C8
:103140009FEDF59B76D0DFF8D8B35D4503D1BAF19A
:10315000000F05D188E0BAF1000F08BF002100D0B0
:10316000012101EB450111F5001F08D8002814BF0B
:103170000121002101EB440111F5001F0BD99DED48
:10318000261B9DED240B16B0BDEC0E8B04B0BDE8E4
:10319000F04D00F069BE0027002DBCBFE149884515
:1031A00021DAE1498845A8BF02271CDAC3451ADCA9
:1031B000DE4901EB2851142908DDC1F1340220FA5F
:1031C00002F101FA02F282420DD108E058B9C1F1D0
:1031D000140228FA02F101FA02F2424503D101F089
:1031E0000101C1F1020756EA0A0124D1002C22DABA
:1031F000002D18BF022F01D0012F0AD0022000F0AD
:103200007FFE16B0BDEC0E8B04B0BDE8F04D00F0B3
:1032100013BE022000F074FE00F00EFE51EC100B05
:1032200081F0004141EC100B16B0BDEC0E8B04B0E8
:10323000BDE8F08D18E09FEDBEAB9FEDBF8B002881
:1032400071D1B848804522D105F1804010F5801039
:1032500008BFBAF1000F07D0B3450ADC002CA8BFA5
:103260009DED260BE0DA0DE0B0EE490AF0EE690ABA
:10327000DAE7002C06DA9DED260B51EC100B81F0FD
:1032800000416FE0AE48784490ED000BCCE7D845A4
:103290004DD1002C48DA2EB186423AD1BAF1000F56
:1032A00042D126E0BAF1000F13D0022000F028FE30
:1032B00000F0F6FD8DED020B9DED240B8DED000B66
:1032C00010EE900A039961F31E0003909DED020B2E
:1032D000AAE78DED02AB9DED240B1AEE901A10EECD
:1032E000900A8DED000B61F31E0003909DED020B23
:1032F0009AE78DED028B9DED240B18EE901A10EEDF
:10330000900A8DED000B61F31E0003909DED020B02
:103310008AE709DA9DED240B51EC190B53EC102BC5
:10332000FDF73CF81EE020E09DED240B7CE7864293
:103330001BDAB4F1804F0DD0A4F10050B0F1FF5072
:1033400013D1002D11DB9DED240B51EC100B02F07D
:1033500031F807E09DED240B53EC102B51EC100BD2
:1033600000F0C2BC41EC100B5EE79DED240B51EC6C
:10337000100B01F039FABAF1000FCDE90E0142D17C
:103380009FED710B46B3A6F1E040B0F17F600CD029
:103390005E4538D1002D00DAA7B3022F0CBF012003
:1033A0004FF0FF30FDF769F8DCE7002D01DD002C60
:1033B0000DDA002D01DD002C1FDB002D16DA002CAC
:1033C00014DB012F08BF9FED620B3FF42DAFB0EE71
:1033D0004A0AF0EE6A0A27E7022F18BF002D0CD028
:1033E000012F0AD1002DFFF61FAF06E0002DB8BF58
:1033F000002C08DA012F3FF417AFB0EE480AF0EEC8
:10340000680A11E71BE0012000EBE57050EA0701B4
:1034100015D0791EB0EE498AF0EE698A084308BFDC
:103420009FED4D8B4E480025804570DD4D494E483F
:10343000884514DDB0420DDB002C19DB2FE00120A4
:1034400000F05EFD16B0BDEC0E8B04B0BDE8F04D93
:1034500000F016BDB34502DC002C09DC1FE08642FB
:1034600002DA002C1BDA03E05E452BDD002C16DDB2
:10347000022000F045FD00F013FD8DED020B53EC32
:103480001A2B51EC180BFCF717FFCDE9000103993B
:10349000019861F31E0003909DED020BC4E602202B
:1034A00000F02EFD00F00CFD10EE901A18EE900AC0
:1034B0008DED020B8DED008B61F31E0003909DEDF1
:1034C000020BB1E69DED0E0B53EC192B51EC100BDA
:1034D000FDF7F6F99FED260BCDE9080153EC102B13
:1034E0009DED080B51EC100BFCF7E6FE9FED221B47
:1034F00053EC112BFDF7E7F99DED081B53EC112B55
:10350000FCF7DAFE9FED1E1B53EC112B3CE08CE028
:10351000FFFF1F00FFFF0F00000000000000F03F52
:103520000000F03F0000F07F0000404301FCFFFF7F
:10353000000000000000F07F00000000000000001C
:103540009E5A000000000000000000000000008003
:10355000000000000000F0FF000000000000F0BFCD
:103560000000E0410000F043FFFFEF3F00000000DB
:10357000000000000000D03F555555555555D53F2A
:10358000000000000000E03FFDF79DF99DED080BF5
:1035900041EC1A0B53EC102B51EC100BFCF78CFE8A
:1035A00053EC1A2BFCF788FE41EC1A0B9FEDFE0B37
:1035B00053EC102B9DED080B51EC100BFCF77CFE2F
:1035C00041EC1B0B9FEDFA0B51EC1A0B53EC102B3B
:1035D000FCF772FE41EC1A0B9FEDF70B53EC102B2E
:1035E0009DED080B51EC100BFCF766FE53EC1A2B0B
:1035F000FDF766F941EC1A0B51EC1B0B53EC1A2B3F
:10360000FDF7BDF80690CDE906519DED060B53EC94
:103610001B2B51EC100BFDF753F953EC1A2BFDF754
:1036200052F941EC100B00F0A1B90020B6F5801F53
:103630000EDA9FEDE30B53EC102B9DED0E0B51ECCE
:10364000100BFCF739FECDE90E016FF034000E4689
:1036500000EB2650A0F2FF37C6F31300DA4940F022
:103660007F6646F040568842D8BF002408DDD7491F
:103670008142C8BF012403DC0024A6F580167F1C0C
:10368000D348784400EBC4000F9690ED00CB9DED3D
:103690000E0B53EC1C2B51EC100BFDF711F99DEDAB
:1036A0000E0B41EC1B0B53EC1C2B51EC100BFDF7DC
:1036B00066F841EC100B51EC190B53EC102BFCF796
:1036C0006DFE41EC1D0B51EC1B0B53EC1D2BFCF75D
:1036D000F3FD41EC1A0BBF488DED10AB784410950B
:1036E00090ED000B4FF0005040EA660000EB844084
:1036F0008DED080B00F5002009909DED080B53ECB3
:103700001C2B51EC100BFDF7DBF89DED0E1B53EC61
:10371000112BFDF7D8F841EC100B53EC102B9DED5D
:10372000100B51EC100BFCF7C7FD9DED080B41ECA5
:103730001C0B53EC102B9DED100B51EC100BFCF7F8
:10374000BBFD53EC1B2BFDF7BEF853EC1C2BFDF718
:10375000B7F853EC1D2BFCF7AFFD41EC1C0B53EC01
:103760001A2B51EC1A0BFCF7A7FD41EC1B0B9A48E6
:103770000621B0EE4B0AF0EE6B0A784400F0E0FA56
:10378000B0EE401AF0EE601AB0EE41DAF0EE61DA17
:1037900053EC1B2B51EC1B0BFCF78EFD53EC1D2B3C
:1037A000FCF78AFD9DED100B41EC1B0B53EC1A2B23
:1037B00051EC100BFCF7E3FF53EC1C2BFCF77CFDEA
:1037C00053EC1B2BFCF7DBFF9DED100B41EC1B0BAF
:1037D00053EC102B51EC100BFCF76EFD41EC1D0B64
:1037E0009FED7FEB53EC1E2BFCF7C9FF53EC1B2B1B
:1037F000FCF7C5FF0890CDE908519DED080B53EC8F
:103800001E2B51EC100BFDF75BF853EC1D2BFDF755
:1038100057F853EC1B2BFDF756F89DED080B41ECC8
:103820001D0B53EC102B9DED100B51EC100BFCF706
:1038300043FD41EC1B0B53EC1A2B51EC1D0BFCF719
:103840003BFD9DED080B41EC1A0B53EC102B51EC9A
:103850001C0BFCF731FD53EC1A2BFCF790FF41ECED
:103860001A0B51EC1B0B53EC1A2BFCF788FF0C9036
:10387000CDE90C519DED0C0B53EC1B2B51EC100BB7
:10388000FDF71EF853EC1A2BFDF71DF841EC1B0B4E
:103890009FED550B53EC102B9DED0C0B51EC100BC9
:1038A000FCF70AFD41EC1A0B9FED510B51EC1B0B81
:1038B00053EC102BFCF700FD41EC1B0B9FED4E0B66
:1038C00053EC102B9DED0C0B51EC100BFCF7F4FCA2
:1038D00053EC1B2BFCF753FF41EC100B484878448A
:1038E00000EBC40090ED001B51EC100B53EC112BBE
:1038F000FCF745FF41EC1B0B3846FCF7BEFDCDE95C
:10390000080153EC1B2B51EC1A0BFCF738FF41EC70
:10391000100B3C48784400EBC40090ED00CB51EC18
:10392000100B53EC1C2BFCF72AFF9DED081B53ECEE
:10393000112BFCF724FF0690CDE906519DED080BF5
:1039400053EC102B9DED060B51EC100BFCF7B8FF60
:1039500053EC1C2BFCF7B4FF53EC1A2BFCF7B0FF15
:1039600053EC1B2BFCF7AFFF41EC100B9DED261B1E
:1039700053EC102B8DED001B00959DED260B51ECAB
:10398000100BFCF799FC9DED000B41EC1A0B53EC6E
:10399000102B9DED260B51EC100BFCF791FF9DEDCC
:1039A000061B53EC112B2FE0000000604715F73F7A
:1039B000FE822B654715F73F44DF5DF80BAE543EA2
:1039C00000000000000040438E9803007AB60B0010
:1039D0001A56000048560000525500000000000032
:1039E0000000000000000840000000E009C7EE3FB2
:1039F000FD033ADC09C7EE3FF5015B14E02F3EBE44
:103A0000DE53000098530000FCF756FC53EC1A2BD1
:103A1000FCF7B5FE9DED060B41EC1A0B53EC102B99
:103A20009DED000B51EC100BFCF746FCCDE90C01B1
:103A30009DED0C0B51EC1A0B53EC102BFCF79FFE79
:103A4000CDE902010C46AA498C422FDB611A0843DA
:103A500018D19DED0C0B53EC102B9DED020B51EC8E
:103A6000100BFCF72DFF41EC1B0B9FEDA30B51EC52
:103A70001A0B53EC102BFCF782FE53EC1B2BFCF7BC
:103A80005FFD2DD2022000F03BFA00F009FA10EEA3
:103A9000901A18EE900A8DED020B8DED008B61F3FC
:103AA0001E0003909DED020BFFF7BEBB944A24F06D
:103AB0000041914214D39349214408437FF4EFAC71
:103AC0009DED0C0B53EC102B9DED020B51EC100BEC
:103AD000FCF7F6FE53EC1A2BFCF732FD7FF6DFAC59
:103AE00024F000408849894A002601EB2051824297
:103AF0002BDA481C4FF4801121FA00F02044844A4C
:103B0000C0F30A517A44A1F2FF3192ED000B814AD1
:103B10008DED080BCA4020EA0202C0F3130040F406
:103B20008010C1F1140120FA01F60992002CB8BFEF
:103B300076429DED080B53EC102B9DED0C0B51ECD8
:103B4000100BFCF7BDFECDE90C019DED0C0B51EC0B
:103B50001A0B53EC102BFCF712FE9FED6F0B089025
:103B6000CDE9085153EC102B9DED080B51EC100BD7
:103B7000FCF7A2FB41EC1B0B9FED690B53EC102BE8
:103B80009DED080B51EC100BFCF796FB9DED0C0B1B
:103B900041EC1C0B53EC102B9DED080B51EC100B62
:103BA000FCF78EFE53EC1A2BFCF78DFE9FED5E1B8F
:103BB00053EC112BFCF780FB53EC1C2BFCF7DFFDC7
:103BC00041EC1A0B51EC1B0B53EC1A2BFCF7D7FDF5
:103BD000CDE902019DED020B53EC1B2B51EC100BB8
:103BE000FCF76EFE53EC1A2BFCF76DFE9DED020BFD
:103BF00041EC1A0B53EC102B51EC100BFCF75CFB57
:103C0000CDE908014A489DED080B0521784400F0F4
:103C100097F89DED081B51EC100B53EC112BFCF7A2
:103C20004BFB9DED021B53EC112BFCF74CFECDE939
:103C300006019DED020B53EC1A2B51EC100BFCF717
:103C40003BFB53EC1A2BFCF79AFD9FED3B0B41EC31
:103C50001A0B53EC102B9DED060B51EC100BFCF7DF
:103C60002FFE9DED060B41EC1B0B53EC102B9DED35
:103C7000020B51EC100BFCF71FFB53EC1B2BFCF75A
:103C80008DFB53EC1A2BFCF71BFE9DED021B53EC36
:103C9000112BFCF715FE53EC192BFCF714FECDE9A4
:103CA000020101EB065001150029C8BF039015DC85
:103CB0009DED020B324651EC100BFCF707FEFFF7AF
:103CC000FFF9042808BF00F0FBF832469DED020B17
:103CD00051EC100BFCF7FAFDCDE902019DED020B52
:103CE00051EC180B53EC102BFCF7E6FAFFF73ABB3C
:103CF0000000904000000000FE822B654715973CB5
:103D000000CC904000346F3F01FCFFFF0000E03F1B
:103D100020520000FFFF0F0000000000432EE63F8E
:103D2000396CA80C615C20BEEF39FAFE422EE63FEA
:103D3000F050000000000000000000000000004003
:103D400070B504462DED028B4D1E00EBC500B0EEA4
:103D5000408AF0EE608A90ED000B35F0060017D037
:103D600053EC182B51EC100BFCF7A6FA41EC100B9E
:103D70006D1E04EBC50090ED001B51EC100B53ECD5
:103D8000112BFCF7FCFC41EC100B35F00600E7D1E1
:103D9000022D36D0042D1CD0062D1CBFBDEC028B8D
:103DA00070BD53EC182B51EC100BFCF785FA94ED19
:103DB0000A1B53EC112BFCF7E2FC53EC182BFCF71D
:103DC0007BFA94ED081B53EC112BFCF7D8FC41EC6B
:103DD000100B53EC182B51EC100BFCF76DFA94ED13
:103DE000061B53EC112BFCF7CAFC53EC182BFCF709
:103DF00063FA94ED040B53EC102BFCF7C0FC41EC80
:103E0000100B53EC182B51EC100BFCF755FA94EDFA
:103E1000021B53EC112BFCF7B2FC53EC182BFCF7F4
:103E20004BFA94ED001B53EC112BFCF7A8FCBDECF6
:103E3000028B41EC100B70BD9FED070B10B553ECDE
:103E4000102B9FED070B51EC100BFCF7A7FA41EC80
:103E5000100B10BD0000000000000000000000007A
:103E6000000000000000F03F10B553EC112B51ECA6
:103E7000100BFCF784FC41EC100B10BD000000009F
:103E80009FED050B10B553EC102B51EC100BFCF70C
:103E900085FA41EC100B10BD00000000000000008E
:103EA0009FED050B10B553EC102B51EC100BFCF7EC
:103EB00003FA41EC100B10BD000000000000007080
:103EC0009FED050B10B553EC102B51EC100BFCF7CC
:103ED000F3F941EC100B10BD0000000000000010D1
:103EE00002E008C8121F08C1002AFAD170477047C3
:103EF000002001E001C1121F002AFBD17047000021
:103F00000149086070470000080300202DE9FF5FA9
:103F100082B00021DDE90430020DDDF840B003433A
:103F200018D044F61050A2F2FF32424315141198F3
:103F300001281FD0A5EB0B00401C5FEA000A4FF0E0
:103F400000064E4FDFF83891B046504615D5CAF1FD
:103F5000000413E0119801244AA3012801D16FEA5B
:103F60000B010298119AC0E90031C0E9024206B083
:103F7000BDE8F09FCBF10000DFE704460021404A96
:103F8000491842EB0450CDE9001012E0E00707D0D9
:103F900032463B4640464946FCF78EF98046894604
:103FA00032463B4610461946FCF786F906460F4650
:103FB0006410002CEAD1DDE90401DDE90023BAF147
:103FC000000F06DAFCF778F942464B46FCF774F925
:103FD00005E0FCF7E3F942464B46FCF7DFF90446FF
:103FE0000E460022284BFCF7ABFA03D84FF0FF3007
:103FF000014607E00022254B20463146FCF7BFFB77
:10400000FCF77BFC102409E0002C0ADB0A220023C9
:10401000FCF7E0FA039B30321A55641E50EA0102A5
:10402000F2D1641C039AC4F111031444119A012AB9
:1040300003D0012208430DD10AE0084304D0002038
:104040004FF0110B119072E7A3EB0B056D1E0DE005
:104050005B4504DD4FF0000205F1010504E003DAE1
:104060004FF00002A5F10105002AECD00298119949
:10407000C0E90231C0E9004579E7000000001440C2
:104080000000F03F300000000000F0430000E03F7F
:104090002DE9FF4F95B09B468946064600250FE265
:1040A000252877D100242746F84A0121059400E00D
:1040B000044316F8013F203B01FA03F01042F7D108
:1040C00030782A2811D06FF02F033078A0F1300219
:1040D000092A16D8059A44F0020402EB820203EB87
:1040E00042021044761C0590EFE759F8042B059224
:1040F000002A03DA504244F40054059044F00204CC
:10410000761C30782E2816D116F8010F44F00404DE
:104110002A280DD06FF02F023078A0F13003092B40
:1041200009D807EB870302EB4303C718761CF3E7B4
:1041300059F8047B761C30786C280FD006DC4C28AC
:1041400017D068280DD06A2814D104E0742810D044
:104150007A280FD10DE044F400140AE044F48014EE
:1041600001E044F440147278824202D104F58014D4
:10417000761C761C307866280BD013DC582877D054
:1041800009DC002875D04528F6D04628F4D0472809
:104190001AD19DE118E0632835D0642879D06528CC
:1041A00012D195E1702873D008DC6728F1D0692816
:1041B0006FD06E280DD06F2806D1B5E073282CD0B3
:1041C000752875D0782874D05A46179990476D1C79
:1041D00075E1C4F30250022809D003280DD0D9F8A4
:1041E000001004280DD00D6009F1040967E1D9F829
:1041F0000010EA17C1E90052F6E7D9F800100D8067
:10420000F2E70D70F0E719F8041B8DF8001000209C
:104210008DF80100EA46012003E059F804AB4FF0A5
:10422000FF3061074FF0000102D40DE008F10101F9
:104230008846B9420FDA8045F8DB1AF808100029E1
:10424000F4D108E008F1010188468142FADB1AF84E
:1042500008100029F6D105985B46A0EB0807214617
:104260003846179A00F094FA284400EB080507E056
:104270004DE029E10DE01AF8010B5A4617999047D5
:10428000B8F10108F7D25B4621463846179A13E188
:1042900042E00A220092C4F302524FF0000A022ABE
:1042A00008D059F804CB032A4FEAEC710AD00DE08C
:1042B00029E02AE009F1070121F00702F2E802C132
:1042C000914609E00FFA8CFC4FEAEC71042A03D105
:1042D0004FFA8CFC4FEAEC71002907DA0A460021FC
:1042E000DCF1000C61EB02012D2202E0220504D575
:1042F0002B228DF80420012203E0E20701D02022C6
:10430000F7E7904659E00A2102E010220DE0102163
:104310004FF0000A00910BE010224FF0000A44F029
:1043200004040827009203E008224FF0000A0092DC
:10433000C4F30252022A05D059F804CB0021032A03
:1043400008D009E009F1070121F00702F2E802C1F3
:10435000914605E01FFA8CFC042A01D10CF0FF0CF9
:104360004FF00008220728D5702806D0009B83F064
:10437000100353EA0A0305D00EE040228DF8042012
:10438000012208E05CEA010206D030228DF8042008
:104390008DF8050002229046009B83F0080353EA43
:1043A0000A030AD15CEA010201D1620705D5302275
:1043B0008DF804204FF001087F1E582804D034A047
:1043C00003900EA802900DE036A0F9E75346604630
:1043D000009AFCF7FFF884460398825C0298401E1E
:1043E000029002705CEA0100F0D1029806A9081A56
:1043F00000F1200A600702D524F4803400E0012790
:10440000574502DDA7EB0A0000E0002000EB0A019F
:10441000009005984144401A0590E00306D45B469D
:104420002146179A059800F0B3F90544002706E0E5
:1044300001A85A46C05D179990476D1C7F1C4745DF
:10444000F6DBE0030CD55B462146179A059800F091
:104450009FF9054404E030205A46179990476D1C97
:104460000099481E00900029F5DC08E002980299A6
:104470005A460078491C0291179990476D1CBAF171
:104480000001AAF1010AF1DC65E100000928010040
:1044900030313233343536373839616263646566BA
:1044A000000000003031323334353637383941427C
:1044B000434445460000000000F058F90544761CCE
:1044C000307800287FF4ECAD19B02846BDE8F08FB5
:1044D000620700D4062709F1070222F0070CFCE866
:1044E0000223E14603F000485FEA080C02D00FF215
:1044F000702C0DE05FEA045C02D50FF2682C07E037
:104500005FEAC47C02D00FF2602C01E0AFF2700CC5
:104510004FF0FF3823F00043CDF850C065280CD091
:1045200006DC452809D046281DD047283DD13DE06E
:10453000662818D067287ED138E00021112F01DBD2
:10454000112000E0781CCDE9000106A90EA8FFF7B4
:10455000DDFCDDE90F010E9A03910021009207F1C5
:10456000010A04914DE04FF000400097CDE90110A1
:1045700006A90EA8FFF7CAFCDDE90F0203920E9B05
:1045800011990022DDF80CA00093049211B9791C56
:1045900000EB010AB7EB0A0004D4C0F1FF3007F1C9
:1045A000010A0490AAEB0700019044E0012F00DA11
:1045B00001270021112F01DD112000E03846CDE94F
:1045C000000106A90EA8FFF7A1FCDDE90F010E9A74
:1045D0000391002104910092BA4621070CD403995B
:1045E000514500DA8A46BAF1010F05DD009AAAF1B9
:1045F0000101515C302908D0B84202DA10F1040FF1
:1046000006DA0121CDE9011015E0AAF10101E9E77F
:10461000002805DC049901440491AAEB000102E0A2
:10462000411C514500DD8A460499401A401C019006
:104630004FF000400290200704D40198504501DB60
:10464000CDF8048000208DF84F0002980DF14F073F
:10465000B0F1004F25D02B200E9002984FF00208A9
:1046600000280CDA404202902D200E9007E00A212B
:104670000298FBF799FF3031029007F8011DB8F15D
:104680000001A8F10108F2DC02980028EFD1791EA0
:104690000E980870307800F0200040F0450007F8D0
:1046A000020D12A8C01B00F107081498007800B191
:1046B000012000EB0A01019801EBE07105984144EB
:1046C000401A401E0590E00306D45B462146179A27
:1046D000059800F05DF805441498007818B15A4622
:1046E000179990476D1CE00324D55B462146179A25
:1046F000059800F04DF805441CE00498002807DBFD
:10470000DDE90301884203DD0098405C179901E070
:10471000179930205A469047049805F10105401C2E
:1047200004900198401E019004D12E205A461799FA
:1047300090476D1CBAF10001AAF1010ADDDC05E029
:1047400017F8010B5A46179990476D1CB8F10001F4
:10475000A8F10108F4DC5B462146179A0598ABE600
:104760002D0000002B000000200000002DE9F0418A
:10477000044600251E461746880404D405E0394641
:104780002020B0476D1C641EF9D52846BDE8F08195
:104790002DE9F041044600251E469046C80301D588
:1047A000302700E02027880404D505E0414638463C
:1047B000B0476D1C641EF9D52846BDE8F0810A6833
:1047C000531C0B601070704701200549096809B13E
:1047D000002003E00349096801B100207047000090
:1047E0002C0F0020B802002082B0CDE9000121F09A
:1047F000004001909DED000B02B051EC100B704792
:1048000070B52DED088B04462046FBF747FE41ECC2
:104810001A0B9FED170B53EC102BFBF74DFD41ECE2
:10482000190BFBF7A5FE05462846FBF75DFE41EC9C
:104830001B0B9FED111BB0EE4B0AF0EE6B0AFEF75F
:1048400057FCB0EE40AAF0EE60AA9FED0D0B53ECC2
:10485000102B51EC1A0BFBF72FFD41EC190BFBF75A
:1048600087FE08EE100AB0EE480ABDEC088B70BD5A
:10487000000000000000743F9A9999999999F1BF3E
:10488000000000000040504010B504464CB3FDF756
:104890003BFBFDF79FFEFDF78FFEFDF783FEFCF768
:1048A0003BFEFCF711FCFCF791F900210E48FDF7E7
:1048B0004DFD00F057F80020FCF720FD00F082F9D4
:1048C000FDF7D6FE18B14FF470400849088008483B
:1048D000FDF79EFE00F046F8002006494860087289
:1048E0000872012010BD000000200140180C024099
:1048F00020010020A40D00201FB500200D4A022336
:10490000CDE9012000930390034680220AA10E48BE
:1049100001F04AFB00200D4A0123CDE9012000935C
:104920000390034680220AA10D4801F03DFB0120BF
:1049300004B010BDC0010020764441325F52656171
:104940006453656E736F72004D540008C4010020FB
:10495000764441325F53686F774C43440000000057
:10496000A55400081CB52C48FDF752FE4FF4FC601E
:10497000FDF77EF81820FCF7B9FC27480078009076
:1049800025484378827825A12848FEF785FB274AE9
:10499000EB213E20FDF774F84FF4A0531A11562175
:1049A0000020FCF7BFFC1020FCF7A0FC1A4880791F
:1049B00000F5FA60184949791D4A52F82110CDE9ED
:1049C000001015480379C0781A4951F820201AA11F
:1049D0001648FEF761FB154AFA215620FDF750F8FC
:1049E0001020FCF783FC4FF47840FDF741F81548A0
:1049F000007A009013484368027813A10B48FEF731
:104A00004BFB0A4AFA216E20FDF73AF84FF6FF7089
:104A1000FDF72EF801201CBD200100202530326456
:104A20003A253032643A253032640000780C002098
:104A3000540100203401002025732C25642C25739B
:104A40002C256400A40D002025642A43202C202559
:104A5000303264206C7578202C2025303264206838
:104A6000756D69001CB54FF4FC60FDF701F8182066
:104A7000FCF73CFC1E48007800901D484378827883
:104A80001CA12048FEF708FB1E4AEB213E20FCF744
:104A9000F7FF1748807848BB1548407830BB14486A
:104AA000007818BB4FF4A0531A1156210020FCF7D0
:104AB00039FC1020FCF71AFC0D48807900F5FA60EB
:104AC0000B494979104A52F82110CDE900100848E5
:104AD0000379C0780D4951F820200DA10948FEF74F
:104AE000DBFA084AE6215620FCF7CAFF01201CBD6C
:104AF00020010020253032643A253032643A2530D6
:104B000032640000780C00205401002034010020A1
:104B100025732C25642025732025640000B52DED18
:104B2000028B81B01020FCF7E1FB4FF47840FCF7DA
:104B30009FFF1448007A009012484368027812A13F
:104B40001948FEF7A9FA184AFA216E20FCF798FFD7
:104B5000164890ED000A10EE101A0846FBF7C4FC48
:104B600041EC180B53EC182B11A10F48FEF794FAE7
:104B70000D4AFA219620FCF783FF012001B0BDEC1D
:104B8000028B00BDA40D002025642A43202C202583
:104B9000303264206C7578202C20253032642068F7
:104BA000756D692020200000780C0020C8010020CD
:104BB00044697374616E6365203A2025302E326635
:104BC0000000000010B54FF40C534FF4A0720E21FA
:104BD0000020FCF7A7FB0020FCF736FF1F20FCF7A6
:104BE00047FF1020FCF782FB06A24FF491710E20C4
:104BF000FCF746FF0CA240F213111C20FCF740FF0B
:104C0000012010BD554E4956455253495459204F25
:104C10004620494E464F4D4154494F4E205445433E
:104C2000484E4F4C4F475900464143554C5459202C
:104C30004F4620434F4D505554455220454E47490D
:104C40004E454552494E47000120FFF71DFEFFF734
:104C500053FE08B100F092FE00BFFEE710B5044617
:104C60000E48006844600E480068844207D20B4832
:104C70000168091D0B48006800F02EFC0CE0074895
:104C80000168091D0848006800F026FC0748006814
:104C9000844201D20548046010BD00009402002047
:104CA000A40200209C02002098020020C4020020E0
:104CB00070B505460E46482000F010FB044694B13E
:104CC0001EB9A80000F00AFB00E030462063206B0C
:104CD00020B9204600F046FC002404E0A900A522EB
:104CE000206BFBF7D7FA204670BD000010B500F02E
:104CF00019FC0C48006890B90B4800F0DDFB0B482C
:104D000000F0DAFB08480A490860084809490860C9
:104D100000220C210A2000F023FF0249086000F065
:104D200011FC10BD00030020543B0120683B012012
:104D3000F8020020FC020020704770B504460D46C2
:104D4000206870B1216CE0680844E0606168E06848
:104D5000884201D32068E0602846226CE168FBF7B6
:104D600087FA70BD70B504460E461546206C38B9FA
:104D7000206870BB606800F085FD0020606028E05E
:104D80007DB93146226CA068FBF772FA216CA068ED
:104D90000844A060D4E9011088421AD32068A060BA
:104DA00017E03146226CE068FBF762FA216CE0689C
:104DB000401AE0602168E068884203D2216C606894
:104DC000401AE060022D04D1A06B10B1A06B401E10
:104DD000A063A06B401CA06370BD00000849096877
:104DE000C96A09B100200AE006490968012901D908
:104DF000002004E004490968044A1268881A7047D0
:104E000094020020A00E0020C4020020A402002072
:104E10000146084A126812680AB9012200E000221D
:104E20000A600A6822B9034A1268D268106800E072
:104E300000207047F8020020094A22F00700094AC2
:104E400010600022074B5A60074A084B5A60002244
:104E50001A600146044A4A601A460A607047000018
:104E60005C0F0020E0020020F82B0100E802002087
:104E700000BFFFF761FF13480068012801D900F067
:104E80006DFCFFF7ABFF0446022C19D300F0C2FD06
:104E90000D4800680D490968884201D3012000E0EF
:104EA000002018B9FBF7C4F900BFFEE7FFF796FF33
:104EB0000446022C02D3204600F0A2FB01F016FAB1
:104EC000D7E70000A00E0020C4020020A4020020AA
:104ED0002DE9F04704460F4615469946DDF8208037
:104EE000002607E0B95D04F134008155B85D00B9D2
:104EF00002E0761C102EF5D300BF0021432001559F
:104F0000052D00D30425E5626564201D00F0E1FA5B
:104F100004F1180000F0DDFA2461C5F10500A0617C
:104F20006462BDE8F087000010B5002407E004EBE0
:104F300084010D4A02EB810000F0BEFA641C052CCE
:104F4000F5D30A4800F0B8FA094800F0B5FA094864
:104F500000F0B2FA084800F0AFFA044807490860C8
:104F600003480749086010BDA00E0020040F002070
:104F7000180F00202C0F0020400F00209802002066
:104F80009C0200202DE9F04104460D4616461F46BE
:104F90004FF0000865602461B5420CD8F01BA16990
:104FA000884202D34FF0010811E0211D0948006832
:104FB00000F092FA0BE0BE4204D2BD4202D34FF0A1
:104FC000010804E0211D0448006800F085FA40460D
:104FD000BDE8F081FC020020F802002070B5054613
:104FE00000F0A0FAA86B08B9012400E0002400F04A
:104FF000A9FA204670BD70B5054600F093FAA86B7B
:10500000E96B884201D1012400E0002400F09AFA03
:10501000204670BDF8B505460F4613480068C068C5
:10502000C468201D00F0FDF9E069012817D1A069CE
:1050300041192B463A462046FFF7A4FF01280ED11E
:10504000002003462A4601460090204601F0EAF976
:1050500006461EB9FBF7ECF800BFFEE700BF20468E
:10506000616A8847F8BD0000F802002070B586B07C
:1050700053E0059C606908B9012000E0002010B9E8
:10508000201D00F0CEF902A800F07AF8054603983A
:1050900030B1012826D0022825D003283BD136E0A4
:1050A0000498A269811803462A462046FFF76AFF42
:1050B000012816D12046616A8847E069012810D18D
:1050C000002000900498A169421800231946204648
:1050D00001F0A8F906461EB9FBF7AAF800BFFEE7E3
:1050E00000BF19E018E00498A061A06908B1012090
:1050F00000E0002018B9FBF79BF800BFFEE7A069AD
:1051000041192B462A462046FFF73CFF04E0204683
:1051100000F028FA00E000BF00BF00231A4603A9F0
:105120000348006800F047FD0028A2D106B070BD1A
:1051300000030020F8B504460E4600F06BFC6846FC
:1051400000F01EF805460098A0B946B9AC4206D852
:1051500001F0CCF829462046FFF75CFF0CE0611B0C
:105160000648006800F006FB01F0C0F820B900F026
:10517000F5FA01E001F0BAF8F8BD000000030020E4
:1051800070B5044600F0BEFF054608480068854239
:1051900006D20648006800F00BF80120206001E00C
:1051A0000020206001480560284670BD04030020EF
:1051B0002DE9F84381462BE020480068C068056867
:1051C0001E480068C068C468201D00F02AF9204607
:1051D000616A8847E06901281AD1A0694619AE4280
:1051E00007D966602461211D1448006800F074F935
:1051F0000EE0002003462A4601460090204601F0BA
:1052000011F907461FB9FBF713F800BFFEE700BF0F
:105210000A480068006808B9012000E00020002862
:10522000CAD00648D0F800800548006803490860E5
:105230000348C0F80080BDE8F8830000F8020020B1
:10524000FC02002008B500BF6846FFF7E1FD0446F8
:1052500020460099FFF76EFFFFF708FFF4E710B54F
:10526000044600F05FF911E0606A08B9012000E02F
:10527000002038B904F1240000F0F8FF18B100F064
:10528000B3FA00E005E0A06C401EA064A06C00280A
:10529000EADC00BF4FF0FF30A06400F053F900F0EB
:1052A00041F911E0206908B9012000E0002050B95F
:1052B00004F1100000F0DAFF08B100F095FA606C1C
:1052C000401E606400E002E0606C0028EADC00BF81
:1052D0004FF0FF30606400F035F910BD2DE9F0416A
:1052E00004464FF0000800F095FB2548006820B9FF
:1052F000FFF7A2FD01202249086044B1083404F000
:10530000070020B104F00700C0F108000444002C9D
:1053100031D01C4884422ED21B4F3846056801E02C
:105320002F462D686868A04202D228680028F7D16D
:10533000164885421FD0386800F108082868386090
:105340006868001B102810D92E196868001B70604F
:105350006C6071680C4800E00068026852688A421C
:10536000FAD302683260066000BF094968680968BC
:10537000081A0749086000F0B9FF4046BDE8F0810F
:10538000F4020020F82B0100E0020020E8020020D7
:10539000F0020020001F4FF080730360001F0160C7
:1053A000001F0023036014380260001FDB1E03602F
:1053B0002038704700B52DED048B83B041EC190BFC
:1053C000FBF7E7FA41EC180B18EE100A18EE901AEA
:1053D0008DED008B002818BF0120084320F000400D
:1053E000C0F17F6000F1E040C00F14D019EE101A38
:1053F00019EE900A8DED009B002918BF012108438A
:1054000020F00040C0F17F6000F1E040C00F04BF19
:105410000120FEF775FD51EC180B03B0BDEC048BB9
:1054200000BD0146D1E901309860D1E9010358601F
:105430000A695068884201D188685060002008617C
:105440001068401E106010687047000000BF4FF4E5
:10545000967000F0ADF90E48006880F400500C49D9
:105460000860FBF781FC0B490872FBF783FC0949D4
:10547000087000210848FDF71FF80446FFF7C0F93F
:10548000064880ED000A0648FDF7C2F8DFE7000095
:10549000140C0240A40D002000200140C80100208F
:1054A0002001002000BF4FF4967000F081F9FFF753
:1054B00035FBFFF7D7FAF6E700F1080141604FF03E
:1054C000FF31816000F10801C160016100210160CC
:1054D000704700210161704710B502460B685C1CE3
:1054E0000CB9106907E002F1080000E04068446868
:1054F00024689C42FAD944684C604C68A16088607A
:1055000041600A611468641C146010BD42684A60FE
:1055100093688B60936859609160086103685B1CB5
:105520000360704710B5FAF783FE05480068401C19
:1055300003490860BFF34F8FBFF36F8F10BD0000AA
:10554000C802002010B506480068401E04490860E3
:105550000846006810B90020FAF771FE10BD00007F
:10556000C802002070B506463546B6B1083D2C4647
:1055700000F050FA6168094800E00068026852686B
:105580008A42FAD3026822600460054960680968AB
:1055900008440349086000F0A9FE70BDE002002045
:1055A000F0020020124800684FF47A71B0FBF1F06D
:1055B00010490860084600686FF07F41B1FBF0F0C9
:1055C0000D4908600A480068B0FBF0F02D21B1FBDE
:1055D000F0F00A490860064800684FF47A71B0FBA1
:1055E000F1F0401E4FF0E02148610720086170474C
:1055F000D0010020CC020020D0020020D4020020E4
:105600002DE9F04104463B480068844201D93948FD
:10561000046806204FF0E021086108468169601E99
:10562000354A126802FB001534480068854202D9E9
:10563000324800682D1A72B6FFF7C6F828B907205D
:105640004FF0E021086162B651E04FF0E020456183
:1056500000204FF0E021886107200861A046B8F1E2
:10566000000F04D0BFF34F8F30BFBFF36F8F062002
:105670004FF0E021086162B64FF0E020006900F4CD
:10568000803060B11C480068401E4FF0E0218969FD
:10569000691A401A4FF0E0214861661E12E0164870
:1056A000006860434FF0E0218969471A124800689A
:1056B000B7FBF0F6701C104909684843C01B4FF057
:1056C000E021486100204FF0E0218861FFF72AFFC8
:1056D00007204FF0E0210861304600F07FF90648CE
:1056E0000068401E4FF0E0214861FFF72BFFBDE846
:1056F000F0810000D0020020CC020020D402002063
:1057000070B5FAF79FFD0546102D0FD305F1E02087
:1057100090F8F0430E480078844201DB012000E05D
:10572000002018B9FAF784FD00BFFEE709480068B9
:1057300000F4E06008490968884201D8012000E0CF
:10574000002018B9FAF774FD00BFFEE770BD000035
:10575000D80200200CED00E0DC0200204FF0805069
:1057600003490860BFF34F8FBFF36F8F704700008E
:1057700004ED00E070B505460E462C46FFF7D2FE5C
:10578000606C401C08B900206064A06C401C08B923
:105790000020A064FFF7D6FEA06B20B9314604F1CB
:1057A000240000F051F82046FFF759FD70BD0000BD
:1057B00070B5044600267CB100F02CF9084800685A
:1057C000051908480068001DFFF72BFE2846FFF763
:1057D00045FA00F08BFD06460EB9FFF7BFFF70BD1E
:1057E000A4020020940200200120014908607047B3
:1057F000B802002070B505460C461DB9FAF718FD31
:1058000000BFFEE70D48016818312846FFF764FE27
:105810000A480068001DFFF704FE601C30B9074805
:105820000168091D0648FFF771FE05E0054800689C
:1058300006193046FFF712FA70BD000094020020EE
:10584000400F0020A402002070B504460D461CB98C
:10585000FAF7EEFC00BFFEE7084801681831204661
:10586000FFF754FE05480068001DFFF7DAFD044805
:10587000006846193046FFF7F1F970BD9402002028
:10588000A402002070B505462C46EDB1616CE06ABB
:10589000884219D0201DFFF7C4FD606CE062E06A09
:1058A000C0F10500A0610949E06A0968884202D98F
:1058B0000649E06A0860E16A01EB8101044A02EBF3
:1058C0008100211DFFF722FE70BD0000A80200200C
:1058D000A00E002070B505462C4685B31B49E06A32
:1058E0000968C96A88422FD218480068C06AC0F1A6
:1058F0000500A061E16A01EB8101154A02EB81011B
:105900006069884201D1012000E00020C0B1201D63
:10591000FFF787FD0D480068C06AE0620D49E06A44
:105920000968884202D90B49E06A0860E16A01EB24
:105930008101074A02EB8100211DFFF7E7FD03E02B
:1059400002480068C06AE06270BD00009402002056
:10595000A00E0020A802002010B504461CB9FAF7DA
:1059600067FC00BFFEE7034800682060024800684B
:10597000606010BDBC020020A40200201FB5002002
:10598000009001900290034680220FA103901048DE
:1059900000F00AFB0446012C02D100F01DFD044674
:1059A000012C0AD1FAF744FC01200A4908600020C2
:1059B0000949086000F07AF804E01CB9FAF738FCED
:1059C00000BFFEE71FBD000049444C450000000039
:1059D000714E0008AC020020A402002010B504465D
:1059E0000A48006820440A490968884201D8012011
:1059F00000E0002018B9FAF71BFC00BFFEE70348DF
:105A0000006820440149086010BD0000A402002085
:105A1000C402002002480068401C01490860704729
:105A2000B002002010B51C48006818B101201B49C5
:105A3000086030E00BE01A48006818B9FAF7F8FB84
:105A400000BFFEE716480068401E1549086014486C
:105A5000006800EB8000134951F8200008B90120CC
:105A600000E000200028E6D10D49096801EB810122
:105A70000C4A02EB810041684968416000F108016D
:105A800042688A4202D14168496841604168C968F8
:105A9000054A116000BF10BDB0020020B80200200E
:105AA000A8020020A00E0020940200201CB5264869
:105AB000014609780191FF210246117001460978DB
:105AC00000919DF8001001F05001204A117007214B
:105AD0001F4A116009E01E490968491E1C4A1160ED
