:020000040800F2
:10000000503901204D020008F9150008BD0C000808
:10001000F5150008B7090008CB3100080000000002
:100020000000000000000000000000009D0100082A
:10003000BB09000800000000E1010008A51A000843
:10004000670200086702000867020008A518000898
:1000500067020008670200086702000867020008DC
:1000600067020008670200086702000867020008CC
:1000700067020008670200086702000867020008BC
:1000800067020008670200086702000867020008AC
:10009000670200086702000867020008670200089C
:1000A000670200086702000867020008670200088C
:1000B0002D1B00086702000867020008670200089D
:1000C000670200086702000867020008670200086C
:1000D00067020008193100083D310008613100084D
:1000E0006702000809180008670200086702000894
:1000F000670200086702000867020008670200083C
:10010000670200086702000867020008670200082B
:10011000D1300008F53000086702000867020008C7
:10012000670200086702000867020008670200080B
:1001300067020008670200086702000867020008FB
:1001400067020008670200086702000867020008EB
:10015000670200086702000867020008853100088E
:1001600067020008670200086702000867020008CB
:1001700067020008670200086702000867020008BB
:100180006702000867020008DFF80CD000F0D6FB19
:10019000004800477D3E000850390120234B196874
:1001A0000868B0E8F04F80F309884FF0000080F352
:1001B000118870470000000003480068006880F361
:1001C000088862B600DF00BF08ED00E0DFF80C0031
:1001D000016841F470010160704700BF88ED00E0E4
:1001E000EFF30980114B1A681EF0100F08BF20EDC5
:1001F000108A20E9F04F106008B54FF0500080F3EE
:10020000118804F0F9FE4FF0000080F31188BDE87A
:10021000084019680868B0E8F04F1EF0100F08BFDA
:10022000B0EC108A80F30988704700BF800200207C
:10023000EFF311804FF0500181F31188704780F384
:1002400011887047EFF3058070470000064880472B
:1002500006480047FEE7FEE7FEE7FEE7FEE7FEE7AB
:10026000FEE7FEE7FEE7FEE7C51A00088901000881
:1002700040EA01039B0703D009E008C9121F08C028
:10028000042AFAD203E011F8013B00F8013B521EA8
:10029000F9D27047D2B201E000F8012B491EFBD21F
:1002A00070470022F6E710B513460A460446194681
:1002B000FFF7F0FF204610BD2DE9FE4F804681EA92
:1002C0000300C00F0C46009021F0004123F00045D0
:1002D000B8EB0200A94105D24046214690461C4693
:1002E0000B46024623F00040104347D0270DC7F3CA
:1002F0000A00C3F30A510290401A019040286BDAB9
:10030000C3F3130040F4801B0098924620B10023F1
:10031000D2EB030A63EB0B0B01985946C0F1400284
:10032000504600F02EFA06460D4650465946019AB0
:1003300000F046FA10EB08006141002487EA1152F0
:1003400084EAE7731A4340D0009A62B3019A012A03
:100350004FEA075215DC001B61EB02014FF000422F
:1003600002EA0752CDE90042001C41F580113246F5
:100370002B4600F07DFA03B0BDE8F08F40462146E1
:10038000F9E7001B61EB0201001C41F58013001826
:100390005B412018A2F5001747EB030140EAD57036
:1003A000B6196D4111E06D084FEA360645EAC07591
:1003B0004FEA0752001B61EB0201001C41F580115E
:1003C00049084FEA30000019514132462B4603B02C
:1003D000BDE8F04F00F03DBA009801224000002334
:1003E000D0EB020263EBE073009821464FEAE07421
:1003F000B8EB000061EB0401E9E783F000435BE741
:1004000081F0004158E72DE9FE4F81EA030404F032
:10041000004421F0004100944FF0000B23F0004312
:1004200050EA01045ED052EA03045BD0C3F30A54DD
:10043000C1F30A552C44A4F2F3340194A0FB0254F6
:10044000C1F3130141F48011C3F3130343F4801388
:1004500001FB024400FB034E840A970A44EA8154DC
:1004600047EA8357A4FB076802958D0A05FB0785B9
:100470004FEA932C04FB0C542705029D4FEA0658C3
:1004800047EA1637B5EB08056EEB070C870E920EA0
:1004900047EA811742EA8312A7FB0201B6EB0B0180
:1004A00064EB00042B0D43EA0C335E1844EB1C5044
:1004B000DA465146E7FB0201C5F313044FEA0B335A
:1004C00043EA14534FEA0432019C43EA0603A4F1C1
:1004D0000C040294009CCDE900B400F0C9F903B00B
:1004E000BDE8F08F00200146F9E72DE9F04D81EAE3
:1004F000030404F0004B21F0004514464FF0000ABD
:1005000023F0004150EA050220D054EA01021DD038
:10051000C5F30A570246C5F31303C1F31300C1F331
:100520000A5640F4801543F48013A7EB0608101B0D
:10053000D64608F2FD3873EB050002D308F1010836
:1005400001E092185B41B8F1000F03DA0020014688
:10055000BDE8F08D00204FF48011064684460EE081
:10056000171B73EB050705D3121B63EB050306434B
:100570004CEA010C49084FEA300092185B4150EAFE
:100580000107EDD152EA030012D082EA040083EAA7
:100590000501084305D0101BAB4106D20122002300
:1005A00006E000224FF0004302E06FF0010253101A
:1005B0001AEB06004CEB085110EB0A0041EB0B0163
:1005C000BDE8F04D00F045B90EB5C10F80EAE0700E
:1005D0000844CA07002140F233438DE80E000A4662
:1005E0000B4600F045F903B000BD0EB540F23341B3
:1005F00002910021CDE900110A460B4600F038F9BE
:1006000003B000BDC1F30A5210B5C1F3130140F2AB
:10061000FF3341F480119A4201DA002010BD40F20C
:1006200033439A42A2F2334203DC524200F0B8F85C
:1006300010BD904010BD00F0004230F000400AD0E4
:10064000C10D01F56071C0F3160042EA0151C20804
:1006500040071143704700200146704730B5041E23
:1006600071F1000404DB4FF00044404264EB0101EF
:10067000141E73F1000405DB1C464FF00043524288
:1006800063EB04038B4208BF824230BD30B5041EC9
:1006900071F1000404DB4FF00044404264EB0101BF
:1006A000141E73F1000405DB1C464FF00043524258
:1006B00063EB0403994208BF904230BD01F0004350
:1006C00030B421F0004150EA010206D00A0DA2F533
:1006D0006072C1F31301002A02DC30BC00207047B5
:1006E000440F44EAC104C100E01830BC00EBC25022
:1006F00000F078B830B50B460146002020220124D6
:1007000009E021FA02F59D4205D303FA02F5491BDF
:1007100004FA02F52844151EA2F10102F1DC30BDF5
:100720002DE9F05F0546002092469B468846064626
:10073000814640241BE0284641464746224600F0B9
:100740002FF853465A46C01A914110D31146184605
:10075000224600F016F82D1A67EB01084F46224694
:100760000120002100F00DF817EB00094E41201E7A
:10077000A4F10104DFDC484631462A464346BDE881
:10078000F09F202A04DB203A00FA02F10020704793
:100790009140C2F1200320FA03F3194390407047BF
:1007A000202A04DB203A21FA02F00021704721FAC6
:1007B00002F3D040C2F1200291400843194670472D
:1007C000202A06DBCB17203A41FA02F043EAE07315
:1007D00006E041FA02F3D040C2F120029140084302
:1007E000194670470029A8BF7047401C490008BF40
:1007F00020F00100704710B4B0FA80FC00FA0CF051
:1008000050EA010404BF10BC704749B1CCF1200488
:1008100021FA04F411FA0CF118BF01212143084315
:10082000A3EB0C01CB1D4FEA00614FEA102042BF41
:10083000002010BC704700EBC35010440029A4BF37
:1008400010BC7047401C490008BF20F0010010BCDC
:10085000704710B5141E73F1000408DA401C41F112
:10086000000192185B411A4301D120F0010010BD34
:100870002DE9F04D92469B4611B1B1FA81F202E0AA
:10088000B0FA80F220329046FFF77BFF04460F4615
:1008900040EA0A0041EA0B0153465A46084313D086
:1008A000114653EA010019D0C8F140025046FFF743
:1008B00077FF05460E46504659464246FFF761FF10
:1008C000084305D0012004E020463946BDE8F08DFC
:1008D0000020054346EAE0762C4337430A98630537
:1008E000E40AA0EB08000022FD0A44EA47540A305B
:1008F00002D500200146E9E7010510196941DDE94B
:10090000084500196941BDE8F04DA2E7C1F30A525C
:10091000C1F3130140F2FF3341F480119A4202DA2D
:1009200000200146704740F233439A42A2F233421C
:1009300002DC5242FFF734BFFFF723BF064C074DDE
:1009400006E0E06840F0010394E80700984710349F
:10095000AC42F6D3FFF71CFC40830008608300081C
:1009600070B58C1810F8015B15F0070301D110F871
:10097000013B2A1106D110F8012B03E010F8016B9E
:1009800001F8016B5B1EF9D12B0705D40023521E21
:100990000DD401F8013BFAE710F8013BCB1A921C89
:1009A00003E013F8015B01F8015B521EF9D5A14287
:1009B000D8D3002070BD00BFFEE7704708B54FF0E8
:1009C0008041496A009100BF00BF4FF08041496AF1
:1009D000009A891AF9D04FF08041496A0091411E6E
:1009E0000800F1D108BD000051B18200A2F1C0425F
:1009F000126842F001038200A2F1C042136009E0D4
:100A00008200A2F1C0421268034B1A408300A3F196
:100A1000C0431A6070470000FEFF0F0030B5002190
:100A2000002200230468A400A4F1C0442168444CBF
:100A30002140D0E901452C43C5682C4305692C436E
:100A400045692C4385692C43C5692C43056A2C43B1
:100A5000456A2C43856A2C43C56A2C43056B2C439D
:100A600021430468A400A4F1C04421608468082CD8
:100A70000BD10468A400A4F1C044246844F04005EC
:100A80000468A400A4F1C04425600468641CA400A8
:100A9000A4F1C044226802F04042446B2468456BD4
:100AA0006D6844EA0514456BAD6844EA0524456B5E
:100AB000AD8944EA0544456B2D8A44EA0554456BEB
:100AC0002D7D44EA0564456BAD692C4322430468DF
:100AD000641CA400A4F1C0442260C46AB4F5804F31
:100AE00024D10468A400A4F1C044D4F8043103F074
:100AF0004043846B2468856B6D6844EA0514856BFC
:100B0000AD6844EA0524856B2D8A44EA0554856B5B
:100B10002D7D44EA0564856BAD692C43234304684D
:100B2000A400A4F1C044C4F8043107E06FF070459C
:100B30000468A400A4F1C044C4F8045130BD00000E
:100B40008000F7FFF0B50A4600210023002400BF13
:100B50003DE0012505FA01F3156805EA03049C420E
:100B600034D105684F000326BE40B54305601579B2
:100B70004E00B5400668354305601579012D02D059
:100B80001579022D16D185684F000326BE40B54366
:100B9000856055794E00B540866835438560456867
:100BA00001268E40B5434560456896798E40B6B2C1
:100BB00035434560C5684F000326BE40B543C56058
:100BC000D5794E00B540C6683543C560491C10292B
:100BD000BFD3F0BDF0B5002300244D07ED0E02FA9F
:100BE00005F3CE1000F1200555F826504E07F70EFC
:100BF0000F26BE40B543CF1000F1200646F827501F
:100C0000CE1000F1200555F8265045EA0304CE1019
:100C100000F1200545F82640F0BD0000A1F12002BA
:100C2000034B03EBC20213680360526842607047D3
:100C30007C7F0008A1F1200202EB4202044B03EB8F
:100C40008202136803605368436092688260704751
:100C5000087B000870B505460C46A4F1200000EBA7
:100C60004000044A02EBC00118222846FFF700FBAF
:100C700070BD00002072000870B505460C46A4F156
:100C80002000044A02EB001110222846FFF7F0FA78
:100C900070BD0000306C000870B505460C46A4F12C
:100CA000200000EB4000044A02EB001130222846ED
:100CB000FFF7DEFA70BD0000605A000800BFFEE7D3
:100CC00070B502460024002500230020958A138B6E
:100CD0001B0445EA030626F07F4404EA01068E421F
:100CE00001D1012000E0002070BD00002DE9FF4788
:100CF00004460D460026B1460427DFF8CC80A688BE
:100D00004FF6C0700640684600F0EAFCDDF8088047
:100D10002E48B8FBF0F01FFA80F946EA0906A680D3
:100D200020884FF6FE710840208000262849286858
:100D300088420CD828684000B8FBF0F087B2042F36
:100D400000DA04273E4309F10100208427E0E88807
:100D50004BF6FF71884206D1286800EB4000B8FBD3
:100D6000F0F087B209E0286800EBC00101EB001049
:100D7000B8FBF0F087B247F48047C7F30B0008B91F
:100D800047F0010747F4004006434FF4967009FB13
:100D900000F04FF47A7190FBF1F0401C2084A683A0
:100DA000208840F00100208026884FF6F53006406C
:100DB000A8886989084306432680A88929890843A9
:100DC0002081BDE8FF87000000127A0040420F003A
:100DD000A086010001B5BDF800000149088008BDEA
:100DE000EC01002030B5044600250021084600F043
:100DF0009BFB00F0EBFB00BF02E0034804806D1C8E
:100E0000B5F5963FF9D330BD000002602DE9F04101
:100E100004460D4616461F464FF000083146284648
:100E200000F082FB00F0D2FB00BF03E00348048027
:100E300008F10108B845F9D3BDE8F081000002606F
:100E40001CB50121582000F02BFC0121084600F0C0
:100E500037FC0C2200214348FFF7BCFE0C22012185
:100E60004048FFF7B7FE0C2204213E48FFF7B2FED0
:100E70000C2205213B48FFF7ADFE0C220721394823
:100E8000FFF7A8FE0C2208213648FFF7A3FE0C222C
:100E900009213448FFF79EFE0C220A213148FFF752
:100EA00099FE0C220B212F48FFF794FE0C220E21F5
:100EB0002C48FFF78FFE0C220F212A48FFF78AFEED
:100EC0000C2207212848FFF785FE0C22082126481E
:100ED000FFF780FE0C2209212348FFF77BFE0C223E
:100EE0000A212148FFF776FE0C220B211E48FFF74E
:100EF00071FE0C2211461C48FFF76CFE0C220D21DE
:100F00001948FFF767FE0C220E211748FFF762FE13
:100F10000C220F211448FFF75DFE4CF6B3700090D1
:100F200002208DF8040003208DF8050000208DF8C4
:100F300006008DF8070069460A48FFF703FE4FF6E2
:100F40008070009002208DF8040003208DF80500C9
:100F500000208DF806008DF8070069460248FFF76B
:100F6000F1FD1CBD000C02400010024000B597B01E
:100F700000200190029002200390002004900120A4
:100F80000590002006900790089009900A90102084
:100F90000B9000200C900E900F9010904FF480500A
:100FA0001190002012900D9013904FF40020149097
:100FB00001A8159008A8FFF731FD002001900290CC
:100FC000042003900020049001200590002006904A
:100FD000079001A8169008A8FFF720FD0121002026
:100FE000FFF702FD17B000BD10B5FFF729FF40F66F
:100FF000B830FFF7E3FCFFF7B9FF40F6B830FFF772
:10100000DDFC2121072000F0EDFA3220FFF7D6FCAD
:101010000121002000F0E6FA3220FFF7CFFC232167
:10102000072000F0DFFA3220FFF7C8FC0021102073
:1010300000F0D8FA5A20FFF7C1FC3321072000F056
:10104000D1FA3220FFF7BAFC46F63001112000F049
:10105000C9FA3220FFF7B2FC4FF4C061022000F061
:10106000C1FA3220FFF7AAFC46F6EB41122000F04D
:10107000B9FA3220FFF7A2FC4AF6A401032000F0DF
:10108000B1FA3220FFF79AFC00210C2000F0AAFAF6
:101090003220FFF793FC40F60C010D2000F0A2FA7D
:1010A0003220FFF78BFC4FF42C510E2000F09AFAFF
:1010B0003220FFF783FCB0211E2000F093FA32208B
:1010C000FFF77CFC42F63F31012000F08BFA322022
:1010D000FFF774FC0021052000F084FA3220FFF7AE
:1010E0006DFC0021062000F07DFA3220FFF766FC3F
:1010F0004EF61C71162000F075FA3220FFF75EFCE8
:1011000040F20311172000F06DFA3220FFF756FC71
:1011100000210B2000F066FA3220FFF74FFC00217F
:101120000F2000F05FFA3220FFF748FC0021412039
:1011300000F058FA3220FFF741FC0021422000F075
:1011400051FA3220FFF73AFC0021482000F04AFA19
:101150003220FFF733FC40F23F11492000F042FA01
:101160003220FFF72BFC00214A2000F03BFA32200E
:10117000FFF724FC00214B2000F034FA3220FFF767
:101180001DFC4FF46F41442000F02CFA3220FFF791
:1011900015FC0021452000F025FA3220FFF70EFC57
:1011A00040F23F11462000F01DFA3220FFF706FC06
:1011B00040F20771302000F015FA3220FFF7FEFBF5
:1011C0004FF40171312000F00DFA3220FFF7F6FBE9
:1011D0004FF40171322000F005FA3220FFF7EEFBE8
:1011E00040F20251332000F0FDF93220FFF7E6FB18
:1011F00040F20751342000F0F5F93220FFF7DEFB12
:101200004FF40171352000F0EDF93220FFF7D6FBE5
:101210004FF40171362000F0E5F93220FFF7CEFBE4
:1012200040F20251372000F0DDF93220FFF7C6FB13
:1012300040F202313A2000F0D5F93220FFF7BEFB30
:1012400041F2BE212F2000F0CDF93220FFF7B6FB8E
:1012500040F202313B2000F0C5F93220FFF7AEFB2F
:101260000021232000F0BEF93220FFF7A7FB002168
:10127000242000F0B7F93220FFF7A0FB4FF4004123
:10128000252000F0AFF93220FFF798FB00214F2016
:1012900000F0A8F93220FFF791FB00214E2000F06A
:1012A000A1F93220FFF78AFB10BD00002DE9F043C1
:1012B0008DB007460E46904600240025B8F10A0F6F
:1012C0007ED092480088082833D14FF00009B8F149
:1012D0000A0F02D1A6F1080006B241460BA8FFF79B
:1012E0009DFC002422E00BA810F80490002519E0D2
:1012F00049FA05F000F0010048B1721911B23A192B
:1013000010B2834A128812B200F0B4F908E07219E0
:1013100011B23A1910B27F4A128812B200F0AAF93B
:10132000681CC5B2082DE3DB601CC4B2082CDADBF4
:1013300000BF764800880C2833D14FF00009B8F17F
:101340000A0F02D1A6F10C0006B241460AA8FFF727
:1013500071FC002422E00AA810F80490002519E08E
:1013600049FA05F000F0010048B1721911B23A19BA
:1013700010B2674A128812B200F07CF908E07219C4
:1013800011B23A1910B2634A128812B200F072F91F
:10139000681CC5B2082DE3DB601CC4B20C2CDADB80
:1013A00000BF5A480088102835D14FF00009B8F125
:1013B0000A0F02D1A6F1100006B2414609A800E0CA
:1013C000A1E0FFF759FC002422E009A810F80490DE
:1013D000002519E049FA05F000F0010048B1721942
:1013E00011B23A1910B24A4A128812B200F042F908
:1013F00008E0721911B23A1910B2464A128812B2B4
:1014000000F038F9681CC5B2082DE3DB601CC4B2DB
:10141000102CDADB00BF3D4800880E2837D14FF092
:101420000009B8F10A0F02D1A6F10C0006B241463C
:1014300007A8FFF70FFC002426E007A830F81400E7
:101440001FFA80F900251BE0C5F10C0049FA00F0F5
:1014500000F0010048B1721911B23A1910B22C4AC9
:10146000128812B200F006F908E0721911B23A19A6
:1014700010B2284A128812B200F0FCF8681CC5B2FB
:101480000C2DE1DB601CC4B20C2CD6DB00BF1F4866
:101490000088182837D14FF00009B8F10A0F02D19F
:1014A000A6F1180006B2414601A8FFF7F5FB00249B
:1014B00026E001A830F814001FFA80F900251BE08F
:1014C000C5F1100049FA00F000F0010048B17219AE
:1014D00011B23A1910B20E4A128812B200F0CAF8CC
:1014E00008E0721911B23A1910B20A4A128812B2FF
:1014F00000F0C0F8681CC5B2102DE1DB601CC4B25E
:10150000182CD6DB00BF0DB0BDE8F083EC01002045
:10151000E8010020EA01002001B5BDF80000014902
:10152000088008BDEA01002010B503460C461946A4
:101530004E2000F057F821464F2000F053F810BD20
:1015400001B5BDF800000149088008BDE801002090
:101550002DE9F04105460C46164600BF16F8017B02
:101560003A4621B228B2FFF7A1FE1748008884420C
:1015700018DD154800880838201A84B212480088FF
:10158000182805D1104800881238201A84B216E0B5
:101590000D4800880C2812D10B4800880838201A02
:1015A00084B20CE008480088854205DD0024064826
:1015B0000088281A85B202E0E0254FF4987430784C
:1015C0000028CBD1BDE8F081EC01002022204FF0B3
:1015D000C041088070470000014908807047000042
:1015E000000002604FF0C0421080014A1180704735
:1015F0000000026000BFFEE77047000070B50021E8
:1016000000230F22C4781CB3174C246804F4E06450
:10161000C4F5E064C4F30721C1F10404E3B20A4154
:1016200044789C40E1B28478144021430C07210E99
:101630000E4C05786155047804F01F050124AC4078
:1016400005786D11AD0005F1E025C5F8004109E010
:10165000047804F01F050124AC40054D067876118E
:1016600045F8264070BD00000CED00E000E400E00D
:1016700080E100E070B504460D461646EF2C02DC12
:10168000B5F5A07F00DB70BDA9B2A0B2FFF74CFF9B
:10169000FFF79CFFB0B2FFF79FFF00BFF3E700002A
:1016A00029B1064A12680243044B1A6004E0034A57
:1016B00012688243014B1A607047000030380240C4
:1016C00029B1064A12680243044B1A6004E0034A37
:1016D00012688243014B1A6070470000383802409C
:1016E000F0B5002100220024022500260223324FFB
:1016F0003F6807F00C0121B1042905D0082937D132
:1017000005E02E4F076036E02D4F076033E02A4F8B
:101710003F1F3F68C7F38056274F3F1F3F6807F0C2
:101720003F036EB1264FB7FBF3F7DFF88CC0ACF187
:10173000040CDCF800C0CCF3881C07FB0CF40CE0B4
:101740001E4FB7FBF3F7DFF870C0ACF1040CDCF808
:1017500000C0CCF3881C07FB0CF4174F3F1F3F68F9
:10176000C7F301477F1C7D00B4FBF5F7076002E07B
:10177000124F076000BF00BF0F4F3F6807F0F00136
:101780000909104F7A5C0768D74047600A4F3F68E5
:1017900007F4E051890A0B4F7A5C4768D7408760AD
:1017A000054F3F6807F46041490B064F7A5C476874
:1017B000D740C760F0BD0000083802400024F400A4
:1017C00000127A00D801002010B504460D4800F040
:1017D00019FE0C48007800060A49497840EA0140A1
:1017E0000849897840EA01200649C97808436060C1
:1017F000044800792070034840796070014880797E
:10180000207210BD2C33012010B54FF4805000F031
:1018100029F828B14FF4805000F014F801F034F8A2
:101820004FF4005000F01EF828B14FF4005000F0C3
:1018300009F801F02AF84FF400300149086010BDA2
:10184000143C0140002101098AB242F08002044B9D
:101850001B6803F0800363EA0202014B1A607047C1
:101860000C28004030B501460020002200230C4C1B
:10187000246804F004020A4C383C24680C4002EA54
:10188000D13544EA0503064C343C246804EA1112BD
:101890001BB194B20CB1012000E0002030BD00006B
:1018A0004028004010B54FF48040FFF7DBFF28B11F
:1018B0004FF48040FFF7C6FF00F0E8FF4FF48000D0
:1018C0000149086010BD0000143C01400FB4002124
:1018D00000200390009004900190029000BF17E058
:1018E000002201EB410305A800EB8300427001EBED
:1018F000410305A800F8232001EB410300EB83001E
:10190000426001EB410305A800EB83000272491C11
:101910000529E5DB9FED0E0A8DED170A9FED0C0AF8
:101920008DED140A9FED0A0A8DED160A9FED080A47
:101930008DED150A9FED070B8DED180B9FED040A39
:101940008DED1B0A05A01A90012004B0704700001D
:101950000000000000000000000000004E554C4C4C
:101960000000000010B50022028802F441520B88EA
:101970004C8823438C882343CC8823430C892343FE
:101980004C8923438C892343CC8923431A43028007
:10199000838B4FF2FF74234083830B8A038210BD35
:1019A0000021018041808180C1800181418181814C
:1019B000C1810721018270470CB500200190009081
:1019C0003448006840F480303249086000BF314834
:1019D000006800F4003000900198401C01900098CD
:1019E00018B90198B0F5A04FF1D12A48006800F469
:1019F000003010B10120009001E00020009000981C
:101A0000012846D123484030006840F080502149E9
:101A1000403108602048006840F440401E4908609A
:101A20001C48083000681B490831086008460068F7
:101A300040F4004008600846006840F4A050086088
:101A40001648091F0860081F006840F08070091FD1
:101A5000086000BF0F48006800F000700028F9D04F
:101A600040F205700E4908600A480830006820F00E
:101A700003000849083108600846006840F0020089
:101A8000086000BF03480830006800F00C00082818
:101A9000F8D10CBD003802400070004019544007D6
:101AA000003C024010B5FEF7C3FB03F021FE18B165
:101AB0004FF08050024908600020FEF7C0FB10BDC7
:101AC00004ED00E010B51548006840F470001349BB
:101AD00008601348006840F00100114908600020C8
:101AE0000F49083108600E4800680E4908400C494B
:101AF00008600D48091D0860081F006820F4802058
:101B0000091F0860002006490C310860FFF754FFE8
:101B10004FF0006001498039086010BD88ED00E099
:101B200000380240FFFFF6FE1030002410B54FF6DB
:101B3000FE704FF08041088227480068401C26490B
:101B400008602648006820B124480068401E2349E8
:101B50000860AFF30080002438E0214850F82400EA
:101B600090B31F4850F82400007B68B31C4850F81D
:101B70002400806840B31A4850F824008168491E48
:101B8000174850F824008160154850F824008068F8
:101B9000D0B9134A52F824205069114A52F824202F
:101BA000116988470E4850F8240001680C4850F825
:101BB000240081600A4850F82400406820B90021C0
:101BC000074850F824000173601CC4B20448001F89
:101BD0000078A042C1DC10BD1002002014020020D9
:101BE0005C05002000220288184B98420ED0184B4A
:101BF00098420BD0B0F1804F08D0164B984205D0D8
:101C0000154B984202D0154B984204D14FF68F7372
:101C10001A404B881A43124B984207D0114B9842F6
:101C200004D04FF6FF431A400B891A4302804B68D9
:101C3000C3620B880385054B984202D0044B98423F
:101C400001D18B7A03860123838270470000014013
:101C5000000401400004004000080040000C004067
:101C6000001000400014004000B58BB001A94FF0F7
:101C7000804001F0B3F99FED240B01A801F044F975
:101C80004FF0804001F090F80020ADF82800ADF84A
:101C9000220040F2E73009901D4901980968B1FB24
:101CA000F0F01C4948431A490968B1FBF0F0401EA6
:101CB00080B2ADF8200000208DF82A0008A94FF06E
:101CC0008040FFF78FFF4FF08040808940F0010097
:101CD0004FF0804188811C208DF81C0001208DF878
:101CE0001F0000208DF81D008DF81E0007A8FFF7CB
:101CF00085FC4FF08040008840F001004FF08041AB
:101D000008800BB000BD00000000000080842E4160
:101D1000C401002040420F0010B5FFF7A5FF0120CD
:101D20000149087010BD00001C0200201CB50320F2
:101D300000210B460122CDE900104FF47041044808
:101D400000F0C6F84FF4704001491A3108801CBDFC
:101D5000000C024001460A1102EB8202500001F021
:101D60000F020244D0B270473EB50446072001ABD3
:101D70000022D0210090134800F054FA9DF804008E
:101D8000FFF7E8FF20709DF80500FFF7E3FF6070A4
:101D90009DF80600FFF7DEFFA0709DF80700FFF733
:101DA000D9FFE0709DF80800FFF7D4FF20719DF87F
:101DB0000900FFF7CFFF60719DF80A00FFF7CAFF27
:101DC000A0713EBD0054004010B5074A01210748EC
:101DD00000F06AF9D021054800F0F1F908B90220B5
:101DE00010BD0020FCE70000A08601000054004068
:101DF00001464FF40030081AC0F38F2070470000EE
:101E000000B502461046FFF7F3FF012101FA00F08A
:101E10000249096808430149086000BD30380240A2
:101E20002DE9F04304460E461546DDE907892046B4
:101E3000FFF7DEFFC7B2002243E0012090403040B0
:101E400000B93CE0214830F81700012191400843D7
:101E50001E4921F81700E0684FEA420C032101FAFD
:101E60000CF18843510008FA01F10843E060206852
:101E70004FEA420C032101FA0CF18843510005FAA4
:101E800001F108432060012D01D0022D16D16168B7
:101E90000120904080B221EA000003FA02F189B2E9
:101EA00008436060A0684FEA420C032101FA0CF17C
:101EB0008843510009FA01F10843A06000BF501C9B
:101EC000C2B2102AB9DBBDE8F08300004005002053
:101ED0002DE9FC4305460C4616461F46DDE90989F7
:101EE0000CB9BDE8FC832846FFF78AFF3B46324623
:101EF00021462846CDE90089FFF792FF00BFF0E7B1
:101F00002DE9FC4705460E4617469846DDE90A9A34
:101F10000EB9BDE8FC872846FFF772FF00241AE0DF
:101F20000120A040304000B914E0E10805F1200094
:101F300050F821006107CA0E0F21914088436107C4
:101F4000C90E0AFA01F10843E20805F1200141F83F
:101F5000220000BF641C102CE2D33B460222314613
:101F60002846CDE90089FFF75BFF00BFD1E70000FD
:101F70001CB504464CB9042001210B460A46CDE9A4
:101F80000010C0211148FFF7BBFF012C0AD104202B
:101F900001210B460A46CDE900104FF440710B4871
:101FA000FFF7AEFF022C0AD1042001210B460A469E
:101FB000CDE900104FF410710448FFF7A1FF032C86
:101FC00003D10421024800F0F9F81CBD00040240CE
:101FD000005400401CB5044654B9042001210B46AE
:101FE0000A46CDE900104FF440611148FFF788FF21
:101FF000012C09D1042001210B460A46CDE900102D
:1020000003210C48FFF77CFF022C09D10420012199
:102010000B460A46CDE9001030210748FFF770FF54
:10202000032C03D10421054800F0C8F81CBD0000B2
:102030000004024000140240001C0240005800400E
:102040001CB504469CB9042001210B460A46CDE983
:10205000001081011048FFF753FF042001210B46B7
:102060000A46CDE90010C1010C48FFF749FF012CD9
:102070000AD1042001210B460A46CDE900104FF495
:10208000C0710748FFF73CFF032C03D1042105482A
:1020900000F094F81CBD000000000240000802405F
:1020A000001C0240005C00407FB504460E46154609
:1020B0003D48844221D13D48006840F400103B492E
:1020C00008603046FFF754FF39480068A84201D93C
:1020D000374805603648006800904FF48040ADF8FE
:1020E0000C000020ADF80400ADF80800ADF80A00BF
:1020F0004BF6FF70ADF8060048E02E48844221D12F
:102100002A48006840F48000284908603046FFF7FC
:1021100061FF27484068A84201D925484560244806
:10212000406800904FF48040ADF80C000020ADF8FE
:102130000400ADF80800ADF80A004BF6FF70ADF8EA
:10214000060023E01C48844220D11848006840F46F
:102150000000164908603046FFF772FF1448806897
:10216000A84201D9124885601148806800904FF458
:102170008040ADF80C000020ADF80400ADF8080078
:10218000ADF80A004BF6FF70ADF80600208820F08D
:102190000100208069462046FEF7A8FD208840F017
:1021A000010020807FBD0000005400404038024004
:1021B0000002002000580040005C0040704770B5ED
:1021C00004460D460026012300222946204600F041
:1021D0007BF800B90126204600F0CEF8304670BDED
:1021E00070B50446208840F48060208044F620606A
:1021F0000A49086007E009480068401E074908606E
:1022000008B9012070BD06492046FEF759FD002897
:10221000F1D0208AC5B22846F4E70000FC01002076
:10222000400003002DE9F0478046894616461D46CA
:10223000089F012300224946404600F045F83146F8
:10224000404600F0B9F801231A464946404600F0DE
:102250003BF800240DE0781EA04204D1404600F077
:102260000DF8285503E04046FFF7BAFF2855601CDB
:10227000C4B2BC42EFDBBDE8F087000070B5044695
:10228000208820F480602080208840F40070208026
:1022900044F620600A49086007E009480068401ECB
:1022A0000749086008B9012070BD06492046FEF7BD
:1022B00007FD0028F1D0208AC5B22846F4E70000C7
:1022C000FC010020400003002DE9F04104460D46CA
:1022D00016461F46208840F48070208044F6206017
:1022E0002349086008E022480068401E2049086031
:1022F00010B90120BDE8F081A08A00F0010000289B
:10230000F1D01FB1208840F480602080A6B925F06C
:102310000100208244F620601549086007E0144857
:102320000068401E1249086008B90120E2E7A08A4F
:1023300000F002000028F2D0012E15D145F0010076
:10234000208244F620600A49086007E008480068D7
:10235000401E0749086008B90120CBE7054920461F
:10236000FEF7AEFC0028F1D0208B0020C2E7000071
:10237000FC01002002000300014644F620600D4AE3
:10238000106007E00B480068401E0A4A106008B958
:1023900001207047888A00F080000028F2D0888AE7
:1023A00000F004000028EDD0088840F40070088098
:1023B0000020EEE7FC01002044F62062084B1A6082
:1023C00004E0074A1268521E054B1A60828A02F026
:1023D00080021AB9024A1268002AF2D101827047BB
:1023E000FC01002010B500F02FF8044604F0400076
:1023F00008B1012010BD00F01FF908B90120F9E76C
:102400000020F7E710B504464FF480700B490880B0
:1024100061210B4800F0A1FB0A48037822462146BF
:10242000074800F0BBFB4FF480700449891E088008
:102430004021072000F0EEF910BD00001A0802400C
:10244000003C0040F801002010B54FF480700749AF
:102450000880FF21064800F080FB04464FF480709E
:102460000249891E0880204610BD00001A0802405B
:10247000003C004070B505460C4600F07BF8012199
:10248000394800F005FB202C00DD20240DB9012087
:1024900000E0002035494870084604700320887029
:1024A0000020C87000F027F9284600F0CDF82F482A
:1024B0000178112000F0AEF92C480178122000F0CC
:1024C000A9F92A480178132000F0A4F927480178D7
:1024D000142000F09FF925480178152000F09AF9A2
:1024E00022480178162000F095F9204A9178D0789A
:1024F00000F0D0F80421002000F08CF93F210120E9
:1025000000F088F93F21022000F084F94F210420D7
:1025100000F080F900211C2000F07CF900BF4FF48E
:10252000807013490880E1210F4800F016FB4FF43A
:1025300080700F49891E088000BF00BF891C088079
:10254000E221094800F009FB4FF480700849891E18
:10255000088000BF00BF7021072000F05BF900BFBA
:1025600000F028F8012070BD003C0040F801002078
:102570001A0802401CB50020012103460A46CDE995
:10258000001009020A48FFF7A3FC002001210346BE
:102590000A46CDE9001049020548FFF799FC4FF4BF
:1025A00080700349183108804000891C08801CBDD8
:1025B0000008024010B54FF400700F49088000BFBA
:1025C00040100880E2210D4800F0C7FA4FF48070F7
:1025D0000949891E088000BF00BF7021072000F054
:1025E00019F900BF0721002000F014F94FF4007022
:1025F0000149891E088010BD1A080240003C0040B5
:1026000070B504464FF480700949088004F01F013A
:10261000084800F0A2FAFF21064800F09EFA05469D
:102620004FF480700249891E0880284670BD000062
:102630001A080240003C004010B51720FFF7E0FFE9
:10264000044604F0010010BD10B504467D2C09DCE1
:1026500005484078A04205D0034844702146052033
:1026600000F0D8F810BD0000F801002010B50446B5
:102670004FF4007006490880052221460B2000F027
:10268000E5F84FF400700249891E088010BD000073
:102690001A08024070B506460D4600240E48C67062
:1026A000857016B944F0080403E0022E01D144F00D
:1026B0002004032D02D144F0060408E0022D02D1CB
:1026C00044F0040403E0012D01D144F0020421464A
:1026D000062000F09FF870BDF801002010B50446F8
:1026E000052221460A2000F0B1F8052221461020DB
:1026F00000F0ACF810BD1CB50821002000F08AF8ED
:102700003F21012000F086F80321022000F082F82A
:102710000321084600F07EF80321042000F07AF837
:102720000221052000F076F80E21062000F072F854
:102730000E21072000F06EF80021082000F06AF852
:102740000021092000F066F8E7208DF800008DF8E0
:1027500001008DF802008DF803008DF804000522B9
:1027600069460A2000F072F8C2208DF800008DF84A
:1027700001008DF802008DF803008DF80400052299
:1027800069460B2000F062F8C3210C2000F042F8EB
:10279000C4210D2000F03EF8C5210E2000F03AF8CB
:1027A000C6210F2000F036F8E7208DF800008DF8E4
:1027B00001008DF802008DF803008DF80400052259
:1027C0006946102000F042F80021112000F022F8A4
:1027D0000021122000F01EF80021132000F01AF84A
:1027E0000021142000F016F80021152000F012F846
:1027F0000021162000F00EF81121172000F00AF831
:1028000000211C2000F006F800211D2000F002F835
:102810001CBD000070B504460D464FF48070094998
:10282000088004F01F0040F02001074800F095F9EF
:102830002946054800F091F94FF480700149891E3E
:10284000088070BD1A080240003C004070B5044684
:102850000D4616464FF480700949088004F01F00A9
:1028600040F02001074800F078F932462946054833
:1028700000F0BCF94FF480700149891E088070BDDA
:102880001A080240003C0040704770477047000043
:102890001CB504464CB90520032100231A46CDE996
:1028A0000010E0210A48FFF72BFB012C09D105207D
:1028B000032100231A46CDE9001038210548FFF70F
:1028C0001FFB032C03D10521034800F045F91CBD73
:1028D0000000024000040240003001401CB50446E4
:1028E000A4B90520032100231A46CDE900104FF4B6
:1028F00080611648FFF704FB0520032100231A46D8
:10290000CDE900100C211248FFF7FAFA012C0AD188
:102910000520032100231A46CDE900104FF4604141
:102920000A48FFF7EDFA022C09D105200321002304
:102930001A46CDE900100D210648FFF7E1FA032CF5
:1029400003D10521044800F007F91CBD0004024032
:102950000008024000200240003800401CB5044638
:102960004CB90620032100231A46CDE90010382176
:102970000B48FFF7C5FA012C0AD1062003210023DA
:102980001A46CDE900104FF4E0510648FFF7B8FAB7
:10299000032C03D10621044800F0DEF81CBD000022
:1029A0000004024000080240003C00401CB5044600
:1029B0004CB90520032100231A46CDE900106421FB
:1029C0000B48FFF79DFA012C0AD1052003210023B3
:1029D0001A46CDE900104FF4E0410548FFF790FAA0
:1029E000032C03D10521034800F0B6F81CBD0000FC
:1029F00000100240003401401CB5044654B90520C3
:102A0000032100231A46CDE900104FF460711048ED
:102A1000FFF776FA012C13D10520032100231A4673
:102A2000CDE90010E1020A48FFF76AFA0520032108
:102A300000231A46CDE90010C0210648FFF760FACE
:102A4000032C03D10521044800F086F81CBD0000CA
:102A500000140240001C0240005001401CB5044616
:102A600054B90520032100231A46CDE900104FF484
:102A7000E0410548FFF744FA032C03D10521034840
:102A800000F06AF81CBD000000180240005401402C
:102A90007CB504460D462A4884420AD100204FF4F2
:102AA000827120230246CDE900102946204600F01D
:102AB000C5F8244884420AD100204FF482712023B3
:102AC0000246CDE900102946204600F0B7F81E481E
:102AD00084420AD100204FF4827120230246CDE9BE
:102AE00000102946204600F0A9F8184884420AD16F
:102AF00000204FF4827120230246CDE900102946C0
:102B0000204600F09BF8124884420AD100204FF47E
:102B1000827120230246CDE900102946204600F0AC
:102B20008DF80C4884420AD100204FF48271202392
:102B30000246CDE900102946204600F07FF87CBD12
:102B40000030014000380040003C004000340140AB
:102B5000005001400054014070470246108800F0C8
:102B6000400008B90020704700BF108900F0030042
:102B70000028FAD0108900F080000028F5D191815A
:102B800000BF108900F003000028FAD0108900F07F
:102B900080000028F5D19089C0B2E4E730B50C463A
:102BA000058805F0400505B930BD00BF058905F071
:102BB0000305002DFAD0058905F08005002DF5D11B
:102BC00000210FE0655C858100BF058905F00305E4
:102BD000002DFAD0058905F08005002DF5D18589F5
:102BE0005554491C9942EDD300BFDDE710B50B46A3
:102BF000048804F0400404B910BD00BF048904F047
:102C00000304002CFAD0048904F08004002CF5D1D0
:102C100000210EE05C5C848100BF048904F00304A1
:102C2000002CFAD0048904F08004002CF5D18489AA
:102C3000491C9142EED300BFDEE700002DE9F043CE
:102C400085B004460E4615461F46DDE90C896846E8
:102C5000FEF7A6FE4D4884420BD14D48006840F473
:102C600080504B4908603046FFF712FE0020ADF857
:102C70000400484884420DD14548001F006840F4D4
:102C800080404349091F08603046FFF727FE0020B7
:102C9000ADF80400404884420DD13D48001F006853
:102CA00040F400403A49091F08603046FFF756FEDD
:102CB0000020ADF80400394884420BD13448006844
:102CC00040F40050324908603046FFF76FFE0020A4
:102CD000ADF80400324884420BD12D48006840F41E
:102CE00080102B4908603046FFF786FE0020ADF8C3
:102CF00004002C4884420BD12548006840F40010A1
:102D0000234908603046FFF7A9FE0020ADF8040013
:102D1000ADF80C700020ADF80000ADF80E90ADF8E5
:102D200002804FF40070ADF80A002DB90020ADF814
:102D30000600ADF8080019E0012D06D10020ADF81D
:102D400006000120ADF8080010E0022D06D1022097
:102D5000ADF806000020ADF8080007E0032D05D10E
:102D60000220ADF806000120ADF80800208820F010
:102D70004000208069462046FEF7F4FD208840F0A0
:102D80004000208005B0BDE8F08300000030014025
:102D90004438024000380040003C0040003401400C
:102DA000005001400054014001464948814205D18C
:102DB0004848006840F00100464A1060B1F1804F79
:102DC00007D14448001F006840F00100414A121F2B
:102DD00010604148814207D13E48001F006840F022
:102DE00002003C4A121F10603C48814207D139481A
:102DF000001F006840F00400364A121F1060384877
:102E0000814207D13348001F006840F00800314A72
:102E1000121F10603348814207D12E48001F0068FE
:102E200040F010002B4A121F10602F48814207D13A
:102E30002848001F006840F02000264A121F10603A
:102E40002A48814205D12348006840F00200214A07
:102E500010602748814205D11E48006840F4803048
:102E60001C4A10602348814205D11A48006840F48A
:102E70000030184A10602048814205D1154800688A
:102E800040F48020134A10601C48814207D1114849
:102E9000001F006840F040000E4A121F10601848E2
:102EA000814207D10B48001F006840F08000094AAA
:102EB000121F10601348814207D10648001F0068A6
:102EC00040F48070034A121F106000207047000019
:102ED0000000014044380240000400400008004067
:102EE000000C0040001000400014004000040140AD
:102EF00000400140004401400048014000180040EB
:102F0000001C00400020004010B52DED068B04464B
:102F1000B0EE408AF0EE608A2068FDF766FB41EC77
:102F2000190B53EC182BFDF799FB07D200202061F9
:102F3000E06060610320BDEC068B10BD9FED250BAA
:102F400053EC102B51EC180BFDF788FB05D100203A
:102F50002061E06060610420EDE76068B0F5803FCB
:102F600002D26068401C60600020206100BF2069C0
:102F7000401C2168B1FBF0F0E060E068FDF735FB34
:102F800041EC1A0B53EC182BFDF7AFFA41EC190B7F
:102F9000FDF738FBE0602069401C20616168E06853
:102FA000884204D9A068401C21698142DFD9A06809
:102FB000401C2169814205D900202061E0606061E8
:102FC0000420B8E751EC180BFDF71CFB60610020F2
:102FD000B1E7000000000000000000007FB50446DB
:102FE0000D466846FEF77CFB4FF6FF70A860B4F113
:102FF000804F02D01F48844207D1039828604FF0C9
:10300000FF306860002004B070BD1B4884420BD0C4
:103010001A48844208D01A48844205D0194884428C
:1030200002D01948844206D1019828604FF6FF70FB
:1030300068600020E7E71548844211D014488442B4
:103040000ED0144884420BD01348844208D0134851
:10305000844205D01248844202D01248844206D1EC
:10306000039828604FF6FF7068600020CBE70220CD
:10307000C9E70000000C00400000014000040140CE
:10308000004001400044014000480140000400406D
:1030900000080040001000400014004000180040EC
:1030A000001C004000200040C28883889A420EDA4B
:1030B000028983889A4201D1002202810389026831
:1030C000D1540289521C0281C288521CC2807047AE
:1030D00000B50648008800F0200030B10348001D0C
:1030E0000088C1B20248FFF7DFFF00BD004C00407E
:1030F0005002002000B50648008800F0200028B1EA
:1031000003488088C1B20348FFF7CEFF00BD00002E
:10311000005000406002002000B50648008800F022
:10312000200028B103488088C1B20348FFF7BCFFE4
:1031300000BD0000001001402002002000B506483C
:10314000008800F0200030B10348001D0088C1B2A3
:103150000248FFF7A9FF00BD0044004030020020F4
:1031600000B50648008800F0200030B10348001D7B
:103170000088C1B20248FFF797FF00BD0048004039
:103180004002002000B50648008800F0200030B161
:103190000348001D0088C1B20248FFF785FF00BD4B
:1031A000001401407002002002460020B1F5007FAB
:1031B00000D100BF13880B400BB1012000E00020BC
:1031C0007047C1F308028280704700BFFEE700002D
:1031D0000FB4054B10B503A9044A029800F0DEF8BD
:1031E00010BC5DF814FB0000F53A00081403002041
:1031F0000FB4084B10B504A902AA039800F0CEF84A
:10320000044602A9002000F060FC204610BC5DF8D6
:1032100014FB0000CB3A000802E008C8121F08C1E6
:10322000002AFAD170477047002001E001C1121F47
:10323000002AFBD1704700002DE9FF5FDDE9022085
:10324000010DDDF838B0024318D044F61050A1F259
:10325000FF3141430D140F98012820D0A5EB0B003E
:10326000401C5FEA000A4FF00004474EDFF81C9153
:10327000A046504616D5CAF1000728E00F98012451
:1032800043A2012808D0002100980F9BC0E900212B
:10329000C0E90243BDE8FF9F6FEA0B01F4E7CBF101
:1032A0000000DEE7074612E0F80707D02246334663
:1032B00040464946FDF7A7F88046894622463346F0
:1032C00010461946FDF79FF804460E467F10002F62
:1032D000EAD1DDE90201BAF1000F42464B4602DABB
:1032E000FDF791F801E0FDF700F904460E460022D3
:1032F000284BFDF7CBF903D84FF0FF30014607E02C
:103300000022254B20463146FCF7D6FFFDF7FEFA9A
:10331000102409E0002C0ADB0A220023FDF700FA42
:10332000019B30321A55641E50EA0102F2D1641C2E
:10333000019AC4F1110314440F9A012A03D0012207
:1033400008430DD10AE0084304D000204FF0110BD0
:103350000F9080E7A3EB0B056D1E0DE05B4504DDD0
:103360004FF0000205F1010504E003DA4FF000021E
:10337000A5F10105002AECD000980F99C0E90231AF
:10338000C0E9004586E70000000024400000F03F4F
:10339000300000000000F0430000E03F2DE9FF4F47
:1033A00095B09B468946064600250FE2252877D131
:1033B00000242746F84A0121059400E0044316F84A
:1033C000013F203B01FA03F01042F7D130782A2860
:1033D00011D06FF02F033078A0F13002092A16D8EF
:1033E000059A44F0020402EB820203EB420210440D
:1033F000761C0590EFE759F8042B0592002A03DAB2
:10340000504244F40054059044F00204761C307895
:103410002E2816D116F8010F44F004042A280DD0E6
:103420006FF02F023078A0F13003092B09D807EB99
:10343000870302EB4303C718761CF3E759F8047BB4
:10344000761C30786C280FD006DC4C2817D0682802
:103450000DD06A2814D104E0742810D07A280FD136
:103460000DE044F400140AE044F4801401E044F454
:1034700040147278824202D104F58014761C761CC6
:10348000307866280BD013DC582877D009DC002868
:1034900075D04528F6D04628F4D047281AD19DE1AA
:1034A00018E0632835D0642879D0652812D195E1D9
:1034B000702873D008DC6728F1D069286FD06E2897
:1034C0000DD06F2806D1B5E073282CD0752875D0A3
:1034D000782874D05A46179990476D1C75E1C4F34B
:1034E0000250022809D003280DD0D9F80010042872
:1034F0000DD00D6009F1040967E1D9F80010EA1751
:10350000C1E90052F6E7D9F800100D80F2E70D701E
:10351000F0E719F8041B8DF8001000208DF8010069
:10352000EA46012003E059F804AB4FF0FF30610791
:103530004FF0000102D40DE008F101018846B942C4
:103540000FDA8045F8DB1AF808100029F4D108E0FA
:1035500008F1010188468142FADB1AF808100029B7
:10356000F6D105985B46A0EB080721463846179A26
:1035700000F094FA284400EB080507E04DE029E14B
:103580000DE01AF8010B5A4617999047B8F1010857
:10359000F7D25B4621463846179A13E142E00A22E9
:1035A0000092C4F302524FF0000A022A08D059F8E0
:1035B00004CB032A4FEAEC710AD00DE029E02AE09F
:1035C00009F1070121F00702F2E802C1914609E082
:1035D0000FFA8CFC4FEAEC71042A03D14FFA8CFCF1
:1035E0004FEAEC71002907DA0A460021DCF1000CF1
:1035F00061EB02012D2202E0220504D52B228DF879
:103600000420012203E0E20701D02022F7E79046E0
:1036100059E00A2102E010220DE010214FF0000ACB
:1036200000910BE010224FF0000A44F00404082738
:10363000009203E008224FF0000A0092C4F3025205
:10364000022A05D059F804CB0021032A08D009E04A
:1036500009F1070121F00702F2E802C1914605E0F5
:103660001FFA8CFC042A01D10CF0FF0C4FF000086B
:10367000220728D5702806D0009B83F0100353EA58
:103680000A0305D00EE040228DF80420012208E054
:103690005CEA010206D030228DF804208DF8050086
:1036A00002229046009B83F0080353EA0A030AD1E2
:1036B0005CEA010201D1620705D530228DF80420B1
:1036C0004FF001087F1E582804D034A003900EA8A4
:1036D00002900DE036A0F9E753466046009AFDF7E8
:1036E0001FF884460398825C0298401E0290027084
:1036F0005CEA0100F0D1029806A9081A00F1200A3C
:10370000600702D524F4803400E00127574502DD2C
:10371000A7EB0A0000E0002000EB0A0100900598EA
:103720004144401A0590E00306D45B462146179AAF
:10373000059800F0B3F90544002706E001A85A46B1
:10374000C05D179990476D1C7F1C4745F6DBE00371
:103750000CD55B462146179A059800F09FF9054461
:1037600004E030205A46179990476D1C0099481E76
:1037700000900029F5DC08E0029802995A4600788A
:10378000491C0291179990476D1CBAF10001AAF1EA
:10379000010AF1DC65E10000092801003031323313
:1037A000343536373839616263646566000000007D
:1037B0003031323334353637383941424344454667
:1037C0000000000000F058F90544761C307800280D
:1037D0007FF4ECAD19B02846BDE8F08F620700D445
:1037E000062709F1070222F0070CFCE80223E14654
:1037F00003F000485FEA080C02D00FF2702C0DE0D5
:103800005FEA045C02D50FF2682C07E05FEAC47C33
:1038100002D00FF2602C01E0AFF2700C4FF0FF38D5
:1038200023F00043CDF850C065280CD006DC4528B5
:1038300009D046281DD047283DD13DE0662818D044
:1038400067287ED138E00021112F01DB112000E034
:10385000781CCDE9000106A90EA8FFF7EDFCDDE913
:103860000F010E9A03910021009207F1010A0491C1
:103870004DE04FF000400097CDE9011006A90EA8D9
:10388000FFF7DAFCDDE90F0203920E9B119900228B
:10389000DDF80CA00093049211B9791C00EB010A29
:1038A000B7EB0A0004D4C0F1FF3007F1010A04901D
:1038B000AAEB0700019044E0012F00DA0127002164
:1038C000112F01DD112000E03846CDE9000106A9E5
:1038D0000EA8FFF7B1FCDDE90F010E9A039100215C
:1038E00004910092BA4621070CD40399514500DA9D
:1038F0008A46BAF1010F05DD009AAAF10101515C77
:10390000302908D0B84202DA10F1040F06DA01219A
:10391000CDE9011015E0AAF10101E9E7002805DC75
:10392000049901440491AAEB000102E0411C5145B5
:1039300000DD8A460499401A401C01904FF0004077
:103940000290200704D40198504501DBCDF8048093
:1039500000208DF84F0002980DF14F07B0F1004F95
:1039600025D02B200E9002984FF0020800280CDA88
:10397000404202902D200E9007E00A210298FCF7A9
:10398000B9FE3031029007F8011DB8F10001A8F12D
:103990000108F2DC02980028EFD1791E0E98087019
:1039A000307800F0200040F0450007F8020D12A822
:1039B000C01B00F107081498007800B1012000EB4B
:1039C0000A01019801EBE07105984144401A401E3C
:1039D0000590E00306D45B462146179A059800F04F
:1039E0005DF805441498007818B15A461799904725
:1039F0006D1CE00324D55B462146179A059800F01C
:103A00004DF805441CE00498002807DBDDE90301BC
:103A1000884203DD0098405C179901E01799302037
:103A20005A469047049805F10105401C04900198FE
:103A3000401E019004D12E205A46179990476D1CC4
:103A4000BAF10001AAF1010ADDDC05E017F8010B6B
:103A50005A46179990476D1CB8F10001A8F101086A
:103A6000F4DC5B462146179A0598ABE62D00000072
:103A70002B000000200000002DE9F0410446002545
:103A80001E461746880404D405E039462020B04776
:103A90006D1C641EF9D52846BDE8F0812DE9F04182
:103AA000044600251E469046C80301D5302700E095
:103AB0002027880404D505E041463846B0476D1CF0
:103AC000641EF9D52846BDE8F0810A68531C0B60D6
:103AD0001070704701200549096809B1002003E012
:103AE0000349096801B1002070470000BC060020AE
:103AF000A402002070B504460D46E1B20548FFF768
:103B000060FB00BF40210348FFF74EFB0028F9D0BF
:103B1000204670BD001001402DE9F0412DED048BD1
:103B2000044600250C260C270C2000F0B3F9206079
:103B300010B991A0FFF74CFB0C2000F0ABF96060CE
:103B400010B98DA0FFF744FB0C2000F0A3F9A06092
:103B500010B989A0FFF73CFB0C2000F09BF9206115
:103B600010B985A0FFF734FB0C2000F093F9E0605A
:103B700010B981A0FFF72CFB0C2000F08BF96061DD
:103B800010B97DA0FFF724FB0C2000F083F9216819
:103B9000486010B978A0FFF71BFB0C2000F07AF901
:103BA0002168886010B974A0FFF712FB0C2000F0A8
:103BB00071F96168486010B96FA0FFF709FB0C202C
:103BC00000F068F96168886010B96BA0FFF700FB2E
:103BD000082000F05FF9A168486010B966A0FFF7FF
:103BE000F7FA082000F056F9A168886010B962A0C1
:103BF000FFF7EEFA082000F04DF92169486010B98E
:103C00005DA0FFF7E5FA082000F044F9216988601B
:103C100010B959A0FFF7DCFA082000F03BF9E16881
:103C2000486010B954A0FFF7D3FA082000F032F929
:103C3000E168886010B950A0FFF7CAFA142000F0BC
:103C400029F96169486010B94BA0FFF7C1FA142047
:103C500000F020F96169886018B947A0FFF7B8FA49
:103C60000125B2EE0E0A206880ED000AB3EE0E0ABE
:103C7000606880ED000A9FED470AA06880ED000AA9
:103C80009FED450A206980ED000A9FED430AE06838
:103C900080ED000AB5EE000A606980ED000AB2EE20
:103CA000040A2068406880ED000AB3EE090A206823
:103CB000406880ED010A9FED390A2068406880ED78
:103CC000020AB3EE040A6068406880ED000A9FEDC6
:103CD000340A6068406880ED010A9FED320A60682E
:103CE000406880ED020A9FED300AA068406880EDD0
:103CF000000A9FED2E0AA068406880ED010A9FED42
:103D00002C0A2069406880ED000A9FED230A206993
:103D1000406880ED010A9FED260AE068406880ED6A
:103D2000000A9FED1D0AE068406880ED010A002549
:103D30001BE02846FCF748FC41EC190B9FED1D0BDE
:103D400053EC102BFCF75FFB41EC180BFCF7B6FCB7
:103D50006169496841F825009FED150A606980682E
:103D600000EB850080ED000A6D1C052DE1DBBDEC4C
:103D7000048BBDE8F08100004572726F7220616CA7
:103D80006C6F636174696E67206D656D6F72792EFB
:103D90000A0000000000C8430000C84200002042A2
:103DA000000048420000A042000048C30000484311
:103DB00000000000000000000000D03F10B598B0E7
:103DC000044624B3FDF77EFEFDF7B0FFFDF7A4FF28
:103DD000FDF70AF900F04CFD0E48FFF79DFE0020AC
:103DE000FDF700F800F038FC00F056FD60220A49AB
:103DF0006846FCF73DFA084810380FC8FDF766FD25
:103E0000FDF7E2FF18B14FF400500449088001208B
:103E100018B010BD58040020E0040020180C024027
:103E20001FB500200D4A0123CDE901200093039026
:103E3000034680220AA10C4801F0A0FB00200B4A97
:103E4000CDE9000202900346802209A103900A48AE
:103E500001F094FB012004B010BD0000B00100206F
:103E600072656164526600002D4A0008C00100209E
:103E700072656164525443006149000810B5002422
:103E80000120FFF79BFFFFF7CBFF08B101F060F8BF
:103E9000002010BDF0B50B30154D20F007010024B7
:103EA000144A0FE003688B420BD38B4205D95E1A8C
:103EB00043184768C3E9006700E04368136002C025
:103EC00004E0021D10680028ECD12046002802D131
:103ED000286808B10020F0BD064A07481060074A6C
:103EE000121A22F00702C0E9002401202860D7E757
:103EF0001C030020180300205433012050350120FA
:103F000010B504460E48006844600E4800688442BC
:103F100007D20B480168091D0B48006800F0C6FD78
:103F20000CE007480168091D0848006800F0BEFD64
:103F300007480068844201D20548046010BD0000B3
:103F400080020020900200208802002084020020CD
:103F5000B002002070B505460E46482000F010FB68
:103F6000044694B11EB9A80000F00AFB00E03046F8
:103F70002063206B20B9204600F0DEFD002404E021
:103F8000A900A522206BFCF785F9204670BD000032
:103F900010B500F0B1FD0C48006890B90B4800F076
:103FA00075FD0B4800F072FD08480A490860084892
:103FB0000949086000220C210A2001F0BBF80249DF
:103FC000086000F0A9FD10BDEC020020E4320120E1
:103FD000F8320120E4020020E8020020704770B5AA
:103FE00004460D46206870B1216CE0680844E0602A
:103FF0006168E068884201D32068E0602846226C4E
:10400000E168FCF735F970BD70B504460E461546FB
:10401000206C38B9206870BB606800F01DFF00207C
:10402000606028E07DB93146226CA068FCF720F979
:10403000216CA0680844A060D4E9011088421AD31A
:104040002068A06017E03146226CE068FCF710F9A8
:10405000216CE068401AE0602168E068884203D281
:10406000216C6068401AE060022D04D1A06B10B191
:10407000A06B401EA063A06B401CA06370BD00003D
:1040800008490968C96A09B100200AE006490968B7
:10409000012901D9002004E004490968044A126892
:1040A000881A70478002002030060020B0020020ED
:1040B000900200200146084A126812680AB90122DB
:1040C00000E000220A600A6822B9034A1268D26836
:1040D000106800E000207047E4020020094A22F046
:1040E0000700094A10600022074B5A60074A084B34
:1040F0005A6000221A600146044A4A601A460A6061
:1041000070470000EC060020CC020020F82B0100D4
:10411000D402002000BFFFF761FF134800680128A8
:1041200001D900F005FEFFF7ABFF0446022C19D3BE
:1041300000F05AFF0D4800680D490968884201D314
:10414000012000E0002018B9FCF772F800BFFEE77C
:10415000FFF796FF0446022C02D3204600F03AFDFA
:1041600001F0AEFBD7E7000030060020B0020020CF
:10417000900200202DE9F04704460F461546994667
:10418000DDF82080002607E0B95D04F13400815598
:10419000B85D00B902E0761C102EF5D300BF0021F7
:1041A00043200155052D00D30425E5626564201DDB
:1041B00000F079FC04F1180000F075FC2461C5F1F1
:1041C0000500A0616462BDE8F087000010B500241E
:1041D00007E004EB84010D4A02EB810000F056FC7D
:1041E000641C052CF5D30A4800F050FC094800F087
:1041F0004DFC094800F04AFC084800F047FC044820
:104200000749086003480749086010BD30060020D0
:1042100094060020A8060020BC060020D00600203E
:1042200084020020880200202DE9F04104460D465A
:1042300016461F464FF0000865602461B5420CD851
:10424000F01BA169884202D34FF0010811E0211D43
:104250000948006800F02AFC0BE0BE4204D2BD42CF
:1042600002D34FF0010804E0211D0448006800F06B
:104270001DFC4046BDE8F081E8020020E402002079
:1042800070B5054600F038FCA86B08B9012400E0C1
:10429000002400F041FC204670BD70B5054600F0DA
:1042A0002BFCA86BE96B884201D1012400E00024BB
:1042B00000F032FC204670BDF8B505460F461348A5
:1042C0000068C068C468201D00F036FBE069012862
:1042D00017D1A06941192B463A462046FFF7A4FFA3
:1042E00001280ED1002003462A46014600902046B0
:1042F00001F082FB06461EB9FBF79AFF00BFFEE7FE
:1043000000BF2046616A8847F8BD0000E402002033
:1043100070B586B053E0059C606908B9012000E0E3
:10432000002010B9201D00F007FB02A800F07AF869
:104330000546039830B1012826D0022825D003284D
:104340003BD136E00498A269811803462A462046EC
:10435000FFF76AFF012816D12046616A8847E069A5
:10436000012810D1002000900498A1694218002370
:104370001946204601F040FB06461EB9FBF758FFE0
:1043800000BFFEE700BF19E018E00498A061A06933
:1043900008B1012000E0002018B9FBF749FF00BF79
:1043A000FEE7A06941192B462A462046FFF73CFF4D
:1043B00004E0204600F0C0FB00E000BF00BF002387
:1043C0001A4603A90348006800F0DFFE0028A2D1C6
:1043D00006B070BDEC020020F8B504460E4600F0B1
:1043E00003FE684600F01EF805460098A0B946B9DD
:1043F000AC4206D801F064FA29462046FFF75CFF7C
:104400000CE0611B0648006800F09EFC01F058FAC1
:1044100020B900F08DFC01E001F052FAF8BD000077
:10442000EC02002070B5044601F056F90546084834
:104430000068854206D20648006800F00BF80120AB
:10444000206001E00020206001480560284670BD22
:10445000F00200202DE9F84381462BE02048006857
:10446000C06805681E480068C068C468201D00F068
:1044700063FA2046616A8847E06901281AD1A06979
:104480004619AE4207D966602461211D14480068B0
:1044900000F00CFB0EE0002003462A460146009087
:1044A000204601F0A9FA07461FB9FBF7C1FE00BF7D
:1044B000FEE700BF0A480068006808B9012000E074
:1044C00000200028CAD00648D0F8008005480068BF
:1044D000034908600348C0F80080BDE8F883000085
:1044E000E4020020E802002008B500BF6846FFF79C
:1044F000E1FD044620460099FFF76EFFFFF708FF35
:10450000F4E710B5044600F0F7FA11E0606A08B964
:10451000012000E0002038B904F1240001F090F9F6
:1045200018B100F04BFC00E005E0A06C401EA06458
:10453000A06C0028EADC00BF4FF0FF30A06400F060
:10454000EBFA00F0D9FA11E0206908B9012000E087
:10455000002050B904F1100001F072F908B100F028
:104560002DFC606C401E606400E002E0606C00287E
:10457000EADC00BF4FF0FF30606400F0CDFA10BD00
:104580002DE9F04104464FF0000800F02DFD2548CC
:10459000006820B9FFF7A2FD01202249086044B15C
:1045A000083404F0070020B104F00700C0F108004F
:1045B0000444002C31D01C4884422ED21B4F384674
:1045C000056801E02F462D686868A04202D228687D
:1045D0000028F7D1164885421FD0386800F1080836
:1045E000286838606868001B102810D92E19686880
:1045F000001B70606C6071680C4800E00068026825
:1046000052688A42FAD302683260066000BF0949E4
:1046100068680968081A0749086001F051F94046BE
:10462000BDE8F081E0020020F82B0100CC02002060
:10463000D4020020DC020020001F4FF080730360D2
:10464000001F0160001F0023036014380260001F78
:10465000DB1E03602038704700B52DED028B83B060
:104660005348FDF781FB1020FCF7B4FB4FF4784072
:10467000FCF766FF4E48807900F5FA604C494979AD
:104680004C4A52F82110CDE9001049480379C0780E
:10469000494951F8202049A14C48FEF7A9FD4B4A51
:1046A000E6215620FCF754FF4148FDF75DFB102042
:1046B000FCF790FB4648027846A14448FEF798FD77
:1046C000424A4FF499718620FCF742FF40484278F5
:1046D00045A13E48FEF78CFD3C4A78218620FCF738
:1046E00037FF3B4844A142683848FEF781FD374A0E
:1046F0004FF49971A820FCF72BFF3548007A424906
:1047000051F8202041A13148FEF772FD2F4A78214F
:10471000A820FCF71DFF404890ED181BB0EE410AA1
:10472000F0EE610A53EC102B3CA12848FEF760FD27
:10473000264A4FF49971C820FCF70AFF1820FCF7AD
:1047400049FB4FF4FC60FCF7FBFE19480078009031
:1047500017484378827836A11C48FEF749FD1B4A6A
:10476000EB213E20FCF7F4FE1020FCF733FB2A4837
:1047700090ED170ADFED320A20EE200A10EE101A33
:104780000846FBF758FF41EC180B8DED008B022318
:104790002CA22EA10D48FEF72BFD0C4A4FF496716A
:1047A0006E20FCF7D5FE012003B0BDEC028B00BDEE
:1047B00020010020540100203401002025732C2505
:1047C0003032642C25732C25303464002C030020F7
:1047D0002003002054656D70657261747572653ACE
:1047E000253032640000000048756D696469747991
:1047F0003A2530326400000050726573737572653B
:104800003A20256C64000000880100204375727214
:10481000656E743A25730000D0040020546F7461F3
:104820006C2044656372656173653A25670000001A
:10483000253032643A253032643A25303264000043
:104840000000C8425261696E00000000466F726548
:10485000636173743A257320416674657220256420
:1048600020686F757273282532672525290000009E
:1048700010B520216420FDF7FDFD03210020FDF788
:1048800009FF0348FDF7F2FE0248FDF727FF10BDC0
:10489000F9020020F402002010B50020FCF73CFED5
:1048A0001F20FCF74DFE1020FCF794FA0BA24FF4EA
:1048B00091710E20FCF74CFE11A240F213111C2046
:1048C000FCF746FE4FF47840FCF73AFE14A2F021C4
:1048D0002A20FCF73DFE012010BD0000554E495630
:1048E000455253495459204F4620494E464F4D4159
:1048F00054494F4E20544543484E4F4C4F47590062
:10490000464143554C5459204F4620434F4D505536
:1049100054455220454E47494E454552494E470061
:104920004C4F43414C205745415448455220464F37
:1049300052454341535400000146D1E9013098608B
:10494000D1E9010358600A695068884201D188683A
:104950005060002008611068401E106010687047A9
:104960001CB54CE0322000F00DFA2548FDF7FCF9AB
:104970004FF47A6300223E211046FCF747FA1820D4
:10498000FCF728FA1E48007800901D48437882788A
:104990001CA12048FEF72CFC1E4AEB213E20FCF710
:1049A000D7FD1748807850BB1548407838BB14486D
:1049B000007820BB4FF47A63002256211046FCF7A2
:1049C00025FA1020FCF706FA0D48807900F5FA6008
:1049D0000B494979104A52F82110CDE900100848D6
:1049E0000379C0780D4951F820200DA10948FEF740
:1049F000FFFB084A4FF499715620FCF7A9FDB1E777
:104A000020010020253032643A253032643A2530C6
:104A1000326400002C0300205401002034010020E7
:104A200025732C25642C25732C25640000BF26E0FB
:104A3000322000F0A7F91248006880F400501049B5
:104A40000860FDF7CFFCD0B14FF480500C49091D30
:104A500008800C48FCF7B8FE0A4801780A4880F83C
:104A6000441008484178084880F8451005484168D6
:104A7000054881640348017A034880F84C10D7E761
:104A8000140C024020030020D004002000F1080193
:104A900041604FF0FF31816000F10801C1600161A8
:104AA00000210160704700210161704710B5024686
:104AB0000B685C1C0CB9106907E002F1080000E00B
:104AC0004068446824689C42FAD944684C604C6849
:104AD000A160886041600A611468641C146010BDA4
:104AE00042684A6093688B6093685960916008617E
:104AF00003685B1C0360704710B5FBF799FB054822
:104B00000068401C03490860BFF34F8FBFF36F8FED
:104B100010BD0000B402002010B506480068401E19
:104B2000044908600846006810B90020FBF787FBBD
:104B300010BD0000B402002070B506463546B6B17F
:104B4000083D2C4600F050FA6168094800E0006812
:104B5000026852688A42FAD30268226004600549FA
:104B60006068096808440349086000F0A9FE70BD48
:104B7000CC020020DC020020124800684FF47A7159
:104B8000B0FBF1F010490860084600686FF07F4103
:104B9000B1FBF0F00D4908600A480068B0FBF0F086
:104BA0002D21B1FBF0F00A490860064800684FF477
:104BB0007A71B0FBF1F0401E4FF0E0214861072010
:104BC00008617047C4010020B8020020BC02002028
:104BD000C00200202DE9F04104463B4800688442B1
:104BE00001D93948046806204FF0E02108610846E1
:104BF0008169601E354A126802FB0015344800685E
:104C0000854202D9324800682D1A72B6FEF762FF5B
:104C100028B907204FF0E021086162B651E04FF05B
:104C2000E020456100204FF0E02188610720086105
:104C3000A046B8F1000F04D0BFF34F8F30BFBFF3D1
:104C40006F8F06204FF0E021086162B64FF0E02040
:104C5000006900F4803060B11C480068401E4FF0CD
:104C6000E0218969691A401A4FF0E0214861661E07
:104C700012E01648006860434FF0E0218969471A46
:104C800012480068B7FBF0F6701C104909684843E9
:104C9000C01B4FF0E021486100204FF0E021886107
:104CA000FFF72AFF07204FF0E0210861304600F0AF
:104CB0007FF906480068401E4FF0E0214861FFF789
:104CC0002BFFBDE8F0810000BC020020B8020020EC
:104CD000C002002070B5FBF7B5FA0546102D0FD3C2
:104CE00005F1E02090F8F0430E480078844201DBA3
:104CF000012000E0002018B9FBF79AFA00BFFEE798
:104D00000948006800F4E06008490968884201D851
:104D1000012000E0002018B9FBF78AFA00BFFEE787
:104D200070BD0000C40200200CED00E0C8020020AD
:104D30004FF0805003490860BFF34F8FBFF36F8F70
:104D40007047000004ED00E070B505460E462C46A5
:104D5000FFF7D2FE606C401C08B900206064A06CB4
:104D6000401C08B90020A064FFF7D6FEA06B20B954
:104D7000314604F1240000F051F82046FFF7C1FB52
:104D800070BD000070B5044600267CB100F02CF91F
:104D900008480068051908480068001DFFF7CCFDA9
:104DA0002846FFF7ADF800F08BFD06460EB9FFF779
:104DB000BFFF70BD90020020800200200120014949
:104DC00008607047A402002070B505460C461DB966
:104DD000FBF72EFA00BFFEE70D48016818312846A0
:104DE000FFF764FE0A480068001DFFF7A5FD601C80
:104DF00030B907480168091D0648FFF771FE05E054
:104E00000548006806193046FFF77AF870BD0000C3
:104E100080020020D00600209002002070B50446D9
:104E20000D461CB9FBF704FA00BFFEE7084801680D
:104E300018312046FFF754FE05480068001DFFF7B3
:104E40007BFD0448006846193046FFF759F870BDED
:104E5000800200209002002070B505462C46EDB17E
:104E6000616CE06A884219D0201DFFF765FD606C17
:104E7000E062E06AC0F10500A0610949E06A0968E2
:104E8000884202D90649E06A0860E16A01EB8101C3
:104E9000044A02EB8100211DFFF722FE70BD0000D5
:104EA000940200203006002070B505462C4685B3DC
:104EB0001B49E06A0968C96A88422FD2184800680D
:104EC000C06AC0F10500A061E16A01EB8101154AE9
:104ED00002EB81016069884201D1012000E00020DD
:104EE000C0B1201DFFF728FD0D480068C06AE062D0
:104EF0000D49E06A0968884202D90B49E06A0860F6
:104F0000E16A01EB8101074A02EB8100211DFFF7F5
:104F1000E7FD03E002480068C06AE06270BD00007F
:104F200080020020300600209402002010B50446C4
:104F30001CB9FBF77DF900BFFEE70348006820605D
:104F400002480068606010BDA802002090020020A6
:104F50001FB50020009001900290034680220FA10F
:104F60000390104800F00AFB0446012C02D100F027
:104F70001DFD0446012C0AD1FBF75AF901200A490C
:104F8000086000200949086000F07AF804E01CB9C4
:104F9000FBF74EF900BFFEE71FBD000049444C453A
:104FA0000000000015410008980200209002002037
:104FB00010B504460A48006820440A490968884236
:104FC00001D8012000E0002018B9FBF731F900BF3B
:104FD000FEE70348006820440149086010BD000056
:104FE00090020020B002002002480068401C0149E5
:104FF000086070479C02002010B51C48006818B17A
:1050000001201B49086030E00BE01A48006818B91D
:10501000FBF70EF900BFFEE716480068401E154971
:1050200008601448006800EB8000134951F8200024
:1050300008B9012000E000200028E6D10D490968E8
:1050400001EB81010C4A02EB810041684968416033
:1050500000F1080142688A4202D141684968416012
:105060004168C968054A116000BF10BD9C0200205C
:10507000A4020020940200203006002080020020BC
:105080001CB52648014609780191FF21024611709E
:105090000146097800919DF8001001F05001204A66
:1050A000117007211F4A116009E01E490968491E55
:1050B0001C4A11609DF800104906090E00919DF8E8
:1050C000001001F080018029EFD01649096809021B
:1050D000144A11601146098801F4E06111600F4A19
:1050E000019911701048006840F470000E49086082
:1050F0000846006840F070400860FFF73DFD002062
:105100000A490860FBF762F80948006840F040402F
:1051100007490860FBF750F800201CBD00E400E0E0
:10512000C4020020C802002020ED00E0B4020020EC
:1051300034EF00E02DE9F04705460E4691464FF06A
:105140000008C5B14C20FFF71BFA04469CB105FBD3
:1051500006F0471C3846FFF713FA2060206838B184
:10516000E56326640121204600F0AFF8A04602E086
:105170002046FFF7E1FCB8F1000F03D1FBF758F828
:1051800000BFFEE74046BDE8F0872DE9FF4383B04E
:1051900005460E461F464FF000092C461CB9FBF78A
:1051A00047F800BFFEE70EB9206C08B9012000E007
:1051B000002018B9FBF73CF800BFFEE700BFFFF77F
:1051C0009BFCA06B90B3D4F80C8031462046FEF7D0
:1051D00006FFB7B9A06B401EA063206810B900F0AD
:1051E00065FA6060206908B9012000E00020B8B9C4
:1051F00004F1100000F024FB012811D1FFF798FD05
:105200000EE0C4F80C80606A08B9012000E00020BC
:1052100030B904F1240000F013FB08B1FFF788FD5A
:10522000FFF77AFC012007B0BDE8F083FFE705989F
:1052300018B9FFF771FC0020F5E7B9F1000F04D1B0
:1052400001A8FFF773FE4FF00109FFF765FCFFF7B8
:10525000CBFEFFF751FC606C401C08B90020606475
:10526000A06C401C08B90020A064FFF755FC05A9FC
:1052700001A800F049F908BB2046FFF701F8B8B1D2
:10528000206830B9FFF738FC6068FFF70DFEFFF7C4
:1052900043FC04F124000599FFF796FD2046FFF733
:1052A00030F900F00DFB002889D1FFF741FD86E7BA
:1052B0002046FFF726F900F003FB80E72046FFF7C2
:1052C00020F900F0FDFA0020ADE770B505460E4666
:1052D0002C461CB9FAF7ACFF00BFFEE7FFF70CFC49
:1052E000D4E90F12206801FB020060600020A06377
:1052F0002068A060E06B401E226C216800FB021059
:10530000E0604FF0FF306064A06476B9206908B9AE
:10531000012000E0002080B904F1100000F090FAB4
:1053200001280AD1FFF704FD07E004F11000FFF7A0
:10533000ADFB04F12400FFF7A9FBFFF7EDFB012013
:1053400070BD2DE9FF4182B006460F461D464FF065
:10535000000834461CB9FAF76BFF00BFFEE70FB92F
:10536000206C08B9012000E0002018B9FAF760FFAE
:1053700000BFFEE7022D02D1E06B012801D1012020
:1053800000E0002018B9FAF753FF00BFFEE700BFA6
:10539000FFF7B2FBA06BE16B884201D3022D18D15D
:1053A0002A4639462046FEF72FFE606A08B90120DA
:1053B00000E0002038B904F1240000F041FA01288F
:1053C00001D1FFF7B5FCFFF7A7FB012006B0BDE850
:1053D000F081049818B9FFF79FFB0020F6E7B8F1B9
:1053E000000F04D16846FFF7A1FD4FF00108FFF759
:1053F00093FBFFF7F9FDFFF77FFB606C401C08B9DA
:1054000000206064A06C401C08B90020A064FFF775
:1054100083FB04A9684600F077F8C0B92046FEF780
:105420003CFF70B104F110000499FFF7CDFC204659
:10543000FFF767F800F044FA0028A9D1FFF778FCDD
:10544000A6E72046FFF75DF800F03AFAA0E720460D
:10545000FFF757F800F034FA0020B7E72DE9F047DE
:105460000646894617461D4634461CB9FAF7E0FE43
:1054700000BFFEE7B9F1000F01D1206C08B901208F
:1054800000E0002018B9FAF7D3FE00BFFEE7022DB6
:1054900002D1E06B012801D1012000E0002018B901
:1054A000FAF7C6FE00BFFEE7FFF714FCFAF7C0FEEE
:1054B0008246A06BE16B884201D3022D1CD12A46A3
:1054C00049462046FEF7A0FDA06C401C70B9606AFA
:1054D00008B9012000E0002058B904F1240000F0D0
:1054E000AFF930B12FB10120386002E0A06C401C50
:1054F000A0644FF0010801E04FF000085046FAF7B1
:105500009EFE4046BDE8F0872DE9F04104460D4679
:105510001CB9FAF78DFE00BFFEE71DB9FAF788FE49
:1055200000BFFEE7FFF7E8FA124807682868401C4A
:1055300008B9002619E0104920680968884204D09B
:105540006068B84201D801260FE06068381A2968FF
:10555000884209D228686168791A401A2860204672
:10556000FFF7E4FC002600E00126FFF7D5FA3046FD
:10557000BDE8F08190020020A80200202DE9FF4F35
:1055800081B0804616469A46DDE90E5BB8F1000F01
:1055900003D1FAF74DFE00BFFEE7052D01D2012031
:1055A00000E0002018B9FAF743FE00BFFEE73046DE
:1055B0001099FEF7CFFC0446002C59D0701E216BC9
:1055C00001EB800929F0070909F0070008B901205B
:1055D00000E0002018B9FAF72BFE00BFFEE70096A6
:1055E0002A462046119B0299FEF7C4FD52464146C9
:1055F0004846FFF721F82060BBF1000F01D0CBF83F
:105600000040FFF779FA23480068401C21490860F0
:105610002148006840B92048046008460068012815
:105620000CD1FEF7D3FD09E01C48006830B91A48D8
:105630000068C06AA84201D817480460184800688A
:10564000401C174908601749E06A0968884202D976
:105650001449E06A0860E16A01EB8101124A02EB39
:105660008100211DFFF73CFA0127FFF755FA01E001
:105670004FF0FF37012F09D10848006830B10648C4
:105680000068C06AA84201D2FFF752FB384605B055
:10569000BDE8F08F8C0200208002002098020020DC
:1056A000AC02002094020020300600200149086866
:1056B00070470000800200200549096809B90020F0
:1056C00005E00449096809B9012000E0022070479B
:1056D000980200209C02002010B5FFF70DFA034845
:1056E0000468FFF719FA204610BD00009002002060
:1056F0002DE9F0414FF0000847480068002874D1B8
:1057000046480068401C45490860084606686EBB6C
:1057100043480068006808B9012000E0002018B97B
:10572000FAF786FD00BFFEE73D4807683D48006880
:105730003B4908603B4807603B480068401C3A49C9
:10574000086037480068006808B9012000E00020C0
:1057500020B14FF0FF303549086006E0304800685E
:10576000C068C46831496068086000BF2F4800689D
:1057700086423CD300BF2A480068006808B901206F
:1057800000E0002020B14FF0FF30284908602DE0F4
:1057900023480068C068C4686568AE4202D22348E6
:1057A000056023E0201DFFF7C7F8A06A18B104F1D7
:1057B0001800FFF7C1F81E49E06A0968884202D95B
:1057C0001B49E06A0860E16A01EB8101194A02EBBA
:1057D0008100211DFFF784F91749E06A0968C96A49
:1057E0008842C8D34FF00108C5E70DE000BF12485A
:1057F0000068C06A00EB80000E4951F820000128C3
:1058000007D94FF0010804E00C480068401C0B4920
:1058100008604046BDE8F0819C0200209002002014
:105820008402002088020020A8020020B00200208C
:10583000940200203006002080020020A0020020F8
:1058400070B50646F068C4681CB9FAF7F1FC00BFF1
:10585000FEE704F11800FFF76FF814480068A0B9DC
:10586000201DFFF769F81249E06A0968884202D9E9
:105870000F49E06A0860E16A01EB81010D4A02EB21
:105880008100211DFFF72CF904E004F118010A48FA
:10589000FFF726F90949E06A0968C96A884201D315
:1058A000012500E00025284670BD00009C02002074
:1058B0009402002030060020BC0600208002002058
:1058C00070B5002500263148006818B9FAF7B0FC19
:1058D00000BFFEE7FFF710F92C480068401E2B4977
:1058E00008600846006800284BD129480068002855
:1058F00047D021E02748C068C46804F11800FFF7CA
:105900001BF8201DFFF718F82349E06A0968884250
:1059100002D92149E06A0860E16A01EB81011F4A6E
:1059200002EB8100211DFFF7DBF81D49E06A0968E1
:10593000C96A884200D301261648006808B90120C8
:1059400000E000200028D5D01648006868B108E0C3
:10595000FFF7CEFE00B1012612480068401E114933
:105960000860104800680028F2D1012E03D00E48CC
:105970000068012805D1012500200B490860FFF7C8
:10598000D7F9FFF7C9F8284670BD00009C02002037
:105990008C020020BC06002094020020300600206B
:1059A00080020020A0020020A40200201FB50024D5
:1059B000FEF7EEFA0C48006868B100200223CDE93A
:1059C0000030029003464FF4807208A1039009480A
:1059D000FFF7D4FD04461CB9FAF72AFC00BFFEE726
:1059E000204604B010BD0000EC020020546D72206F
:1059F00053766300E94400082DE9FE4305460E4650
:105A000017461C46DDF828804FF00009134800684F
:105A100008B3009601970295ACB9FFF74DFE012837
:105A200008D10023424669460C480068FFF789FC0C
:105A3000814610E000231A46694608480068FFF7CF
:105A400080FC814607E0002322466946034800683F
:105A5000FFF704FD81464846BDE8FE83EC020020C6
:105A60000000000000000000000000000000000036
:105A70000000000000000000000000000000000026
:105A80000000000000000000000000000000000016
:105A9000000080018001800180018001800180017F
:105AA00080018001800180018001800100000000F0
:105AB00080018001000000000000000000000000E4
:105AC00000000000CC00CC00CC00CC00CC00CC000E
:105AD00000000000000000000000000000000000C6
