:020000040800F2
:10000000783A01204D02000867190008BD0C00086D
:1000100063190008B70900083B350008000000001C
:100020000000000000000000000000009D0100082A
:10003000BB09000800000000E1010008151E0008CF
:10004000670200086702000867020008111C000828
:1000500067020008670200086702000867020008DC
:1000600067020008670200086702000867020008CC
:1000700067020008670200086702000867020008BC
:1000800067020008670200086702000867020008AC
:10009000670200086702000867020008670200089C
:1000A000670200086702000867020008670200088C
:1000B0009D1E00086702000867020008670200082A
:1000C000670200086702000867020008670200086C
:1000D0006702000889340008AD340008D1340008F4
:1000E00067020008751B0008670200086702000825
:1000F000670200086702000867020008670200083C
:10010000670200086702000867020008670200082B
:1001100041340008653400086702000867020008DF
:10012000670200086702000867020008670200080B
:1001300067020008670200086702000867020008FB
:1001400067020008670200086702000867020008EB
:10015000670200086702000867020008F53400081B
:1001600067020008670200086702000867020008CB
:1001700067020008670200086702000867020008BB
:100180006702000867020008DFF80CD000F0D6FB19
:100190000048004745460008783A0120234B19687B
:1001A0000868B0E8F04F80F309884FF0000080F352
:1001B000118870470000000003480068006880F361
:1001C000088862B600DF00BF08ED00E0DFF80C0031
:1001D000016841F470010160704700BF88ED00E0E4
:1001E000EFF30980114B1A681EF0100F08BF20EDC5
:1001F000108A20E9F04F106008B54FF0500080F3EE
:10020000118805F02DFD4FF0000080F31188BDE846
:10021000084019680868B0E8F04F1EF0100F08BFDA
:10022000B0EC108A80F30988704700BFA00300205B
:10023000EFF311804FF0500181F31188704780F384
:1002400011887047EFF3058070470000064880472B
:1002500006480047FEE7FEE7FEE7FEE7FEE7FEE7AB
:10026000FEE7FEE7FEE7FEE7351E0008890100080D
:1002700040EA01039B0703D009E008C9121F08C028
:10028000042AFAD203E011F8013B00F8013B521EA8
:10029000F9D27047D2B201E000F8012B491EFBD21F
:1002A00070470022F6E710B513460A460446194681
:1002B000FFF7F0FF204610BD2DE9FE4F804681EA92
:1002C0000300C00F0C46009021F0004123F00045D0
:1002D000B8EB0200A94105D24046214690461C4693
:1002E0000B46024623F00040104347D0270DC7F3CA
:1002F0000A00C3F30A510290401A019040286BDAB9
:10030000C3F3130040F4801B0098924620B10023F1
:10031000D2EB030A63EB0B0B01985946C0F1400284
:10032000504600F02EFA06460D4650465946019AB0
:1003300000F046FA10EB08006141002487EA1152F0
:1003400084EAE7731A4340D0009A62B3019A012A03
:100350004FEA075215DC001B61EB02014FF000422F
:1003600002EA0752CDE90042001C41F580113246F5
:100370002B4600F07DFA03B0BDE8F08F40462146E1
:10038000F9E7001B61EB0201001C41F58013001826
:100390005B412018A2F5001747EB030140EAD57036
:1003A000B6196D4111E06D084FEA360645EAC07591
:1003B0004FEA0752001B61EB0201001C41F580115E
:1003C00049084FEA30000019514132462B4603B02C
:1003D000BDE8F04F00F03DBA009801224000002334
:1003E000D0EB020263EBE073009821464FEAE07421
:1003F000B8EB000061EB0401E9E783F000435BE741
:1004000081F0004158E72DE9FE4F81EA030404F032
:10041000004421F0004100944FF0000B23F0004312
:1004200050EA01045ED052EA03045BD0C3F30A54DD
:10043000C1F30A552C44A4F2F3340194A0FB0254F6
:10044000C1F3130141F48011C3F3130343F4801388
:1004500001FB024400FB034E840A970A44EA8154DC
:1004600047EA8357A4FB076802958D0A05FB0785B9
:100470004FEA932C04FB0C542705029D4FEA0658C3
:1004800047EA1637B5EB08056EEB070C870E920EA0
:1004900047EA811742EA8312A7FB0201B6EB0B0180
:1004A00064EB00042B0D43EA0C335E1844EB1C5044
:1004B000DA465146E7FB0201C5F313044FEA0B335A
:1004C00043EA14534FEA0432019C43EA0603A4F1C1
:1004D0000C040294009CCDE900B400F0C9F903B00B
:1004E000BDE8F08F00200146F9E72DE9F04D81EAE3
:1004F000030404F0004B21F0004514464FF0000ABD
:1005000023F0004150EA050220D054EA01021DD038
:10051000C5F30A570246C5F31303C1F31300C1F331
:100520000A5640F4801543F48013A7EB0608101B0D
:10053000D64608F2FD3873EB050002D308F1010836
:1005400001E092185B41B8F1000F03DA0020014688
:10055000BDE8F08D00204FF48011064684460EE081
:10056000171B73EB050705D3121B63EB050306434B
:100570004CEA010C49084FEA300092185B4150EAFE
:100580000107EDD152EA030012D082EA040083EAA7
:100590000501084305D0101BAB4106D20122002300
:1005A00006E000224FF0004302E06FF0010253101A
:1005B0001AEB06004CEB085110EB0A0041EB0B0163
:1005C000BDE8F04D00F045B90EB5C10F80EAE0700E
:1005D0000844CA07002140F233438DE80E000A4662
:1005E0000B4600F045F903B000BD0EB540F23341B3
:1005F00002910021CDE900110A460B4600F038F9BE
:1006000003B000BDC1F30A5210B5C1F3130140F2AB
:10061000FF3341F480119A4201DA002010BD40F20C
:1006200033439A42A2F2334203DC524200F0B8F85C
:1006300010BD904010BD00F0004230F000400AD0E4
:10064000C10D01F56071C0F3160042EA0151C20804
:1006500040071143704700200146704730B5041E23
:1006600071F1000404DB4FF00044404264EB0101EF
:10067000141E73F1000405DB1C464FF00043524288
:1006800063EB04038B4208BF824230BD30B5041EC9
:1006900071F1000404DB4FF00044404264EB0101BF
:1006A000141E73F1000405DB1C464FF00043524258
:1006B00063EB0403994208BF904230BD01F0004350
:1006C00030B421F0004150EA010206D00A0DA2F533
:1006D0006072C1F31301002A02DC30BC00207047B5
:1006E000440F44EAC104C100E01830BC00EBC25022
:1006F00000F078B830B50B460146002020220124D6
:1007000009E021FA02F59D4205D303FA02F5491BDF
:1007100004FA02F52844151EA2F10102F1DC30BDF5
:100720002DE9F05F0546002092469B468846064626
:10073000814640241BE0284641464746224600F0B9
:100740002FF853465A46C01A914110D31146184605
:10075000224600F016F82D1A67EB01084F46224694
:100760000120002100F00DF817EB00094E41201E7A
:10077000A4F10104DFDC484631462A464346BDE881
:10078000F09F202A04DB203A00FA02F10020704793
:100790009140C2F1200320FA03F3194390407047BF
:1007A000202A04DB203A21FA02F00021704721FAC6
:1007B00002F3D040C2F1200291400843194670472D
:1007C000202A06DBCB17203A41FA02F043EAE07315
:1007D00006E041FA02F3D040C2F120029140084302
:1007E000194670470029A8BF7047401C490008BF40
:1007F00020F00100704710B4B0FA80FC00FA0CF051
:1008000050EA010404BF10BC704749B1CCF1200488
:1008100021FA04F411FA0CF118BF01212143084315
:10082000A3EB0C01CB1D4FEA00614FEA102042BF41
:10083000002010BC704700EBC35010440029A4BF37
:1008400010BC7047401C490008BF20F0010010BCDC
:10085000704710B5141E73F1000408DA401C41F112
:10086000000192185B411A4301D120F0010010BD34
:100870002DE9F04D92469B4611B1B1FA81F202E0AA
:10088000B0FA80F220329046FFF77BFF04460F4615
:1008900040EA0A0041EA0B0153465A46084313D086
:1008A000114653EA010019D0C8F140025046FFF743
:1008B00077FF05460E46504659464246FFF761FF10
:1008C000084305D0012004E020463946BDE8F08DFC
:1008D0000020054346EAE0762C4337430A98630537
:1008E000E40AA0EB08000022FD0A44EA47540A305B
:1008F00002D500200146E9E7010510196941DDE94B
:10090000084500196941BDE8F04DA2E7C1F30A525C
:10091000C1F3130140F2FF3341F480119A4202DA2D
:1009200000200146704740F233439A42A2F233421C
:1009300002DC5242FFF734BFFFF723BF064C074DDE
:1009400006E0E06840F0010394E80700984710349F
:10095000AC42F6D3FFF71CFCF48F0008149000089B
:1009600070B58C1810F8015B15F0070301D110F871
:10097000013B2A1106D110F8012B03E010F8016B9E
:1009800001F8016B5B1EF9D12B0705D40023521E21
:100990000DD401F8013BFAE710F8013BCB1A921C89
:1009A00003E013F8015B01F8015B521EF9D5A14287
:1009B000D8D3002070BD00BFFEE7704708B54FF0E8
:1009C0008041496A009100BF00BF4FF08041496AF1
:1009D000009A891AF9D04FF08041496A0091411E6E
:1009E0000800F1D108BD000051B18200A2F1C0425F
:1009F000126842F001038200A2F1C042136009E0D4
:100A00008200A2F1C0421268034B1A408300A3F196
:100A1000C0431A6070470000FEFF0F0030B5002190
:100A2000002200230468A400A4F1C0442168444CBF
:100A30002140D0E901452C43C5682C4305692C436E
:100A400045692C4385692C43C5692C43056A2C43B1
:100A5000456A2C43856A2C43C56A2C43056B2C439D
:100A600021430468A400A4F1C04421608468082CD8
:100A70000BD10468A400A4F1C044246844F04005EC
:100A80000468A400A4F1C04425600468641CA400A8
:100A9000A4F1C044226802F04042446B2468456BD4
:100AA0006D6844EA0514456BAD6844EA0524456B5E
:100AB000AD8944EA0544456B2D8A44EA0554456BEB
:100AC0002D7D44EA0564456BAD692C4322430468DF
:100AD000641CA400A4F1C0442260C46AB4F5804F31
:100AE00024D10468A400A4F1C044D4F8043103F074
:100AF0004043846B2468856B6D6844EA0514856BFC
:100B0000AD6844EA0524856B2D8A44EA0554856B5B
:100B10002D7D44EA0564856BAD692C43234304684D
:100B2000A400A4F1C044C4F8043107E06FF070459C
:100B30000468A400A4F1C044C4F8045130BD00000E
:100B40008000F7FFF0B50A4600210023002400BF13
:100B50003DE0012505FA01F3156805EA03049C420E
:100B600034D105684F000326BE40B54305601579B2
:100B70004E00B5400668354305601579012D02D059
:100B80001579022D16D185684F000326BE40B54366
:100B9000856055794E00B540866835438560456867
:100BA00001268E40B5434560456896798E40B6B2C1
:100BB00035434560C5684F000326BE40B543C56058
:100BC000D5794E00B540C6683543C560491C10292B
:100BD000BFD3F0BDF0B5002300244D07ED0E02FA9F
:100BE00005F3CE1000F1200555F826504E07F70EFC
:100BF0000F26BE40B543CF1000F1200646F827501F
:100C0000CE1000F1200555F8265045EA0304CE1019
:100C100000F1200545F82640F0BD0000A1F12002BA
:100C2000034B03EBC20213680360526842607047D3
:100C3000308C0008A1F1200202EB4202044B03EBCE
:100C40008202136803605368436092688260704751
:100C5000BC87000870B505460C46A4F1200000EBE7
:100C60004000044A02EBC00118222846FFF700FBAF
:100C700070BD0000D47E000870B505460C46A4F196
:100C80002000044A02EB001110222846FFF7F0FA78
:100C900070BD0000E478000870B505460C46A4F16C
:100CA000200000EB4000044A02EB001130222846ED
:100CB000FFF7DEFA70BD00001467000800BFFEE712
:100CC00070B502460024002500230020958A138B6E
:100CD0001B0445EA030626F07F4404EA01068E421F
:100CE00001D1012000E0002070BD00002DE9FF4788
:100CF00004460D460026B1460427DFF8CC80A688BE
:100D00004FF6C0700640684600F0A0FEDDF808808F
:100D10002E48B8FBF0F01FFA80F946EA0906A680D3
:100D200020884FF6FE710840208000262849286858
:100D300088420CD828684000B8FBF0F087B2042F36
:100D400000DA04273E4309F10100208427E0E88807
:100D50004BF6FF71884206D1286800EB4000B8FBD3
:100D6000F0F087B209E0286800EBC00101EB001049
:100D7000B8FBF0F087B247F48047C7F30B0008B91F
:100D800047F0010747F4004006434FF4967009FB13
:100D900000F04FF47A7190FBF1F0401C2084A683A0
:100DA000208840F00100208026884FF6F53006406C
:100DB000A8886989084306432680A88929890843A9
:100DC0002081BDE8FF87000000127A0040420F003A
:100DD000A086010001B5BDF800000149088008BDEA
:100DE000EC01002030B5044600250021084600F043
:100DF0009BFB00F0EBFB00BF02E0034804806D1C8E
:100E0000B5F5963FF9D330BD000002602DE9F04101
:100E100004460D4616461F464FF000083146284648
:100E200000F082FB00F0D2FB00BF03E00348048027
:100E300008F10108B845F9D3BDE8F081000002606F
:100E40001CB50121582000F0E1FD0121084600F009
:100E5000EDFD0C2200214348FFF7BCFE0C220121CE
:100E60004048FFF7B7FE0C2204213E48FFF7B2FED0
:100E70000C2205213B48FFF7ADFE0C220721394823
:100E8000FFF7A8FE0C2208213648FFF7A3FE0C222C
:100E900009213448FFF79EFE0C220A213148FFF752
:100EA00099FE0C220B212F48FFF794FE0C220E21F5
:100EB0002C48FFF78FFE0C220F212A48FFF78AFEED
:100EC0000C2207212848FFF785FE0C22082126481E
:100ED000FFF780FE0C2209212348FFF77BFE0C223E
:100EE0000A212148FFF776FE0C220B211E48FFF74E
:100EF00071FE0C2211461C48FFF76CFE0C220D21DE
:100F00001948FFF767FE0C220E211748FFF762FE13
:100F10000C220F211448FFF75DFE4CF6B3700090D1
:100F200002208DF8040003208DF8050000208DF8C4
:100F300006008DF8070069460A48FFF703FE4FF6E2
:100F40008070009002208DF8040003208DF80500C9
:100F500000208DF806008DF8070069460248FFF76B
:100F6000F1FD1CBD000C02400010024000B597B01E
:100F700000200190029002200390002004900120A4
:100F80000590002006900790089009900A90102084
:100F90000B9000200C900E900F9010904FF480500A
:100FA0001190002012900D9013904FF40020149097
:100FB00001A8159008A8FFF731FD002001900290CC
:100FC000042003900020049001200590002006904A
:100FD000079001A8169008A8FFF720FD0121002026
:100FE000FFF702FD17B000BD10B5FFF729FF40F66F
:100FF000B830FFF7E3FCFFF7B9FF40F6B830FFF772
:10100000DDFC2121072000F0EDFA3220FFF7D6FCAD
:101010000121002000F0E6FA3220FFF7CFFC232167
:10102000072000F0DFFA3220FFF7C8FC0021102073
:1010300000F0D8FA5A20FFF7C1FC3321072000F056
:10104000D1FA3220FFF7BAFC46F63001112000F049
:10105000C9FA3220FFF7B2FC4FF4C061022000F061
:10106000C1FA3220FFF7AAFC46F6EB41122000F04D
:10107000B9FA3220FFF7A2FC4AF6A401032000F0DF
:10108000B1FA3220FFF79AFC00210C2000F0AAFAF6
:101090003220FFF793FC40F60C010D2000F0A2FA7D
:1010A0003220FFF78BFC4FF42C510E2000F09AFAFF
:1010B0003220FFF783FCB0211E2000F093FA32208B
:1010C000FFF77CFC42F63F31012000F08BFA322022
:1010D000FFF774FC0021052000F084FA3220FFF7AE
:1010E0006DFC0021062000F07DFA3220FFF766FC3F
:1010F0004EF61C71162000F075FA3220FFF75EFCE8
:1011000040F20311172000F06DFA3220FFF756FC71
:1011100000210B2000F066FA3220FFF74FFC00217F
:101120000F2000F05FFA3220FFF748FC0021412039
:1011300000F058FA3220FFF741FC0021422000F075
:1011400051FA3220FFF73AFC0021482000F04AFA19
:101150003220FFF733FC40F23F11492000F042FA01
:101160003220FFF72BFC00214A2000F03BFA32200E
:10117000FFF724FC00214B2000F034FA3220FFF767
:101180001DFC4FF46F41442000F02CFA3220FFF791
:1011900015FC0021452000F025FA3220FFF70EFC57
:1011A00040F23F11462000F01DFA3220FFF706FC06
:1011B00040F20771302000F015FA3220FFF7FEFBF5
:1011C0004FF40171312000F00DFA3220FFF7F6FBE9
:1011D0004FF40171322000F005FA3220FFF7EEFBE8
:1011E00040F20251332000F0FDF93220FFF7E6FB18
:1011F00040F20751342000F0F5F93220FFF7DEFB12
:101200004FF40171352000F0EDF93220FFF7D6FBE5
:101210004FF40171362000F0E5F93220FFF7CEFBE4
:1012200040F20251372000F0DDF93220FFF7C6FB13
:1012300040F202313A2000F0D5F93220FFF7BEFB30
:1012400041F2BE212F2000F0CDF93220FFF7B6FB8E
:1012500040F202313B2000F0C5F93220FFF7AEFB2F
:101260000021232000F0BEF93220FFF7A7FB002168
:10127000242000F0B7F93220FFF7A0FB4FF4004123
:10128000252000F0AFF93220FFF798FB00214F2016
:1012900000F0A8F93220FFF791FB00214E2000F06A
:1012A000A1F93220FFF78AFB10BD00002DE9F043C1
:1012B0008DB007460E46904600240025B8F10A0F6F
:1012C0007ED092480088082833D14FF00009B8F149
:1012D0000A0F02D1A6F1080006B241460BA8FFF79B
:1012E0009DFC002422E00BA810F80490002519E0D2
:1012F00049FA05F000F0010048B1721911B23A192B
:1013000010B2834A128812B200F06AFB08E0721928
:1013100011B23A1910B27F4A128812B200F060FB83
:10132000681CC5B2082DE3DB601CC4B2082CDADBF4
:1013300000BF764800880C2833D14FF00009B8F17F
:101340000A0F02D1A6F10C0006B241460AA8FFF727
:1013500071FC002422E00AA810F80490002519E08E
:1013600049FA05F000F0010048B1721911B23A19BA
:1013700010B2674A128812B200F032FB08E072190C
:1013800011B23A1910B2634A128812B200F028FB67
:10139000681CC5B2082DE3DB601CC4B20C2CDADB80
:1013A00000BF5A480088102835D14FF00009B8F125
:1013B0000A0F02D1A6F1100006B2414609A800E0CA
:1013C000A1E0FFF759FC002422E009A810F80490DE
:1013D000002519E049FA05F000F0010048B1721942
:1013E00011B23A1910B24A4A128812B200F0F8FA51
:1013F00008E0721911B23A1910B2464A128812B2B4
:1014000000F0EEFA681CC5B2082DE3DB601CC4B224
:10141000102CDADB00BF3D4800880E2837D14FF092
:101420000009B8F10A0F02D1A6F10C0006B241463C
:1014300007A8FFF70FFC002426E007A830F81400E7
:101440001FFA80F900251BE0C5F10C0049FA00F0F5
:1014500000F0010048B1721911B23A1910B22C4AC9
:10146000128812B200F0BCFA08E0721911B23A19EF
:1014700010B2284A128812B200F0B2FA681CC5B243
:101480000C2DE1DB601CC4B20C2CD6DB00BF1F4866
:101490000088182837D14FF00009B8F10A0F02D19F
:1014A000A6F1180006B2414601A8FFF7F5FB00249B
:1014B00026E001A830F814001FFA80F900251BE08F
:1014C000C5F1100049FA00F000F0010048B17219AE
:1014D00011B23A1910B20E4A128812B200F080FA14
:1014E00008E0721911B23A1910B20A4A128812B2FF
:1014F00000F076FA681CC5B2102DE1DB601CC4B2A6
:10150000182CD6DB00BF0DB0BDE8F083EC01002045
:10151000E8010020EA01002001B5BDF80000014902
:10152000088008BDEA01002010B503460C461946A4
:101530004E2000F057F821464F2000F053F810BD20
:1015400001B5BDF800000149088008BDE801002090
:101550002DE9F04105460C46164600BF16F8017B02
:101560003A4621B228B2FFF7A1FE1748008884420C
:1015700018DD154800880838201A84B212480088FF
:10158000182805D1104800881238201A84B216E0B5
:101590000D4800880C2812D10B4800880838201A02
:1015A00084B20CE008480088854205DD0024064826
:1015B0000088281A85B202E0E0254FF4987430784C
:1015C0000028CBD1BDE8F081EC01002022204FF0B3
:1015D000C041088070470000014908807047000042
:1015E000000002604FF0C0421080014A1180704735
:1015F000000002601CB54FF47A6300223E211046C1
:10160000FFF704FC1820FFF7E5FB1F480078009067
:101610001D48437882781DA1204801F0A1FF1F4A90
:10162000EB213E20FFF794FF1748807850BB164807
:10163000407838BB1448007820BB4FF47A6300220E
:1016400056211046FFF7E2FB1020FFF7C3FB0E48C0
:10165000807900F5FA600C494979114A52F8211055
:10166000CDE9001008480379C0780E4951F82020D0
:101670000DA10A4801F074FF084A4FF499715620F1
:10168000FFF766FF1CBD00002001002025303264FA
:101690003A253032643A2530326400004C04002090
:1016A000540100203401002025732C25642C25735F
:1016B0002C25640010B52DED028B82B0044614B1C8
:1016C000012C7DD180E047F6B463002286211046CC
:1016D000FFF79CFB1020FFF77DFB4FF47840FFF7EE
:1016E0002FFF3D4890F844203CA1404801F038FFCE
:1016F0003E4A4FF499718620FFF72AFF364890F84A
:1017000045203BA1394801F02BFF384A782186203B
:10171000FFF71EFF304839A1826C344801F020FFEA
:10172000324A4FF49971A820FFF712FF2A4837A1D7
:10173000C26E2E4801F014FF2C4A7821A820FFF732
:1017400007FF254890ED181BB0EE410AF0EE610A44
:1017500053EC102B30A1254801F002FF234A4FF42F
:101760009971C820FFF7F4FE4FF47A6300226E21CE
:101770001046FFF74BFB4FF4FC60FFF7E1FE102033
:10178000FFF728FB144890ED170ADFED280A20EE3A
:10179000200A10EE101A0846FEF74DFF41EC180B18
:1017A0008DED008B0C48042321A1826E0F4801F0BF
:1017B000D7FE0E4A4FF496716E20FFF7C9FE00E087
:1017C00003E003F00DFD01E000E000BF00BF0120D9
:1017D00002B0BDEC028B10BDF005002054656D70A9
:1017E000657261747572653A256400004C040020CE
:1017F00048756D69646974793A256400507265733F
:10180000737572653A256C6400000000437572724E
:10181000656E743A25730000546F74616C204465E2
:101820006372656173653A25660000000000C84276
:10183000257320616674657220256420686F757257
:1018400073205B25332E336625255D00F0EE402A9C
:10185000F4EEC21AF1EE10FA02D2B0EE610A01E023
:10186000B0EE420AB4EEC10AF1EE10FA02DDB0EEBB
:10187000410A09E0F4EEC21AF1EE10FA02D2B0EE1B
:10188000610A01E0B0EE420AB4EEE00AF1EE10FAAD
:1018900002DDB0EE600A1BE0F4EEC21AF1EE10FABF
:1018A00002D2B0EE610A01E0B0EE420AB4EEC10A23
:1018B000F1EE10FA02DDB0EE410A09E0F4EEC21AD0
:1018C000F1EE10FA02D2B0EE610A01E0B0EE420A87
:1018D000B4EEE20AF1EE10FA02DDB0EE620A7047F1
:1018E000F4EEC21AF1EE10FA02D2B0EE610A01E093
:1018F000B0EE420AB4EEC10AF1EE10FA02DDB0EE2B
:10190000410A09E0F4EEC21AF1EE10FA02D2B0EE8A
:10191000610A01E0B0EE420AB4EEE00AF1EE10FA1C
:1019200002DDB0EE600ADAE7F4EEC21AF1EE10FA68
:1019300002D2B0EE610A01E0B0EE420AB4EEC10A92
:10194000F1EE10FA02DDB0EE410AC8E7F4EEC21A79
:10195000F1EE10FA02D2B0EE610AC0E7B0EE420A30
:10196000BDE700BFFEE7704770B5002100230F22DE
:10197000C4781CB3174C246804F4E064C4F5E06434
:10198000C4F30721C1F10404E3B20A4144789C4046
:10199000E1B28478144021430C07210E0E4C0578E7
:1019A0006155047804F01F050124AC4005786D11E1
:1019B000AD0005F1E025C5F8004109E0047804F028
:1019C0001F050124AC40054D0678761145F82640E8
:1019D00070BD00000CED00E000E400E080E100E0FC
:1019E00070B504460D461646EF2C02DCB5F5A07F17
:1019F00000DB70BDA9B2A0B2FFF796FDFFF7E6FDD0
:101A0000B0B2FFF7E9FD00BFF3E7000029B1064AD5
:101A100012680243044B1A6004E0034A12688243CE
:101A2000014B1A60704700003038024029B1064A65
:101A300012680243044B1A6004E0034A12688243AE
:101A4000014B1A607047000038380240F0B50021A1
:101A500000220024022500260223324F3F6807F0AF
:101A60000C0121B1042905D0082937D105E02E4FFA
:101A7000076036E02D4F076033E02A4F3F1F3F6875
:101A8000C7F38056274F3F1F3F6807F03F036EB1F3
:101A9000264FB7FBF3F7DFF88CC0ACF1040CDCF891
:101AA00000C0CCF3881C07FB0CF40CE01E4FB7FB06
:101AB000F3F7DFF870C0ACF1040CDCF800C0CCF335
:101AC000881C07FB0CF4174F3F1F3F68C7F3014703
:101AD0007F1C7D00B4FBF5F7076002E0124F076042
:101AE00000BF00BF0F4F3F6807F0F0010909104F1A
:101AF0007A5C0768D74047600A4F3F6807F4E051B7
:101B0000890A0B4F7A5C4768D7408760054F3F686A
:101B100007F46041490B064F7A5C4768D740C760BD
:101B2000F0BD0000083802400024F40000127A00E2
:101B3000D801002010B504460D4800F01BFE0C48EB
:101B4000007800060A49497840EA01400849897846
:101B500040EA01200649C9780843606004480079DA
:101B6000207003484079607001488079207210BD70
:101B70005434012010B54FF4805000F029F828B1FA
:101B80004FF4805000F014F801F036F84FF4005094
:101B900000F01EF828B14FF4005000F009F801F0F1
:101BA0002CF84FF400300149086010BD143C01408E
:101BB000002101098AB242F08002044B1B6803F045
:101BC000800363EA0202014B1A6070470C28004050
:101BD00030B501460020002200230C4C246804F09C
:101BE00004020A4C383C24680C4002EAD13544EA2D
:101BF0000503064C343C246804EA11121BB194B26C
:101C00000CB1012000E0002030BD00004028004061
:101C100010B54FF48040FFF7DBFF28B14FF4804050
:101C2000FFF7C6FF00F0EAFF4FF4800001490860AB
:101C300010BD0000143C01400FB4002100200390AF
:101C4000009004900190029000BF17E0002201EB89
:101C5000410305A800EB8300427001EB410305A896
:101C600000F8232001EB410300EB8300426001EB0D
:101C7000410305A800EB83000272491C0529E5DB3E
:101C80009FED0E0A8DED170A9FED0D0A8DED140ADA
:101C90009FED0B0A8DED160A9FED090A8DED150AD1
:101CA0009FED080B8DED180B9FED050A8DED1C0ABD
:101CB00006A01A90012004B07047000000004842BE
:101CC0000000000000000000000000004E554C4CD9
:101CD0000000000010B50022028802F441520B8877
:101CE0004C8823438C882343CC8823430C8923438B
:101CF0004C8923438C892343CC8923431A43028094
:101D0000838B4FF2FF74234083830B8A038210BDC1
:101D10000021018041808180C180018141818181D8
:101D2000C1810721018270470CB50020019000900D
:101D30003448006840F480303249086000BF3148C0
:101D4000006800F4003000900198401C0190009859
:101D500018B90198B0F5A04FF1D12A48006800F4F5
:101D6000003010B10120009001E0002000900098A8
:101D7000012846D123484030006840F08050214976
:101D8000403108602048006840F440401E49086027
:101D90001C48083000681B49083108600846006884
:101DA00040F4004008600846006840F4A050086015
:101DB0001648091F0860081F006840F08070091F5E
:101DC000086000BF0F48006800F000700028F9D0DC
:101DD00040F205700E4908600A480830006820F09B
:101DE00003000849083108600846006840F0020016
:101DF000086000BF03480830006800F00C000828A5
:101E0000F8D10CBD00380240007000401954400762
:101E1000003C024010B5FEF70BFA04F09DFA18B131
:101E20004FF08050024908600020FEF708FA10BD0C
:101E300004ED00E010B51548006840F47000134947
:101E400008601348006840F0010011490860002054
:101E50000F49083108600E4800680E4908400C49D7
:101E600008600D48091D0860081F006820F48020E4
:101E7000091F0860002006490C310860FFF754FF75
:101E80004FF0006001498039086010BD88ED00E026
:101E900000380240FFFFF6FE1030002410B54FF668
:101EA000FE704FF08041088227480068401C264998
:101EB00008602648006820B124480068401E234975
:101EC0000860AFF30080002438E0214850F8240077
:101ED00090B31F4850F82400007B68B31C4850F8AA
:101EE0002400806840B31A4850F824008168491ED5
:101EF000174850F824008160154850F82400806885
:101F0000D0B9134A52F824205069114A52F82420BB
:101F1000116988470E4850F8240001680C4850F8B1
:101F2000240081600A4850F82400406820B900214C
:101F3000074850F824000173601CC4B20448001F15
:101F40000078A042C1DC10BD100200201402002065
:101F50008406002000220288184B98420ED0184BAD
:101F600098420BD0B0F1804F08D0164B984205D064
:101F7000154B984202D0154B984204D14FF68F73FF
:101F80001A404B881A43124B984207D0114B984283
:101F900004D04FF6FF431A400B891A4302804B6866
:101FA000C3620B880385054B984202D0044B9842CC
:101FB00001D18B7A038601238382704700000140A0
:101FC000000401400004004000080040000C0040F4
:101FD000001000400014004000B58BB001A94FF084
:101FE000804001F0B3F99FED240B01A801F044F902
:101FF0004FF0804001F090F80020ADF82800ADF8D7
:10200000220040F2E73009901D4901980968B1FBB0
:10201000F0F01C4948431A490968B1FBF0F0401E32
:1020200080B2ADF8200000208DF82A0008A94FF0FA
:102030008040FFF78FFF4FF08040808940F0010023
:102040004FF0804188811C208DF81C0001208DF804
:102050001F0000208DF81D008DF81E0007A8FFF757
:1020600083FC4FF08040008840F001004FF0804139
:1020700008800BB000BD00000000000080842E41ED
:10208000C401002040420F0010B5FFF7A5FF01205A
:102090000149087010BD00001C0200201CB503207F
:1020A00000210B460122CDE900104FF47041044895
:1020B00000F0C6F84FF4704001491A3108801CBD89
:1020C000000C024001460A1102EB8202500001F0AE
:1020D0000F020244D0B270473EB50446072001AB60
:1020E0000022D0210090134800F054FA9DF804001B
:1020F000FFF7E8FF20709DF80500FFF7E3FF607031
:102100009DF80600FFF7DEFFA0709DF80700FFF7BF
:10211000D9FFE0709DF80800FFF7D4FF20719DF80B
:102120000900FFF7CFFF60719DF80A00FFF7CAFFB3
:10213000A0713EBD0054004010B5074A0121074878
:1021400000F06AF9D021054800F0F1F908B9022041
:1021500010BD0020FCE70000A086010000540040F4
:1021600001464FF40030081AC0F38F20704700007A
:1021700000B502461046FFF7F3FF012101FA00F017
:102180000249096808430149086000BD303802402F
:102190002DE9F04304460E461546DDE90789204641
:1021A000FFF7DEFFC7B2002243E00120904030403D
:1021B00000B93CE0214830F8170001219140084364
:1021C0001E4921F81700E0684FEA420C032101FA8A
:1021D0000CF18843510008FA01F10843E0602068DF
:1021E0004FEA420C032101FA0CF18843510005FA31
:1021F00001F108432060012D01D0022D16D1616844
:102200000120904080B221EA000003FA02F189B275
:1022100008436060A0684FEA420C032101FA0CF108
:102220008843510009FA01F10843A06000BF501C27
:10223000C2B2102AB9DBBDE8F083000068060020B6
:102240002DE9FC4305460C4616461F46DDE9098983
:102250000CB9BDE8FC832846FFF78AFF3B463246AF
:1022600021462846CDE90089FFF792FF00BFF0E73D
:102270002DE9FC4705460E4617469846DDE90A9AC1
:102280000EB9BDE8FC872846FFF772FF00241AE06C
:102290000120A040304000B914E0E10805F1200021
:1022A00050F821006107CA0E0F2191408843610751
:1022B000C90E0AFA01F10843E20805F1200141F8CC
:1022C000220000BF641C102CE2D33B4602223146A0
:1022D0002846CDE90089FFF75BFF00BFD1E700008A
:1022E0001CB504464CB9042001210B460A46CDE931
:1022F0000010C0211148FFF7BBFF012C0AD10420B8
:1023000001210B460A46CDE900104FF440710B48FD
:10231000FFF7AEFF022C0AD1042001210B460A462A
:10232000CDE900104FF410710448FFF7A1FF032C12
:1023300003D10421024800F0F9F81CBD000402405A
:10234000005400401CB5044654B9042001210B463A
:102350000A46CDE900104FF440611148FFF788FFAD
:10236000012C09D1042001210B460A46CDE90010B9
:1023700003210C48FFF77CFF022C09D10420012126
:102380000B460A46CDE9001030210748FFF770FFE1
:10239000032C03D10421054800F0C8F81CBD00003F
:1023A0000004024000140240001C0240005800409B
:1023B0001CB504469CB9042001210B460A46CDE910
:1023C000001081011048FFF753FF042001210B4644
:1023D0000A46CDE90010C1010C48FFF749FF012C66
:1023E0000AD1042001210B460A46CDE900104FF422
:1023F000C0710748FFF73CFF032C03D104210548B7
:1024000000F094F81CBD00000000024000080240EB
:10241000001C0240005C00407FB504460E46154695
:102420003D48844221D13D48006840F400103B49BA
:1024300008603046FFF754FF39480068A84201D9C8
:10244000374805603648006800904FF48040ADF88A
:102450000C000020ADF80400ADF80800ADF80A004B
:102460004BF6FF70ADF8060048E02E48844221D1BB
:102470002A48006840F48000284908603046FFF789
:1024800061FF27484068A84201D925484560244893
:10249000406800904FF48040ADF80C000020ADF88B
:1024A0000400ADF80800ADF80A004BF6FF70ADF877
:1024B000060023E01C48844220D11848006840F4FC
:1024C0000000164908603046FFF772FF1448806824
:1024D000A84201D9124885601148806800904FF4E5
:1024E0008040ADF80C000020ADF80400ADF8080005
:1024F000ADF80A004BF6FF70ADF80600208820F01A
:102500000100208069462046FEF7F0FB208840F05D
:10251000010020807FBD0000005400404038024090
:102520000002002000580040005C0040704770B579
:1025300004460D460026012300222946204600F0CD
:102540007BF800B90126204600F0CEF8304670BD79
:1025500070B50446208840F48060208044F62060F6
:102560000A49086007E009480068401E07490860FA
:1025700008B9012070BD06492046FEF7A1FB0028DE
:10258000F1D0208AC5B22846F4E70000FC01002003
:10259000400003002DE9F0478046894616461D4657
:1025A000089F012300224946404600F045F8314685
:1025B000404600F0B9F801231A464946404600F06B
:1025C0003BF800240DE0781EA04204D1404600F004
:1025D0000DF8285503E04046FFF7BAFF2855601C68
:1025E000C4B2BC42EFDBBDE8F087000070B5044622
:1025F000208820F480602080208840F400702080B3
:1026000044F620600A49086007E009480068401E57
:102610000749086008B9012070BD06492046FEF749
:102620004FFB0028F1D0208AC5B22846F4E700000D
:10263000FC010020400003002DE9F04104460D4656
:1026400016461F46208840F48070208044F62060A3
:102650002349086008E022480068401E20490860BD
:1026600010B90120BDE8F081A08A00F00100002827
:10267000F1D01FB1208840F480602080A6B925F0F9
:102680000100208244F620601549086007E01448E4
:102690000068401E1249086008B90120E2E7A08ADC
:1026A00000F002000028F2D0012E15D145F0010003
:1026B000208244F620600A49086007E00848006864
:1026C000401E0749086008B90120CBE705492046AC
:1026D000FEF7F6FA0028F1D0208B0020C2E70000B8
:1026E000FC01002002000300014644F620600D4A70
:1026F000106007E00B480068401E0A4A106008B9E5
:1027000001207047888A00F080000028F2D0888A73
:1027100000F004000028EDD0088840F40070088024
:102720000020EEE7FC01002044F62062084B1A600E
:1027300004E0074A1268521E054B1A60828A02F0B2
:1027400080021AB9024A1268002AF2D10182704747
:10275000FC01002010B500F02FF8044604F0400002
:1027600008B1012010BD00F01FF908B90120F9E7F8
:102770000020F7E710B504464FF480700B4908803D
:1027800061210B4800F0A1FB0A480378224621464C
:10279000074800F0BBFB4FF480700449891E088095
:1027A0004021072000F0EEF910BD00001A08024099
:1027B000003C0040F801002010B54FF4807007493C
:1027C0000880FF21064800F080FB04464FF480702B
:1027D0000249891E0880204610BD00001A080240E8
:1027E000003C004070B505460C4600F07BF8012126
:1027F000394800F005FB202C00DD20240DB9012014
:1028000000E00020354948700846047003208870B5
:102810000020C87000F027F9284600F0CDF82F48B6
:102820000178112000F0AEF92C480178122000F058
:10283000A9F92A480178132000F0A4F92748017863
:10284000142000F09FF925480178152000F09AF92E
:1028500022480178162000F095F9204A9178D07826
:1028600000F0D0F80421002000F08CF93F21012075
:1028700000F088F93F21022000F084F94F21042064
:1028800000F080F900211C2000F07CF900BF4FF41B
:10289000807013490880E1210F4800F016FB4FF4C7
:1028A00080700F49891E088000BF00BF891C088006
:1028B000E221094800F009FB4FF480700849891EA5
:1028C000088000BF00BF7021072000F05BF900BF47
:1028D00000F028F8012070BD003C0040F801002005
:1028E0001A0802401CB50020012103460A46CDE922
:1028F000001009020A48FFF7A3FC0020012103464B
:102900000A46CDE9001049020548FFF799FC4FF44B
:1029100080700349183108804000891C08801CBD64
:102920000008024010B54FF400700F49088000BF46
:1029300040100880E2210D4800F0C7FA4FF4807083
:102940000949891E088000BF00BF7021072000F0E0
:1029500019F900BF0721002000F014F94FF40070AE
:102960000149891E088010BD1A080240003C004041
:1029700070B504464FF480700949088004F01F01C7
:10298000084800F0A2FAFF21064800F09EFA05462A
:102990004FF480700249891E0880284670BD0000EF
:1029A0001A080240003C004010B51720FFF7E0FF76
:1029B000044604F0010010BD10B504467D2C09DC6E
:1029C00005484078A04205D00348447021460520C0
:1029D00000F0D8F810BD0000F801002010B5044642
:1029E0004FF4007006490880052221460B2000F0B4
:1029F000E5F84FF400700249891E088010BD000000
:102A00001A08024070B506460D4600240E48C670EE
:102A1000857016B944F0080403E0022E01D144F099
:102A20002004032D02D144F0060408E0022D02D157
:102A300044F0040403E0012D01D144F002042146D6
:102A4000062000F09FF870BDF801002010B5044684
:102A5000052221460A2000F0B1F805222146102067
:102A600000F0ACF810BD1CB50821002000F08AF879
:102A70003F21012000F086F80321022000F082F8B7
:102A80000321084600F07EF80321042000F07AF8C4
:102A90000221052000F076F80E21062000F072F8E1
:102AA0000E21072000F06EF80021082000F06AF8DF
:102AB0000021092000F066F8E7208DF800008DF86D
:102AC00001008DF802008DF803008DF80400052246
:102AD00069460A2000F072F8C2208DF800008DF8D7
:102AE00001008DF802008DF803008DF80400052226
:102AF00069460B2000F062F8C3210C2000F042F878
:102B0000C4210D2000F03EF8C5210E2000F03AF857
:102B1000C6210F2000F036F8E7208DF800008DF870
:102B200001008DF802008DF803008DF804000522E5
:102B30006946102000F042F80021112000F022F830
:102B40000021122000F01EF80021132000F01AF8D6
:102B50000021142000F016F80021152000F012F8D2
:102B60000021162000F00EF81121172000F00AF8BD
:102B700000211C2000F006F800211D2000F002F8C2
:102B80001CBD000070B504460D464FF48070094925
:102B9000088004F01F0040F02001074800F095F97C
:102BA0002946054800F091F94FF480700149891ECB
:102BB000088070BD1A080240003C004070B5044611
:102BC0000D4616464FF480700949088004F01F0036
:102BD00040F02001074800F078F9324629460548C0
:102BE00000F0BCF94FF480700149891E088070BD67
:102BF0001A080240003C00407047704770470000D0
:102C00001CB504464CB90520032100231A46CDE922
:102C10000010E0210A48FFF72BFB012C09D1052009
:102C2000032100231A46CDE9001038210548FFF79B
:102C30001FFB032C03D10521034800F045F91CBDFF
:102C40000000024000040240003001401CB5044670
:102C5000A4B90520032100231A46CDE900104FF442
:102C600080611648FFF704FB0520032100231A4664
:102C7000CDE900100C211248FFF7FAFA012C0AD115
:102C80000520032100231A46CDE900104FF46041CE
:102C90000A48FFF7EDFA022C09D105200321002391
:102CA0001A46CDE900100D210648FFF7E1FA032C82
:102CB00003D10521044800F007F91CBD00040240BF
:102CC0000008024000200240003800401CB50446C5
:102CD0004CB90620032100231A46CDE90010382103
:102CE0000B48FFF7C5FA012C0AD106200321002367
:102CF0001A46CDE900104FF4E0510648FFF7B8FA44
:102D0000032C03D10621044800F0DEF81CBD0000AE
:102D10000004024000080240003C00401CB504468C
:102D20004CB90520032100231A46CDE90010642187
:102D30000B48FFF79DFA012C0AD10520032100233F
:102D40001A46CDE900104FF4E0410548FFF790FA2C
:102D5000032C03D10521034800F0B6F81CBD000088
:102D600000100240003401401CB5044654B905204F
:102D7000032100231A46CDE900104FF4607110487A
:102D8000FFF776FA012C13D10520032100231A4600
:102D9000CDE90010E1020A48FFF76AFA0520032195
:102DA00000231A46CDE90010C0210648FFF760FA5B
:102DB000032C03D10521044800F086F81CBD000057
:102DC00000140240001C0240005001401CB50446A3
:102DD00054B90520032100231A46CDE900104FF411
:102DE000E0410548FFF744FA032C03D105210348CD
:102DF00000F06AF81CBD00000018024000540140B9
:102E00007CB504460D462A4884420AD100204FF47E
:102E1000827120230246CDE900102946204600F0A9
:102E2000C5F8244884420AD100204FF4827120233F
:102E30000246CDE900102946204600F0B7F81E48AA
:102E400084420AD100204FF4827120230246CDE94A
:102E500000102946204600F0A9F8184884420AD1FB
:102E600000204FF4827120230246CDE9001029464C
:102E7000204600F09BF8124884420AD100204FF40B
:102E8000827120230246CDE900102946204600F039
:102E90008DF80C4884420AD100204FF4827120231F
:102EA0000246CDE900102946204600F07FF87CBD9F
:102EB0000030014000380040003C00400034014038
:102EC000005001400054014070470246108800F055
:102ED000400008B90020704700BF108900F00300CF
:102EE0000028FAD0108900F080000028F5D19181E7
:102EF00000BF108900F003000028FAD0108900F00C
:102F000080000028F5D19089C0B2E4E730B50C46C6
:102F1000058805F0400505B930BD00BF058905F0FD
:102F20000305002DFAD0058905F08005002DF5D1A7
:102F300000210FE0655C858100BF058905F0030570
:102F4000002DFAD0058905F08005002DF5D1858981
:102F50005554491C9942EDD300BFDDE710B50B462F
:102F6000048804F0400404B910BD00BF048904F0D3
:102F70000304002CFAD0048904F08004002CF5D15D
:102F800000210EE05C5C848100BF048904F003042E
:102F9000002CFAD0048904F08004002CF5D1848937
:102FA000491C9142EED300BFDEE700002DE9F0435B
:102FB00085B004460E4615461F46DDE90C89684675
:102FC000FEF7A6FE4D4884420BD14D48006840F400
:102FD00080504B4908603046FFF712FE0020ADF8E4
:102FE0000400484884420DD14548001F006840F461
:102FF00080404349091F08603046FFF727FE002044
:10300000ADF80400404884420DD13D48001F0068DF
:1030100040F400403A49091F08603046FFF756FE69
:103020000020ADF80400394884420BD134480068D0
:1030300040F40050324908603046FFF76FFE002030
:10304000ADF80400324884420BD12D48006840F4AA
:1030500080102B4908603046FFF786FE0020ADF84F
:1030600004002C4884420BD12548006840F400102D
:10307000234908603046FFF7A9FE0020ADF80400A0
:10308000ADF80C700020ADF80000ADF80E90ADF872
:1030900002804FF40070ADF80A002DB90020ADF8A1
:1030A0000600ADF8080019E0012D06D10020ADF8AA
:1030B00006000120ADF8080010E0022D06D1022024
:1030C000ADF806000020ADF8080007E0032D05D19B
:1030D0000220ADF806000120ADF80800208820F09D
:1030E0004000208069462046FEF7F4FD208840F02D
:1030F0004000208005B0BDE8F083000000300140B2
:103100004438024000380040003C00400034014098
:10311000005001400054014001464948814205D118
:103120004848006840F00100464A1060B1F1804F05
:1031300007D14448001F006840F00100414A121FB7
:1031400010604148814207D13E48001F006840F0AE
:1031500002003C4A121F10603C48814207D13948A6
:10316000001F006840F00400364A121F1060384803
:10317000814207D13348001F006840F00800314AFF
:10318000121F10603348814207D12E48001F00688B
:1031900040F010002B4A121F10602F48814207D1C7
:1031A0002848001F006840F02000264A121F1060C7
:1031B0002A48814205D12348006840F00200214A94
:1031C00010602748814205D11E48006840F48030D5
:1031D0001C4A10602348814205D11A48006840F417
:1031E0000030184A10602048814205D11548006817
:1031F00040F48020134A10601C48814207D11148D6
:10320000001F006840F040000E4A121F106018486E
:10321000814207D10B48001F006840F08000094A36
:10322000121F10601348814207D10648001F006832
:1032300040F48070034A121F1060002070470000A5
:1032400000000140443802400004004000080040F3
:10325000000C004000100040001400400004014039
:103260000040014000440140004801400018004077
:10327000001C00400020004010B52DED068B0446D8
:10328000B0EE408AF0EE608A2068FDF7AEF941ECBE
:10329000190B53EC182BFDF7E1F907D20020206140
:1032A000E06060610320BDEC068B10BD9FED250B37
:1032B00053EC102B51EC180BFDF7D0F905D1002081
:1032C0002061E06060610420EDE76068B0F5803F58
:1032D00002D26068401C60600020206100BF20694D
:1032E000401C2168B1FBF0F0E060E068FDF77DF97B
:1032F00041EC1A0B53EC182BFDF7F7F841EC190BC6
:10330000FDF780F9E0602069401C20616168E06899
:10331000884204D9A068401C21698142DFD9A06895
:10332000401C2169814205D900202061E060606174
:103330000420B8E751EC180BFDF764F96061002038
:10334000B1E7000000000000000000007FB5044667
:103350000D466846FEF77AFB4FF6FF70A860B4F1A1
:10336000804F02D01F48844207D1039828604FF055
:10337000FF306860002004B070BD1B4884420BD051
:103380001A48844208D01A48844205D01948844219
:1033900002D01948844206D1019828604FF6FF7088
:1033A00068600020E7E71548844211D01448844241
:1033B0000ED0144884420BD01348844208D01348DE
:1033C000844205D01248844202D01248844206D179
:1033D000039828604FF6FF7068600020CBE702205A
:1033E000C9E70000000C004000000140000401405B
:1033F00000400140004401400048014000040040FA
:103400000008004000100040001400400018004078
:10341000001C004000200040C28883889A420EDAD7
:10342000028983889A4201D10022028103890268BD
:10343000D1540289521C0281C288521CC28070473A
:1034400000B50648008800F0200030B10348001D98
:103450000088C1B20248FFF7DFFF00BD004C00400A
:103460005002002000B50648008800F0200028B176
:1034700003488088C1B20348FFF7CEFF00BD0000BB
:10348000005000406002002000B50648008800F0AF
:10349000200028B103488088C1B20348FFF7BCFF71
:1034A00000BD0000001001402002002000B50648C9
:1034B000008800F0200030B10348001D0088C1B230
:1034C0000248FFF7A9FF00BD004400403002002081
:1034D00000B50648008800F0200030B10348001D08
:1034E0000088C1B20248FFF797FF00BD00480040C6
:1034F0004002002000B50648008800F0200030B1EE
:103500000348001D0088C1B20248FFF785FF00BDD7
:10351000001401407002002002460020B1F5007F37
:1035200000D100BF13880B400BB1012000E0002048
:103530007047C1F308028280704700BFFEE70000B9
:103540000FB4054B10B503A9044A029800F0DEF849
:1035500010BC5DF814FB000081400008340400201A
:103560000FB4084B10B504A902AA039800F0CEF8D6
:10357000044602A9002000F060FC204610BC5DF863
:1035800014FB00003B3E000802E008C8121F08C1FF
:10359000002AFAD170477047002001E001C1121FD4
:1035A000002AFBD1704700002DE9FF5FDDE9022012
:1035B000010DDDF838B0024318D044F61050A1F2E6
:1035C000FF3141430D140F98012820D0A5EB0B00CB
:1035D000401C5FEA000A4FF00004474EDFF81C91E0
:1035E000A046504616D5CAF1000728E00F980124DE
:1035F00043A2012808D0002100980F9BC0E90021B8
:10360000C0E90243BDE8FF9F6FEA0B01F4E7CBF18D
:103610000000DEE7074612E0F80707D022463346EF
:1036200040464946FCF7EFFE80468946224633462F
:1036300010461946FCF7E7FE04460E467F10002FA1
:10364000EAD1DDE90201BAF1000F42464B4602DA47
:10365000FCF7D9FE01E0FCF748FF04460E460022C5
:10366000284BFDF713F803D84FF0FF30014607E071
:103670000022254B20463146FCF71EFEFDF746F999
:10368000102409E0002C0ADB0A220023FDF748F889
:10369000019B30321A55641E50EA0102F2D1641CBB
:1036A000019AC4F1110314440F9A012A03D0012294
:1036B00008430DD10AE0084304D000204FF0110B5D
:1036C0000F9080E7A3EB0B056D1E0DE05B4504DD5D
:1036D0004FF0000205F1010504E003DA4FF00002AB
:1036E000A5F10105002AECD000980F99C0E902313C
:1036F000C0E9004586E70000000024400000F03FDC
:10370000300000000000F0430000E03F2DE9FF4FD3
:1037100095B09B468946064600250FE2252877D1BD
:1037200000242746F84A0121059400E0044316F8D6
:10373000013F203B01FA03F01042F7D130782A28EC
:1037400011D06FF02F033078A0F13002092A16D87B
:10375000059A44F0020402EB820203EB4202104499
:10376000761C0590EFE759F8042B0592002A03DA3E
:10377000504244F40054059044F00204761C307822
:103780002E2816D116F8010F44F004042A280DD073
:103790006FF02F023078A0F13003092B09D807EB26
:1037A000870302EB4303C718761CF3E759F8047B41
:1037B000761C30786C280FD006DC4C2817D068288F
:1037C0000DD06A2814D104E0742810D07A280FD1C3
:1037D0000DE044F400140AE044F4801401E044F4E1
:1037E00040147278824202D104F58014761C761C53
:1037F000307866280BD013DC582877D009DC0028F5
:1038000075D04528F6D04628F4D047281AD19DE136
:1038100018E0632835D0642879D0652812D195E165
:10382000702873D008DC6728F1D069286FD06E2823
:103830000DD06F2806D1B5E073282CD0752875D02F
:10384000782874D05A46179990476D1C75E1C4F3D7
:103850000250022809D003280DD0D9F800100428FE
:103860000DD00D6009F1040967E1D9F80010EA17DD
:10387000C1E90052F6E7D9F800100D80F2E70D70AB
:10388000F0E719F8041B8DF8001000208DF80100F6
:10389000EA46012003E059F804AB4FF0FF3061071E
:1038A0004FF0000102D40DE008F101018846B94251
:1038B0000FDA8045F8DB1AF808100029F4D108E087
:1038C00008F1010188468142FADB1AF80810002944
:1038D000F6D105985B46A0EB080721463846179AB3
:1038E00000F094FA284400EB080507E04DE029E1D8
:1038F0000DE01AF8010B5A4617999047B8F10108E4
:10390000F7D25B4621463846179A13E142E00A2275
:103910000092C4F302524FF0000A022A08D059F86C
:1039200004CB032A4FEAEC710AD00DE029E02AE02B
:1039300009F1070121F00702F2E802C1914609E00E
:103940000FFA8CFC4FEAEC71042A03D14FFA8CFC7D
:103950004FEAEC71002907DA0A460021DCF1000C7D
:1039600061EB02012D2202E0220504D52B228DF805
:103970000420012203E0E20701D02022F7E790466D
:1039800059E00A2102E010220DE010214FF0000A58
:1039900000910BE010224FF0000A44F004040827C5
:1039A000009203E008224FF0000A0092C4F3025292
:1039B000022A05D059F804CB0021032A08D009E0D7
:1039C00009F1070121F00702F2E802C1914605E082
:1039D0001FFA8CFC042A01D10CF0FF0C4FF00008F8
:1039E000220728D5702806D0009B83F0100353EAE5
:1039F0000A0305D00EE040228DF80420012208E0E1
:103A00005CEA010206D030228DF804208DF8050012
:103A100002229046009B83F0080353EA0A030AD16E
:103A20005CEA010201D1620705D530228DF804203D
:103A30004FF001087F1E582804D034A003900EA830
:103A400002900DE036A0F9E753466046009AFCF775
:103A500067FE84460398825C0298401E02900270C2
:103A60005CEA0100F0D1029806A9081A00F1200AC8
:103A7000600702D524F4803400E00127574502DDB9
:103A8000A7EB0A0000E0002000EB0A010090059877
:103A90004144401A0590E00306D45B462146179A3C
:103AA000059800F0B3F90544002706E001A85A463E
:103AB000C05D179990476D1C7F1C4745F6DBE003FE
:103AC0000CD55B462146179A059800F09FF90544EE
:103AD00004E030205A46179990476D1C0099481E03
:103AE00000900029F5DC08E0029802995A46007817
:103AF000491C0291179990476D1CBAF10001AAF177
:103B0000010AF1DC65E1000009280100303132339F
:103B10003435363738396162636465660000000009
:103B200030313233343536373839414243444546F3
:103B30000000000000F058F90544761C3078002899
:103B40007FF4ECAD19B02846BDE8F08F620700D4D1
:103B5000062709F1070222F0070CFCE80223E146E0
:103B600003F000485FEA080C02D00FF2702C0DE061
:103B70005FEA045C02D50FF2682C07E05FEAC47CC0
:103B800002D00FF2602C01E0AFF2700C4FF0FF3862
:103B900023F00043CDF850C065280CD006DC452842
:103BA00009D046281DD047283DD13DE0662818D0D1
:103BB00067287ED138E00021112F01DB112000E0C1
:103BC000781CCDE9000106A90EA8FFF7EDFCDDE9A0
:103BD0000F010E9A03910021009207F1010A04914E
:103BE0004DE04FF000400097CDE9011006A90EA866
:103BF000FFF7DAFCDDE90F0203920E9B1199002218
:103C0000DDF80CA00093049211B9791C00EB010AB5
:103C1000B7EB0A0004D4C0F1FF3007F1010A0490A9
:103C2000AAEB0700019044E0012F00DA01270021F0
:103C3000112F01DD112000E03846CDE9000106A971
:103C40000EA8FFF7B1FCDDE90F010E9A03910021E8
:103C500004910092BA4621070CD40399514500DA29
:103C60008A46BAF1010F05DD009AAAF10101515C03
:103C7000302908D0B84202DA10F1040F06DA012127
:103C8000CDE9011015E0AAF10101E9E7002805DC02
:103C9000049901440491AAEB000102E0411C514542
:103CA00000DD8A460499401A401C01904FF0004004
:103CB0000290200704D40198504501DBCDF8048020
:103CC00000208DF84F0002980DF14F07B0F1004F22
:103CD00025D02B200E9002984FF0020800280CDA15
:103CE000404202902D200E9007E00A210298FCF736
:103CF00001FD3031029007F8011DB8F10001A8F173
:103D00000108F2DC02980028EFD1791E0E980870A5
:103D1000307800F0200040F0450007F8020D12A8AE
:103D2000C01B00F107081498007800B1012000EBD7
:103D30000A01019801EBE07105984144401A401EC8
:103D40000590E00306D45B462146179A059800F0DB
:103D50005DF805441498007818B15A4617999047B1
:103D60006D1CE00324D55B462146179A059800F0A8
:103D70004DF805441CE00498002807DBDDE9030149
:103D8000884203DD0098405C179901E017993020C4
:103D90005A469047049805F10105401C049001988B
:103DA000401E019004D12E205A46179990476D1C51
:103DB000BAF10001AAF1010ADDDC05E017F8010BF8
:103DC0005A46179990476D1CB8F10001A8F10108F7
:103DD000F4DC5B462146179A0598ABE62D000000FF
:103DE0002B000000200000002DE9F04104460025D2
:103DF0001E461746880404D405E039462020B04703
:103E00006D1C641EF9D52846BDE8F0812DE9F0410E
:103E1000044600251E469046C80301D5302700E021
:103E20002027880404D505E041463846B0476D1C7C
:103E3000641EF9D52846BDE8F0810A68531C0B6062
:103E40001070704701200549096809B1002003E09E
:103E50000349096801B1002070470000E407002011
:103E6000C40300202DE9FF4F2DED048BCDB0824619
:103E70008B469FED7F0AB0EE408A00240025002685
:103E80000027A046A146142148A8FCF70AFA00BF63
:103E900005E0784850F824004DF82400641C482CB4
:103EA000F7DB0024CBE00025C5E00027BFE04FF0A2
:103EB0000008B7E00026B0E0DAF8080000EB840064
:103EC00090ED000A10EE101A0846FCF7B4FB41EC26
:103ED000190B9FED690B53EC102BFCF7BFFB7CD04B
:103EE000DBF8080000EB850090ED000A10EE101AD8
:103EF0000846FCF7A0FB41EC190B9FED5F0B53EC60
:103F0000102BFCF7ABFB68D05398806800EB870060
:103F100090ED000A10EE101A0846FCF78CFB41ECFD
:103F2000190B9FED550B53EC102BFCF797FB71D041
:103F30005498806800EB880090ED000A10EE101A8B
:103F40000846FCF778FB41EC190B9FED4B0B53EC4B
:103F5000102BFCF783FB5DD05E98806800EB860039
:103F600090ED000A10EE101A0846FCF764FB41ECD5
:103F7000190B9FED410B53EC102BFCF76FFB49D055
:103F80005E98806800EB8600D0ED002AB0EE622AD1
:103F90005498806800EB8800D0ED002AF0EE621A99
:103FA0005398806800EB8700D0ED002AB0EE621ACB
:103FB000DBF8080000EB8500D0ED002AF0EE620A85
:103FC000DAF8080000EB8400D0ED002AB0EE620AB7
:103FD000FDF73CFCB0EE408A00E01BE05DF82900F4
:103FE00048A901EB800090ED000AB4EEC80AF1EE9A
:103FF00010FA06DD5DF8290001EB800090ED000A63
:1040000001E0B0EE480A5DF8290048A901EB800004
:1040100080ED000A09F10109761C022EFFF64CAF73
:1040200008F10108B8F1020FFFF644AF7F1C022F20
:10403000FFF63DAF6D1C032DFFF637AF641C032C5C
:10404000FFF631AF00240BE048A800EB840090EDB0
:10405000000A5F98806800EB840080ED000A641C11
:10406000052CF1DB4DB0BDEC048BBDE8FF8F0000EB
:10407000000000008002002000000000000000009E
:1040800070B504460D46E1B20548FFF752FA00BF8D
:1040900040210348FFF740FA0028F9D0204670BDC0
:1040A0000010014030B52DED068B83B0B0EE40AA74
:1040B000B0EE608AF0EE418AB0EE619AF0EE429A7C
:1040C0000446B0EE4A0A206800F074F9B0EE480ADF
:1040D000606800F06FF9B0EE680AA06800F0A0F91F
:1040E000B0EE490A206900F09BF9B0EE690AE06879
:1040F00000F096F96169E068CDE90001236994E870
:10410000070000F0B3F903B0BDEC068B30BD000032
:104110002DE9F0412DED048B044600250C260C27DB
:104120000C2000F09BFA206010B991A0FFF708FA6C
:104130000C2000F093FA606010B98DA0FFF700FA30
:104140000C2000F08BFAA06010B989A0FFF7F8F9F5
:104150000C2000F083FA206110B985A0FFF7F0F978
:104160000C2000F07BFAE06010B981A0FFF7E8F9BD
:104170000C2000F073FA606110B97DA0FFF7E0F940
:104180000C2000F06BFA2168486010B978A0FFF7A6
:10419000D7F90C2000F062FA2168886010B974A089
:1041A000FFF7CEF90C2000F059FA6168486010B9A9
:1041B0006FA0FFF7C5F90C2000F050FA6168886025
:1041C00010B96BA0FFF7BCF9082000F047FAA1680E
:1041D000486010B966A0FFF7B3F9082000F03EFA76
:1041E000A168886010B962A0FFF7AAF9082000F062
:1041F00035FA2169486010B95DA0FFF7A1F90820E0
:1042000000F02CFA2169886010B959A0FFF798F9DD
:10421000082000F023FAE168486010B954A0FFF7C5
:104220008FF9082000F01AFAE168886010B950A0F0
:10423000FFF786F9142000F011FA6169486010B99F
:104240004BA0FFF77DF9142000F008FA616988603F
:1042500018B947A0FFF774F90125B2EE0E0A2068DD
:1042600080ED000AB3EE0E0A606880ED000A9FED53
:10427000470AA06880ED000A9FED450A206980ED9D
:10428000000A9FED430AE06880ED000AB5EE000ADF
:10429000606980ED000AB2EE040A2068406880ED93
:1042A000000AB3EE090A2068406880ED010A9FED1C
:1042B000390A2068406880ED020AB3EE040A60689B
:1042C000406880ED000A9FED340A6068406880ED28
:1042D000010A9FED320A6068406880ED020A9FED96
:1042E000300AA068406880ED000A9FED2E0AA068A1
:1042F000406880ED010A9FED2C0A2069406880ED3E
:10430000000A9FED230A2069406880ED010A9FEDB5
:10431000260AE068406880ED000A9FED1D0AE0680B
:10432000406880ED010A00251BE02846FCF74CF9A7
:1043300041EC190B9FED1D0B53EC102BFCF763F8B0
:1043400041EC180BFCF7BAF96169496841F825009E
:104350009FED150A6069806800EB850080ED000A1A
:104360006D1C052DE1DBBDEC048BBDE8F081000088
:104370004572726F7220616C6C6F636174696E67F5
:10438000206D656D6F72792E0A0000000000C84331
:104390000000C84200002042000048420000A04245
:1043A000000048C300004843000000000000000077
:1043B0000000D03F00B5F0EE402A0146486890ED7D
:1043C000000AB0EE401A91ED000AF0EE400AB0EE9D
:1043D000620A00F011F9886880ED000A486890EDE3
:1043E000010AB0EE401A91ED000AF0EE400AB0EE7C
:1043F000620A00F045FF886880ED010A486890ED88
:10440000020AB0EE401A91ED000AF0EE400AB0EE5A
:10441000620A00F0ABFE886880ED020A012000BD50
:1044200000B5F0EE402A0146486890ED000AB0EE73
:10443000401A91ED000AF0EE400AB0EE620A00F078
:10444000DBF8886880ED000A486890ED010AB0EE5C
:10445000401A91ED000AF0EE400AB0EE620A00F058
:1044600085FE886880ED010A012000BD2DE9F04736
:104470002DED028B82B006460F4690469946DDE947
:104480000CA59FED220AF0EE408A9FED200AB0EEC7
:10449000408A00244B46424639463046CDE900A5C5
:1044A000FFF7E0FC00BF20E0686800EB8400D0ED7F
:1044B000000AA86800EB840090ED001AB0EE680ACC
:1044C00000EE810AF0EE408AA86800EB840090EDCF
:1044D000000A30EE080AB0EE408A9FED0C0AA86888
:1044E00000EB840080ED000A641C052CDCDBB5EEDB
:1044F000C08AF1EE10FA06D1B7EE000A02B0BDECA8
:10450000028BBDE8F08788EE880AF7E7000000001C
:1045100010B59AB0044624B3FDF78CFCFDF7BEFD40
:10452000FDF7B2FDFCF760FD00F046FE0E48FFF718
:10453000EFFD0020FCF756FC00F00CFD00F050FEF3
:1045400068220A496846FBF793FE084810380FC8EE
:10455000FDF772FBFDF7F0FD18B14FF40050044970
:10456000088001201AB010BD780500200006002048
:10457000180C02401FB50020134A0123CDE9012089
:10458000009303900346802210A1124801F02AFEF6
:104590000020114ACDE900020290034680220FA1BB
:1045A0000390104801F01EFE00200F4ACDE90002E2
:1045B0000290034680220DA103900E4801F012FEE6
:1045C000012004B010BD0000B001002072656164DC
:1045D0005266000051550008B401002046757A7AF1
:1045E0007900000021530008C00100207265616459
:1045F0005254430039550008F0EE401AF4EEC11A47
:10460000F1EE10FA02D2B7EE000A704731EEC10A9D
:1046100080EE202AB7EE000A30EE420AB5EEC00A5C
:10462000F1EE10FA02D29FED060AEEE731EEC12A52
:1046300082EE200AB7EE002A32EE400AE5E70000DB
:104640000000000000BF0120FFF762FFFFF792FFAC
:1046500008B101F079FA00BFFEE70000F0B50B30B9
:10466000154D20F007010024144A0FE003688B4227
:104670000BD38B4205D95E1A43184768C3E900671C
:1046800000E04368136002C004E0021D10680028C7
:10469000ECD12046002802D1286808B10020F0BDE6
:1046A000064A07481060074A121A22F00702C0E9BA
:1046B000002401202860D7E73C04002038040020B3
:1046C0007C34012078360120F0EE400AF5EEC00A75
:1046D000F1EE10FA13DBB2EE080AF4EEC00AF1EEC6
:1046E00010FA0CD89FED0D0A30EEC01AF2EE081A3F
:1046F00081EE210A9FED0A1A20EE010A7047B2EE00
:10470000080A30EEC00AF2EE081A80EE211ADFED38
:10471000041A9FED030A01EE610AEFE700000000B2
:104720000000C842F0EE400AB0EE000AF4EEC00A03
:10473000F1EE10FA15DBB2EE000AF4EEC00AF1EE6B
:1047400010FA0ED8B0EE000A30EEC00AF1EE081AE8
:1047500080EE211ADFED101A9FED0F0A01EE610ABB
:104760007047B0EE000AF4EEC00AF1EE10FA05D878
:10477000B2EE080A30EE800AF0EE400AB2EE000A0D
:1047800030EEC00AF1EE081A80EE211A9FED020AFF
:1047900021EE000AE4E700000000C84210B504461C
:1047A0000E48006844600E480068844207D20B48F7
:1047B0000168091D0B48006800F03AFF0CE007484B
:1047C0000168091D0848006800F032FF07480068CA
:1047D000844201D20548046010BD0000A0030020FF
:1047E000B0030020A8030020A4030020D003002071
:1047F00070B505460E46482000F040FB044694B1D3
:104800001EB9A80000F03AFB00E030462063206BA0
:1048100020B9204600F052FF002404E0A900A522A0
:10482000206BFBF737FD204670BD000010B500F08F
:1048300025FF0C48006890B90B4800F0E9FE0B48D2
:1048400000F0E6FE08480A4908600848094908607F
:1048500000220C210A2001F0A1FA0249086000F0B0
:104860001DFF10BD0C0400200C3401202034012059
:104870000404002008040020704770B504460D466B
:10488000206870B1216CE0680844E0606168E0680D
:10489000884201D32068E0602846226CE168FBF77B
:1048A000E7FC70BD70B504460E461546206C38B95D
:1048B000206870BB606801F091F80020606028E01B
:1048C0007DB93146226CA068FBF7D2FC216CA06850
:1048D0000844A060D4E9011088421AD32068A0607F
:1048E00017E03146226CE068FBF7C2FC216CE068FF
:1048F000401AE0602168E068884203D2216C606859
:10490000401AE060022D04D1A06B10B1A06B401ED4
:10491000A063A06B401CA06370BD0000084909683B
:10492000C96A09B100200AE006490968012901D9CC
:10493000002004E004490968044A1268881A704794
:10494000A003002058070020D0030020B00300205F
:104950000146084A126812680AB9012200E00022E2
:104960000A600A6822B9034A1268D268106800E037
:104970000020704704040020094A22F00700094A79
:1049800010600022074B5A60074A084B5A60002209
:104990001A600146044A4A601A460A6070470000DD
:1049A00014080020EC030020F82B0100F403002081
:1049B00000BFFFF761FF13480068012801D900F02C
:1049C00079FFFFF7ABFF0446022C19D301F040F941
:1049D0000D4800680D490968884201D3012000E0B4
:1049E000002018B9FBF724FC00BFFEE7FFF796FF95
:1049F0000446022C02D3204600F0AEFE01F0BAFDC0
:104A0000D7E7000058070020D0030020B0030020A3
:104A10002DE9F04704460F4615469946DDF82080FB
:104A2000002607E0B95D04F134008155B85D00B996
:104A300002E0761C102EF5D300BF00214320015563
:104A4000052D00D30425E5626564201D00F0EDFD11
:104A500004F1180000F0E9FD2461C5F10500A06132
:104A60006462BDE8F087000010B5002407E004EBA5
:104A700084010D4A02EB810000F0CAFD641C052C84
:104A8000F5D30A4800F0C4FD094800F0C1FD09480B
:104A900000F0BEFD084800F0BBFD0448074908606F
:104AA00003480749086010BD58070020BC070020D4
:104AB000D0070020E4070020F8070020A40300200E
:104AC000A80300202DE9F04104460D4616461F4676
:104AD0004FF0000865602461B5420CD8F01BA16955
:104AE000884202D34FF0010811E0211D09480068F7
:104AF00000F09EFD0BE0BE4204D2BD4202D34FF057
:104B0000010804E0211D0448006800F091FD4046C2
:104B1000BDE8F081080400200404002070B50546BB
:104B200000F0ACFDA86B08B9012400E0002400F0FF
:104B3000B5FD204670BD70B5054600F09FFDA86B21
:104B4000E96B884201D1012400E0002400F0A6FDB9
:104B5000204670BDF8B505460F4613480068C0688A
:104B6000C468201D00F0C8FBE069012817D1A069C6
:104B700041192B463A462046FFF7A4FF01280ED1E3
:104B8000002003462A4601460090204601F08EFD93
:104B900006461EB9FBF74CFB00BFFEE700BF2046F0
:104BA000616A8847F8BD00000404002070B586B033
:104BB00053E0059C606908B9012000E0002010B9AD
:104BC000201D00F099FB02A800F07AF80546039832
:104BD00030B1012826D0022825D003283BD136E069
:104BE0000498A269811803462A462046FFF76AFF07
:104BF000012816D12046616A8847E069012810D152
:104C0000002000900498A16942180023194620460C
:104C100001F04CFD06461EB9FBF70AFB00BFFEE79C
:104C200000BF19E018E00498A061A06908B1012054
:104C300000E0002018B9FBF7FBFA00BFFEE7A0690F
:104C400041192B462A462046FFF73CFF04E0204648
:104C500000F034FD00E000BF00BF00231A4603A9A6
:104C60000348006801F0C5F80028A2D106B070BD65
:104C70000C040020F8B504460E4600F0E9FF684633
:104C800000F01EF805460098A0B946B9AC4206D817
:104C900001F070FC29462046FFF75CFF0CE0611B29
:104CA0000648006800F012FE01F064FC20B900F034
:104CB00001FE01E001F05EFCF8BD00000C040020E4
:104CC00070B5044601F03CFB054608480068854283
:104CD00006D20648006800F00BF80120206001E0D1
:104CE0000020206001480560284670BD10040020A7
:104CF0002DE9F84381462BE020480068C06805682C
:104D00001E480068C068C468201D00F0F5FA2046FF
:104D1000616A8847E06901281AD1A0694619AE4244
:104D200007D966602461211D1448006800F080FCEA
:104D30000EE0002003462A4601460090204601F07E
:104D4000B5FC07461FB9FBF773FA00BFFEE700BFCB
:104D50000A480068006808B9012000E00020002827
:104D6000CAD00648D0F800800548006803490860AA
:104D70000348C0F80080BDE8F88300000404002068
:104D80000804002008B500BF6846FFF7E1FD0446AF
:104D900020460099FFF76EFFFFF708FFF4E710B514
:104DA000044600F06BFC11E0606A08B9012000E0E5
:104DB000002038B904F1240001F09CFB18B100F088
:104DC000BFFD00E005E0A06C401EA064A06C0028C0
:104DD000EADC00BF4FF0FF30A06400F05FFC00F0A1
:104DE0004DFC11E0206908B9012000E0002050B915
:104DF00004F1100001F07EFB08B100F0A1FD606C31
:104E0000401E606400E002E0606C0028EADC00BF45
:104E10004FF0FF30606400F041FC10BD10B5F0EEC3
:104E2000400A002000219FED131AB0EE410A18221B
:104E3000501E0BE0431E104C04EB830393ED001A4D
:104E4000234603EB800383ED001A401E0028F1DCAB
:104E5000094BC3ED000A002109E0074B03EB810376
:104E600093ED001A31EE001AB0EE410A491C1829E0
:104E7000F3DB10BD00000000900500202DE9F0419B
:104E800004464FF0000800F0E3FE2548006820B912
:104E9000FFF772FD01202249086044B1083404F094
:104EA000070020B104F00700C0F108000444002C02
:104EB00031D01C4884422ED21B4F3846056801E091
:104EC0002F462D686868A04202D228680028F7D1D2
:104ED000164885421FD0386800F1080828683860F5
:104EE0006868001B102810D92E196868001B7060B4
:104EF0006C6071680C4800E00068026852688A4281
:104F0000FAD302683260066000BF09496868096820
:104F1000081A0749086001F02DFB4046BDE8F08102
:104F200000040020F82B0100EC030020F403002013
:104F3000FC030020001F4FF080730360001F01601E
:104F4000001F0023036014380260001FDB1E036093
:104F50002038704700B52DED028B83B05348FDF724
:104F6000BBF81020FBF736FF4FF47840FCF7E8FA67
:104F70004E48807900F5FA604C4949794C4A52F81C
:104F80002110CDE9001049480379C078494951F80A
:104F9000202049A14C48FEF7E3FA4B4AE62156206F
:104FA000FCF7D6FA4148FDF797F81020FBF712FFFF
:104FB0004648027846A14448FEF7D2FA424A4FF4E6
:104FC00099718620FCF7C4FA4048427845A13E48D2
:104FD000FEF7C6FA3C4A78218620FCF7B9FA3B482E
:104FE00044A142683848FEF7BBFA374A4FF499713A
:104FF000A820FCF7ADFA3548007A424951F8202044
:1050000041A13148FEF7ACFA2F4A7821A820FCF7DD
:105010009FFA404890ED181BB0EE410AF0EE610A8D
:1050200053EC102B3CA12848FEF79AFA264A4FF47D
:105030009971C820FCF78CFA1820FBF7CBFE4FF4CF
:10504000FC60FCF77DFA1948007800901748437817
:10505000827836A11C48FEF783FA1B4AEB213E20DA
:10506000FCF776FA1020FBF7B5FE2A4890ED170AF8
:10507000DFED320A20EE200A10EE101A0846FBF788
:10508000DAFA41EC180B8DED008B02232CA22EA135
:105090000D48FEF765FA0C4A4FF496716E20FCF746
:1050A00057FA012003B0BDEC028B00BD20010020A7
:1050B000540100203401002025732C253032642C4B
:1050C00025732C25303464004C040020400400205B
:1050D00054656D70657261747572653A253032641D
:1050E0000000000048756D69646974793A253032B2
:1050F0006400000050726573737572653A20256C08
:10510000640000008801002043757272656E743A75
:1051100025730000F0050020546F74616C20446515
:105120006372656173653A2567000000253032645B
:105130003A253032643A2530326400000000C8421B
:105140005261696E00000000466F7265636173749E
:105150003A257320416674657220256420686F7556
:10516000727328253267252529000000F0EE401AC9
:10517000F4EEC11AF1EE10FA02DBB7EE000A704746
:1051800031EE610A80EE202AB7EE000A30EE420AC4
:10519000B5EEC00AF1EE10FA02D29FED060AEEE774
:1051A00031EE612A82EE200AB7EE002A32EE400A82
:1051B000E5E700000000000010B520216420FDF7A5
:1051C00011FB03210020FDF71DFC0348FDF706FC41
:1051D0000248FDF73BFC10BD190400201404002018
:1051E00010B50020FCF798F91F20FCF7A9F9102052
:1051F000FBF7F0FD0BA24FF491710E20FCF7A8F91C
:1052000011A240F213111C20FCF7A2F94FF47840D0
:10521000FCF796F914A2F0212A20FCF799F9012055
:1052200010BD0000554E4956455253495459204F20
:105230004620494E464F4D4154494F4E2054454318
:10524000484E4F4C4F475900464143554C54592006
:105250004F4620434F4D505554455220454E4749E7
:105260004E454552494E47004C4F43414C2057450F
:10527000415448455220464F524543415354000043
:10528000F0EE401AF4EEC11AF1EE10FA18DB31EE2E
:10529000C12A82EE200AB7EE002A32EE400AB5EEAD
:1052A000C00AF1EE10FA02D29FED120A704731EEF9
:1052B000C10A80EE202AB7EE000A30EE420AF5E776
:1052C00031EE612A82EE200AB7EE002A32EE400A61
:1052D000B5EEC00AF1EE10FA02D29FED060AE5E73C
:1052E00031EE612A82EE200AB7EE002A32EE400A41
:1052F000DCE70000000000000146D1E901309860C1
:10530000D1E9010358600A695068884201D1886870
:105310005060002008611068401E106010687047DF
:105320002DED088BD6E0322000F0EEFA6A48407985
:105330006A49486068488078C8600846D0ED010A2C
:10534000F8EEE00AB0EE600AFFF7ECF9634880ED92
:10535000150AD0ED030AF8EEE00AB0EE600AFFF796
:10536000B3F95E4880ED160A9FED5D0B53EC102BF0
:105370005D4890ED000B51EC100BFBF76FF905D178
:105380009FED5A0A554880ED140A27E05349886C6E
:10539000FBF71AF941EC1B0B534890ED000B53EC53
:1053A000102B51EC1B0BFBF728F841EC1A0B4E4865
:1053B00090ED000B53EC102B51EC1A0BFBF795F80A
:1053C00041EC190B9FED4A0B53EC102BFBF71BF82C
:1053D00041EC180BFBF772F9404908653F48D0EDE6
:1053E000140AB0EE600AFFF719FD10EE104A2046CD
:1053F000FBF721F9394AC2E918011146886CFBF71D
:10540000E3F8394A03C29FED390A344880ED170AA0
:1054100090ED181BB0EE410AF0EE610A51EC100B52
:10542000FBF74CF908EE100A2C4890ED161AB0EE76
:10543000412A90ED151AF0EE411A90F8450001EE60
:10544000100AB8EE411AF0EE410A244890F84400E0
:1054500001EE100AB8EE411AB0EE410A2648B0EE4D
:10546000481AFEF71FFE1D4880ED170A90ED170A37
:1054700010EE101A0846FBF7DEF841EC180B9FED12
:105480001F0B53EC102BFBF7E9F803D81DA01349B1
:10549000886617E0114890ED170A10EE101A0846BA
:1054A000FBF7C9F841EC180B9FED190B53EC102BCF
:1054B000FBF7D4F803D818A00849886602E019A0C1
:1054C000064988661A48006800F0F2FA1948006830
:1054D00000F086FB27E7000020010020F0050020F7
:1054E0000000000000000000980100200000000003
:1054F00000000000006AF8407805002066666666D5
:105500006666E23F4E4F545F5241494E0000000034
:105510005C8FC2F5285CE33F4C4954544C455F52C4
:1055200041494E0048454156595F5241494E00009D
:10553000B0010020B401002007E0322000F0E4F9BF
:105540000248FCF7C9FDFCF755F8F6E720010020FA
:1055500000BF47E0322000F0D7F92348006880F40C
:10556000005021490860FDF7F5F800283AD01E48A0
:10557000006880F480501C4908601C48FCF7DAFA87
:105580001A4801781A4880F8441018484178184899
:1055900080F8451015484168154881641348017A20
:1055A000134880F84C1090F84C00022803D111A049
:1055B0000F49C8660BE00E4890F84C00012803D153
:1055C0000DA00B49C86602E00DA00949C86600207D
:1055D000FCF770F80C48006800F06AFA0B480068A5
:1055E00000F0FEFAB6E70000140C02404004002070
:1055F000F0050020447279005261696E00000000DD
:105600004865617679000000B4010020B0010020F7
:1056100000F1080141604FF0FF31816000F10801A5
:10562000C160016100210160704700210161704784
:1056300010B502460B685C1C0CB9106907E002F15A
:10564000080000E04068446824689C42FAD9446835
:105650004C604C68A160886041600A611468641CF9
:10566000146010BD42684A6093688B60936859600B
:105670009160086103685B1C0360704710B5FAF71E
:10568000D7FD05480068401C03490860BFF34F8FF1
:10569000BFF36F8F10BD0000D403002010B5064883
:1056A0000068401E044908600846006810B90020E0
:1056B000FAF7C5FD10BD0000D403002070B5064602
:1056C0003546B6B1083D2C4600F0C2FA616809487B
:1056D00000E00068026852688A42FAD302682260D9
:1056E000046005496068096808440349086000F0DF
:1056F00041FF70BDEC030020FC030020124800684D
:105700004FF47A71B0FBF1F0104908600846006868
:105710006FF07F41B1FBF0F00D4908600A48006866
:10572000B0FBF0F02D21B1FBF0F00A49086006480B
:1057300000684FF47A71B0FBF1F0401E4FF0E021A9
:105740004861072008617047C4010020D803002089
:10575000DC030020E00300202DE9F04104463B4833
:105760000068844201D93948046806204FF0E021DE
:10577000086108468169601E354A126802FB0015FF
:1057800034480068854202D9324800682D1A72B642
:10579000FEF758FB28B907204FF0E021086162B6F8
:1057A00051E04FF0E020456100204FF0E02188619A
:1057B00007200861A046B8F1000F04D0BFF34F8F57
:1057C00030BFBFF36F8F06204FF0E021086162B653
:1057D0004FF0E020006900F4803060B11C480068A0
:1057E000401E4FF0E0218969691A401A4FF0E0210C
:1057F0004861661E12E01648006860434FF0E021E1
:105800008969471A12480068B7FBF0F6701C104906
:1058100009684843C01B4FF0E021486100204FF069
:10582000E0218861FFF72AFF07204FF0E02108619F
:10583000304600F0B9F906480068401E4FF0E021FC
:105840004861FFF72BFFBDE8F0810000DC0300207A
:10585000D8030020E003002070B5FAF7F3FC0546FA
:10586000102D0FD305F1E02090F8F0430E4800789A
:10587000844201DB012000E0002018B9FAF7D8FCCF
:1058800000BFFEE70948006800F4E06008490968C5
:10589000884201D8012000E0002018B9FAF7C8FCBE
:1058A00000BFFEE770BD0000E40300200CED00E047
:1058B000E80300204FF0805003490860BFF34F8F8A
:1058C000BFF36F8F7047000004ED00E070B5054630
:1058D0000E462C46FFF7D2FE606C401C08B9002033
:1058E0006064A06C401C08B90020A064FFF7D6FEDD
:1058F000A06B20B9314604F1240000F051F8204695
:10590000FFF74DFA70BD000070B5044600267CB16B
:1059100000F09EF908480068051908480068001D55
:10592000FFF7EAFC2846FEF739FF00F023FE0646A3
:105930000EB9FFF7BFFF70BDB0030020A003002029
:105940000120014908607047C403002070B5054676
:105950000C461DB9FAF76CFC00BFFEE70D48016864
:1059600018312846FFF764FE0A480068001DFFF75B
:10597000C3FC601C30B907480168091D0648FFF7E1
:1059800071FE05E00548006806193046FEF706FF7F
:1059900070BD0000A0030020F8070020B003002025
:1059A00070B504460D461CB9FAF742FC00BFFEE78D
:1059B0000848016818312046FFF754FE0548006882
:1059C000001DFFF799FC0448006846193046FEF7B1
:1059D000E5FE70BDA0030020B003002070B50546B1
:1059E0002C46EDB1616CE06A884219D0201DFFF7AA
:1059F00083FC606CE062E06AC0F10500A0610949C7
:105A0000E06A0968884202D90649E06A0860E16AEA
:105A100001EB8101044A02EB8100211DFFF722FE08
:105A200070BD0000B40300205807002070B5054683
:105A30002C4685B31B49E06A0968C96A88422FD29F
:105A400018480068C06AC0F10500A061E16A01EB76
:105A50008101154A02EB81016069884201D1012070
:105A600000E00020C0B1201DFFF746FC0D48006893
:105A7000C06AE0620D49E06A0968884202D90B49B0
:105A8000E06A0860E16A01EB8101074A02EB8100EC
:105A9000211DFFF7E7FD03E002480068C06AE062ED
:105AA00070BD0000A003002058070020B4030020B0
:105AB00070B505462C461DB9FAF7BAFB00BFFEE7E4
:105AC00044B315480068844224D0FFF7D7FD204630
:105AD00000F0EAFC01281BD1201DFFF70DFC0F4947
