:020000040800F2
:10000000683F01204D02000805140008B10A0008ED
:1000100001140008B505000889260008000000004A
:100020000000000000000000000000009D0100082A
:100030006D07000800000000E101000885170008B6
:1000400067020008670200086702000871160008CE
:1000500067020008670200086702000867020008DC
:1000600067020008670200086702000867020008CC
:1000700067020008670200086702000867020008BC
:1000800067020008670200086702000867020008AC
:10009000670200086702000867020008670200089C
:1000A000670200086702000867020008670200088C
:1000B0000D180008670200086702000867020008C0
:1000C000670200086702000867020008670200086C
:1000D00067020008F92500081D26000841260008CF
:1000E00067020008D51500086702000867020008CB
:1000F000670200086702000867020008670200083C
:10010000670200086702000867020008670200082B
:10011000B1250008D525000867020008670200081D
:10012000670200086702000867020008670200080B
:1001300067020008670200086702000867020008FB
:1001400067020008670200086702000867020008EB
:1001500067020008670200086702000865260008B9
:1001600067020008670200086702000867020008CB
:1001700067020008670200086702000867020008BB
:100180006702000867020008DFF80CD000F0C6F92B
:1001900000480047B52D0008683F0120234B19682F
:1001A0000868B0E8F04F80F309884FF0000080F352
:1001B000118870470000000003480068006880F361
:1001C000088862B600DF00BF08ED00E0DFF80C0031
:1001D000016841F470010160704700BF88ED00E0E4
:1001E000EFF30980114B1A681EF0100F08BF20EDC5
:1001F000108A20E9F04F106008B54FF0500080F3EE
:10020000118803F0C9FC4FF0000080F31188BDE8AD
:10021000084019680868B0E8F04F1EF0100F08BFDA
:10022000B0EC108A80F30988704700BF900200206C
:10023000EFF311804FF0500181F31188704780F384
:1002400011887047EFF3058070470000064880472B
:1002500006480047FEE7FEE7FEE7FEE7FEE7FEE7AB
:10026000FEE7FEE7FEE7FEE7A517000889010008A4
:1002700040EA01039B0703D009E008C9121F08C028
:10028000042AFAD203E011F8013B00F8013B521EA8
:10029000F9D27047D2B201E000F8012B491EFBD21F
:1002A00070470022F6E710B513460A460446194681
:1002B000FFF7F0FF204610BD2DE9F04D81EA030461
:1002C00004F0004B21F0004514464FF0000A23F0E3
:1002D000004150EA050220D054EA01021DD0C5F3C6
:1002E0000A570246C5F31303C1F31300C1F30A56BC
:1002F00040F4801543F48013A7EB0608101BD64684
:1003000008F2FD3873EB050002D308F1010801E0A3
:1003100092185B41B8F1000F03DA00200146BDE8F6
:10032000F08D00204FF48011064684460EE0171B26
:1003300073EB050705D3121B63EB050306434CEA79
:10034000010C49084FEA300092185B4150EA01075E
:10035000EDD152EA030012D082EA040083EA0501DB
:10036000084305D0101BAB4106D20122002306E052
:1003700000224FF0004302E06FF0010253101AEB2D
:1003800006004CEB085110EB0A0041EB0B01BDE8F5
:10039000F04D00F065B80EB540F2334102910021F6
:1003A000CDE900110A460B4600F069F803B000BD24
:1003B000C1F30A5210B5C1F3130140F2FF3341F407
:1003C00080119A4201DA002010BD40F233439A4274
:1003D000A2F2334203DC524200F032F810BD9040EA
:1003E00010BD000030B5041E71F1000404DB4FF0B5
:1003F0000044404264EB0101141E73F1000405DB6C
:100400001C464FF00043524263EB04038B4208BF8B
:10041000824230BD30B50B46014600202022012427
:1004200009E021FA02F59D4205D303FA02F5491BC2
:1004300004FA02F52844151EA2F10102F1DC30BDD8
:10044000202A04DB203A21FA02F00021704721FA29
:1004500002F3D040C2F12002914008431946704790
:1004600010B5141E73F1000408DA401C41F10001BC
:1004700092185B411A4301D120F0010010BD2DE913
:10048000F04D92469B4611B1B1FA81F202E0B0FA0A
:1004900080F22032904600F053F804460F4640EABE
:1004A0000A0041EA0B0153465A46084313D011464D
:1004B00053EA010019D0C8F140025046FFF7C0FFCF
:1004C00005460E4650465946424600F039F8084364
:1004D00005D0012004E020463946BDE8F08D00201B
:1004E000054346EAE0762C4337430A986305E40A5D
:1004F000A0EB08000022FD0A44EA47540A3002D566
:1005000000200146E9E7010510196941DDE90845C8
:1005100000196941BDE8F04DA2E70000064C074D07
:1005200006E0E06840F0010394E8070098471034C3
:10053000AC42F6D3FFF72CFEE06E0008006F000817
:10054000202A04DB203A00FA02F100207047914093
:10055000C2F1200320FA03F319439040704770B5AD
:100560008C1810F8015B15F0070301D110F8013B5E
:100570002A1106D110F8012B03E010F8016B01F8E5
:10058000016B5B1EF9D12B0705D40023521E0DD43D
:1005900001F8013BFAE710F8013BCB1A921C03E08B
:1005A00013F8015B01F8015B521EF9D5A142D8D3C3
:1005B000002070BD00BFFEE7FEB500200190029054
:1005C00001F01AFA01F0C0F90121084600F06EFFAF
:1005D0004FF480605A490860012008710320487177
:1005E00000208871C871574800F09AF94FF4806173
:1005F000544800F00BFA282000F0CEF84FF4806148
:10060000504800F001FA4FF019004F490968009175
:1006100000BFEFF3058139B900BF4B490968009A63
:10062000891A8142F9D309E006E04FF0E021096917
:1006300001F4803101B1401E0028F6D100BF4FF413
:100640008061404800F0E2F94FF480603C49086066
:10065000002008710320487100208871C871394852
:1006600000F05EF9282000F097F84FF480613548DB
:1006700000F0C1F9012801D10020FEBD502000F09A
:100680008BF84FF480612F4800F0B5F908B90020CD
:10069000F3E7502000F080F84FF48061294800F023
:1006A000AAF9012801D10020E7E7002429E000256C
:1006B00023E000BF4FF48061224800F09CF900283D
:1006C000F8D0322000F068F84FF480611D4800F047
:1006D00092F980B101A8005DC5F1070201219140A6
:1006E000084301A9085500BF4FF48061154800F088
:1006F00082F90028F8D1681CC5B2082DD9DB601C2E
:10070000C4B2052CD3DB9DF804009DF80510084405
:100710009DF8061008449DF807100844C6B29DF8DD
:100720000800B04201D00020A7E79DF80600074965
:1007300008709DF804000649087001209DE700003C
:1007400000020020000002402002002008020020D9
:1007500009020020014800787047000009020020CB
:10076000014800787047000008020020704708B573
:100770004FF08041496A009100BF00BF4FF08041B7
:10078000496A009A891AF9D04FF08041496A00916C
:10079000411E081EF1D108BD08B54FF08041496ADD
:1007A000009100BF00BF4FF08041496A009A891A4A
:1007B000F9D04FF08041496A0091411E081EF1D1E5
:1007C00008BD000051B18200A2F1C042126842F09F
:1007D00001038200A2F1C042136009E08200A2F18D
:1007E000C0421268034B1A408300A3F1C0431A6051
:1007F00070470000FEFF0F0030B5002100220023EB
:100800000468A400A4F1C0442168444C2140D0E90C
:1008100001452C43C5682C4305692C4345692C438D
:1008200085692C43C5692C43056A2C43456A2C43D2
:10083000856A2C43C56A2C43056B2C43214304680D
:10084000A400A4F1C04421608468082C0BD1046882
:10085000A400A4F1C044246844F040050468A40046
:10086000A4F1C04425600468641CA400A4F1C04441
:10087000226802F04042446B2468456B6D6844EA8C
:100880000514456BAD6844EA0524456BAD8944EA1F
:100890000544456B2D8A44EA0554456B2D7D44EA99
:1008A0000564456BAD692C4322430468641CA400B5
:1008B000A4F1C0442260C46AB4F5804F24D1046816
:1008C000A400A4F1C044D4F8043103F04043846B85
:1008D0002468856B6D6844EA0514856BAD6844EA4D
:1008E0000524856B2D8A44EA0554856B2D7D44EAE9
:1008F0000564856BAD692C4323430468A400A4F10F
:10090000C044C4F8043107E06FF070450468A400E7
:10091000A4F1C044C4F8045130BD00008000F7FFCA
:10092000F0B50A4600210023002400BF3DE0012568
:1009300005FA01F3156805EA03049C4234D1056801
:100940004F000326BE40B543056015794E00B54003
:100950000668354305601579012D02D01579022D01
:1009600016D185684F000326BE40B5438560557992
:100970004E00B540866835438560456801268E4047
:10098000B5434560456896798E40B6B235434560BB
:10099000C5684F000326BE40B543C560D5794E00FB
:1009A000B540C6683543C560491C1029BFD3F0BDAA
:1009B000F0B5002300244D07ED0E02FA05F3CE102A
:1009C00000F1200555F826504E07F70E0F26BE40C1
:1009D000B543CF1000F1200646F82750CE1000F1A5
:1009E000200555F8265045EA0304CE1000F12005F5
:1009F00045F82640F0BD0246002013690B400BB1BC
:100A0000012000E000207047418370470183704758
:100A1000A1F12002034B03EBC2021368036052688A
:100A2000426070471C6B0008A1F1200202EB4202F9
:100A3000044B03EB820213680360536843609268BF
:100A400082607047A866000870B505460C46A4F1A0
:100A5000200000EB4000044A02EBC00118222846A7
:100A6000FFF706FC70BD0000C05D000870B50546CC
:100A70000C46A4F12000044A02EB00111022284683
:100A8000FFF7F6FB70BD0000D057000870B50546B3
:100A90000C46A4F1200000EB4000044A02EB0011D8
:100AA00030222846FFF7E4FB70BD00000046000836
:100AB00000BFFEE770B50246002400250023002099
:100AC000958A138B1B0445EA030626F07F4404EA4B
:100AD00001068E4201D1012000E0002070BD00001F
:100AE0002DE9FF4704460D460026B1460427DFF8EE
:100AF000CC80A6884FF6C0700640684600F0F6FC31
:100B0000DDF808802E48B8FBF0F01FFA80F946EABD
:100B10000906A68020884FF6FE7108402080002636
:100B20002849286888420CD828684000B8FBF0F0B3
:100B300087B2042F00DA04273E4309F10100208424
:100B400027E0E8884BF6FF71884206D1286800EB61
:100B50004000B8FBF0F087B209E0286800EBC00164
:100B600001EB0010B8FBF0F087B247F48047C7F301
:100B70000B0008B947F0010747F4004006434FF463
:100B8000967009FB00F04FF47A7190FBF1F0401C75
:100B90002084A683208840F00100208026884FF61C
:100BA000F5300640A8886989084306432680A8894D
:100BB000298908432081BDE8FF87000000127A00E0
:100BC00040420F00A086010001B5BDF800000149B8
:100BD000088008BDF401002030B50446002500213E
:100BE000084600F0A7FB00F0F7FB00BF02E0034857
:100BF00004806D1CB5F5963FF9D330BD000002604E
:100C00002DE9F04380460D4614461E460027A146B6
:100C10002146284600F08EFB00F0DEFB00BF10E00E
:100C20001CB9681C85B21FFA89F42146284600F0D9
:100C300081FB00F0D1FB404600F0D4FB601E84B283
:100C40007F1CB742ECD3BDE8F08300001CB5012146
:100C5000582000F02BFC0121084600F037FC0C2244
:100C600000214348FFF7A4FE0C2201214048FFF772
:100C70009FFE0C2204213E48FFF79AFE0C2205211C
:100C80003B48FFF795FE0C2207213948FFF790FEFD
:100C90000C2208213648FFF78BFE0C22092134482C
:100CA000FFF786FE0C220A213148FFF781FE0C2255
:100CB0000B212F48FFF77CFE0C220E212C48FFF75A
:100CC00077FE0C220F212A48FFF772FE0C22072123
:100CD0002848FFF76DFE0C2208212648FFF768FE22
:100CE0000C2209212348FFF763FE0C220A21214828
:100CF000FFF75EFE0C220B211E48FFF759FE0C2267
:100D000011461C48FFF754FE0C220D211948FFF72D
:100D10004FFE0C220E211748FFF74AFE0C220F212E
:100D20001448FFF745FE4CF6B370009002208DF892
:100D3000040003208DF8050000208DF806008DF8D2
:100D4000070069460A48FFF7EBFD4FF680700090F8
:100D500002208DF8040003208DF8050000208DF896
:100D600006008DF8070069460248FFF7D9FD1CBD53
:100D7000000C02400010024000B597B00020019026
:100D80000290022003900020049001200590002092
:100D900006900790089009900A9010200B90002070
:100DA0000C900E900F9010904FF4805011900020F6
:100DB00012900D9013904FF40020149001A81590FC
:100DC00008A8FFF719FD002001900290042003906D
:100DD000002004900120059000200690079001A8B3
:100DE000169008A8FFF708FD01210020FFF7EAFC94
:100DF00017B000BD10B5FFF729FF40F6B830FFF778
:100E0000B6FCFFF7B9FF40F6B830FFF7B0FC212180
:100E1000072000F0EDFA3220FFF7A9FC01210020A5
:100E200000F0E6FA3220FFF7A2FC2321072000F0B1
:100E3000DFFA3220FFF79BFC0021102000F0D8FAE7
:100E40005A20FFF794FC3321072000F0D1FA32201A
:100E5000FFF78DFC46F63001112000F0C9FA322070
:100E6000FFF785FC4FF4C061022000F0C1FA322088
:100E7000FFF77DFC46F6EB41122000F0B9FA322074
:100E8000FFF775FC4AF6A401032000F0B1FA322006
:100E9000FFF76DFC00210C2000F0AAFA3220FFF7CA
:100EA00066FC40F60C010D2000F0A2FA3220FFF79C
:100EB0005EFC4FF42C510E2000F09AFA3220FFF71E
:100EC00056FCB0211E2000F093FA3220FFF74FFCB1
:100ED00042F63F31012000F08BFA3220FFF747FC49
:100EE0000021052000F084FA3220FFF740FC0021A9
:100EF000062000F07DFA3220FFF739FC4EF61C7117
:100F0000162000F075FA3220FFF731FC40F2031191
:100F1000172000F06DFA3220FFF729FC00210B208A
:100F200000F066FA3220FFF722FC00210F2000F0CB
:100F30005FFA3220FFF71BFC0021412000F058FA35
:100F40003220FFF714FC0021422000F051FA322039
:100F5000FFF70DFC0021482000F04AFA3220FFF78D
:100F600006FC40F23F11492000F042FA3220FFF720
:100F7000FEFB00214A2000F03BFA3220FFF7F7FB8E
:100F800000214B2000F034FA3220FFF7F0FB4FF441
:100F90006F41442000F02CFA3220FFF7E8FB0021DB
:100FA000452000F025FA3220FFF7E1FB40F23F1127
:100FB000462000F01DFA3220FFF7D9FB40F20771FE
:100FC000302000F015FA3220FFF7D1FB4FF4017109
:100FD000312000F00DFA3220FFF7C9FB4FF4017108
:100FE000322000F005FA3220FFF7C1FB40F2025137
:100FF000332000F0FDF93220FFF7B9FB40F2075132
:10100000342000F0F5F93220FFF7B1FB4FF4017105
:10101000352000F0EDF93220FFF7A9FB4FF4017104
:10102000362000F0E5F93220FFF7A1FB40F2025133
:10103000372000F0DDF93220FFF799FB40F2023152
:101040003A2000F0D5F93220FFF791FB41F2BE21A2
:101050002F2000F0CDF93220FFF789FB40F202315A
:101060003B2000F0C5F93220FFF781FB002123204F
:1010700000F0BEF93220FFF77AFB0021242000F0B7
:10108000B7F93220FFF773FB4FF40041252000F041
:10109000AFF93220FFF76BFB00214F2000F0A8F9D9
:1010A0003220FFF764FB00214E2000F0A1F932202E
:1010B000FFF75DFB10BD00002DE9F0438DB0074642
:1010C0000E46904600240025B8F10A0F7ED09248C3
:1010D0000088082833D14FF00009B8F10A0F02D177
:1010E000A6F1080006B241460BA8FFF791FC0024C8
:1010F00022E00BA810F80490002519E049FA05F049
:1011000000F0010048B1721911B23A1910B2834AC5
:10111000128812B200F0B4F908E0721911B23A194B
:1011200010B27F4A128812B200F0AAF9681CC5B248
:10113000082DE3DB601CC4B2082CDADB00BF764864
:1011400000880C2833D14FF00009B8F10A0F02D102
:10115000A6F10C0006B241460AA8FFF765FC002480
:1011600022E00AA810F80490002519E049FA05F0D9
:1011700000F0010048B1721911B23A1910B2674A71
:10118000128812B200F07CF908E0721911B23A1913
:1011900010B2634A128812B200F072F9681CC5B22C
:1011A000082DE3DB601CC4B20C2CDADB00BF5A480C
:1011B0000088102835D14FF00009B8F10A0F02D18C
:1011C000A6F1100006B2414609A800E0A1E0FFF731
:1011D0004DFC002422E009A810F80490002519E035
:1011E00049FA05F000F0010048B1721911B23A193C
:1011F00010B24A4A128812B200F042F908E072199D
:1012000011B23A1910B2464A128812B200F038F9F7
:10121000681CC5B2082DE3DB601CC4B2102CDADBFD
:1012200000BF3D4800880E2837D14FF00009B8F1C3
:101230000A0F02D1A6F10C0006B2414607A8FFF73B
:1012400003FC002426E007A830F814001FFA80F9F8
:1012500000251BE0C5F10C0049FA00F000F0010088
:1012600048B1721911B23A1910B22C4A128812B24E
:1012700000F006F908E0721911B23A1910B2284AC2
:10128000128812B200F0FCF8681CC5B20C2DE1DB2C
:10129000601CC4B20C2CD6DB00BF1F480088182885
:1012A00037D14FF00009B8F10A0F02D1A6F11800AA
:1012B00006B2414601A8FFF7E9FB002426E001A899
:1012C00030F814001FFA80F900251BE0C5F110006A
:1012D00049FA00F000F0010048B1721911B23A1950
:1012E00010B20E4A128812B200F0CAF808E0721961
:1012F00011B23A1910B20A4A128812B200F0C0F8BC
:10130000681CC5B2102DE1DB601CC4B2182CD6DB02
:1013100000BF0DB0BDE8F083F4010020F001002013
:10132000F201002001B5BDF800000149088008BDA8
:10133000F201002010B503460C4619464E2000F07D
:1013400057F821464F2000F053F810BD01B5BDF805
:1013500000000149088008BDF00100202DE9F0419E
:1013600005460C46164600BF16F8017B3A4621B2E8
:1013700028B2FFF7A1FE17480088844218DD1548FF
:1013800000880838201A84B212480088182805D12D
:10139000104800881238201A84B216E00D480088E0
:1013A0000C2812D10B4800880838201A84B20CE0AF
:1013B00008480088854205DD002406480088281A70
:1013C00085B202E0E0254FF4987430780028CBD144
:1013D000BDE8F081F401002022204FF0C0410880D8
:1013E000704700000149088070470000000002605B
:1013F0004FF0C0421080014A118070470000026027
:1014000000BFFEE77047000070B5002100230F22E7
:10141000C4781CB3174C246804F4E064C4F5E06499
:10142000C4F30721C1F10404E3B20A4144789C40AB
:10143000E1B28478144021430C07210E0E4C05784C
:101440006155047804F01F050124AC4005786D1146
:10145000AD0005F1E025C5F8004109E0047804F08D
:101460001F050124AC40054D0678761145F826404D
:1014700070BD00000CED00E000E400E080E100E061
:1014800070B504460D461646EF2C02DCB5F5A07F7C
:1014900000DB70BDA9B2A0B2FFF74CFFFFF79CFFC5
:1014A000B0B2FFF79FFF00BFF3E7000029B1064A83
:1014B00012680243044B1A6004E0034A1268824334
:1014C000014B1A60704700003038024029B1064ACB
:1014D00012680243044B1A6004E0034A1268824314
:1014E000014B1A607047000038380240F0B5002107
:1014F00000220024022500260223324F3F6807F015
:101500000C0121B1042905D0082937D105E02E4F5F
:10151000076036E02D4F076033E02A4F3F1F3F68DA
:10152000C7F38056274F3F1F3F6807F03F036EB158
:10153000264FB7FBF3F7DFF88CC0ACF1040CDCF8F6
:1015400000C0CCF3881C07FB0CF40CE01E4FB7FB6B
:10155000F3F7DFF870C0ACF1040CDCF800C0CCF39A
:10156000881C07FB0CF4174F3F1F3F68C7F3014768
:101570007F1C7D00B4FBF5F7076002E0124F0760A7
:1015800000BF00BF0F4F3F6807F0F0010909104F7F
:101590007A5C0768D74047600A4F3F6807F4E0511C
:1015A000890A0B4F7A5C4768D7408760054F3F68D0
:1015B00007F46041490B064F7A5C4768D740C76023
:1015C000F0BD0000083802400024F40000127A0048
:1015D000E001002010B54FF4805000F029F828B148
:1015E0004FF4805000F014F800F04BFE4FF4005020
:1015F00000F01EF828B14FF4005000F009F800F098
:1016000041FE4FF400300149086010BD143C014018
:10161000002101098AB242F08002044B1B6803F0EA
:10162000800363EA0202014B1A6070470C280040F5
:1016300030B501460020002200230C4C246804F041
:1016400004020A4C383C24680C4002EAD13544EAD2
:101650000503064C343C246804EA11121BB194B211
:101660000CB1012000E0002030BD00004028004007
:1016700010B54FF48040FFF7DBFF28B14FF48040F6
:10168000FFF7C6FF00F0FFFD4FF48000014908603E
:1016900010BD0000143C01400CB5002001900090EA
:1016A0003448006840F480303249086000BF314857
:1016B000006800F4003000900198401C01900098F0
:1016C00018B90198B0F5A04FF1D12A48006800F48C
:1016D000003010B10120009001E00020009000983F
:1016E000012846D123484030006840F0805021490D
:1016F000403108602048006840F440401E490860BE
:101700001C48083000681B4908310860084600681A
:1017100040F4004008600846006840F4A0500860AB
:101720001648091F0860081F006840F08070091FF4
:10173000086000BF0F48006800F000700028F9D072
:1017400040F205700E4908600A480830006820F031
:1017500003000849083108600846006840F00200AC
:10176000086000BF03480830006800F00C0008283B
:10177000F8D10CBD003802400070004019544007F9
:10178000003C024010B5FEF753FD02F081FD18B198
:101790004FF08050024908600020FEF750FD10BD58
:1017A00004ED00E010B51548006840F470001349DE
:1017B00008601348006840F00100114908600020EB
:1017C0000F49083108600E4800680E4908400C496E
:1017D00008600D48091D0860081F006820F480207B
:1017E000091F0860002006490C310860FFF754FF0C
:1017F0004FF0006001498039086010BD88ED00E0BD
:1018000000380240FFFFF6FE1030002410B54FF6FE
:10181000FE704FF08041088227480068401C26492E
:1018200008602648006820B124480068401E23490B
:101830000860AFF30080002438E0214850F824000D
:1018400090B31F4850F82400007B68B31C4850F840
:101850002400806840B31A4850F824008168491E6B
:10186000174850F824008160154850F8240080681B
:10187000D0B9134A52F824205069114A52F8242052
:10188000116988470E4850F8240001680C4850F848
:10189000240081600A4850F82400406820B90021E3
:1018A000074850F824000173601CC4B20448001FAC
:1018B0000078A042C1DC10BD2002002024020020DC
:1018C000B80D002000220288184B98420ED0184B09
:1018D00098420BD0B0F1804F08D0164B984205D0FB
:1018E000154B984202D0154B984204D14FF68F7396
:1018F0001A404B881A43124B984207D0114B98421A
:1019000004D04FF6FF431A400B891A4302804B68FC
:10191000C3620B880385054B984202D0044B984262
:1019200001D18B7A03860123838270470000014036
:10193000000401400004004000080040000C00408A
:10194000001000400014004000B58BB001A94FF01A
:10195000804000F0B3FD9FED240B01A800F044FD92
:101960004FF0804000F090FC0020ADF82800ADF86A
:10197000220040F2E73009901D4901980968B1FB47
:10198000F0F01C4948431A490968B1FBF0F0401EC9
:1019900080B2ADF8200000208DF82A0008A94FF091
:1019A0008040FFF78FFF4FF08040808940F00100BA
:1019B0004FF0804188811C208DF81C0001208DF89B
:1019C0001F0000208DF81D008DF81E0007A8FFF7EE
:1019D0001BFD4FF08040008840F001004FF0804137
:1019E00008800BB000BD00000000000080842E4184
:1019F000CC01002040420F0010B5FFF7A5FF0120E9
:101A00000149087010BD00002C0200201CB5002008
:101A1000022103460246CDE900100121014800F0F1
:101A20006BF91CBD000002401CB5032000210B46D1
:101A30000122CDE900104FF47041044800F05CF938
:101A40004FF4704001491A3108801CBD000C02405F
:101A500001460A1102EB8202500001F00F0202441B
:101A6000D0B270470146002300220A2091FBF0F01B
:101A7000C2B202EB8200A1EB4000C3B243EA021003
:101A8000C0B2704703468B4201DA08467047934262
:101A900001DD1046FAE71846F8E710B5042000F01B
:101AA00001F810BD70B505460DB9902412E0012D66
:101AB00001D191240EE0022D01D192240AE0032DE0
:101AC00001D1932406E0042D01D1802402E0052DEC
:101AD00000D1002423460722D021024800F080FBD9
:101AE00070BD0000005400403EB50446072001AB25
:101AF0000022D0210090134800F0A8FA9DF80400BD
:101B0000FFF7A6FF20709DF80500FFF7A1FF6070AA
:101B10009DF80600FFF79CFFA0709DF80700FFF7F7
:101B200097FFE0709DF80800FFF792FF20719DF885
:101B30000900FFF78DFF60719DF80A00FFF788FF2D
:101B4000A0713EBD0054004010B5074A012107486E
:101B500000F0BEF9D021054800F045FA08B902208E
:101B600010BD0020FCE70000A086010000540040EA
:101B70003EB5044620783B220021FFF783FF05464F
:101B8000FFF770FF8DF8040060783B220021FFF71B
:101B900079FF0546FFF766FF8DF80500A07817224C
:101BA0000021FFF76FFF0546FFF75CFF8DF8060089
:101BB000E07807220121FFF765FF0546FFF752FF96
:101BC0008DF8070020791F220121FFF75BFF0546F2
:101BD000FFF748FF8DF8080060790C220121FFF71C
:101BE00051FF0546FFF73EFF8DF80900A0796322FB
:101BF0000021FFF747FF0546FFF734FF8DF80A0085
:101C0000072001AB0022D0210090024800F018FB11
:101C10003EBD00000054004001464FF40030081A59
:101C2000C0F38F207047000000B502461046FFF752
:101C3000F3FF012101FA00F0024909680843014954
:101C4000086000BD303802402DE9F04304460E46DE
:101C50001546DDE907892046FFF7DEFFC7B20022FF
:101C600043E001209040304000B93CE0214830F88A
:101C700017000121914008431E4921F81700E06830
:101C80004FEA420C032101FA0CF18843510008FA93
:101C900001F10843E06020684FEA420C032101FA99
:101CA0000CF18843510005FA01F108432060012D31
:101CB00001D0022D16D161680120904080B221EA46
:101CC000000003FA02F189B208436060A0684FEA9D
:101CD000420C032101FA0CF18843510009FA01F189
:101CE0000843A06000BF501CC2B2102AB9DBBDE897
:101CF000F08300009C0D00202DE9FC4305460C46B6
:101D000016461F46DDE909890CB9BDE8FC83284663
:101D1000FFF78AFF3B46324621462846CDE9008937
:101D2000FFF792FF00BFF0E72DE9FC4705460E469E
:101D300017469846DDE90A9A0EB9BDE8FC872846A1
:101D4000FFF772FF00241AE00120A040304000B9E4
:101D500014E0E10805F1200050F821006107CA0EE7
:101D60000F21914088436107C90E0AFA01F1084327
:101D7000E20805F1200141F8220000BF641C102C8C
:101D8000E2D33B46022231462846CDE90089FFF7DF
:101D90005BFF00BFD1E700001CB504464CB904202E
:101DA00001210B460A46CDE90010C0211148FFF77A
:101DB000BBFF012C0AD1042001210B460A46CDE9C4
:101DC00000104FF440710B48FFF7AEFF022C0AD110
:101DD000042001210B460A46CDE900104FF4107192
:101DE0000448FFF7A1FF032C03D10421024800F0AF
:101DF000F9F81CBD00040240005400401CB5044624
:101E000054B9042001210B460A46CDE900104FF4D5
:101E100040611148FFF788FF012C09D104200121FE
:101E20000B460A46CDE9001003210C48FFF77CFF62
:101E3000022C09D1042001210B460A46CDE90010ED
:101E400030210748FFF770FF032C03D10421054818
:101E500000F0C8F81CBD000000040240001402405D
:101E6000001C0240005800401CB504469CB90420E8
:101E700001210B460A46CDE9001081011048FFF709
:101E800053FF042001210B460A46CDE90010C10191
:101E90000C48FFF749FF012C0AD1042001210B4611
:101EA0000A46CDE900104FF4C0710748FFF73CFF28
:101EB000032C03D10421054800F094F81CBD000058
:101EC0000000024000080240001C0240005C00408C
:101ED0007FB504460E4615463D48844221D13D4813
:101EE000006840F400103B4908603046FFF754FF9B
:101EF00039480068A84201D937480560364800686B
:101F000000904FF48040ADF80C000020ADF80400C4
:101F1000ADF80800ADF80A004BF6FF70ADF806000A
:101F200048E02E48844221D12A48006840F48000CD
:101F3000284908603046FFF761FF27484068A842FB
:101F400001D9254845602448406800904FF48040FE
:101F5000ADF80C000020ADF80400ADF80800ADF8B5
:101F60000A004BF6FF70ADF8060023E01C488442DF
:101F700020D11848006840F4000016490860304637
:101F8000FFF772FF14488068A84201D912488560A3
:101F90001148806800904FF48040ADF80C0000209C
:101FA000ADF80400ADF80800ADF80A004BF6FF707C
:101FB000ADF80600208820F0010020806946204608
:101FC000FEF78EFD208840F0010020807FBD0000DC
:101FD00000540040403802401002002000580040E9
:101FE000005C0040704770B504460D460026012392
:101FF00000222946204600F07BF800B90126204641
:1020000000F0CEF8304670BD70B50446208840F42C
:102010008060208044F620600A49086007E0094893
:102020000068401E0749086008B9012070BD0649D4
:102030002046FEF73FFD0028F1D0208AC5B2284691
:10204000F4E700000C020020400003002DE9F047F7
:102050008046894616461D46089F012300224946B0
:10206000404600F045F83146404600F0D3F80123E1
:102070001A464946404600F03BF800240DE0781E21
:10208000A04204D1404600F00DF8285503E0404638
:10209000FFF7BAFF2855601CC4B2BC42EFDBBDE8B5
:1020A000F087000070B50446208820F4806020800E
:1020B000208840F40070208044F620600A490860BF
:1020C00007E009480068401E0749086008B9012078
:1020D00070BD06492046FEF7EDFC0028F1D0208AAD
:1020E000C5B22846F4E700000C02002040000300BF
:1020F0002DE9F04104460D4616461F46208840F45F
:102100008070208044F620602349086008E022485F
:102110000068401E2049086010B90120BDE8F08128
:10212000A08A00F001000028F1D01FB1208840F4FF
:1021300080602080A6B925F00100208244F620604E
:102140001549086007E014480068401E12490860FD
:1021500008B90120E2E7A08A00F002000028F2D0CE
:10216000012E15D145F00100208244F620600A4975
:10217000086007E008480068401E0749086008B981
:102180000120CBE705492046FEF794FC0028F1D05A
:10219000208B0020C2E700000C0200200200030098
:1021A000014644F620600D4A106007E00B480068C5
:1021B000401E0A4A106008B901207047888A00F062
:1021C00080000028F2D0888A00F004000028EDD0BA
:1021D000088840F4007008800020EEE70C02002020
:1021E0002DE9F04106460F4614461D4600231A46C7
:1021F00039463046FFF77CFF2146304600F00AF8AA
:102200002946304600F006F83046FFF7C9FFBDE822
:10221000F081000044F62062084B1A6004E0074A8F
:102220001268521E054B1A60828A02F080021AB9A7
:10223000024A1268002AF2D1018270470C02002083
:102240002DE9F0470746884615461E46DDF82090E2
:1022500000231A4641463846FFF74AFF29463846CA
:10226000FFF7D8FF002405E0315D3846FFF7D2FFC5
:10227000601CC4B24C45F7DB3846FFF791FFBDE860
:10228000F08770477047704701464948814205D141
:102290004848006840F00100464A1060B1F1804FA4
:1022A00007D14448001F006840F00100414A121F56
:1022B00010604148814207D13E48001F006840F04D
:1022C00002003C4A121F10603C48814207D1394845
:1022D000001F006840F00400364A121F10603848A2
:1022E000814207D13348001F006840F00800314A9E
:1022F000121F10603348814207D12E48001F00682A
:1023000040F010002B4A121F10602F48814207D165
:102310002848001F006840F02000264A121F106065
:102320002A48814205D12348006840F00200214A32
:1023300010602748814205D11E48006840F4803073
:102340001C4A10602348814205D11A48006840F4B5
:102350000030184A10602048814205D115480068B5
:1023600040F48020134A10601C48814207D1114874
:10237000001F006840F040000E4A121F106018480D
:10238000814207D10B48001F006840F08000094AD5
:10239000121F10601348814207D10648001F0068D1
:1023A00040F48070034A121F106000207047000044
:1023B0000000014044380240000400400008004092
:1023C000000C0040001000400014004000040140D8
:1023D0000040014000440140004801400018004016
:1023E000001C00400020004010B52DED068B044677
:1023F000B0EE408AF0EE608A2068FDF7CCFF41EC39
:10240000190B53EC182BFDF7EDFF07D200202061CC
:10241000E06060610320BDEC068B10BD9FED250BD5
:1024200053EC102B51EC180BFDF7DCFF05D100200D
:102430002061E06060610420EDE76068B0F5803FF6
:1024400002D26068401C60600020206100BF2069EB
:10245000401C2168B1FBF0F0E060E068FDF79BFFF5
:1024600041EC1A0B53EC182BFDF726FF41EC190B2E
:10247000FDF79EFFE0602069401C20616168E06814
:10248000884204D9A068401C21698142DFD9A06834
:10249000401C2169814205D900202061E060606113
:1024A0000420B8E751EC180BFDF782FF60610020B3
:1024B000B1E7000000000000000000007FB5044606
:1024C0000D466846FFF712F84FF6FF70A860B4F1AA
:1024D000804F02D01F48844207D1039828604FF0F4
:1024E000FF306860002004B070BD1B4884420BD0F0
:1024F0001A48844208D01A48844205D019488442B8
:1025000002D01948844206D1019828604FF6FF7026
:1025100068600020E7E71548844211D014488442DF
:102520000ED0144884420BD01348844208D013487C
:10253000844205D01248844202D01248844206D117
:10254000039828604FF6FF7068600020CBE70220F8
:10255000C9E70000000C00400000014000040140F9
:102560000040014000440140004801400004004098
:102570000008004000100040001400400018004017
:10258000001C004000200040C28883889A420EDA76
:10259000028983889A4201D100220281038902685C
:1025A000D1540289521C0281C288521CC2807047D9
:1025B00000B50648008800F0200030B10348001D37
:1025C0000088C1B20248FFF7DFFF00BD004C0040A9
:1025D0006002002000B50648008800F0200028B105
:1025E00003488088C1B20348FFF7CEFF00BD00005A
:1025F000005000407002002000B50648008800F03E
:10260000200028B103488088C1B20348FFF7BCFF0F
:1026100000BD0000001001403002002000B5064857
:10262000008800F0200030B10348001D0088C1B2CE
:102630000248FFF7A9FF00BD00440040400200200F
:1026400000B50648008800F0200030B10348001DA6
:102650000088C1B20248FFF797FF00BD0048004064
:102660005002002000B50648008800F0200030B17C
:102670000348001D0088C1B20248FFF785FF00BD76
:10268000001401408002002000BFFEE70FB4084B99
:1026900010B504A902AA039800F01CF8044602A988
:1026A000002000F0B8F9204610BC5DF814FB0000D3
:1026B000172A000802E008C8121F08C1002AFAD130
:1026C00070477047002001E001C1121F002AFBD1B2
:1026D000704700002DE9FF4F8BB088460546002665
:1026E00006E025280BD0DDE90D1290476D1C761C05
:1026F00028780028F5D10FB03046BDE8F08F0024CF
:10270000A146A2460122AE4900E0044315F8013F6C
:10271000203B02FA03F00842F7D128782A2810D08B
:102720006FF02F022878A0F13001092915D809EBA4
:10273000890102EB410144F0020400EB01096D1C28
:10274000F0E758F8041B5FEA010903D544F400548C
:10275000C9F1000944F002046D1C28782E2817D115
:1027600015F8010F44F004042A280ED06FF02F0250
:102770002878A0F1300109290AD80AEB8A0102EB76
:10278000410100EB010A6D1CF2E758F804AB6D1C27
:1027900028786C280FD006DC4C2817D068280DD07C
:1027A0006A2814D104E0742810D07A280FD10DE0E3
:1027B00044F400140AE044F4801401E044F44014AA
:1027C0006978814202D104F580146D1C6D1C287853
:1027D000692865D006DC00288DD0632827D06428BE
:1027E00006D15DE06E2808D073282AD0752877D0EE
:1027F000DDE90D129047761CE0E0C4F30250022898
:1028000009D003280DD0D8F8001004280DD00E6090
:1028100008F10408D2E0D8F80010F217C1E900620C
:10282000F6E7D8F800100E80F2E70E70F0E718F81F
:10283000041B8DF8001000208DF80100EB460120EC
:1028400003E058F804BB4FF0FF3061074FF000077A
:1028500001D40AE07F1C57450DDA8742FADB1BF8EA
:1028600007100029F6D106E07F1C8742FCDB1BF82D
:1028700007100029F8D1DDE90D23A9EB07008146F7
:10288000214600F0B1F83044C61904E0DDE90D122C
:102890001BF8010B90477F1EF8D22146484688E07E
:1028A00058F8040BC4F302514FF00A0B032900D16E
:1028B00000B2042900D140B2002802DA40422D21A2
:1028C00002E0210505D52B218DF82410012104E01B
:1028D00006E0E10710D02021F6E708AF089113E0E9
:1028E00058F8040BC4F302514FF00A0B032900D12E
:1028F00080B2042900D1C0B20021EEE75946FDF7AD
:1029000089FD303107F8011D0028F7D1ADEB070034
:1029100000F1200B600702D524F4803401E04FF071
:10292000010ADA4502DDAAEB0B0000E00020824636
:1029300000EB0B0108980144A9EB01000A90E003A9
:1029400006D4DDE90D2321460A9800F04DF806442F
:102950004FF0000908E009A911F80900DDE90D129E
:10296000904709F10109761C08998945F3DBE003DA
:102970000CD5DDE90D2321460A9800F035F8064410
:1029800004E0DDE90D1230209047761CBAF1000119
:10299000AAF1010AF5DC05E0DDE90D1217F8010BDB
:1029A0009047761CBBF10001ABF1010BF4DC0A98F7
:1029B0002146DDE90D2300F005F806446D1C97E67D
:1029C000092801002DE9F041044600251E4617465E
:1029D000880404D405E039462020B0476D1C641EED
:1029E000F9D52846BDE8F0812DE9F04104460025DF
:1029F0001E469046C80301D5302700E020278804F2
:102A000004D505E041463846B0476D1C641EF9D533
:102A10002846BDE8F0810A68531C0B6010707047AF
:102A200001200549096809B1002003E0034909684C
:102A300001B1002070470000180F0020B4020020F0
:102A400010B50446002C3AD0FEF7ACFEFEF7ECFFC2
:102A5000FEF7DCFFFEF7D0FFFEF7CCF9FDF7ACFD8B
:102A600000F06CF80020FEF7B7F800F053F9FFF71C
:102A70006BF818B14FF470401249088010201249C9
:102A8000887021204870142008700B2008710820DD
:102A9000C87009204871102088710846FFF768F84F
:102AA000FEF7FBFF0120FEF7FDFF0748FFF71CF8CC
:102AB00000F0D4F800200549487088708870012023
:102AC00010BD0000180C024020010020C8010020A9
:102AD0001FB500200D4A0223CDE901200093039089
:102AE000034680220AA10E4801F018FB00200D4A7F
:102AF0000123CDE9012000930390034680220AA11F
:102B00000D4801F00BFB012004B010BDC0010020F6
:102B1000764441325F5265616453656E736F720033
:102B200049350008C4010020764441325F53686F84
:102B3000774C434400000000853500081CB5102088
:102B4000FEF742F84FF47840FEF700FC2A48FEF703
:102B5000CBFF2948807900F5FA6027494979274A4F
:102B600052F82110CDE9001023480379C078244998
:102B700051F8202023A12748FFF788FD254AE621A8
:102B80005620FEF7EBFB1020FEF71EF822480278D5
:102B900022A12048FFF77AFD1E4A4FF49971862042
:102BA000FEF7DCFB1C48827820A11A48FFF76EFD77
:102BB000184A78218620FEF7D1FB174842781FA1DA
:102BC0001448FFF763FD134A4FF49971A820FEF7EC
:102BD000C5FB1D48007A1D4951F820201CA10D4855
:102BE000FFF754FD0B4A7821A820FEF7B7FB00F051
:102BF00035F801201CBD00002001002054010020F8
:102C00003401002025732C253032642C25732C25AB
:102C100030346400700C0020C801002054656D70D1
:102C2000657261747572653A2564000048756D6956
:102C3000646974793A253032640000004C69676831
:102C4000743A20256400000004030020880100205D
:102C500043757272656E743A257300001CB54FF4AB
:102C6000FC60FEF773FB1820FDF7AEFF1E480078EE
:102C700000901D48437882781CA12048FFF706FD8C
:102C80001E4AEB213E20FEF769FB1748807848BBBF
:102C90001548407830BB1448007818BB4FF4A05357
:102CA0001A1156210020FDF7ABFF1020FDF78CFF15
:102CB0000D48807900F5FA600B494979104A52F8BD
:102CC0002110CDE9001008480379C0780D4951F86A
:102CD00020200DA10948FFF7D9FC084AE62156201B
:102CE000FEF73CFB01201CBD200100202530326492
:102CF0003A253032643A253032640000700C0020EE
:102D0000540100203401002025732C25642C2573E8
:102D10002C25640010B54FF40C534FF4A0720E2113
:102D20000020FDF76DFF0020FEF7FCFA1F20FEF7E4
:102D30000DFB1020FDF748FF0BA24FF491710E2000
:102D4000FEF70CFB11A240F213111C20FEF706FB4C
:102D50004FF47840FEF7FAFA14A2F0212A20FEF789
:102D6000FDFA012010BD0000554E49564552534909
:102D70005459204F4620494E464F4D4154494F4EDD
:102D800020544543484E4F4C4F4759004641435508
:102D90004C5459204F4620434F4D505554455220D6
:102DA000454E47494E454552494E4700455F4445CB
:102DB000534B00000120FFF743FEFFF789FE08B1E7
:102DC00000F096FE00BFFEE710B504460E4800680E
:102DD00044600E480068844207D20B480168091D10
:102DE0000B48006800F032FC0CE007480168091D40
:102DF0000848006800F02AFC07480068844201D2B5
:102E00000548046010BD000090020020A0020020D0
:102E10009802002094020020C002002070B50546F0
:102E20000E46482000F010FB044694B11EB9A800DD
:102E300000F00AFB00E030462063206B20B92046FA
:102E400000F04AFC002404E0A900A522206BFDF755
:102E500021FA204670BD000010B500F01DFC0C48A2
:102E6000006890B90B4800F0E1FB0B4800F0DEFB76
:102E700008480A49086008480949086000220C21EE
:102E80000A2000F027FF0249086000F015FC10BD81
:102E9000FC020020403B0120543B0120F4020020B2
:102EA000F8020020704770B504460D46206870B1E6
:102EB000216CE0680844E0606168E068884201D302
:102EC0002068E0602846226CE168FDF7D1F970BD0A
:102ED00070B504460E461546206C38B9206870BBA4
:102EE000606800F089FD0020606028E07DB931460F
:102EF000226CA068FDF7BCF9216CA0680844A060B2
:102F0000D4E9011088421AD32068A06017E0314646
:102F1000226CE068FDF7ACF9216CE068401AE060D3
:102F20002168E068884203D2216C6068401AE06042
:102F3000022D04D1A06B10B1A06B401EA063A06B4A
:102F4000401CA06370BD000008490968C96A09B146
:102F500000200AE006490968012901D9002004E09F
:102F600004490968044A1268881A704790020020D0
:102F70008C0E0020C0020020A00200200146084A5A
:102F8000126812680AB9012200E000220A600A6889
:102F900022B9034A1268D268106800E00020704726
:102FA000F4020020094A22F00700094A10600022BA
:102FB000074B5A60074A084B5A6000221A600146C4
:102FC000044A4A601A460A6070470000480F002011
:102FD000DC020020F82B0100E402002000BFFFF714
:102FE00061FF13480068012801D900F071FCFFF768
:102FF000ABFF0446022C19D300F0C6FD0D48006853
:103000000D490968884201D3012000E0002018B969
:10301000FDF70EF900BFFEE7FFF796FF0446022C0E
:1030200002D3204600F0A6FB01F01AFAD7E7000011
:103030008C0E0020C0020020A00200202DE9F047E5
:1030400004460F4615469946DDF82080002607E025
:10305000B95D04F134008155B85D00B902E0761C19
:10306000102EF5D300BF002143200155052D00D3BC
:103070000425E5626564201D00F0E5FA04F11800FE
:1030800000F0E1FA2461C5F10500A0616462BDE8C9
:10309000F087000010B5002407E004EB84010D4A1E
:1030A00002EB810000F0C2FA641C052CF5D30A483B
:1030B00000F0BCFA094800F0B9FA094800F0B6FA85
:1030C000084800F0B3FA0448074908600348074974
:1030D000086010BD8C0E0020F00E0020040F0020B0
:1030E000180F00202C0F00209402002098020020CE
:1030F0002DE9F04104460D4616461F464FF00008E4
:1031000065602461B5420CD8F01BA169884202D3E6
:103110004FF0010811E0211D0948006800F096FAFF
:103120000BE0BE4204D2BD4202D34FF0010804E0DE
:10313000211D0448006800F089FA4046BDE8F0818E
:10314000F8020020F402002070B5054600F0A4FA51
:10315000A86B08B9012400E0002400F0ADFA204675
:1031600070BD70B5054600F097FAA86BE96B884210
:1031700001D1012400E0002400F09EFA204670BD39
:10318000F8B505460F4613480068C068C468201D9E
:1031900000F0C6F9E069012817D1A06941192B4652
:1031A0003A462046FFF7A4FF01280ED1002003462F
:1031B0002A4601460090204601F0EEF906461EB967
:1031C000FDF736F800BFFEE700BF2046616A88477A
:1031D000F8BD0000F402002070B586B053E0059CF5
:1031E000606908B9012000E0002010B9201D00F03E
:1031F00097F902A800F07AF80546039830B1012843
:1032000026D0022825D003283BD136E00498A269B5
:10321000811803462A462046FFF76AFF012816D187
:103220002046616A8847E069012810D1002000909B
:103230000498A169421800231946204601F0ACF910
:1032400006461EB9FCF7F4FF00BFFEE700BF19E019
:1032500018E00498A061A06908B1012000E00020F6
:1032600018B9FCF7E5FF00BFFEE7A06941192B463E
:103270002A462046FFF73CFF04E0204600F02CFAE7
:1032800000E000BF00BF00231A4603A903480068FE
:1032900000F04BFD0028A2D106B070BDFC0200205A
:1032A000F8B504460E4600F06FFC684600F01EF8C4
:1032B00005460098A0B946B9AC4206D801F0D0F84E
:1032C00029462046FFF75CFF0CE0611B06480068BA
:1032D00000F00AFB01F0C4F820B900F0F9FA01E0AF
:1032E00001F0BEF8F8BD0000FC02002070B50446F5
:1032F00000F0C2FF054608480068854206D206482D
:10330000006800F00BF80120206001E00020206040
:1033100001480560284670BD000300202DE9F843F0
:1033200081462BE020480068C06805681E48006898
:10333000C068C468201D00F0F3F82046616A884721
:10334000E06901281AD1A0694619AE4207D9666022
:103350002461211D1448006800F078F90EE0002077
:1033600003462A4601460090204601F015F907461B
:103370001FB9FCF75DFF00BFFEE700BF0A48006809
:10338000006808B9012000E000200028CAD00648E3
:10339000D0F8008005480068034908600348C0F879
:1033A0000080BDE8F8830000F4020020F80200204D
:1033B00008B500BF6846FFF7E1FD044620460099C6
:1033C000FFF76EFFFFF708FFF4E710B5044600F0C3
:1033D00063F911E0606A08B9012000E0002038B903
:1033E00004F1240000F0FCFF18B100F0B7FA00E08F
:1033F00005E0A06C401EA064A06C0028EADC00BFC1
:103400004FF0FF30A06400F057F900F045F911E0EB
:10341000206908B9012000E0002050B904F1100033
:1034200000F0DEFF08B100F099FA606C401E6064A5
:1034300000E002E0606C0028EADC00BF4FF0FF30E3
:10344000606400F039F910BD2DE9F04104464FF0F9
:10345000000800F099FB2548006820B9FFF7A2FD9D
:1034600001202249086044B1083404F0070020B16B
:1034700004F00700C0F108000444002C31D01C48BF
:1034800084422ED21B4F3846056801E02F462D6836
:103490006868A04202D228680028F7D11648854201
:1034A0001FD0386800F10808286838606868001B79
:1034B000102810D92E196868001B70606C60716844
:1034C0000C4800E00068026852688A42FAD3026839
:1034D0003260066000BF094968680968081A074930
:1034E000086000F0BDFF4046BDE8F081F00200201A
:1034F000F82B0100DC020020E4020020EC02002096
:10350000001F4FF080730360001F0160001F002345
:10351000036014380260001FDB1E03602038704710
:103520000146D1E901309860D1E9010358600A6988
:103530005068884201D18868506000200861106896
:10354000401E10601068704700BF4FF4967000F086
:10355000E9F90948006880F4005007490860FDF760
:10356000F9F806498870FDF7FBF80449087004482B
:10357000FEF7BAFAE9E70000140C0240C801002087
:103580002001002000BF4FF4967000F0CBF910200E
:10359000FDF71AFB4FF47840FDF7D8FE164AE621F6
:1035A0005620FDF7DBFE1020FDF70EFB13480278D6
:1035B00013A11148FFF76AF80F4A4FF4997186205A
:1035C000FDF7CCFE0D48827811A10B48FFF75EF89D
:1035D000094A78218620FDF7C1FE0848427810A1EB
:1035E0000548FFF753F8044A4FF49971A820FDF7F6
:1035F000B5FEFFF733FBC6E7700C0020C8010020C2
:1036000054656D70657261747572653A2564000069
:1036100048756D69646974793A2530326400000038
:103620004C696768743A20256400000000F10801C5
:1036300041604FF0FF31816000F10801C16001611C
:1036400000210160704700210161704710B50246FA
:103650000B685C1C0CB9106907E002F1080000E07F
:103660004068446824689C42FAD944684C604C68BD
:10367000A160886041600A611468641C146010BD18
:1036800042684A6093688B609368596091600861F2
:1036900003685B1C0360704710B5FCF7C9FD054863
:1036A0000068401C03490860BFF34F8FBFF36F8F62
:1036B00010BD0000C402002010B506480068401E7E
:1036C000044908600846006810B90020FCF7B7FDFF
:1036D00010BD0000C402002070B506463546B6B1E4
:1036E000083D2C4600F050FA6168094800E0006887
:1036F000026852688A42FAD302682260046005496F
:103700006068096808440349086000F0A9FE70BDBC
:10371000DC020020EC020020124800684FF47A71AD
:10372000B0FBF1F010490860084600686FF07F4177
:10373000B1FBF0F00D4908600A480068B0FBF0F0FA
:103740002D21B1FBF0F00A490860064800684FF4EB
:103750007A71B0FBF1F0401E4FF0E0214861072084
:1037600008617047CC010020C8020020CC02002074
:10377000D00200202DE9F04104463B480068844215
:1037800001D93948046806204FF0E0210861084655
:103790008169601E354A126802FB001534480068D2
:1037A000854202D9324800682D1A72B6FFF738F9FF
:1037B00028B907204FF0E021086162B651E04FF0D0
:1037C000E020456100204FF0E0218861072008617A
:1037D000A046B8F1000F04D0BFF34F8F30BFBFF346
:1037E0006F8F06204FF0E021086162B64FF0E020B5
:1037F000006900F4803060B11C480068401E4FF042
:10380000E0218969691A401A4FF0E0214861661E7B
:1038100012E01648006860434FF0E0218969471ABA
:1038200012480068B7FBF0F6701C1049096848435D
:10383000C01B4FF0E021486100204FF0E02188617B
:10384000FFF72AFF07204FF0E0210861304600F023
:103850007FF906480068401E4FF0E0214861FFF7FD
:103860002BFFBDE8F0810000CC020020C802002040
:10387000D002002070B5FCF7E5FC0546102D0FD3F3
:1038800005F1E02090F8F0430E480078844201DB17
:10389000012000E0002018B9FCF7CAFC00BFFEE7D9
:1038A0000948006800F4E06008490968884201D8C6
:1038B000012000E0002018B9FCF7BAFC00BFFEE7C9
:1038C00070BD0000D40200200CED00E0D802002002
:1038D0004FF0805003490860BFF34F8FBFF36F8FE5
:1038E0007047000004ED00E070B505460E462C461A
:1038F000FFF7D2FE606C401C08B900206064A06C29
:10390000401C08B90020A064FFF7D6FEA06B20B9C8
:10391000314604F1240000F051F82046FFF755FD30
:1039200070BD000070B5044600267CB100F02CF993
:1039300008480068051908480068001DFFF7F0FDF9
:103940002846FFF741FA00F08BFD06460EB9FFF757
:10395000BFFF70BDA002002090020020012001499D
:1039600008607047B402002070B505460C461DB9CA
:10397000FCF75EFC00BFFEE70D48016818312846E1
:10398000FFF764FE0A480068001DFFF7C9FD601CD0
:1039900030B907480168091D0648FFF771FE05E0C8
:1039A0000548006806193046FFF70EFA70BD0000A2
:1039B000900200202C0F0020A002002070B50446C9
:1039C0000D461CB9FCF734FC00BFFEE7084801684F
:1039D00018312046FFF754FE05480068001DFFF728
:1039E0009FFD0448006846193046FFF7EDF970BDA9
:1039F00090020020A002002070B505462C46EDB1D3
:103A0000616CE06A884219D0201DFFF789FD606C67
:103A1000E062E06AC0F10500A0610949E06A096856
:103A2000884202D90649E06A0860E16A01EB810137
:103A3000044A02EB8100211DFFF722FE70BD000049
:103A4000A40200208C0E002070B505462C4685B3DC
:103A50001B49E06A0968C96A88422FD21848006881
:103A6000C06AC0F10500A061E16A01EB8101154A5D
:103A700002EB81016069884201D1012000E0002051
:103A8000C0B1201DFFF74CFD0D480068C06AE06220
:103A90000D49E06A0968884202D90B49E06A08606A
:103AA000E16A01EB8101074A02EB8100211DFFF76A
:103AB000E7FD03E002480068C06AE06270BD0000F4
:103AC000900200208C0E0020A402002010B50446B5
:103AD0001CB9FCF7ADFB00BFFEE70348006820609F
:103AE00002480068606010BDB8020020A0020020FB
:103AF0001FB50020009001900290034680220FA184
:103B00000390104800F00AFB0446012C02D100F09B
:103B10001DFD0446012C0AD1FCF78AFB01200A494D
:103B2000086000200949086000F07AF804E01CB938
:103B3000FCF77EFB00BFFEE71FBD000049444C457B
:103B400000000000DD2F0008A8020020A0020020D5
:103B500010B504460A48006820440A4909688842AA
:103B600001D8012000E0002018B9FCF761FB00BF7C
:103B7000FEE70348006820440149086010BD0000CA
:103B8000A0020020C002002002480068401C014939
:103B900008607047AC02002010B51C48006818B1DE
:103BA00001201B49086030E00BE01A48006818B992
:103BB000FCF73EFB00BFFEE716480068401E1549B3
:103BC00008601448006800EB8000134951F8200099
:103BD00008B9012000E000200028E6D10D4909685D
:103BE00001EB81010C4A02EB8100416849684160A8
:103BF00000F1080142688A4202D141684968416087
:103C00004168C968054A116000BF10BDAC020020C0
:103C1000B4020020A40200208C0E0020900200209C
:103C20001CB52648014609780191FF210246117012
:103C30000146097800919DF8001001F05001204ADA
:103C4000117007211F4A116009E01E490968491EC9
:103C50001C4A11609DF800104906090E00919DF85C
:103C6000001001F080018029EFD01649096809028F
:103C7000144A11601146098801F4E06111600F4A8D
:103C8000019911701048006840F470000E490860F6
:103C90000846006840F070400860FFF73DFD0020D6
:103CA0000A490860FCF792FA0948006840F0404071
:103CB00007490860FCF780FA00201CBD00E400E022
:103CC000D4020020D802002020ED00E0C402002031
:103CD00034EF00E02DE9F04705460E4691464FF0DF
:103CE0000008C5B14C20FFF7AFFB04469CB105FBB3
:103CF00006F0471C3846FFF7A7FB2060206838B164
:103D0000E56326640121204600F0AFF8A04602E0FA
:103D10002046FFF7E1FCB8F1000F03D1FCF788FA69
:103D200000BFFEE74046BDE8F0872DE9FF4383B0C2
:103D300005460E461F464FF000092C461CB9FCF7FD
:103D400077FA00BFFEE70EB9206C08B9012000E049
:103D5000002018B9FCF76CFA00BFFEE700BFFFF7C0
:103D60009BFCA06B90B3D4F80C8031462046FFF743
:103D70009AF8B7B9A06B401EA063206810B900F094
:103D800065FA6060206908B9012000E00020B8B938
:103D900004F1100000F024FB012811D1FFF798FD79
:103DA0000EE0C4F80C80606A08B9012000E0002031
:103DB00030B904F1240000F013FB08B1FFF788FDCF
:103DC000FFF77AFC012007B0BDE8F083FFE7059814
:103DD00018B9FFF771FC0020F5E7B9F1000F04D125
:103DE00001A8FFF773FE4FF00109FFF765FCFFF72D
:103DF000CBFEFFF751FC606C401C08B900206064EA
:103E0000A06C401C08B90020A064FFF755FC05A970
:103E100001A800F049F908BB2046FFF795F9B8B1B1
:103E2000206830B9FFF738FC6068FFF70DFEFFF738
:103E300043FC04F124000599FFF796FD2046FFF7A7
:103E4000C4FA00F00DFB002889D1FFF741FD86E799
:103E50002046FFF7BAFA00F003FB80E72046FFF7A1
:103E6000B4FA00F0FDFA0020ADE770B505460E4645
:103E70002C461CB9FCF7DCF900BFFEE7FFF70CFC91
:103E8000D4E90F12206801FB020060600020A063EB
:103E90002068A060E06B401E226C216800FB0210CD
:103EA000E0604FF0FF306064A06476B9206908B923
:103EB000012000E0002080B904F1100000F090FA29
:103EC00001280AD1FFF704FD07E004F11000FFF715
:103ED000ADFB04F12400FFF7A9FBFFF7EDFB012088
:103EE00070BD2DE9FF4182B006460F461D464FF0DA
:103EF000000834461CB9FCF79BF900BFFEE70FB978
:103F0000206C08B9012000E0002018B9FCF790F9F6
:103F100000BFFEE7022D02D1E06B012801D1012094
:103F200000E0002018B9FCF783F900BFFEE700BFEE
:103F3000FFF7B2FBA06BE16B884201D3022D18D1D1
:103F40002A4639462046FEF7C3FF606A08B90120B9
:103F500000E0002038B904F1240000F041FA012803
:103F600001D1FFF7B5FCFFF7A7FB012006B0BDE8C4
:103F7000F081049818B9FFF79FFB0020F6E7B8F12D
:103F8000000F04D16846FFF7A1FD4FF00108FFF7CD
:103F900093FBFFF7F9FDFFF77FFB606C401C08B94E
:103FA00000206064A06C401C08B90020A064FFF7EA
:103FB00083FB04A9684600F077F8C0B92046FFF7F4
:103FC000D0F870B104F110000499FFF7CDFC204641
:103FD000FFF7FBF900F044FA0028A9D1FFF778FCBD
:103FE000A6E72046FFF7F1F900F03AFAA0E72046ED
:103FF000FFF7EBF900F034FA0020B7E72DE9F047BE
:104000000646894617461D4634461CB9FCF710F98A
:1040100000BFFEE7B9F1000F01D1206C08B9012003
:1040200000E0002018B9FCF703F900BFFEE7022DFD
:1040300002D1E06B012801D1012000E0002018B975
:10404000FCF7F6F800BFFEE7FFF714FCFCF7F0F80A
:104050008246A06BE16B884201D3022D1CD12A4617
:1040600049462046FEF734FFA06C401C70B9606AD8
:1040700008B9012000E0002058B904F1240000F044
:10408000AFF930B12FB10120386002E0A06C401CC4
:10409000A0644FF0010801E04FF000085046FCF723
:1040A000CEF84046BDE8F0872DE9F04104460D46C4
:1040B0001CB9FCF7BDF800BFFEE71DB9FCF7B8F866
:1040C00000BFFEE7FFF7E8FA124807682868401CBF
:1040D00008B9002619E0104920680968884204D010
:1040E0006068B84201D801260FE06068381A296874
:1040F000884209D228686168791A401A28602046E7
:10410000FFF7E4FC002600E00126FFF7D5FA304671
:10411000BDE8F081A0020020B80200202DE9FF4F89
:1041200081B0804616469A46DDE90E5BB8F1000F75
:1041300003D1FCF77DF800BFFEE7052D01D2012079
:1041400000E0002018B9FCF773F800BFFEE7304626
:104150001099FEF763FE0446002C59D0701E216BA7
:1041600001EB800929F0070909F0070008B90120CF
:1041700000E0002018B9FCF75BF800BFFEE70096EE
:104180002A462046119B0299FEF758FF52464146A7
:104190004846FFF7B5F92060BBF1000F01D0CBF81E
:1041A0000040FFF779FA23480068401C2149086065
:1041B0002148006840B9204804600846006801288A
:1041C0000CD1FEF767FF09E01C48006830B91A48B7
:1041D0000068C06AA84201D81748046018480068FF
:1041E000401C174908601749E06A0968884202D9EB
:1041F0001449E06A0860E16A01EB8101124A02EBAE
:104200008100211DFFF73CFA0127FFF755FA01E075
:104210004FF0FF37012F09D10848006830B1064838
:104220000068C06AA84201D2FFF752FB384605B0C9
:10423000BDE8F08F9C02002090020020A802002020
:10424000BC020020A40200208C0E00200149086856
:1042500070470000900200200549096809B9002054
:1042600005E00449096809B9012000E0022070470F
:10427000A8020020AC02002010B5FFF70DFA034899
:104280000468FFF719FA204610BD0000A0020020C4
:104290002DE9F0414FF0000847480068002874D12C
:1042A00046480068401C45490860084606686EBBE1
:1042B00043480068006808B9012000E0002018B9F0
:1042C000FBF7B6FF00BFFEE73D4807683D480068C2
:1042D0003B4908603B4807603B480068401C3A493E
:1042E000086037480068006808B9012000E0002035
:1042F00020B14FF0FF303549086006E030480068D3
:10430000C068C46831496068086000BF2F48006811
:1043100086423CD300BF2A480068006808B90120E3
:1043200000E0002020B14FF0FF30284908602DE068
:1043300023480068C068C4686568AE4202D223485A
:10434000056023E0201DFFF7EBF8A06A18B104F127
:104350001800FFF7E5F81E49E06A0968884202D9AB
:104360001B49E06A0860E16A01EB8101194A02EB2E
:104370008100211DFFF784F91749E06A0968C96ABD
:104380008842C8D34FF00108C5E70DE000BF1248CE
:104390000068C06A00EB80000E4951F82000012837
:1043A00007D94FF0010804E00C480068401C0B4995
:1043B00008604046BDE8F081AC020020A002002069
:1043C0009402002098020020B8020020C0020020C1
:1043D000A40200208C0E002090020020B0020020D9
:1043E00070B50646F068C4681CB9FBF721FF00BF32
:1043F000FEE704F11800FFF793F814480068A0B92D
:10440000201DFFF78DF81249E06A0968884202D939
:104410000F49E06A0860E16A01EB81010D4A02EB95
:104420008100211DFFF72CF904E004F118010A486E
:10443000FFF726F90949E06A0968C96A884201D389
:10444000012500E00025284670BD0000AC020020D8
:10445000A40200208C0E0020180F002090020020E3
:1044600070B5002500263148006818B9FBF7E0FE5A
:1044700000BFFEE7FFF710F92C480068401E2B49EB
:1044800008600846006800284BD1294800680028C9
:1044900047D021E02748C068C46804F11800FFF73E
:1044A0003FF8201DFFF73CF82349E06A096888427D
:1044B00002D92149E06A0860E16A01EB81011F4AE3
:1044C00002EB8100211DFFF7DBF81D49E06A096856
:1044D000C96A884200D301261648006808B901203D
:1044E00000E000200028D5D01648006868B108E038
:1044F000FFF7CEFE00B1012612480068401E1149A8
:104500000860104800680028F2D1012E03D00E4840
:104510000068012805D1012500200B490860FFF73C
:10452000D7F9FFF7C9F8284670BD0000AC0200209B
:104530009C020020180F0020A40200208C0E0020F6
:1045400090020020B0020020B40200201FB5002419
:10455000FEF782FC0C48006868B100200223CDE918
:104560000030029003464FF4807208A1039009487E
:10457000FFF7D4FD04461CB9FBF75AFE00BFFEE767
:10458000204604B010BD0000FC020020546D7220D3
:1045900053766300B13300082DE9FE4305460E460D
:1045A00017461C46DDF828804FF0000913480068C4
:1045B00008B3009601970295ACB9FFF74DFE0128AC
:1045C00008D10023424669460C480068FFF789FC81
:1045D000814610E000231A46694608480068FFF744
:1045E00080FC814607E000232246694603480068B4
:1045F000FFF704FD81464846BDE8FE83FC0200202B
:1046000000000000000000000000000000000000AA
:10461000000000000000000000000000000000009A
:10462000000000000000000000000000000000008A
:1046300000008001800180018001800180018001F3
:104640008001800180018001800180010000000064
:104650008001800100000000000000000000000058
:1046600000000000CC00CC00CC00CC00CC00CC0082
:10467000000000000000000000000000000000003A
:10468000000000000000000000000000000000002A
:10469000000000000000000000000000600C600C42
:1046A000600C30063006FE1FFE1F30063807180368
:1046B000FE1FFE1F180318038C018C018C010000E3
:1046C00000008000E003F80F9C0E8C1C8C188C00FE
:1046D0009800F801E007800E801C8C188C189C183C
:1046E000B80CF00FE0038000800000000000000024
:1046F0000000000000000E181B0C110C1106110622
:10470000110311039B018E01C038C06C60446044EA
:10471000304430441844186C0C380000000000008D
:104720000000E001F0033807180618063003F00116
:10473000F000F8009C310E33061E061C061C063FD6
:10474000FC73F021000000000000000000000000E9
:10475000000000000C000C000C000C000C000C0011
:104760000000000000000000000000000000000049
:104770000000000000000000000000000000000039
:104780000000000200038001C000C0006000600063
:104790003000300030003000300030003000300099
:1047A00060006000C000C000800100030002000043
:1047B000000020006000C0008001800100030003B1
:1047C00000060006000600060006000600060006B9
:1047D0000003000380018001C00060002000000091
:1047E000000000000000000000000000C000C00049
:1047F000D806F807E0013003380700000000000089
:1048000000000000000000000000000000000000A8
:104810000000000000000000000000008001800196
:10482000800180018001FC3FFC3F8001800180010C
:104830008001800100000000000000000000000076
:104840000000000000000000000000000000000068
:104850000000000000000000000000000000000058
:1048600000008001800100010001800000000000C4
:104870000000000000000000000000000000000038
:104880000000000000000000E007E007000000005A
:104890000000000000000000000000000000000018
:1048A0000000000000000000000000000000000008
:1048B00000000000000000000000000000000000F8
:1048C0000000C000C0000000000000000000000068
:1048D0000000000C000C00060006000600030003A8
:1048E00000038003800180018001C000C000C0007F
:1048F00060006000000000000000000000000000F8
:104900000000E003F007380E180C0C180C180C18F7
:104910000C180C180C180C180C180C18180C380E55
:10492000F007E003000000000000000000000000AD
:10493000000000018001C001F001980188018001A0
:10494000800180018001800180018001800180015F
:104950008001800100000000000000000000000055
:104960000000E003F80F180C0C180C1800180018C1
:10497000000C000600038001C00060003000180039
:10498000FC1FFC1F000000000000000000000000F1
:104990000000E001F807180E0C0C0C0C000C0006CF
:1049A000C003C007000C001800180C180C18180CD5
:1049B000F807E00300000000000000000000000015
:1049C0000000000C000E000F000F800DC00C600CEA
:1049D000600C300C180C0C0CFC3FFC3F000C000C65
:1049E000000C000C000000000000000000000000AF
:1049F0000000F80FF80F180018000C00EC03FC077B
:104A00001C0E001C0018001800180C181C0C180EA6
:104A1000F807E003000000000000000000000000B4
:104A20000000C007F00F381C181818000C00CC0349
:104A3000EC0F3C0E1C1C0C180C180C18181C380E13
:104A4000F007E0030000000000000000000000008C
:104A50000000FC1FFC1F000C000600060003800382
:104A60008001C001C000E000600060007000300004
:104A700030003000000000000000000000000000D6
:104A80000000E003F007380E180C180C180C38065C
:104A9000F007F007180C0C180C180C180C18380C30
:104AA000F80FE0030000000000000000000000001C
:104AB0000000E003F007380E1C0C0C180C180C1842
:104AC0001C1C381EF81BE0190018000C000C1C0EF2
:104AD000F807F001000000000000000000000000E6
:104AE00000000000000000000000000080018001C4
:104AF00000000000000000000000000000000000B6
:104B000080018001000000000000000000000000A3
:104B10000000000000000000000000008001800193
:104B20000000000000000000000000000000000085
:104B300080018001000100018000000000000000F1
:104B40000000000000000000000000000000000065
:104B50000010001C800FE003F8001800F800E003CC
:104B6000800F001C0010000000000000000000008A
:104B70000000000000000000000000000000000035
:104B8000F81F000000000000F81F000000000000F7
:104B90000000000000000000000000000000000015
:104BA0000000000000000000000000000000000005
:104BB00008003800F001C007001F0018001FC007E0
:104BC000F0013800080000000000000000000000B4
:104BD0000000E003F80F180C0C180C180018000C5B
:104BE000000600038001C000C000C00000000000FB
:104BF000C000C00000000000000000000000000035
:104C000000000000E00718180420C229224A1144BD
:104C100009440944094409221113E20C024004200A
:104C20001818E0070000000000000000000000006D
:104C3000000080038003C006C006C006600C600C44
:104C4000301830183018F83FF83F1C700C600C60BA
:104C500006C006C0000000000000000000000000C8
:104C60000000FC03FC0F0C0C0C180C180C180C0C9E
:104C7000FC07FC0F0C180C300C300C300C300C18EE
:104C8000FC1FFC0700000000000000000000000006
:104C90000000C007F01F38381C300C70066006009A
:104CA0000600060006000600060006600C701C30B8
:104CB000F01FE007000000000000000000000000FE
:104CC0000000FE03FE0F060E06180618063006301A
:104CD0000630063006300630063006180618060E76
:104CE000FE0FFE03000000000000000000000000B6
:104CF0000000FC3FFC3F0C000C000C000C000C0002
:104D0000FC1FFC1F0C000C000C000C000C000C0025
:104D1000FC3FFC3F0000000000000000000000001D
:104D20000000F83FF83F180018001800180018009D
:104D3000F81FF81F180018001800180018001800B5
:104D40001800180000000000000000000000000033
:104D50000000E00FF83F3C780E6006E007C003005B
:104D6000030003FE03FE03C007C006C00EC03CF0F4
:104D7000F83FE00F0000000000000000000000000D
:104D800000000C300C300C300C300C300C300C307F
:104D9000FC3FFC3F0C300C300C300C300C300C3035
:104DA0000C300C300000000000000000000000008B
:104DB000000080018001800180018001800180016C
:104DC00080018001800180018001800180018001DB
:104DD00080018001000000000000000000000000D1
:104DE0000000000600060006000600060006000699
:104DF000000600060006000600061806180638071A
:104E0000F003E001000000000000000000000000CE
:104E1000000006300618060C060606038601C600CA
:104E200066007600DE008E0106030606060C0618F4
:104E300006300660000000000000000000000000D6
:104E400000001800180018001800180018001800BA
:104E50001800180018001800180018001800180092
:104E6000F81FF81F00000000000000000000000014
:104E700000000EE01EF01EF01EF036D836D836D8F0
:104E800036D866CC66CC66CCC6C6C6C6C6C6C6C64E
:104E900086C386C300000000000000000000000080
:104EA00000000C301C303C303C306C306C30CC306E
:104EB000CC308C310C330C330C360C360C3C0C3CA7
:104EC0000C380C3000000000000000000000000062
:104ED0000000E007F81F1C380E70066003C003C016
:104EE00003C003C003C003C003C006600E701C38BB
:104EF000F81FE007000000000000000000000000B4
:104F00000000FC0FFC1F0C380C300C300C300C3047
:104F10000C18FC1FFC070C000C000C000C000C0013
:104F20000C000C0000000000000000000000000069
:104F30000000E007F81F1C380E70066003E003C095
:104F400003C003C003C003C007E006630E3F1C3C60
:104F5000F83FE0F700C00000000000000000000083
:104F60000000FE0FFE1F06380630063006300638F9
:104F7000FE1FFE0706030606060C06180618063076
:104F80000630066000000000000000000000000085
:104F90000000E003F80F1C0C0C180C180C001C008F
:104FA000F803E00F001E0038063006300E301C1CDF
:104FB000F80FE00700000000000000000000000003
:104FC0000000FE7FFE7F8001800180018001800162
:104FD00080018001800180018001800180018001C9
:104FE00080018001000000000000000000000000BF
:104FF00000000C300C300C300C300C300C300C300D
:105000000C300C300C300C300C300C300C301818CC
:10501000F81FE00700000000000000000000000092
:10502000000003600630063006300C180C180C180F
:10503000180C180C380E3006300670076003600339
:10504000C001C001000000000000000000000000DE
:1050500000000360C361C361C361663366336633B6
:105060006633663366336C1B6C1B6C1B2C1A3C1E40
:10507000380E380E000000000000000000000000A4
:1050800000000FE00C7018303018700C600EC00774
:1050900080038003C003E006700C301C18180C302D
:1050A0000E6007E0000000000000000000000000AB
:1050B000000003C006600C301C383818300C600645
:1050C000E007C00380018001800180018001800130
:1050D00080018001000000000000000000000000CE
:1050E0000000FC7FFC7F006000300018000C000610
:1050F00000038001C0006000300018000C000600B2
:10510000FE7FFE7F000000000000000000000000A5
:105110000000E003E00360006000600060006000E9
:10512000600060006000600060006000600060007F
:1051300060006000600060006000E003E0030000C9
:10514000000030003000600060006000C000C0005F
:10515000C000C00180018001800100030003000342
:105160000006000600000000000000000000000033
:105170000000E003E003000300030003000300035A
:105180000003000300030003000300030003000307
:1051900000030003000300030003E003E00300003A
:1051A00000000000C001C00160036003600330061E
:1051B0003006180C180C0000000000000000000071
:1051C00000000000000000000000000000000000DF
:1051D00000000000000000000000000000000000CF
:1051E00000000000000000000000000000000000BF
:1051F0000000FFFFFFFF00000000000000000000B3
:1052000000000C000C000C000C000C000C00000056
:10521000000000000000000000000000000000008E
:10522000000000000000000000000000000000007E
:10523000000000000000000000000000F003F8077C
:105240001C0C0C0C000FF00FF80C0C0C0C0C1C0FB1
:10525000F80FF0180000000000000000000000003F
:10526000000018001800180018001800D803F80FE4
:10527000380C181818181818181818181818380C86
:10528000F80FD8030000000000000000000000003C
:10529000000000000000000000000000C003F00754
:1052A000300E180C1800180018001800180C300EDA
:1052B000F007C00300000000000000000000000034
:1052C000000000180018001800180018C01BF01F7C
:1052D000301C181818181818181818181818301C16
:1052E000F01FC01B000000000000000000000000D4
:1052F000000000000000000000000000C003F00FEC
:10530000300C1818F81FF81F180018003818301C37
:10531000F00FC007000000000000000000000000C7
:105320000000800FC00FC000C000C000F007F007F1
:10533000C000C000C000C000C000C000C000C0006D
:10534000C000C000000000000000000000000000DD
:10535000000000000000000000000000E00DF80F59
:10536000180E0C0C0C0C0C0C0C0C0C0C0C0C180E61
:10537000F80FE00D000C0C0C1C06F807F001000003
:10538000000018001800180018001800D807F80FBF
:10539000381C181818181818181818181818181869
:1053A000181818180000000000000000000000009D
:1053B0000000C000C000000000000000C000C000ED
:1053C000C000C000C000C000C000C000C000C000DD
:1053D000C000C0000000000000000000000000004D
:1053E0000000C000C000000000000000C000C000BD
:1053F000C000C000C000C000C000C000C000C000AD
:10540000C000C000C000C000C000F800780000006C
:1054100000000C000C000C000C000C000C0C0C0626
:105420000C038C01CC006C00FC009C018C030C0371
:105430000C060C0C00000000000000000000000042
:105440000000C000C000C000C000C000C000C0001C
:10545000C000C000C000C000C000C000C000C0004C
:10546000C000C000000000000000000000000000BC
:105470000000000000000000000000007C3CFF7EF7
:10548000C7E383C183C183C183C183C183C183C196
:1054900083C183C100000000000000000000000084
:1054A0000000000000000000000000009807F80F56
:1054B000381C181818181818181818181818181848
:1054C000181818180000000000000000000000007C
:1054D000000000000000000000000000C003F00F0A
:1054E000300C181818181818181818181818300C24
:1054F000F00FC003000000000000000000000000EA
:10550000000000000000000000000000D803F80FB9
:10551000380C181818181818181818181818380CE3
:10552000F80FD80318001800180018001800000021
:10553000000000000000000000000000C01BF01F81
:10554000301C181818181818181818181818301CA3
:10555000F01FC01B001800180018001800180000E9
:10556000000000000000000000000000B007F00391
:10557000700030003000300030003000300030006B
:1055800030003000000000000000000000000000BB
:10559000000000000000000000000000E003F00335
:1055A000380E180C3800F003C007000C180C380E29
:1055B000F007E00300000000000000000000000011
:1055C000000000008000C000C000C000F007F0072D
:1055D000C000C000C000C000C000C000C000C000CB
:1055E000C00780070000000000000000000000006D
:1055F000000000000000000000000000181818184B
:105600001818181818181818181818181818381CF6
:10561000F01FE01900000000000000000000000082
:105620000000000000000000000000000C18180C32
:10563000180C180C30063006300660036003600357
:10564000C001C001000000000000000000000000D8
:10565000000000000000000000000000C141C14146
:10566000C3616363636363633636363636361C1C48
:105670001C1C1C1C000000000000000000000000BA
:105680000000000000000000000000001C38381C72
:10569000300C600660036003600360036006300C3A
:1056A000381C1C3800000000000000000000000052
:1056B000000000000000000000000000183030185A
:1056C00030187018600C600CE00CC006C006800337
:1056D0008003800380018001C001F00070000000A1
:1056E000000000000000000000000000FC1FFC1F84
:1056F000000C000600038001C000600030001800AC
:10570000FC1FFC1F00000000000000000000000063
:10571000000000038001C000C000C000C000C00045
:10572000C00060006000300060004000C000C000A9
:10573000C000C000C000C0008001000300000000E5
:1057400000008001800180018001800180018001D2
:105750008001800180018001800180018001800141
:1057600080018001800180018001800180010000B2
:1057700000006000C000C001800180018001800144
:105780008001000300030006000300018001800186
:105790008001800180018001C000600000000000E5
:1057A00000000000000000000000000000000000F9
:1057B000F010F81F080F00000000000000000000BB
:1057C00000000000000000000000000000000000D9
:1057D00000000000000000000000000000000000C9
:1057E000000000183C3C3C1818001818000000008D
:1057F0000000006666660000000000000000000077
:1058000000000036367F3636367F36360000000020
:105810000018183C666030180C06663C181800002A
:10582000000070D8DA760C18306E5B1B0E0000009A
:10583000000000386C6C38606F66663B000000004A
:105840000000001818180000000000000000000010
:105850000000000C1818303030303018180C0000E0
:105860000000003018180C0C0C0C0C18183000003C
:105870000000000000361C7F1C3600000000000005
:10588000000000000018187E18180000000000003A
:10589000000000000000000000001C1C0C180000AC
:1058A000000000000000007E00000000000000007A
:1058B000000000000000000000001C1C00000000B0
:1058C00000000006060C0C18183030606000000064
:1058D0000000001E333737333B3B331E000000000F
:1058E0000000000C1C7C0C0C0C0C0C0C00000000CC
:1058F0000000003C6666060C1830607E0000000068
:105900000000003C6666061C0666663C000000005F
:105910000000003030363636667F06060000000094
:105920000000007E6060607C06060C7800000000CD
:105930000000001C18307C666666663C00000000B3
:105940000000007E060C0C181830303000000000FB
:105950000000003C6666763C6E66663C0000000017
:105960000000003C666666663E0C183800000000C9
:1059700000000000001C1C0000001C1C00000000B7
:1059800000000000001C1C0000001C1C0C18000083
:10599000000000060C18306030180C0600000000F3
:1059A0000000000000007E007E00000000000000FB
:1059B0000000006030180C060C1830600000000079
:1059C0000000003C66660C18180018180000000063
:1059D0000000007EC3C3CFDBDBCFC07F0000000030
:1059E000000000183C6666667E6666660000000081
:1059F0000000007C6666667C6666667C00000000CF
:105A00000000003C666660606066663C0000000066
:105A1000000000786C66666666666C7800000000C0
:105A20000000007E6060607C6060607E00000000BE
:105A30000000007E6060607C6060606000000000CC
:105A40000000003C666660606E66663E0000000016
:105A5000000000666666667E666666660000000098
:105A60000000003C181818181818183C0000000016
:105A700000000006060606060666663C00000000FA
:105A800000000066666C6C786C6C66660000000056
:105A900000000060606060606060607E0000000088
:105AA0000000006363776B6B6B636363000000004F
:105AB0000000006363737B6F676363630000000033
:105AC0000000003C666666666666663C0000000094
:105AD0000000007C6666667C60606060000000001C
